:100000000C94C3000C94EB000C94EB000C94EB00EC
:100010000C94EB000C94EB000C94EB000C94EB00B4
:100020000C94EB000C94EB000C94CE050C943D0664
:100030000C94EB000C94EB000C94EB000C94EB0094
:100040000C94EB000C94EB000C94EB000C94EB0084
:100050000C94EB000C94EB000C94EB000C948405D6
:100060000C94EB000C94EB000C94EB000C94EB0064
:100070000C94EB000C94EB000C94EB000C94EB0054
:100080000C94EB000C94EB000C94EB000C94EB0044
:100090000C946F080C94EB000C94EB000C94EB00A8
:1000A0000C94EB000C94EB000C94EB00080B00029A
:1000B0000202010009040000010202000005240000
:1000C0001001052401010104240206052406000193
:1000D0000705810310004009040100020A00000026
:1000E00007050202400000070583024000000403E8
:1000F000090412010002EF0201400912534D0001F0
:1001000001020301486179726954656368004D61B9
:10011000675363726F6C6C000000000025002800BC
:100120002B002E0031000404040404030405020221
:100130000202040302020202060606060606040480
:100140000202020404040802011040804010204012
:1001500080408008020401804020100201108010BD
:10016000204040200000000200090F0000030401AD
:10017000000C000000000000000000000000000073
:10018000000000008E0911241FBECFEFDAE0DEBFB1
:10019000CDBF13E0A0E0B1E0E8E5FDE102C00590CD
:1001A0000D92AC3AB107D9F724E0ACEAB3E001C054
:1001B0001D92AF3DB207E1F710E0C3ECD0E004C000
:1001C0002197FE010E94A40EC23CD107C9F70E94EC
:1001D000AF090C94AA0E0C940000982F2091820471
:1001E00081E0213208F043C080915E048111FCCF90
:1001F0008091810432E030935E0490935D049FEF20
:1002000090935C0410925B0420935A04A1E6B4E03E
:10021000EAE3F4E090E0291331C0109239049091A0
:100220003904880F892B80933904809138048130F8
:1002300049F510923804809139048093BB00809175
:10024000BC0083FDF8CF85EC8093BC0080915E04F8
:100250008230E1F380915C048F3FB1F080915C04C7
:100260008032A1F080915C04803391F084E01092A0
:1002700060041092820410925F0408953D913193BE
:100280009F5FC9CF85EEE0CF80E0F1CF82E0EFCF76
:1002900083E0EDCF282F30E0F901EC59FE4F949127
:1002A000F901EB5BFE4F84912A5D3E4FF9012491E9
:1002B000222309F42DC09923E9F091509F30D0F406
:1002C000E92FF0E0EA59FE4F0C94A40E910195013C
:1002D000750189018D017A017A017A0198019E01E7
:1002E000A201A601AC017A01B001909180009F7734
:1002F00090938000E22FF0E0EE0FFF1FE85EFE4FCC
:10030000A591B4919FB7F894EC918E2B8C939FBFDD
:100310000895909180009F7DEBCF90918000977F12
:10032000E7CF94B59F7794BDE5CF94B59F7DFBCF84
:10033000909190009F7790939000DCCF90919000E7
:100340009F7DF9CF90919000977FF5CF9091C0005D
:100350009F779093C000CECF9091C0009F7DF9CF42
:100360009091C200977F9093C200C4CFFC0180910E
:100370001504882311F13FB7F89482E08093E900D7
:100380002091F200822F90E01816190614F481E0F3
:1003900090E0882339F0289844E640931404409173
:1003A000F1004083222339F02091F200211103C093
:1003B0002BE62093E8003FBF08958FEF9FEF08954D
:1003C0002FB7F89483E08093E9009091E800892F9B
:1003D000807295FF04C09091F20080E4891B2FBFCA
:1003E000089580910C0481110DC082E0809308046F
:1003F00084E08093090410920B0410920A0481E0B7
:1004000080930C0488E094E008953FB7F8948091BD
:10041000040490910504A0910604B091070426B548
:10042000A89B05C02F3F19F00196A11DB11D3FBF2C
:10043000BA2FA92F982F8827BC01CD01620F711DFB
:10044000811D911D42E0660F771F881F991F4A95F5
:10045000D1F70895CF92DF92EF92FF920E940502AA
:100460006B017C010E9405026C197D098E099F09B0
:10047000683E734081059105A8F3FF90EF90DF90EF
:10048000CF9008958091160490911704891B990BC1
:100490000895089508954091F1035091F203209139
:1004A000EF033091F00342175307B4F49091E80042
:1004B0009570E1F39091E80092FD19C08093F100EE
:1004C0008091F1039091F20301968F739927892B04
:1004D00019F48EEF8093E8008091F1039091F2037C
:1004E00001969093F2038093F10381E0089580E0F8
:1004F0000895EF92FF920F931F93CF93DF93F82EFF
:10050000192FE62E042F81E0860F880F0E944B02E0
:1005100083E00E944B02CF2DD12FEC0EFD2EF11C5B
:10052000CE15DF05B9F007FF13C0FE0184910E94CC
:100530004B02182F80E00E944B02812321968111EB
:10054000EFCFDF91CF911F910F91FF90EF90089522
:100550008881EDCF81E0F5CFDF92EF92FF920F938C
:100560001F93CF93DF93D82E8A01EB017B01E40E1A
:10057000F51ECE15DF0559F0D7FE12C0FE0184919D
:100580000E944B0221968111F4CF0FEF1FEFC8019B
:10059000DF91CF911F910F91FF90EF90DF90089521
:1005A0008881EECF0F931F93CF93DF931F92CDB728
:1005B000DEB782E0898342E450E06CEA70E080E8D4
:1005C0000E94AC020E94F101DC0112960D911C9177
:1005D0000115110589F0D801ED91FC910280F3819C
:1005E000E02DBE016F5F7F4FC801099597FD04C0E4
:1005F000F80100851185ECCF89810F90DF91CF91B3
:100600001F910F910895615030F02091F100FC018D
:1006100020830196F8CF289884E6809314040895E7
:100620008F929F92AF92BF92CF92DF92EF92FF9202
:100630000F931F93CF93DF936C017B018A0180910D
:100640000B01882309F458C080911504882309F40C
:1006500053C08091F50380FF05C08091E000826067
:100660008093E000E801B12C8AEFA82E93E0892E58
:100670002AE3922E209711F4BB20B9F10E94E001E9
:10068000811106C0AA94AA20B9F10E942A02F2CFD1
:100690008C171D0611F00CF08C2F9FB7F8948092E8
:1006A000E9002091E80025FD02C09FBFE3CF282F7D
:1006B00030E0C21BD30BF701815020F041914093F1
:1006C000F100FACFE20EF31EBB2021F09092E80079
:1006D000B12CEBCF8091E80085FDE7CF9092E80048
:1006E000BB24B394209709F3F3CF5D9884E68093FD
:1006F000F403101611063CF081E090E0F6019383BC
:10070000828310E000E0C801DF91CF911F910F912B
:10071000FF90EF90DF90CF90BF90AF909F908F9021
:100720000895CF93DF931F92CDB7DEB76983DC01C5
:10073000ED91FC910280F381E02D41E050E0BE019B
:100740006F5F7F4F09950F90DF91CF91089583E000
:100750008093E9008091F200882319F08AE3809366
:10076000E80008950E94E00190E00895CF93DF93A0
:100770001F92CDB7DEB7FC018485958597FD08C033
:100780002FEF3FEF358724870F90DF91CF910895AA
:10079000CE0101960E94B601019719F4898190E07B
:1007A000F3CF8FEF9FEFF0CF0F931F93CF93DF9394
:1007B0001F92CDB7DEB78C01FC018485958597FF2C
:1007C0000BC0CE0101960E94B601019771F4898198
:1007D00090E0F80195878487F801848595850F90CE
:1007E000DF91CF911F910F9108958FEF9FEFF1CF80
:1007F000FC018485958597FD0BC09FB7F89482E036
:100800008093E9008091F2009FBF90E001960895E7
:100810009FB7F89482E08093E9008091F2009FBF37
:1008200090E0089585ED8093BC008091BC0084FD2C
:10083000FCCF10925E0408952091CC03260F33273D
:10084000331F21323105ECF420915E04FC0190E06D
:1008500080E0243069F082E00895A091CC032191DA
:10086000AC0144555C4FA40FB52FB11D2C930196DC
:10087000861798F38091CC03680F6093CC0380E0D7
:10088000089581E008950895E09117048091160479
:10089000E81730F4F0E0E85EFB4F808190E00895C7
:1008A0008FEF9FEF089590911704809116042FEF1A
:1008B0003FEF981748F4E92FF0E0E85EFB4F208106
:1008C00030E09F5F90931704C9010895CF92DF92A3
:1008D000EF92FF920F931F93CF93DF937C01CB0195
:1008E0008A0120915F04222389F0EB016B01C40E81
:1008F000D51ECC15DD0569F06991D701ED91FC910C
:100900000190F081E02DC7010995F3CF642F0E947B
:100910001C04C801DF91CF911F910F91FF90EF90C0
:10092000DF90CF900895CF93DF931F92CDB7DEB7BE
:10093000698320915F042223F9F020918204203200
:1009400058F021E030E0FC013383228390E080E026
:100950000F90DF91CF91089580916004E82FF0E02F
:10096000EF59FB4F998190838F5F80936004809350
:10097000820481E090E0ECCF61E0CE0101960E941C
:100980001C04F7CF682F83ED94E00C94930490E05F
:1009900080E00895FC0101900020E9F73197AF0154
:1009A000481B590BBC0183E894E00C9410038F9210
:1009B0009F92AF92BF920F931F93CF93DF93CDB7C8
:1009C000DEB7A1970FB6F894DEBF0FBECDBF19A258
:1009D000423008F44AE08E010F5D1F4F842E912CA7
:1009E000B12CA12CA50194010E94820EE62FB90121
:1009F000CA01EA30F4F4E05DD801EE938D01232BB7
:100A0000242B252B79F790E080E0109719F0CD0189
:100A10000E94CA04A1960FB6F894DEBF0FBECDBFE8
:100A2000DF91CF911F910F91BF90AF909F908F90CA
:100A30000895E95CE1CF0C94CA04CF93DF930E9440
:100A4000CA04EC0187E391E00E94CA048C0F9D1F49
:100A5000DF91CF910895CF93DF93682F70E090E0FE
:100A600080E04AE00E94D704EC0187E391E00E9415
:100A7000CA048C0F9D1FDF91CF91089590915E0461
:100A80009111FCCF282F91E090935E0490935D0428
:100A90003FEF30935C0410925B04380F30935A049C
:100AA00090933904909139049C6690933904909105
:100AB0003804913019F510923804909139049093CC
:100AC000BB009091BC0093FDF8CF95EC9093BC00D7
:100AD00090915E049130E1F390915B04981710F4CB
:100AE00020915B04AAE3B4E0E8E1F4E080E0821343
:100AF00007C01092170480931604089595EEE6CF70
:100B00009D9191938F5FF3CF1F920F920FB60F922B
:100B100011242F933F938F939F93AF93BF93809113
:100B2000000490910104A0910204B091030430915B
:100B3000FF0323E0230F2D3758F50196A11DB11DAA
:100B40002093FF038093000490930104A093020478
:100B5000B09303048091040490910504A0910604CD
:100B6000B09107040196A11DB11D809304049093D8
:100B70000504A0930604B0930704BF91AF919F9121
:100B80008F913F912F910F900FBE0F901F9018954E
:100B900026E8230F0296A11DB11DD2CF1F920F92FE
:100BA0000FB60F9211248F939F938091E100909143
:100BB000E100937F9093E10083FF0FC01092E90062
:100BC00091E09093EB001092EC0092E39093ED0093
:100BD0001092150498E09093F00082FF22C093E0F9
:100BE0009093E9009091F200992319F09AE3909381
:100BF000E8009091F403992341F09091F40391500F
:100C00009093F403911101C05D9A9091140499237B
:100C100041F090911404915090931404911101C0EB
:100C2000289A84FF18C08091E2008E7E81608093B4
:100C3000E2008091E1008F7E8093E1008091F503D6
:100C40008E7E80618093F5039F918F910F900FBEF0
:100C50000F901F90189580FFF7CF8091E2008E7E55
:100C600080618093E2008091E1008E7E8093E100BC
:100C70008091F5038E7E8160E5CF1F920F920FB6B3
:100C80000F921124CF92DF92EF92FF920F931F9356
:100C90002F933F934F935F936F937F938F939F9384
:100CA000AF93BF93EF93FF93CF93DF93CDB7DEB7AF
:100CB0006C97DEBFCDBF1092E9008091E80083FF02
:100CC00025C068E0CE0145960E94030382EF809321
:100CD000E8008D8987FF39C09091E80090FFFCCF34
:100CE000982F907609F034C19E894F89588D2F89AD
:100CF000F88C911131C0803861F58091F6038093B2
:100D0000F1001092F1008EEF8093E8006C960FB620
:100D1000F894DEBF0FBECDBFDF91CF91FF91EF9171
:100D2000BF91AF919F918F917F916F915F914F9103
:100D30003F912F911F910F91FF90EF90DF90CF90F7
:100D40000F900FBE0F901F9018959EEF9093E800A4
:100D5000C7CF1092F100D5CF913059F48111D3CF84
:100D60004130510581F68091F6038D7F8093F60323
:100D7000CACF933049F48111C6CF4130510519F6DD
:100D80008091F6038260F2CF953041F48091E800C3
:100D900080FFFCCF20682093E300B5CF963009F0A8
:100DA000A9C00B8D1C8D22E01092E9001092F20375
:100DB0001092F103F2122EC01092F0031092EF0382
:100DC0000E94D2021F8299E09983FA8291E09E8369
:100DD00090EA98879AEF99872091F1033091F20376
:100DE000275F3F4F3C832B838D831092E900109245
:100DF000F2031092F1031093F0030093EF0349E024
:100E000050E0BE016F5F7F4F80E00E94AC020E9405
:100E1000D20279CF1093F0030093EF030E94F10107
:100E2000DC0112960D911C910115110509F451C1B7
:100E3000D801ED91FC910480F581E02DBE016B5E3F
:100E40007F4FC8010995009709F03EC1F801008560
:100E50001185EACFF3E0FF120EC08F89882309F4D1
:100E600040C0823061F440E869E08EE091E00E9489
:100E70007902811148CF81E28093EB0047CF813026
:100E800029F440E869E084E091E0F1CF833099F7FC
:100E90000E94F101DC011296ED90FC908E010F5F33
:100EA0001F4F6801E114F10479F0D701ED91FC9135
:100EB0000680F781E02DB801C7010995080F111DC3
:100EC000F701E084F184EECFD8011C92F601019085
:100ED0000020E9F73197BF016C197D0940E0C60198
:100EE000C6CF6EEE70E0FB01449150E080E80E94B6
:100EF000AC0209CF973009F4BECF983021F481E0DD
:100F00008093F10000CF993009F0FDCE837009F095
:100F1000B2CFEDE0F1E081E031E096E321912223D0
:100F200071F08093E9003093EB00DF0111972C9171
:100F30002093EC009093ED008F5F873079F78EE778
:100F40008093EA001092EA008F8980931504DBCE2B
:100F50008B8D9C8D1092E9001092F2031092F10398
:100F60009093F0038093EF03898D811192C08E8955
:100F70009D89913A49F4813209F07DCF47E050E0F4
:100F800064E071E080E0B3CF913209F074CF833236
:100F900069F48F89988DB0E0A0E080930001909370
:100FA0000101A0930201B0930301ADCE803269F438
:100FB0008091E80082FFFCCF67E084E091E00E942E
:100FC00003038BEF8093E8009ECE823209F09BCE24
:100FD0008F8980930B01EEEFFFE7859194918B3F12
:100FE0009C4D51F1E0E0F8E0809104019091050101
:100FF000A0910601B0910701803B9440A105B10585
:10100000F1F480910B0180FD1AC0EE3F8AE0F807F1
:1010100089F587E797E791838083809160008093CB
:10102000F30388E19BE00FB6F894A89580936000E5
:101030000FBE9093600067CEEEEFFAE0D5CF8081CF
:1010400091818737974709F05ECEA895809160001F
:101050008861809360008091F30380936000EE3F8D
:101060002AE0F20789F08091FE0A9091FF0A9183AD
:10107000808349CE808191818737980751F2909380
:10108000FF0A8093FE0AC5CF1092FF0A1092FE0A53
:101090003ACE0E94F101DC0112960D911C910115CE
:1010A000110509F4E8CED801ED91FC910190F08191
:1010B000E02DBE016B5E7F4FC8010995811123CEE3
:1010C000F80100851185EBCF181619060CF41BCE1C
:1010D000D2CEF1E0FF12BECE62EF70E004CF1F92DD
:1010E0000F920FB60F9211242F933F934F935F935C
:1010F0006F937F938F939F93AF93BF93EF93FF93E0
:101100008091B900887F803609F44AC0F0F58832B2
:1011100009F4A7C018F5803109F49BC0B8F48823FE
:1011200009F4F9C0883009F494C0FF91EF91BF91A0
:10113000AF919F918F917F916F915F914F913F916F
:101140002F910F900FBE0F901F901895883109F4C2
:1011500088C0803251F780935C0414C0803409F455
:101160009DC040F48033B9F38833F9F680935C0472
:1011700085ECB0C0803509F485C0883509F496C087
:10118000883499F60E941204D0CF883909F48CC0B3
:1011900038F5883729F050F4883611F0803729F671
:1011A00083E080935E041092EE0357C0883809F400
:1011B0007BC0803919F0803809F0B7CF8091EE03F9
:1011C000803208F071C0E091EE0381E08E0F8093D1
:1011D000EE038091BB00F0E0E253FC4F80833DC002
:1011E000803B39F0E0F4803A09F479C0883A09F09C
:1011F0009CCF84E080935E041092CD031092CC03C8
:10120000E091F903F091FA0309958091CC038111E3
:101210000FC081E08093CC031092AC0309C0803CE6
:1012200009F4A6CF883C09F4A3CF883B09F07DCF11
:10123000E091CD0381E08E0F8093CD03F0E0E45583
:10124000FC4F80818093BB009091CD038091CC03B3
:1012500029C0809139048093BB0085EC8093BC0049
:1012600064CF90915B0480915A04981758F5E091EF
:101270005B0481E08E0F80935B04F0E0E65CFB4F43
:101280008081E9CFE0915B0481E08E0F80935B0465
:101290008091BB00F0E0E65CFB4F808390915B04A3
:1012A00080915A049817C8F285E8D8CFE0915B0482
:1012B00081E08E0F80935B048091BB00F0E0E65CE0
:1012C000FB4F808380915D0481115CCF81E080932E
:1012D000380484EA8093BC0010925E0426CF85EC2B
:1012E0008093BC0010925E048091EE03803230F453
:1012F000E091EE03F0E0E253FC4F10826091EE03C8
:1013000070E0E091F703F091F8038EEC93E009951B
:101310001092EE030ACF10925C0434CFE3E8F4E0BD
:101320001382128288EE93E0A0E0B0E0848395837C
:10133000A683B78327E131E0318320832FEF3FEF8E
:1013400035872487E3EDF4E013821282848395834A
:10135000A683B78389E291E091838083089578948E
:1013600084B5826084BD84B5816084BD85B58260AA
:1013700085BD85B5816085BD80916E00816080935B
:101380006E001092810080918100826080938100C4
:1013900080918100816080938100809180008160D4
:1013A0008093800080919100826080939100809171
:1013B0009100816080939100809190008160809382
:1013C00090008091C10084608093C1008091C10031
:1013D00082608093C1008091C10081608093C100D0
:1013E0008091C30081608093C3008091C0008260BF
:1013F0008093C0008091C20081608093C200809180
:101400007A00846080937A0080917A008260809371
:101410007A0080917A00816080937A0080917A00CE
:10142000806880937A00109215041092F60310924F
:10143000F5038091D70081608093D70080EA809384
:10144000D80089B5806189BD89B5826089BD09B43C
:1014500000FEFDCF0E942A028091D8008F7C80611F
:101460008093D8008091E000807F8093E00080919D
:10147000E1008E7E8093E1008DE08093E200559A3A
:10148000209A8FEF9FEF9093900480938F048AE3CC
:1014900091E00E941D058CE691E00E941D051092CE
:1014A0001704109216041092600410928204109295
:1014B0005E04C1E0C0935D041092380482E00E9493
:1014C0004A0183E00E944A018091B9008E7F809397
:1014D000B9008091B9008D7F8093B90088E4809332
:1014E000B80085E48093BC0089E492E09093FA030D
:1014F0008093F9038AE492E09093F8038093F703D2
:10150000C0935F0486E3809381041092600410927C
:10151000820481E00E94ED008111B5C18EE991E065
:101520000E941D0587EB91E00E941D05C0935F049A
:10153000109260041092820487E090E00E94C2043E
:1015400080E00E94ED0082E090E00E943E058091E4
:10155000160490911704891B990B02970CF45EC036
:1015600083ED94E00E945304EC0183ED94E00E942B
:1015700053047C0185ED91E00E941B05CE2CDC2EEE
:10158000B60190E080E040E10E94D70487E391E05B
:101590000E94CA0489EE91E00E941B05CE0125E05D
:1015A000959587952A95E1F783700E942B0586EF24
:1015B00091E00E941B05CE0133E0959587953A9501
:1015C000E1F783700E942B0583E092E00E941B05E7
:1015D000CE019595879583700E942B0582E192E05C
:1015E0000E941B058E2D82958695869583700E949C
:1015F0002B058DE192E00E941B05C70153E09595F4
:1016000087955A95E1F783700E942B058BE292E053
:101610000E941B058E2D87700E942B0589E392E0A6
:101620000E941D058CE592E00E941D058CE792E06A
:101630000E941D059924939496E3292E2FB7F894C0
:101640008091000490910104A0910204B0910304E0
:101650002FBF4091FB035091FC036091FD037091FB
:10166000FE036C017D01C41AD50AE60AF70AB70128
:10167000A601443F51406105710508F4FAC080930A
:10168000FB039093FC03A093FD03B093FE039092A1
:101690005F042092810410926004109282048BE017
:1016A00090E00E94C20480E00E94ED0081E090E0A2
:1016B0000E943E058091160490911704891B990B96
:1016C000312C181619062CF483ED94E00E94530473
:1016D000382E90925F0410926004109282048AE186
:1016E00090E00E94C20480E00E94ED0081E090E062
:1016F0000E943E058091160490911704891B990B56
:10170000812C181619062CF483ED94E00E945304E2
:10171000882E90925F0410926004109282048BE1F4
:1017200090E00E94C20480E00E94ED0082E090E020
:101730000E943E058091160490911704891B990B15
:10174000D0E0C0E002976CF083ED94E00E94530477
:10175000C82F83ED94E00E945304BC2EA12CE50118
:10176000C82B90925F0410926004109282048CE067
:1017700090E00E94C20480E00E94ED0082E090E0D0
:101780000E943E058091160490911704891B990BC5
:10179000512C412C02976CF083ED94E00E9453048D
:1017A000F82E83ED94E00E9453041F2D00E02801E1
:1017B000482A712C612CC301B2010E94590D20E00E
:1017C00030E044EB53E40E94100E20E030E040E8AB
:1017D00059E30E94100E6B017C0187E093E035FE17
:1017E0000AC088EE92E034FC06C083EF92E033FC3E
:1017F00002C08DEF92E00E941B0582E193E00E94FF
:101800001B05682D70E090E080E04AE00E94D7045C
:1018100082E193E00E941B05BE0190E080E04AE077
:101820000E94D70481E193E00E941B054AE0C301B6
:10183000B2010E94D70482E193E00E941B05A70138
:101840009601C701B6010E947D0E882309F184E14B
:1018500093E00E94CA0480E293E00E941D05CE013D
:1018600001978336910508F073C083E293E00E94EC
:101870001D0580E0C82E80E0D82ECD2809F4DECEEC
:101880000E940000DBCE81EB92E00E941D05FFCF9D
:101890002FEF3FEF4FE75FE7C701B6010E947D0ED4
:1018A00081110DC02FEF3FEF4FE75FE7C701B60192
:1018B0000E94250D18161CF488E193E0CACF2FEF83
:1018C0003FEF4FE75FE4C701B6010E940B0E181609
:1018D0001CF48CE193E0BDCF2FEF3FEF4FE75FECBF
:1018E000C701B6010E94250D87FDF3CF2DEC3CEC1E
:1018F0004CE45DE3C701B6010E94B90C2B013C0129
:101900000E942A0D6B017C010E94590D9B01AC01C4
:10191000C301B2010E94B80C2B013C014AE0C7018F
:10192000B6010E94D7046EE283E894E00E9491031E
:1019300020E030E040E251E4C301B2010E94100E09
:101940000E942A0D90E080E04AE00E94D70483CFF5
:10195000CE01845691098039914018F48FE493E0C8
:1019600086CFC43FD14008F484CF83E893E07FCF93
:101970005058BB27AA270E94D00C0C94D10D0E946E
:10198000C30D38F00E94CA0D20F039F49F3F19F4BE
:1019900026F40C94C00D0EF4E095E7FB0C94BA0D00
:1019A000E92F0E94E20D58F3BA1762077307840704
:1019B000950720F079F4A6F50C94040E0EF4E0954A
:1019C0000B2EBA2FA02D0B01B90190010C01CA01F9
:1019D000A0011124FF27591B99F0593F50F4503EA4
:1019E00068F11A16F040A22F232F342F4427585F96
:1019F000F3CF469537952795A795F0405395C9F7AE
:101A00007EF41F16BA0B620B730B840BBAF0915065
:101A1000A1F0FF0FBB1F661F771F881FC2F70EC004
:101A2000BA0F621F731F841F48F4879577956795D7
:101A3000B795F7959E3F08F0B0CF9395880F08F0C3
:101A40009927EE0F9795879508950E94960D08F4B3
:101A500081E008950E94EA0D88F09F5798F0B92F11
:101A60009927B751B0F0E1F0660F771F881F991FD3
:101A70001AF0BA95C9F714C0B13091F00E94040E63
:101A8000B1E008950C94040E672F782F8827B85F73
:101A900039F0B93FCCF3869577956795B395D9F72B
:101AA0003EF490958095709561957F4F8F4F9F4F35
:101AB0000895E89409C097FB3EF490958095709541
:101AC00061957F4F8F4F9F4F9923A9F0F92F96E98A
:101AD000BB279395F695879577956795B795F111FF
:101AE000F8CFFAF4BB0F11F460FF1BC06F5F7F4F9C
:101AF0008F4F9F4F16C0882311F096E911C07723AE
:101B000021F09EE8872F762F05C0662371F096E8B6
:101B1000862F70E060E02AF09A95660F771F881F85
:101B2000DAF7880F9695879597F90895990F000829
:101B3000550FAA0BE0E8FEEF16161706E807F9079F
:101B4000C0F012161306E407F50798F0621B730B3A
:101B5000840B950B39F40A2661F0232B242B252BBB
:101B600021F408950A2609F4A140A6958FEF811D5E
:101B7000811D089597F99F6780E870E060E00895FF
:101B80009FEF80EC089500240A9416161706180695
:101B90000906089500240A94121613061406050671
:101BA0000895092E0394000C11F4882352F0BB0F02
:101BB00040F4BF2B11F460FF04C06F5F7F4F8F4F65
:101BC0009F4F089557FD9058440F551F59F05F3FA0
:101BD00071F04795880F97FB991F61F09F3F79F04F
:101BE00087950895121613061406551FF2CF4695D1
:101BF000F1DF08C0161617061806991FF1CF869553
:101C00007105610508940895E894BB276627772736
:101C1000CB0197F908950E94960D08F48FEF08956F
:101C20000E94230E0C94D10D0E94C30D38F00E9427
:101C3000CA0D20F0952311F00C94BA0D0C94C00D30
:101C400011240C94050E0E94E20D70F3959FC1F3D0
:101C5000950F50E0551F629FF001729FBB27F00D5A
:101C6000B11D639FAA27F00DB11DAA1F649F6627AF
:101C7000B00DA11D661F829F2227B00DA11D621FFE
:101C8000739FB00DA11D621F839FA00D611D221FB8
:101C9000749F3327A00D611D231F849F600D211D9C
:101CA000822F762F6A2F11249F5750409AF0F1F01F
:101CB00088234AF0EE0FFF1FBB1F661F771F881F88
:101CC00091505040A9F79E3F510580F00C94BA0DF9
:101CD0000C94050E5F3FE4F3983ED4F38695779518
:101CE0006795B795F795E7959F5FC1F7FE2B880F2E
:101CF000911D9695879597F908950E94960D880BEA
:101D0000990B0895A1E21A2EAA1BBB1BFD010DC061
:101D1000AA1FBB1FEE1FFF1FA217B307E407F5079B
:101D200020F0A21BB30BE40BF50B661F771F881F77
:101D3000991F1A9469F760957095809590959B010D
:101D4000AC01BD01CF010895EE0FFF1F0590F49186
:081D5000E02D0994F894FFCF87
:101D5800FFFFFFFF00E100000000000000C18081DC
:101D68000000000000000091031003B203A703F86D
:101D780003B603D4030000000093046604C70443B9
:101D8800044202530444040D0A00415335363030EE
:101D9800204D61676E6574696320456E636F646585
:101DA80072205465737420284E6F204D61676E65EC
:101DB8007420526571756972656429003D3D3D3D29
:101DC8003D3D3D3D3D3D3D3D3D3D3D3D3D3D3D3D3B
:101DD8003D3D3D3D3D3D3D3D3D3D3D3D3D3D3D3D2B
:101DE8003D3D3D3D3D3D3D3D3D3D3D3D3D0041533E
:101DF8003536303020666F756E64206F6E2049323C
:101E08004320627573210052656164696E672041E1
:101E1800533536303020436F6E666967757261746A
:101E2800696F6E3A00434F4E4649472052656769CD
:101E3800737465723A20307800506F776572204D60
:101E48006F64653A200048797374657265736973C5
:101E58003A20004F75747075742053746167653A41
:101E6800200050574D20467265713A2000536C6F20
:101E7800772046696C7465723A2000466173742055
:101E880046696C7465723A20000A52656164696E2D
:101E9800672041533536303020646961676E6F734F
:101EA80074696320646174612E2E2E00537461740A
:101EB80075730909414743094D61676E6974756413
:101EC800650952617709416E676C65002D2D2D2DCE
:101ED8002D2D2D2D2D2D2D2D2D2D2D2D2D2D2D2D2A
:101EE8002D2D2D2D2D2D2D2D2D2D2D2D2D2D2D2D1A
:101EF8002D2D2D2D2D2D2D2D2D2D2D2D2D2D2D2D0A
:101F0800004552524F523A20415335363030206EF8
:101F18006F7420666F756E642120436865636B205B
:101F2800776972696E6720616E6420493243206167
:101F38006464726573732E00544F4F205354524F8C
:101F48004E4700544F4F205745414B2000474F4FB5
:101F5800442020202020004E4F204D41474E45541C
:101F6800000909006E616E00696E66006F76660092
:101F7800C2B0003E3E3E2048494E543A2056657253
:101F880079207765616B206D61676E657469632080
:101F98006669656C64206465746563746564003E95
:101FA8003E3E2048494E543A205765616B206D618A
:101FB800676E65746963206669656C64202D2062AC
:101FC80072696E67206D61676E657420636C6F73EC
:101FD8006572003E3E3E2048494E543A20476F6F96
:101FE80064206D61676E65746963206669656C64F9
:0C1FF80020737472656E6774682100002D
:00000001FF
