:100000000C94DD000C9405010C9405010C94050181
:100010000C9405010C9405010C9405010C94050148
:100020000C9405010C9405010C941B0C0C948A0C87
:100030000C9405010C9405010C9405010C94050128
:100040000C9405010C9405010C9405010C94050118
:100050000C9405010C9405010C9405010C94D10B32
:100060000C9405010C9405010C9405010C940501F8
:100070000C9405010C9405010C9405010C940501E8
:100080000C9405010C9405010C9405010C940501D8
:100090000C94BC0E0C9405010C9405010C94050104
:1000A0000C9405010C9405010C940501080B000249
:1000B0000202010009040000010202000005240000
:1000C0001001052401010104240206052406000193
:1000D0000705810310004009040100020A00000026
:1000E00007050202400000070583024000000403E8
:1000F000090412010002EF0201400912534D0001F0
:1001000001020301486179726954656368004D61B9
:10011000675363726F6C6C0005010901A101050151
:10012000093815FF2501750895018106050C0A3867
:100130000215FF2501750895018106C00000000029
:10014000240027002A002D003000000000020009D2
:100150000F0000030401000C00000000000000007C
:1001600000000000000000000004080201104080B0
:10017000401020408040800802040180402010028E
:1001800001108010204040200000000025002800C1
:100190002B002E00310004040404040304050202B1
:1001A0000202040302020202060606060606040410
:1001B0000202020404000E10991911241FBECFEF91
:1001C000DAE0DEBFCDBF15E0A0E0B1E0E8E6FDE398
:1001D00002C005900D92AC31B107D9F726E0ACE131
:1001E000B5E001C01D92A13EB207E1F710E0CCEDF1
:1001F000D0E004C02197FE010E94821CCB3DD107B4
:10020000C9F70E9447110C94A71E0C9400008F920E
:100210009F92AF92BF92CF92DF92EF92FF92CF93D5
:100220002091C7063091C80682179307E8F54B0165
:10023000AA24BB24C82DC52ED62EE72EFF24BC2D04
:10024000A42F2091CD06222361F0829E400111242B
:10025000C92D2C9D60011124BD2D249FF001112476
:10026000AF2FE091D306E090CE06F090CF0630910C
:10027000D006E31323C09C01220F331F820F931F6C
:100280008E0D9F1DE091D006E80FF92FF11DC08360
:10029000E091D106E80FF92FF11DB0832091D2062D
:1002A000820F911DFC01A083CF91FF90EF90DF9012
:1002B000CF90BF90AF909F908F900895880F991F17
:1002C000880F991F8E0D9F1D472F5527662777276B
:1002D000222349F030E0249F7001259FF00C349FC9
:1002E000F00C11244F2DE80FF92FF11D4083CACFD8
:1002F00090913A069111FCCF91E090933A06909339
:1003000039062FEF2093380610923706260F2093D8
:1003100036069093350690913506880F892B809389
:100320003506809134068130F9F4109234068091BC
:1003300035068093BB008091BC0083FDF8CF85EC2F
:100340008093BC0080913A068130E1F380913706BA
:10035000861710F460913706A4E1B6E0E4EFF5E00B
:1003600080E0861303C0089585EEEACF9D919193B6
:100370008F5FF7CF982F2091F30581E0213208F0AD
:1003800043C080913A068111FCCF8091F20532E0A2
:1003900030933A06909339069FEF90933806109267
:1003A000370620933606A2EDB5E0E4E1F6E090E0F2
:1003B000291331C01092350690913506880F892B8C
:1003C0008093350680913406813049F510923406C9
:1003D000809135068093BB008091BC0083FDF8CFEF
:1003E00085EC8093BC0080913A068230E1F38091E5
:1003F00038068F3FB1F0809138068032A1F08091AD
:100400003806803391F084E01092D1051092F30504
:100410001092D00508953D9131939F5FC9CF85EE2D
:10042000E0CF80E0F1CF82E0EFCF83E0EDCF8091AD
:10043000CE059091CF05891B990B08951F93CF93FB
:10044000DF9311E0180F2091CD061217A1F1C09192
:10045000CE06D091CF06215070E060E061F08F3F72
:10046000F1F430E050E040E06FEF7FEF80E090E0AB
:100470000E94181BB901FE014091C9065091CA069D
:10048000CF018C1B9D0B8417950798F44081469FE4
:10049000C001479F900D112490833196EDCF812F9D
:1004A00090E0982F88270197622F70E00E945A1CD5
:1004B000E2CF1093CD06DF91CF911F91089508955B
:1004C0000895FC018091C905882311F13FB7F89484
:1004D00082E08093E9002091F200822F90E01816CC
:1004E000190614F481E090E0882339F0289844E656
:1004F0004093C8054091F1004083222339F02091B8
:10050000F200211103C02BE62093E8003FBF0895BD
:100510008FEF9FEF0895282F30E0F901E65BFE4F43
:100520009491F901E759FE4F84912A563E4FF90103
:100530002491222309F430C09923E9F091509F308F
:10054000D0F4E92FF0E0E955FD4F0C94821CD50260
:10055000D902B602CD02D102BB02BB02BB02DC0251
:10056000E202E602EA02F002BB02F402909180008D
:100570009F7790938000E22FF0E0EE0FFF1FE85787
:10058000FE4FA591B4919FB7F894EC91611132C0E0
:1005900080958E238C939FBF0895909180009F7DBE
:1005A000E8CF90918000977FE4CF94B59F7794BD7A
:1005B000E2CF94B59F7DFBCF909190009F77909371
:1005C0009000D9CF909190009F7DF9CF90919000AD
:1005D000977FF5CF9091C0009F779093C000CBCFCD
:1005E0009091C0009F7DF9CF9091C200977F90932A
:1005F000C200C1CF8E2BCECF1092CF051092CE0568
:100600001092D1051092F30510923A0681E0809382
:1006100039061092340661E082E00E948B0261E0AC
:1006200083E00E948B02E9EBF0E080818E7F808383
:1006300080818D7F808388E48093B80085E48093F7
:10064000BC008FE592E09093CD058093CC0580E6C9
:1006500092E09093CB058093CA050895CF93DF93E2
:1006600090E0FC01E759FE4F24918A569E4FFC0111
:1006700084918823D1F090E0880F991FFC01E45CFD
:10068000FE4FA591B491FC01E857FE4FC591D4915E
:1006900061110EC09FB7F8948C91E22FE0958E23E4
:1006A0008C932881E223E8839FBFDF91CF91089547
:1006B0008FB7F894EC91E22BEC938FBFF6CF3FB756
:1006C000F8948091C4059091C505A091C605B0919C
:1006D000C70526B5A89B05C02F3F19F00196A11D9F
:1006E000B11D3FBFBA2FA92F982F8827BC01CD017C
:1006F000620F711D811D911D42E0660F771F881FDB
:10070000991F4A95D1F708950F931F93CF93DF93C5
:10071000CDB7DEB729970FB6F894DEBF0FBECDBFB9
:100720008091CE069091CF06892B09F47CC00E945F
:100730005F030091D4061091D5062091D606309122
:10074000D706601771078207930740F46093D406B9
:100750007093D5068093D6069093D7060091D40661
:100760001091D5062091D6063091D706601B710BEB
:10077000820B930B6C32714081059105C0F2F894A5
:100780008091C9069091CA069A838983E091CE062A
:10079000F091CF06DF011196808189879091C5067F
:1007A000E091D806F091D9068091DA06992309F4F0
:1007B00045C09081982B98879081809589238F835D
:1007C0008F818C8388E08B8358856F8149853B813D
:1007D0002C8189819A81508347FD252F3A9520836A
:1007E000262F39F0441F00C000006083000000C0C5
:1007F000F2CF38E04D9160830000019761F7F093EC
:10080000D906E093D80649873B832C839A83898352
:1008100078940E945F036093D4067093D50680930A
:10082000D6069093D70629960FB6F894DEBF0FBE72
:10083000CDBFDF91CF911F910F9108959081982B9B
:1008400098879081809589238F838F818E8388E01C
:100850008D8358856F8149853D812E8189819A815B
:10086000508347FD252F00C000C0208300C000C07A
:1008700000C000C000C060830000262F3A9541F000
:10088000441F000000C000C000C000C000C0E8CF8E
:1008900038E04D9100C0608300C0019709F7F093E4
:1008A000D906E093D80649873D832E83AFCF8F9238
:1008B0009F92AF92BF92CF92DF92EF92FF926B0125
:1008C0007C010E945F034B015C01C114D104E1046F
:1008D000F104B9F00E945F03681979098A099B093C
:1008E000683E73408105910580F321E0C21AD1086A
:1008F000E108F10888EE880E83E0981EA11CB11C67
:10090000E4CFFF90EF90DF90CF90BF90AF909F909B
:100910008F9008952FB7F8946091C0057091C1052C
:100920008091C2059091C3052FBF08954091700535
:100930005091710520916E0530916F054217530754
:10094000B4F49091E8009570E1F39091E80092FD85
:1009500019C08093F1008091700590917105019606
:100960008F739927892B19F48EEF8093E80080917B
:1009700070059091710501969093710580937005B3
:1009800081E0089580E00895DF92EF92FF920F9347
:100990001F93CF93DF93D82E8A01EB017B01E40EE6
:1009A000F51ECE15DF0559F0D7FE12C0FE01849169
:1009B0000E94960421968111F4CF0FEF1FEFC8011A
:1009C000DF91CF911F910F91FF90EF90DF900895ED
:1009D0008881EECF2FB7F89487708093E9009091CB
:1009E000E800892F807295FF04C09091F20080E4A6
:1009F000891B2FBF08957F928F929F92AF92BF92D3
:100A0000CF92DF92EF92FF920F931F93CF93DF93DA
:100A1000C82E8B017A018091C905811110C08FEF1A
:100A20009FEFDF91CF911F910F91FF90EF90DF909B
:100A3000CF90BF90AF909F908F907F9008958091BE
:100A4000740580FF05C08091E00082608093E00023
:100A5000CE2DDF2DD12C8AEFB82E8C2D8770982EBD
:100A60008C2D8072882E8C2D8074782E9AE3A92E7E
:100A7000209719F4DD2009F452C08C2D0E94EA045D
:100A800081110AC0BA94BB2051F261E070E080E0AD
:100A900090E00E945704ECCF8C171D0611F00CF06B
:100AA0008C2F9FB7F8949092E9002091E80025FDE3
:100AB00002C09FBFDDCF282F30E0C21BD30B8820A0
:100AC00029F08150A0F01092F100FBCFF801C7FC93
:100AD0000AC0815050F041914093F100FACF449107
:100AE0004093F10031968150D0F7020F131FDD20A3
:100AF00021F0A092E800D12CDCCF8091E80085FDA8
:100B000007C0A092E800DD24D394209791F2F3CFA0
:100B1000209779F6772069F2A092E800CACF5D9815
:100B200084E680937305C7017CCF0F931F93CF9307
:100B3000DF93CBE3D6E08883198209E916E0F80158
:100B4000838142E050E0BE0180640E94FB04188271
:100B50001982F801838142E050E0BE018064DF9198
:100B6000CF911F910F910C94FB04615030F02091B4
:100B7000F100FC0120830196F8CF289884E6809349
:100B8000C80508958091660581110DC082E08093AB
:100B9000620584E0809363051092650510926405F8
:100BA00081E08093660582E695E008950F931F9398
:100BB000CF93DF931F92CDB7DEB782E0898342E403
:100BC00050E06CEA70E080E80E94C4040E94C20514
:100BD000DC0112960D911C910115110589F0D801C7
:100BE000ED91FC910280F381E02DBE016F5F7F4F9C
:100BF000C801099597FD04C0F80100851185ECCF67
:100C000089810F90DF91CF911F910F910895CF931C
:100C1000DF93EC0180910D01882331F083E00E9485
:100C2000FB041816190634F081E090E09B838A8358
:100C300080E090E0DF91CF910895CF93DF931F92F2
:100C4000CDB7DEB76983DC01ED91FC910280F381C1
:100C5000E02D41E050E0BE016F5F7F4F09950F909E
:100C6000DF91CF91089583E08093E9008091F200B5
:100C7000882319F08AE38093E800089583E00E94B6
:100C8000EA0490E00895CF93DF931F92CDB7DEB7CB
:100C9000FC018485958597FD08C02FEF3FEF3587D0
:100CA00024870F90DF91CF910895CE0101960E9485
:100CB0006102019719F4898190E0F3CF8FEF9FEFE4
:100CC000F0CF0F931F930E948A04609345067093A0
:100CD000460680934706909348068DE396E00E946F
:100CE000430697FF1DC00E948A040091450610919B
:100CF00046062091470630914806601B710B820B17
:100D0000930B0091410610914206209143063091C9
:100D100044066017710782079307F8F28FEF9FEF81
:100D20001F910F9108950F931F93CF93DF931F92FD
:100D3000CDB7DEB78C01FC018485958597FF0BC08C
:100D4000CE0101960E946102019771F4898190E0C1
:100D5000F80195878487F801848595850F90DF9148
:100D6000CF911F910F9108958FEF9FEFF1CFFC016D
:100D70008485958597FD0BC09FB7F89482E080939A
:100D8000E9008091F2009FBF90E0019608959FB71F
:100D9000F89482E08093E9008091F2009FBF90E098
:100DA0000895DC01FB0112962C91129784819581A4
:100DB0002817190641F491818081813A31F49D7F91
:100DC00081E0913009F080E008958132E1F79B30B5
:100DD00029F482811F968C9381E008959A3099F7C7
:100DE000828150968C93F8CFDC01FB0188E48083EC
:100DF00089E4818384E482831D969C911D979F7072
:100E00009F5B93831D968D919C9124E09695879589
:100E10002A95E1F78F708F5B848385E00895EF92C8
:100E2000FF920F931F93CF93DF93FB012081213813
:100E300071F52381223259F5DC0112964C912481FF
:100E400035814217130619F5EC010B851C85F12C31
:100E5000E12C0115110589F0F80144815581628169
:100E6000738180E80E94C4048F3F980749F0E80E20
:100E7000F91ED8010D911C91ECCF81E08F87C7013D
:100E8000DF91CF911F910F91FF90EF90089590E027
:100E900080E0F6CFCF93DF93CDB7DEB769970FB67B
:100EA000F894DEBF0FBECDBFFC01DB018C918F5FDC
:100EB0008C939E012D5F3F4F8DE0D9011D928A9545
:100EC000E9F729E0298384E08A8391E09D8383E028
:100ED0008E832A8721E22B879C879D879F8722E22A
:100EE000288B27E02B8B25E02C8B8E8B20E430E0A9
:100EF000388F2F8B998F82818B8395858685998BEF
:100F00008A8B838180688D8B49E150E0BE016F5FE1
:100F10007F4F80E00E94C40469960FB6F894DEBF4C
:100F20000FBECDBFDF91CF9108958EBD00000DB4EF
:100F300007FEFDCF8EB5089585ED8093BC008091AE
:100F4000BC0084FDFCCF10923A06089520913F0525
:100F5000260F3327331F21323105ECF420913A0656
:100F6000FC0190E080E0243069F082E00895A091D7
:100F70003F052191AC01415E5A4FA40FB52FB11D21
:100F80002C930196861798F380913F05680F609324
:100F90003F0580E0089581E008950895E091CF0530
:100FA0008091CE05E81730F4F0E0EC50FA4F8081E4
:100FB00090E008958FEF9FEF08959091CF05809175
:100FC000CE052FEF3FEF981748F4E92FF0E0EC50F3
:100FD000FA4F208130E09F5F9093CF05C9010895BB
:100FE000CF92DF92EF92FF920F931F93CF93DF93F5
:100FF0007C01CB018A012091D005222389F0EB01ED
:101000006B01C40ED51ECC15DD0569F06991D701C1
:10101000ED91FC910190F081E02DC7010995F3CF8E
:10102000642F0E94A607C801DF91CF911F910F91F5
:10103000FF90EF90DF90CF900895CF93DF931F92B2
:10104000CDB7DEB769832091D0052223F9F0209136
:10105000F305203258F021E030E0FC013383228395
:1010600090E080E00F90DF91CF9108958091D105BD
:10107000E82FF0E0EE52FA4F998190838F5F8093D2
:10108000D1058093F30581E090E0ECCF61E0CE01E3
:1010900001960E94A607F7CFCF93DF93D82FC62FD4
:1010A0008091C0068823C9F081E08093D00583E554
:1010B0008093F2051092D1051092F3056D2F8DE803
:1010C00096E00E941D086C2F8DE896E00E941D0896
:1010D00081E0DF91CF910C94BA0160E08091BE066F
:1010E0000E948B028D2F0E9495078C2F0E949507DE
:1010F00061E08091BE06DF91CF910C948B0290E06D
:1011000080E00895CF92DF92EF92FF92CF93DF932A
:10111000C42ED12CF12CE12CD62AE82AD0E0C0E054
:10112000B701A601CE010E9407012196CC30D1055E
:10113000B9F7DF91CF91FF90EF90DF90CF900C94B3
:101140008403EFE9F5E080E09191892795E0E63BA3
:10115000F907D1F708951F93CF93DF9300D0CDB750
:10116000DEB7182F80911C05882399F080919C068A
:1011700092E099831A8242E050E0BE016F5F7F4F98
:1011800080640E94FB0465E070E080E090E00E94D3
:10119000570482E089831A8380919C0642E050E0E4
:1011A000BE016F5F7F4F80640E94FB0410931C059B
:1011B0000F900F90DF91CF911F9108952091B0056E
:1011C00030E050E040E02150310941095109ADEFD4
:1011D000BFEF0E94451B29E030E040E050E00E9454
:1011E000181BDA01C9010496A11DB11D0895FF92D3
:1011F0000F931F93CF93DF93182FEB018091C006BD
:101200008823C1F181E08093D00583E58093F205C6
:101210001092D1051092F305612F8DE896E00E949F
:101220001D0881E00E94BA0161E083E50E94780117
:10123000F82E1092CF058093CE058E01C8018C1B2D
:101240009D0B2091CF05F21641F08DE896E00E94AB
:10125000DD07F80181938F01F1CF019729F01092FA
:10126000AA0681E08093AB06DF91CF911F910F9189
:10127000FF90089560E08091BE060E948B02812F4E
:1012800080680E94950780E00E949507888361E04E
:101290008091BE06DF91CF911F910F91FF900C942A
:1012A0008B02FF920F931F93CF93DF931F92CDB7C3
:1012B000DEB7182FF62E042FBE016F5F7F4F0E94FE
:1012C000F70821E030E001C0220FFA94EAF78981A3
:1012D000002369F0822B89836981812F0E944C0849
:1012E0000F90DF91CF911F910F91FF90089520955E
:1012F0008223F1CFCF9381E08093D00586E3809362
:10130000F2051092D1051092F3056CE08DE896E09D
:101310000E941D0881E00E94BA0162E086E30E94FB
:1013200078011092CF058093CE058230F0F38DE8DE
:1013300096E00E94DD07C82F8DE896E00E94DD0749
:1013400020E0822B9C2BCF910895FC01808191811C
:101350000C94241DE5ECF6E04481558170E060E0DA
:10136000818592850C94731ECF93DF93C82F0E94C2
:10137000AA0980911D0590911E05CC2399F1309109
:10138000AA054091AB052091AC050B966CE070E08E
:101390000E946E1C90931E0580931D05C0911D0533
:1013A000D0911E0550E070E060E0762F652F542F3D
:1013B0004427632B422BCE010E940701809100013C
:1013C000909101018F3F980729F040E050E0BA0169
:1013D0000E940701D0930101C0930001DF91CF91DA
:1013E0000C9484033091A7054091A8052091A9058C
:1013F0000196CCCF0E94AA0980918F05909190050B
:10140000892B41F44091A3056091A2058091A1052B
:101410000C9482084091A6056091A5058091A405D1
:10142000F7CFFC0101900020E9F73197AF01481B8D
:10143000590BBC018DE396E00C9407068FE491E014
:101440000C94110A8F929F92AF92BF920F931F93A9
:10145000CF93DF93CDB7DEB7A1970FB6F894DEBF79
:101460000FBECDBF19A2423008F44AE08E010F5DD5
:101470001F4F842E912CB12CA12CA50194010E9408
:10148000811BE62FB901CA01EA30F4F4E05DD8010E
:10149000EE938D01232B242B252B79F790E080E010
:1014A000109719F0CD010E94110AA1960FB6F89479
:1014B000DEBF0FBECDBFDF91CF911F910F91BF90C7
:1014C000AF909F908F900895E95CE1CF682F70E016
:1014D00090E080E04AE00C94220ACF92DF92EF92F3
:1014E000FF92CF93DF936B017C016DE28DE396E079
:1014F0000E941D06EC0166277727CB016C197D0938
:101500008E099F094AE00E94220A8C0F9D1FDF91DD
:10151000CF91FF90EF90DF90CF900895CF93DF931E
:10152000BC01990F880B990B97FF0AC00E946D0AA6
:10153000EC010E941E0A8C0F9D1FDF91CF91089530
:101540004AE00E94220AF4CFCF93DF930E94110A4F
:10155000EC010E941E0A8C0F9D1FDF91CF91089510
:101560000C94110A0F931F93CF93DF93FC01048116
:1015700015810115110539F4FB011082DF91CF911E
:101580001F910F910895415051094017510708F4D8
:101590008A01EB01FC0160817181A801CE010E94EA
:1015A000981EC00FD11F1882E9CFFC01248135811C
:1015B000232B39F421E0FB018081882349F020E0CE
:1015C00007C0808191810E947A1E21E0892BB9F7A2
:1015D000822F0895FB0144815581FC0124813581CE
:1015E0002417350778F080819181009759F0FB012D
:1015F000608171816115710529F00E948A1E21E0C8
:10160000892B09F020E0822F08950F931F93CF9329
:10161000DF93EC0188819981009759F02A813B8101
:101620002617370730F081E0DF91CF911F910F919E
:1016300008958B016F5F7F4F0E94AD1D009759F099
:10164000998388831B830A832C813D81232B59F73F
:10165000FC011082E8CF80E0E7CFEF92FF920F937A
:101660001F93CF93DF93EC017B018A01BA010E94A3
:10167000050B28813981811114C02115310519F01C
:10168000C9010E94241D198218821D821C821B829E
:101690001A82CE01DF91CF911F910F91FF90EF90B1
:1016A00008951D830C83B701C9010E94831EF1CFE9
:1016B000FB01DC0111961C921E9213961C921E9245
:1016C000129715961C921E9214978617970749F049
:1016D000608171816115710521F0448155810C94FF
:1016E0002D0B0895FC011182108213821282158243
:1016F0001482FB0101900020E9F73197AF01461BEE
:10170000570B0C942D0BFF920F931F93CF93DF93E6
:101710000E94A1088093B6050FE915E0D0E0C0E073
:10172000F801F1908F01CE010E94021BF81621F002
:101730006F2DCE010E940A1B2196C831D10581F779
:10174000DF91CF911F910F91FF900895CF93DF9379
:10175000CFE9D5E01A821B828FEF8C838D831E82A6
:101760001F82188689871A868B8785EA8C871D8653
:1017700080E88E871F86888B85E0898B88EC8A8B32
:101780008AE08B8B82E08C8B0E94830B8A890E947B
:101790001E020E94FA0982E591E0DF91CF910C943C
:1017A000A40A1F920F920FB60F9211242F933F930A
:1017B0008F939F93AF93BF938091C0059091C10584
:1017C000A091C205B091C3053091BF0523E0230F5E
:1017D0002D3758F50196A11DB11D2093BF058093AB
:1017E000C0059093C105A093C205B093C305809135
:1017F000C4059091C505A091C605B091C705019695
:10180000A11DB11D8093C4059093C505A093C60585
:10181000B093C705BF91AF919F918F913F912F9149
:101820000F900FBE0F901F90189526E8230F029679
:10183000A11DB11DD2CF1F920F920FB60F9211248E
:101840008F939F938091E1009091E100937F90931B
:10185000E10083FF0FC01092E90091E09093EB004C
:101860001092EC0092E39093ED001092C90598E07D
:101870009093F00082FF22C093E09093E900909152
:10188000F200992319F09AE39093E8009091730580
:10189000992341F0909173059150909373059111A4
:1018A00001C05D9A9091C805992341F09091C805B7
:1018B00091509093C805911101C0289A84FF18C0D7
:1018C0008091E2008E7E81608093E2008091E10051
:1018D0008F7E8093E100809174058E7E806180937D
:1018E00074059F918F910F900FBE0F901F901895C8
:1018F00080FFF7CF8091E2008E7E80618093E200CE
:101900008091E1008E7E8093E100809174058E7E4F
:101910008160E5CF1F920F920FB60F921124CF92E4
:10192000DF92EF92FF920F931F932F933F934F936A
:101930005F936F937F938F939F93AF93BF93EF9337
:10194000FF93CF93DF93CDB7DEB76C97DEBFCDBFEC
:101950001092E9008091E80083FF25C068E0CE0185
:1019600045960E94B50582EF8093E8008D8987FF38
:1019700039C09091E80090FFFCCF982F907609F045
:1019800034C19E894F89588D2F89F88C911131C0AF
:10199000803861F5809175058093F1001092F10017
:1019A0008EEF8093E8006C960FB6F894DEBF0FBE02
:1019B000CDBFDF91CF91FF91EF91BF91AF919F91FB
:1019C0008F917F916F915F914F913F912F911F91D7
:1019D0000F91FF90EF90DF90CF900F900FBE0F9080
:1019E0001F9018959EEF9093E800C7CF1092F100DA
:1019F000D5CF913059F48111D3CF4130510581F6C3
:101A0000809175058D7F80937505CACF933049F419
:101A10008111C6CF4130510519F68091750582605C
:101A2000F2CF953041F48091E80080FFFCCF206830
:101A30002093E300B5CF963009F0A9C00B8D1C8D23
:101A400022E01092E9001092710510927005F212D6
:101A50002EC010926F0510926E050E94D6051F824F
:101A600099E09983FA8291E09E8390EA98879AEFB1
:101A700099872091700530917105275F3F4F3C8316
:101A80002B838D831092E9001092710510927005DE
:101A900010936F0500936E0549E050E0BE016F5F43
:101AA0007F4F80E00E94C4040E94D60579CF109336
:101AB0006F0500936E050E94C205DC0112960D9120
:101AC0001C910115110509F451C1D801ED91FC914A
:101AD0000480F581E02DBE016B5E7F4FC801099542
:101AE000009709F03EC1F80100851185EACFF3E0C7
:101AF000FF120EC08F89882309F440C0823061F440
:101B000040E869E08EE091E00E94DB0F811148CF50
:101B100081E28093EB0047CF813029F440E869E00F
:101B200084E091E0F1CF833099F70E94C205DC0197
:101B30001296ED90FC908E010F5F1F4F6801E1142B
:101B4000F10479F0D701ED91FC910680F781E02D49
:101B5000B801C7010995080F111DF701E084F18450
:101B6000EECFD8011C92F60101900020E9F73197E1
:101B7000BF016C197D0940E0C601C6CF6EEE70E072
:101B8000FB01449150E080E80E94C40409CF9730E3
:101B900009F4BECF983021F481E08093F10000CFAA
:101BA000993009F0FDCE837009F0B2CFE3E1F1E0A6
:101BB00081E031E096E32191222371F08093E900E6
:101BC0003093EB00DF0111972C912093EC00909360
:101BD000ED008F5F873079F78EE78093EA001092EF
:101BE000EA008F898093C905DBCE8B8D9C8D109286
:101BF000E900109271051092700590936F05809323
:101C00006E05898D811192C08E899D89913A49F422
:101C1000813209F07DCF47E050E066E071E080E07E
:101C2000B3CF913209F074CF833269F48F89988DE4
:101C3000B0E0A0E08093020190930301A09304011F
:101C4000B0930501ADCE803269F48091E80082FF47
:101C5000FCCF67E086E091E00E94B5058BEF8093B2
:101C6000E8009ECE823209F09BCE8F8980930D01D1
:101C7000EEEFFFE7859194918B3F9C4D51F1E0E0B1
:101C8000F8E08091060190910701A0910801B091C0
:101C90000901803B9440A105B105F1F480910D014B
:101CA00080FD1AC0EE3F8AE0F80789F587E797E7DD
:101CB00091838083809160008093720588E19BE02E
:101CC0000FB6F894A895809360000FBE90936000C3
:101CD00067CEEEEFFAE0D5CF8081918187379747C5
:101CE00009F05ECEA89580916000886180936000C5
:101CF0008091720580936000EE3F2AE0F20789F040
:101D00008091FE0A9091FF0A9183808349CE808161
:101D100091818737980751F29093FF0A8093FE0ACA
:101D2000C5CF1092FF0A1092FE0A3ACE0E94C20559
:101D3000DC0112960D911C910115110509F4E8CEF4
:101D4000D801ED91FC910190F081E02DBE016B5E18
:101D50007F4FC8010995811123CEF80100851185B7
:101D6000EBCF181619060CF41BCED2CEF1E0FF1201
:101D7000BECE62EF70E004CF1F920F920FB60F92AB
:101D800011242F933F934F935F936F937F938F9380
:101D90009F93AF93BF93EF93FF938091B900887F98
:101DA000803609F44AC0F0F5883209F4A7C018F566
:101DB000803109F49BC0B8F4882309F4F9C0883055
:101DC00009F494C0FF91EF91BF91AF919F918F91D2
:101DD0007F916F915F914F913F912F910F900FBE27
:101DE0000F901F901895883109F488C0803251F700
:101DF0008093380614C0803409F49DC040F48033C9
:101E0000B9F38833F9F68093380685ECB0C0803595
:101E100009F485C0883509F496C0883499F60E9483
:101E20009C07D0CF883909F48CC038F5883729F061
:101E300050F4883611F0803729F683E080933A0613
:101E40001092610557C0883809F47BC0803919F0B9
:101E5000803809F0B7CF80916105803208F071C0F9
:101E6000E091610581E08E0F809361058091BB0058
:101E7000F0E0EF5BFA4F80833DC0803B39F0E0F447
:101E8000803A09F479C0883A09F09CCF84E08093C5
:101E90003A061092400510923F05E091CC05F09172
:101EA000CD05099580913F0581110FC081E0809398
:101EB0003F0510921F0509C0803C09F4A6CF883C5D
:101EC00009F4A3CF883B09F07DCFE091400581E084
:101ED0008E0F80934005F0E0E15EFA4F80818093A1
:101EE000BB009091400580913F0529C08091350647
:101EF0008093BB0085EC8093BC0064CF9091370643
:101F000080913606981758F5E091370681E08E0FDC
:101F100080933706F0E0EC5EF94F8081E9CFE091E5
:101F2000370681E08E0F809337068091BB00F0E08A
:101F3000EC5EF94F808390913706809136069817B2
:101F4000C8F285E8D8CFE091370681E08E0F809304
:101F500037068091BB00F0E0EC5EF94F8083809102
:101F6000390681115CCF81E08093340684EA809346
:101F7000BC0010923A0626CF85EC8093BC001092EC
:101F80003A0680916105803230F4E0916105F0E01D
:101F9000EF5BFA4F10826091610570E0E091CA0535
:101FA000F091CB0581E495E00995109261050ACF87
:101FB0001092380634CFEF92FF920F931F93CF9376
:101FC000DF93F82E192FE62E042F81E0860F880F5D
:101FD0000E94960483E00E949604CF2DD12FEC0E30
:101FE000FD2EF11CCE15DF05B9F007FF13C0FE0171
:101FF00084910E949604182F80E00E949604812309
:1020000021968111EFCFDF91CF911F910F91FF901A
:10201000EF9008958881EDCF81E0F5CFCF93DF93E6
:102020001092400610923F0688EE93E0A0E0B0E0E8
:102030008093410690934206A0934306B0934406D2
:1020400023E231E030933E0620933D062FEF3FEF31
:1020500030934A06209349061092900610928F06FC
:102060008093910690939206A0939306B093940662
:1020700085E391E090938E0680938D061092C606BC
:102080001092CD061092D4061092D5061092D60664
:102090001092D70681E08093D3068093D0061092E9
:1020A000D10692E09093D2068093C50684E290E038
:1020B0009093CA068093C9060E94881C9093CF060D
:1020C0008093CE06009709F4C1C024E2FC0111926E
:1020D0002A95E9F78CE090E09093C8068093C706B4
:1020E00087E190E09093CC068093CB068091C60662
:1020F000882341F061E087E10E942E0360E087E1E0
:102100000E948B02EDEAF1E0E491F0E0EE0FFF1F98
:10211000E857FE4F859194919093D9068093D80605
:10212000E0E8F1E0E491E093DA068AE090E0909351
:10213000BF068093BE0681E08093C00640E45BE466
:102140006CE470E04093C1065093C2066093C306EE
:102150007093C4068093AA061092AB0643EC5BEA28
:1021600066E77BE34093AC065093AD066093AE0602
:102170007093AF0648ED5BE666E77BE34093B006FD
:102180005093B1066093B2067093B30642EF54EEDB
:1021900064E67BE34093B4065093B5066093B606BD
:1021A0007093B70680939D0680939E0623EA36E0DF
:1021B0003093A00620939F061092A2061092A106CB
:1021C00027E431E030939A06209399061092A506F1
:1021D0001092A4061092A7061092A6068093A80655
:1021E0008093A90681EC8093A3060E94C205FC019E
:1021F000818190919D06482F490F5527551F4830E2
:102200005105E4F5A281B381109751F529E936E033
:1022100033832283208120939B0680939C068091A8
:102220009E06820F808320919F06A22FB091A00668
:102230008A2F821B891710F581813D91C82FD0E02C
:10224000CE5EDE4F38838F5F8183F2CF1092CA0655
:102250001092C9061092C8061092C70641CFD90144
:1022600018962D913C91199721153105C1F729E94F
:1022700036E019963C932E931897CCCF87E491E0E3
:1022800090939A0680939906DF91CF910895CF930A
:10229000DF93CDB7DEB7CC54D1090FB6F894DEBFCB
:1022A0000FBECDBF789484B5826084BD84B5816053
:1022B00084BD85B5826085BD85B5816085BD809111
:1022C0006E00816080936E00109281008091810089
:1022D0008260809381008091810081608093810081
:1022E0008091800081608093800080919100826065
:1022F0008093910080919100816080939100809102
:1023000090008160809390008091C10084608093F0
:10231000C1008091C10082608093C1008091C100A2
:1023200081608093C1008091C30081608093C3006D
:102330008091C00082608093C0008091C200816063
:102340008093C20080917A00846080937A008091AB
:102350007A00826080937A0080917A008160809315
:102360007A0080917A00806880937A001092C90583
:1023700010927505109274058091D700816080934A
:10238000D70080EA8093D80089B5806189BD89B57E
:10239000826089BD09B400FEFDCF61E070E080E09D
:1023A00090E00E9457048091D8008F7C80618093D8
:1023B000D8008091E000807F8093E0008091E10070
:1023C0008E7E8093E1008DE08093E200559A209A02
:1023D0008FEF9FEF90934A06809349060E94FC027C
:1023E00088E48093B80084E690E0A0E0B0E08093B9
:1023F000910690939206A0939306B09394068091D1
:10240000CB069091CC0697FD08C061E00E942E0398
:1024100060E08091CB060E948B0281E08093C6062B
:102420000E94AA095FE9E52E55E0F52E10E000E0D4
:10243000C8010E94021BF70181937F010F5F1F4FAC
:1024400008311105A9F780919F058D3429F48091F9
:10245000A005823009F4ACC18DE480939F0582E031
:102460008093A0050E94A60B0E94A1088093B60548
:102470000E94830B8091B1050E941E028091B105DC
:102480000E941E0235E0E32EF12C4CE0C42ED12C2C
:1024900010E000E00E94AA0940E050E06FEF70E019
:1024A000C8010E9407010F5F1F4F40E050E06FEF2F
:1024B00070E0C8010E94070140E05FEF60E070E05B
:1024C000C80105960E940701C8010696B6010E9440
:1024D0006E1C40E05FEF60E070E00E9407010E9428
:1024E000840364E670E080E090E00E9457040630C8
:1024F000110581F6F1E0EF1AF10851F60E94AA09E0
:102500000E94840380917C05811113C0109277058D
:102510001092760588E191E0909379058093780593
:1025200084E290E090937B0580937A0581E080932C
:102530007C05E091A406F091A506309709F045C10D
:1025400086E795E09093A5068093A4068091A60661
:102550009091A70620917A0530917B05820F931FF9
:102560009093A7068093A60681E090E02091B505A0
:10257000213011F090E080E09093900580938F05DA
:102580008091C00681110E94FC0260E08DE20E94F1
:102590004C0860E18DE20E944C0868E08DE20E94E8
:1025A0004C08BE016F5F7F4F81E30E94F70869818D
:1025B0006C7E636081E30E944C0840E062E070E062
:1025C0008AE20E94510940E061E070E08AE20E94E4
:1025D000510941E070E060E08AE20E94510963E243
:1025E0008DE10E944C0869E181E20E944C0864E69A
:1025F00082E20E944C086AEF83E20E944C0840E0AD
:1026000065E070E08FE20E94510941E065E070E012
:102610008EE20E9451098CE891E00E94A40A0E9477
:10262000FA0964E670E080E090E00E9457042AE036
:10263000A22EB12C10E000E0C12CD12C76010E941A
:102640007A098F3F980799F0BC0190E080E00E94E2
:10265000041A20E030E044EB5DE30E94411A0E943E
:10266000241CC60ED71EE81EF91E0F5F1F4F6AE01E
:1026700070E080E090E00E94570431E0A31AB108B6
:10268000F1F60115110509F4AFC09801110F440BC3
:10269000550BC701B6010E94181B69017A01C0924F
:1026A0000E01D0920F01E0921001F09211018EEA1A
:1026B00091E00E94B00AF7FE91C0C701B6010E94E6
:1026C0006D0A0E941E0A87EE91E00E94B00A809176
:1026D000B0050E94660A0E941E0A8DEF91E00E94DA
:1026E000B00A0E94DE080E948E0A80E192E00E94F9
:1026F000B00A2091B00530E050E040E021503109AF
:1027000041095109AEEFBFEF0E94451B29E030E0BF
:1027100040E050E00E94181BDA01C9010396A11D98
:10272000B11D0E948E0A86E292E00E94A40A222431
:102730002394312C0E948A042B013C018DE396E006
:102740000E94B706892B09F4C9C161E571E0CE0189
:10275000895B9F4F0E94720B0E94610697FD51C0DA
:102760008A30910509F44DC089831A822D960EADE9
:102770001FAD2D970F5F1F4FB801CE01895B9F4F93
:102780000E94050B882341F329962EAD3FAD299772
:102790002D968EAD9FAD2D97BE016F5F7F4F820F3F
:1027A000931F0E94831E2D961FAF0EAF2D97D4CF7F
:1027B0001091B6051092B6050E94A108181709F4E9
:1027C00059CE0E94A60B56CEFC01808191810097C4
:1027D000D9F786E795E091838083B8CE4AE0C701B8
:1027E000B6010E94220A6DCF8EEC91E00E94A40AED
:1027F00010920E0110920F0110921001109211010F
:1028000062CF2996CEACDFAC2997C114D10441F038
:102810002D960EAD1FAD2D9776010115110581F492
:1028200060E572E0CE01895B9F4F0E94D50A882344
:1028300009F442C089E592E00E94A40A4AC17501E8
:1028400057014FEFA41AB40AF7018081082E000C3B
:10285000990B0E94FB19892B91F7015011090C0D5E
:102860001D1DF8018081082E000C990B0E94FB1998
:10287000892B31F00E151F0518F001501109F1CF09
:102880000F5F1F4FA8014E195F092D965FAF4EAF26
:102890002D97CE14DF0420F4B701C6010E946A1EF2
:1028A0002996EEADFFAD29972D968EAD9FAD2D9754
:1028B000E80FF91F1082B4CF6EE672E0CE010196E8
:1028C0000E94720BBE016F5F7F4FCE01895B9F4FED
:1028D0000E94EA0A182FCE0101960E94A509112331
:1028E00009F4A3C0BE01695B7F4FCE018F5B9F4F90
:1028F0000E94580B40E450E0BE016F5F7F4FCE0155
:102900008F5B9F4F0E94B20A6EE072E0CE0101968B
:102910000E94C7196EE072E090E080E00E94C71943
:102920008C016EE072E090E080E00E94C7195C01CB
:102930006EE072E090E080E00E94C7196C016EE0EA
:1029400072E090E080E00E94C7197C01011511053A
:1029500009F468C0A114B10409F464C0C114D1041D
:1029600009F460C0892B09F45DC0C5010E94A91952
:10297000B82EC6010E94A919D82EC7010E94A91914
:10298000F82E61E771E0C8010E947A1E892B69F474
:10299000B092A105D092A205F092A3050E94830BEC
:1029A0000E94FA098BE992E03AC06AE771E0C80137
:1029B0000E947A1E892B39F4B092A405D092A50505
:1029C000F092A605EBCF69E772E0C8010E947A1E7B
:1029D000892B39F4B092A705D092A805F092A905E9
:1029E000DDCF68E772E0C8010E947A1E892B39F4B6
:1029F000B092AA05D092AB05F092AC05CFCF6CE7B0
:102A000072E0C8010E947A1E892B39F4B092AD059C
:102A1000D092AE05F092AF05C1CF81E892E00E945E
:102A2000A40A52C08DEA92E0FACF6DEC72E0CE01BA
:102A300001960E94720BBE016F5F7F4FCE01895BD2
:102A40009F4F0E94EA0A182FCE0101960E94A50905
:102A5000112309F490C0BE01695B7F4FCE018F5BEB
:102A60009F4F0E94580B40E250E0BE016F5F7F4FC6
:102A7000CE018F5B9F4F0E94B20A6EE072E0CE01E2
:102A800001960E94C7196EE072E090E080E00E941B
:102A9000C7190097C9F00E94A9199C01215031095A
:102AA0002A30310508F064C08093B0050E94830B82
:102AB0008DED92E00E94A40A85EF92E00E94B00A98
:102AC0000E94DE080E948E0ACE018F5B9F4F0E94FB
:102AD000A509CE01895B9F4F0E94A5098091BB0586
:102AE0009091BC05A091BD05B091BE05A3019201D6
:102AF000281B390B4A0B5B0BDA01C9010A97A105A8
:102B0000B10508F4E5C20E947A098F3F980709F4DD
:102B1000D7C2BC0190E080E00E94041A20E030E0BF
:102B200044EB5DE30E94411A0E94241C6B017C016E
:102B30000E948A044B015C0180919505882309F469
:102B4000F6C18091910590919205A0919305B09165
:102B5000940588169906AA06BB0608F0E6C1C0923D
:102B60000E01D0920F01E0921001F0921101A8C263
:102B700084E093E054CF64E273E0CE01895B9F4F21
:102B80000E94D50A882339F00E94AA090E94840372
:102B90008FE293E051CE60E473E0CE0101960E9493
:102BA000720BBE016F5F7F4FCE01895B9F4F0E940A
:102BB000EA0A182FCE0101960E94A5091123A9F156
:102BC000BE01695B7F4FCE018F5B9F4F0E94580B08
:102BD00040E250E0BE016F5F7F4FCE018F5B9F4FA1
:102BE0000E94B20A6EE072E0CE0101960E94C719FF
:102BF0006EE072E090E080E00E94C719009709F44F
:102C000063CF0E94A9198F3F910509F058F4809372
:102C1000B1050E941E020E94830B0E94FA098FE4F4
:102C200093E0FDCE86E693E0FACE66E873E0CE014F
:102C300001960E94720BBE016F5F7F4FCE01895BD0
:102C40009F4F0E94EA0A182FCE0101960E94A50903
:102C5000112389F1BE01695B7F4FCE018F5B9F4FCE
:102C60000E94580B40E250E0BE016F5F7F4FCE01E3
:102C70008F5B9F4F0E94B20A6EE072E0CE01019618
:102C80000E94C7196EE072E090E080E00E94C719D0
:102C9000009709F419CF0E94A9198F3F910509F0F7
:102CA00038F48093B2050E94830B88E993E0B7CE95
:102CB00083EB93E0B4CE67ED73E0CE0101960E9402
:102CC000720BBE016F5F7F4FCE01895B9F4F0E94E9
:102CD000EA0A182FCE0101960E94A509112399F145
:102CE000BE01695B7F4FCE018F5B9F4F0E94580BE7
:102CF00040E250E0BE016F5F7F4FCE018F5B9F4F80
:102D00000E94B20A6EE072E0CE0101960E94C719DD
:102D10006EE072E090E080E00E94C719009709F42D
:102D2000D3CE0E94A9199C01215031092C333105C1
:102D300038F48093B3050E94830B84EE93E06FCE4A
:102D40008AEF93E06CCE60E274E0CE01895B9F4F26
:102D50000E94D50A882309F49BC08DE294E00E946A
:102D6000B00A8091A1050E94660A8CE394E00E945B
:102D7000B00A8091A2050E94660A8CE394E00E944A
:102D8000B00A8091A3050E94660A8EE394E00E9437
:102D9000B00A8091A4050E94660A8CE394E00E9428
:102DA000B00A8091A5050E94660A8CE394E00E9417
:102DB000B00A8091A6050E94660A85E494E00E940C
:102DC000B00A8091A7050E94660A8CE394E00E94F5
:102DD000B00A8091A8050E94660A8CE394E00E94E4
:102DE000B00A8091A9050E94660A8DE494E00E94D1
:102DF000B00A8091AA050E94660A8CE394E00E94C2
:102E0000B00A8091AB050E94660A8CE394E00E94B0
:102E1000B00A8091AC050E94660A86E594E00E94A3
:102E2000B00A8091AD050E94660A8CE394E00E948E
:102E3000B00A8091AE050E94660A8CE394E00E947D
:102E4000B00A8091AF050E94660A80E694E00E9475
:102E5000B00A8091B0050E94660A87E694E00E945D
:102E6000B00A8091B1050E94660A80E794E00E9452
:102E7000B00A8091B2050E94660A8CE794E00E9435
:102E8000B00A8091B3050E94660A0E941E0A21CEF4
:102E900067E874E0CE01895B9F4F0E94D50A8823C2
:102EA00049F182E994E00E94B00A80918F059091E7
:102EB0009005892BC9F481E791E00E94B00A8FE95F
:102EC00094E00E94B00A80919E05882381F085E8F5
:102ED00091E00E94B00A88EA94E00E94B00A85EB73
:102EE00094E00E94B00AD1CF8AE791E0E6CF89E86A
:102EF00091E0EFCF63EC74E0CE01895B9F4F0E94BD
:102F0000D50A882319F00E94A60BE3CD62ED74E088
:102F1000CE01895B9F4F0E94D50A882319F087ED67
:102F200094E08ACC8CED94E087CC109295050E94B9
:102F3000DE0800910E0110910F01209110013091D7
:102F40001101B701A601401B510B620B730B77FFF8
:102F500007C070956095509541955F4F6F4F7F4FBB
:102F6000092E000CAA0BBB0B84179507A607B70701
:102F70000CF0A6C00C151D052E053F0544F501E01B
:102F800010E02091B00530E050E040E021503109E0
:102F900041095109AEEFBFEF0E94451B29E030E027
:102FA00040E050E00E94181B2D5F3F4F4F4F5F4F96
:102FB00080918C0590918D05009761F410938D059B
:102FC00000938C0530928B0520928A050FC00FEF7D
:102FD0001FEFD7CF8017910789F780918A059091CD
:102FE0008B05019690938B0580938A0580918A05C5
:102FF00090918B05821793070CF4B1CD80918805D1
:103000009091890520918C0530918D05009709F4E8
:1030100075C12817390709F18091840590918505BC
:10302000A0918605B0918705B501A401481B590BF5
:103030006A0B7B0BDB01CA01C297A105B10508F43D
:103040008ECD3093890520938805809284059092D7
:103050008505A0928605B092870510928D05109285
:103060008C0510928B0510928A0580929A05909299
:103070009B05A0929C05B0929D0580918F05909133
:103080009005121613060CF04DC1892B09F022C1D0
:103090008FEF0E94950580E00E94B409C0920E0156
:1030A000D0920F01E0921001F092110180918E05F3
:1030B000882321F00E94FA0910928E0510929E0535
:1030C0004092BB055092BC056092BD057092BE0552
:1030D0008091B7059091B805A091B905B091BA0556
:1030E000A3019201281B390B4A0B5B0BDA01C901C2
:1030F0004497A105B10508F474C08091960590919C
:103100009705A0919805B0919905B301A201481BBC
:10311000590B6A0B7B0BDB01CA01843F9140A1056F
:10312000B10508F456C0BE016F5F7F4F80E30E9477
:10313000F708898185FF4DC083EF94E00E94A40ABF
:1031400081E080939505D301C20188589F4FAF4F0E
:10315000BF4F8093910590939205A0939305B093F0
:10316000940511E080918F0590919005892B09F0CD
:1031700010E0812F90E09093900580938F0581E07F
:1031800080938E0540929A0550929B0560929C0513
:1031900070929D0510929E050E94FA091093B50544
:1031A0000E94830B88E095E00E94B00A80918F0511
:1031B00090919005892B09F095C081E791E00E94DC
:1031C000A40A4092960550929705609298057092D5
:1031D00099054092B7055092B8056092B905709272
:1031E000BA050E948A0420919E0521116BC00091AE
:1031F0009A0510919B0520919C0530919D056B01CE
:103200007C01C01AD10AE20AF30A2091B30530E02A
:10321000A8EEB3E00E94A31B6C157D058E059F05EB
:1032200008F063C06091B20570E090E080E00E9419
:10323000061A20E030E04FE753E40E94B21B4B0136
:103240005C016091AD0570E090E080E00E94061A9C
:10325000A50194010E94411A0E942B1CC62ED12C5C
:10326000F12CE12C7601DD24CC246091AE0570E0D8
:1032700090E080E00E94061AA50194010E94411A84
:103280000E942B1CD62A6091AF0570E090E080E090
:103290000E94061AA50194010E94411A0E942B1C4B
:1032A000C62A10E000E0B701A601C8010E9407018C
:1032B0000F5F1F4F0C301105B1F70E94840381E0AE
:1032C00080939E0580E090E0892B09F433CA0E9428
:1032D00000002DCA8FE40E94AB08DDCE80E50E947D
:1032E000AB0825C08AE791E06ACF65E6C616D1042F
:1032F000E104F10438F30E94FA09E4CF2115310505
:1033000009F09FCE10928B0510928A0580929A0543
:1033100090929B05A0929C05B0929D0580918F058F
:1033200090919005892BD1F681E00E94950581E06E
:10333000B3CE8091CE069091CF060E94241D80913D
:10334000CB069091CC0697FD03C060E00C942E0351
:103350000895FC0188279927E89421912032E9F308
:10336000293010F02E30C8F32B3241F02D3239F4D1
:10337000689404C00E94F319820F911D219120537B
:103380002A30C0F31EF4909581959F4F08954BED20
:1033900056E00E94CC190895FA01A191B0810097DE
:1033A00019F41097E1F0CD01DC01CD010D90002062
:1033B00011F4C00113C0FB012191222319F0201543
:1033C000D9F7F3CFFB012191201519F41E92119624
:1033D00006C02223C1F70D900020A1F7D001FA0109
:1033E000A193B08308957AE0979F902D879F802DB9
:1033F000910D1124089591110C94AE1A803219F098
:1034000089508550C8F70895E89409C097FB3EF4A9
:1034100090958095709561957F4F8F4F9F4F992321
:10342000A9F0F92F96E9BB279395F695879577959F
:103430006795B795F111F8CFFAF4BB0F11F460FF5F
:103440001BC06F5F7F4F8F4F9F4F16C0882311F0B7
:1034500096E911C0772321F09EE8872F762F05C0CB
:10346000662371F096E8862F70E060E02AF09A9566
:10347000660F771F881FDAF7880F9695879597F95B
:1034800008950E94541A0C94C81A0E94BA1A38F06F
:103490000E94C11A20F0952311F00C94B11A0C94DB
:1034A000B71A11240C94FC1A0E94D91A70F3959F34
:1034B000C1F3950F50E0551F629FF001729FBB272B
:1034C000F00DB11D639FAA27F00DB11DAA1F649FC7
:1034D0006627B00DA11D661F829F2227B00DA11D7A
:1034E000621F739FB00DA11D621F839FA00D611D00
:1034F000221F749F3327A00D611D231F849F600D21
:10350000211D822F762F6A2F11249F5750409AF049
:10351000F1F088234AF0EE0FFF1FBB1F661F771FD5
:10352000881F91505040A9F79E3F510580F00C94A0
:10353000B11A0C94FC1A5F3FE4F3983ED4F38695DD
:1035400077956795B795F795E7959F5FC1F7FE2B40
:10355000880F911D9695879597F908959927882743
:10356000089597F99F6780E870E060E008959FEF05
:1035700080EC089500240A9416161706180609060A
:10358000089500240A9412161306140605060895D9
:10359000092E0394000C11F4882352F0BB0F40F461
:1035A000BF2B11F460FF04C06F5F7F4F8F4F9F4FA1
:1035B000089557FD9058440F551F59F05F3F71F023
:1035C0004795880F97FB991F61F09F3F79F087958A
:1035D0000895121613061406551FF2CF4695F1DF13
:1035E00008C0161617061806991FF1CF86957105A3
:1035F000610508940895E894BB2766277727CB01D7
:1036000097F90895F999FECF92BD81BDF89A99274F
:1036100080B50895262FF999FECF1FBA92BD81BDBE
:1036200020BD0FB6F894FA9AF99A0FBE0196089544
:10363000052E97FB1EF400940E942F1B57FD07D008
:103640000E94811B07FC03D04EF40C942F1B509555
:103650004095309521953F4F4F4F5F4F089590957E
:103660008095709561957F4F8F4F9F4F08950E9471
:10367000A31BA59F900DB49F900DA49F800D911D3D
:1036800011240895B7FF0C94371B0E94371B821B2F
:10369000930B08952F923F924F925F926F927F9279
:1036A0008F929F92AF92BF92CF92DF92EF92FF9252
:1036B0000F931F93CF93DF93CDB7DEB7CA1BDB0BFE
:1036C0000FB6F894DEBF0FBECDBF09942A883988A3
:1036D00048885F846E847D848C849B84AA84B984AA
:1036E000C884DF80EE80FD800C811B81AA81B981B6
:1036F000CE0FD11D0FB6F894DEBF0FBECDBFED01CA
:103700000895A1E21A2EAA1BBB1BFD010DC0AA1F22
:10371000BB1FEE1FFF1FA217B307E407F50720F03A
:10372000A21BB30BE40BF50B661F771F881F991FB5
:103730001A9469F760957095809590959B01AC01FE
:10374000BD01CF010895A29FB001B39FC001A39F07
:10375000700D811D1124911DB29F700D811D1124CA
:10376000911D08950E94C61B0C94C81A0E94C11A8C
:1037700058F00E94BA1A40F029F45F3F29F00C94E7
:10378000B11A51110C94FC1A0C94B71A0E94D91A50
:1037900068F39923B1F3552391F3951B550BBB2780
:1037A000AA2762177307840738F09F5F5F4F220FC5
:1037B000331F441FAA1FA9F335D00E2E3AF0E0E8BC
:1037C00032D091505040E695001CCAF72BD0FE2F06
:1037D00029D0660F771F881FBB1F2617370748079A
:1037E000AB07B0E809F0BB0B802DBF01FF27935852
:1037F0005F4F3AF09E3F510578F00C94B11A0C944B
:10380000FC1A5F3FE4F3983ED4F38695779567956D
:10381000B795F7959F5FC9F7880F911D9695879586
:1038200097F90895E1E0660F771F881FBB1F6217A5
:1038300073078407BA0720F0621B730B840BBA0B63
:10384000EE1F88F7E09508950E942B1C6894B11133
:103850000C94FC1A08950E94E11A88F09F5798F082
:10386000B92F9927B751B0F0E1F0660F771F881F85
:10387000991F1AF0BA95C9F714C0B13091F00E949F
:10388000FB1AB1E008950C94FB1A672F782F882754
:10389000B85F39F0B93FCCF3869577956795B395C6
:1038A000D9F73EF490958095709561957F4F8F4F35
:1038B0009F4F0895AA1BBB1B51E107C0AA1FBB1F46
:1038C000A617B70710F0A61BB70B881F991F5A95AC
:1038D000A9F780959095BC01CD01089597FB072E1F
:1038E00016F4009407D077FD09D00E945A1C07FCFB
:1038F00005D03EF4909581959F4F08957095619500
:103900007F4F0895EE0FFF1F0590F491E02D09946D
:103910000F931F93CF93DF938230910510F482E0D1
:1039200090E0E091DF06F091E00630E020E0B0E0CA
:10393000A0E0309799F42115310509F44AC0281BFD
:10394000390B24303105D8F58A819B8161157105C9
:1039500089F1FB0193838283FE0111C04081518173
:103960000281138148175907E0F04817590799F465
:10397000109761F012960C93129713961C9332963F
:10398000CF01DF91CF911F910F9108950093DF0632
:103990001093E006F4CF2115310551F0421753077B
:1039A00038F0A901DB019A01BD01DF01F801C1CFA7
:1039B000EF01F9CF9093E0068093DF06CDCFFE01B3
:1039C000E20FF31F819391932250310939832883A9
:1039D000D7CF2091DD063091DE06232B41F42091D4
:1039E0001B0130911C013093DE062093DD062091EF
:1039F000190130911A012115310541F42DB73EB757
:103A000040911D0150911E01241B350BE091DD06F4
:103A1000F091DE06E217F307A0F42E1B3F0B2817E8
:103A2000390778F0AC014E5F5F4F2417350748F037
:103A30004E0F5F1F5093DE064093DD0681939193F6
:103A40009FCFF0E0E0E09CCFCF93DF930097E9F0C9
:103A5000FC01329713821282A091DF06B091E0063A
:103A6000ED0130E020E01097A1F420813181820F38
:103A7000931F2091DD063091DE062817390709F0E3
:103A800061C0F093DE06E093DD06DF91CF910895EB
:103A9000EA01CE17DF07E8F54A815B819E014115F7
:103AA0005105B1F7E901FB83EA8349915991C40FAC
:103AB000D51FEC17FD0761F4808191810296840F78
:103AC000951FE90199838883828193819B838A83EF
:103AD000F0E0E0E012968D919C9113970097B9F574
:103AE0002D913C911197CD010296820F931F209149
:103AF000DD063091DE062817390739F6309751F583
:103B00001092E0061092DF06B093DE06A093DD0669
:103B1000BCCFD383C28340815181840F951FC817C6
:103B2000D90761F44E5F5F4F88819981480F591F13
:103B3000518340838A819B81938382832115310540
:103B400009F0B0CFF093E006E093DF069ECFFD01D1
:103B5000DC01C0CF13821282D7CFB0E0A0E0E3EB4C
:103B6000FDE10C944C1B8C01009751F4CB010E9499
:103B7000881C8C01C801CDB7DEB7E0E10C94681B4E
:103B8000FC01E60FF71F9C0122503109E217F307F1
:103B900008F49DC0D901CD91DC911197C617D707C4
:103BA00098F0C530D10530F3CE01049786179707FA
:103BB00008F3C61BD70B2297C193D1936D937C93C7
:103BC000CF010E94241DD6CF5B01AC1ABD0A4C0167
:103BD0008C0E9D1EA091DF06B091E006512C412C69
:103BE000F12CE12C109731F58091DD069091DE06E5
:103BF0008815990509F05CC04616570608F058C0AC
:103C00008091190190911A01009741F48DB79EB7E8
:103C100040911D0150911E01841B950BE817F90777
:103C200008F055C0F093DE06E093DD06F9017183DC
:103C30006083A0CF8D919C91119712966C901297F2
:103C400013967C901397A815B90559F56C0142E0BD
:103C5000C40ED11CCA14DB0420F1AC014A195B0963
:103C6000DA011296159780F0628273825183408345
:103C7000D9016D937C93E114F10471F0D70113968F
:103C8000FC93EE93129776CF22968C0F9D1FF9012D
:103C900091838083F301EFCFF093E006E093DF069A
:103CA00069CF4816590608F42C017D01D3019ACF3B
:103CB000CB010E94881C7C01009749F0AE01B8013D
:103CC0000E946A1EC8010E94241D870153CF10E084
:103CD00000E050CFFB01DC0102C001900D92415089
:103CE0005040D8F70895DC0101C06D934150504019
:103CF000E0F70895FB01DC018D910190801901101E
:103D0000D9F3990B0895FB01DC0101900D9200207D
:103D1000E1F70895FB01DC014150504030F08D91F6
:103D20000190801919F40020B9F7881B990B0895A8
:103D3000FB01DC014150504048F001900D92002001
:103D4000C9F701C01D9241505040E0F7089510E0BE
:103D5000CCEDD0E004C0FE010E94821C2196CD3D36
:083D6000D107C9F7F894FFCF69
:103D6800FFFFFFFFFFFF00E100000000000019FC5B
:103D7800FFFF00C180810000000000E10680000014
:103D88000000001D0607063E063306B706430693E5
:103D980006000000001D08F0077F08CD071702DDA8
:103DA80007CE0700000000D1064A070F07F4060DEA
:103DB8000A004F4B3A2053657474696E677320721A
:103DC8006573657420746F2064656661756C7473BF
:103DD80000564552544943414C00484F52495A4FA6
:103DE8004E54414C00594553004E4F004D616753A6
:103DF80063726F6C6C204D4944492D436F6D70613F
:103E08007469626C652056657273696F6E00456EE1
:103E1800636F64657220696E697469616C697A653B
:103E2800642E20506F736974696F6E3A2000456E76
:103E3800636F64657220696E697469616C697A651B
:103E48006420746F20300043757272656E7420733D
:103E5800656E73697469766974793A20004375727E
:103E680072656E74206465616462616E643A2000F4
:103E7800526571756972656420636F6E6669646501
:103E88006E63653A200048494420696E6974696127
:103E98006C697A65642061732067656E6572696311
:103EA80020636F6E74726F6C206465766963650059
:103EB8004944454E54494659004D41475343524F92
:103EC8004C4C5F4D4944495F524541445900534564
:103ED800545F434F4C4F52004343570049444C45AD
:103EE800004552524F523A20496E76616C696420FF
:103EF800636F6C6F72206D6F6465004F4B3A20439F
:103F08006F6C6F72207570646174656400455252FD
:103F18004F523A20496E76616C6964205345545F6C
:103F2800434F4C4F5220666F726D61740053455475
:103F38005F53454E5349544956495459004F4B3ADB
:103F48002053656E73697469766974792075706435
:103F580061746564004E6577206465616462616EB2
:103F6800643A20004552524F523A2053656E7369A5
:103F7800746976697479206D75737420626520316F
:103F88002D313000434C4541525F4C454453004F5E
:103F98004B3A204C45447320636C6561726564003C
:103FA8005345545F4252494748544E455353004F76
:103FB8004B3A204272696768746E65737320757036
:103FC8006461746564004552524F523A20427269E6
:103FD8006768746E657373206D75737420626520ED
:103FE800302D323535005345545F44494D425249CE
:103FF8004748544E455353004F4B3A2044696D206F
:104008006272696768746E65737320757064617431
:104018006564004552524F523A2044696D206272DD
:10402800696768746E657373206D75737420626553
:1040380020302D323535005345545F44494D4445B1
:104048004C4159004F4B3A2044696D2064656C61BE
:10405800792075706461746564004552524F523A14
:104068002044696D2064656C6179206D75737420D6
:10407800626520312D3630207365636F6E6473007E
:104088004745545F53455454494E4753005345548C
:1040980054494E47533A56434F4C3D002C007C48F8
:1040A800434F4C3D007C4357434F4C3D007C4343BA
:1040B80057434F4C3D007C49444C45434F4C3D00D1
:1040C8007C53454E533D007C4252494748543D007D
:1040D8007C44494D4252494748543D007C44494D2F
:1040E80044454C41593D004745545F53544154554C
:1040F80053005354415455533A4D4F44453D007C69
:1041080044494D6D65643D007C434F4E4E454354D4
:1041180045443D31007C4849445F4D4F44453D523C
:1041280041570052455345545F53455454494E47EF
:10413800530050494E4700504F4E47004552524F8A
:10414800523A20556E6B6E6F776E20636F6D6D619E
:104158006E6400444F55424C45205441502044451C
:1041680054454354454421004D6F64652073776975
:0C417800746368656420746F3A200000D6
:00000001FF
