:100000000C943D010C9465010C9465010C94650100
:100010000C9465010C9465010C9465010C946501C8
:100020000C9465010C9465010C94DC0D0C944B0E42
:100030000C9465010C9465010C9465010C946501A8
:100040000C9465010C9465010C9465010C94650198
:100050000C9465010C9465010C9465010C94920D4F
:100060000C9465010C9465010C9465010C94650178
:100070000C9465010C9465010C9465010C94650168
:100080000C9465010C9465010C9465010C94650158
:100090000C947D100C9465010C9465010C94650121
:1000A0000C9465010C9465010C946501000000003E
:1000B000000000002A2B28000000000000000000C3
:1000C0000000000000000000000000002C9EB4A012
:1000D000A1A2A434A6A7A5AE362D3738271E1F200F
:1000E000212223242526B333B62EB7B89F848586D4
:1000F0008788898A8B8C8D8E8F9091929394959618
:100100009798999A9B9C9D2F3130A3AD3504050695
:100110000708090A0B0C0D0E0F10111213141516F7
:100120001718191A1B1C1DAFB1B0B500080B00023F
:10013000020201000904000001020200000524007F
:100140001001052401010104240206052406000112
:100150000705810310004009040100020A000000A5
:100160000705020240000007058302400000040367
:10017000090412010002EF0201400912534D00016F
:1001800001020301486179726954656368004D6139
:10019000675363726F6C6C0000000000240027003E
:1001A0002A002D0030000000000200090F000003AB
:1001B0000401000C0000000000000000000000002E
:1001C000000000000005010906A1018502050719CC
:1001D000E029E71500250175019508810295017553
:1001E0000881039506750815002573050719002970
:1001F000738100C005010902A1010901A100850167
:1002000005091901290315002501950375018102CE
:1002100095017505810305010930093109381581FA
:10022000257F750895038106C0C0040802011040AF
:10023000804010204080408008020401804020104F
:1002400002011080102040402000000000250028FE
:10025000002B002E003100040404040403040502F2
:100260000202020403020202020606060606060451
:10027000040202020404CF11991B11241FBECFEF08
:10028000DAE0DEBFCDBF15E0A0E0B1E0E8E6F1E4E2
:1002900002C005900D92AC39B107D9F727E0ACE95F
:1002A000B5E001C01D92AD37B207E1F711E0CCE334
:1002B000D1E004C02197FE010E94821ECB33D107FA
:1002C000C9F70E941B130C94A7200C9400008F9276
:1002D0009F92AF92BF92CF92DF92EF92FF92CF9315
:1002E000209163073091640782179307E8F54B016B
:1002F000AA24BB24C82DC52ED62EE72EFF24BC2D44
:10030000A42F20916907222361F0829E40011124CD
:10031000C92D2C9D60011124BD2D249FF0011124B5
:10032000AF2FE0916F07E0906A07F0906B07309174
:100330006C07E31323C09C01220F331F820F931F0E
:100340008E0D9F1DE0916C07E80FF92FF11DC08302
:10035000E0916D07E80FF92FF11DB08320916E0732
:10036000820F911DFC01A083CF91FF90EF90DF9051
:10037000CF90BF90AF909F908F900895880F991F56
:10038000880F991F8E0D9F1D472F552766277727AA
:10039000222349F030E0249F7001259FF00C349F08
:1003A000F00C11244F2DE80FF92FF11D4083CACF17
:1003B0009091C0069111FCCF91E09093C00690936C
:1003C000BF062FEF2093BE061092BD06260F209386
:1003D000BC069093BB069091BB06880F892B809337
:1003E000BB068091BA068130F9F41092BA0680916A
:1003F000BB068093BB008091BC0083FDF8CF85ECE9
:100400008093BC008091C0068130E1F38091BD06ED
:10041000861710F46091BD06AAE9B6E0EAE7F6E0B7
:1004200080E0861303C0089585EEEACF9D919193F5
:100430008F5FF7CF982F2091790681E0213208F065
:1004400043C08091C0068111FCCF8091780632E0D4
:100450003093C0069093BF069FEF9093BE06109214
:10046000BD062093BC06A8E5B6E0EAE9F6E090E018
:10047000291331C01092BB069091BB06880F892BBF
:100480008093BB068091BA06813049F51092BA0676
:100490008091BB068093BB008091BC0083FDF8CFA8
:1004A00085EC8093BC008091C0068230E1F380919E
:1004B000BE068F3FB1F08091BE068032A1F08091E0
:1004C000BE06803391F084E01092570610927906B0
:1004D0001092560608953D9131939F5FC9CF85EEE6
:1004E000E0CF80E0F1CF82E0EFCF83E0EDCF8091ED
:1004F000540690915506891B990B08951F93CF932D
:10050000DF9311E0180F209169071217A1F1C09134
:100510006A07D0916B07215070E060E061F08F3F77
:10052000F1F430E050E040E06FEF7FEF80E090E0EA
:100530000E94181DB901FE014091650750916607A0
:10054000CF018C1B9D0B8417950798F44081469F23
:10055000C001479F900D112490833196EDCF812FDC
:1005600090E0982F88270197622F70E00E945A1E12
:10057000E2CF10936907DF91CF911F9108950895FD
:100580000895FC0180914B06882311F13FB7F89440
:1005900082E08093E9002091F200822F90E018160B
:1005A000190614F481E090E0882339F0289844E695
:1005B00040934A064091F1004083222339F0209174
:1005C000F200211103C02BE62093E8003FBF0895FD
:1005D0008FEF9FEF0895282F30E0F901EA55FE4F85
:1005E0009491F901E65DFD4F8491295A3D4FF9013F
:1005F0002491222309F430C09923E9F091509F30CF
:10060000D0F4E92FF0E0E95FFC4F0C94821E350333
:10061000390316032D0331031B031B031B033C0388
:10062000420346034A0350031B0354039091800086
:100630009F7790938000E22FF0E0EE0FFF1FE75BC3
:10064000FD4FA591B4919FB7F894EC91611132C020
:1006500080958E238C939FBF0895909180009F7DFD
:10066000E8CF90918000977FE4CF94B59F7794BDB9
:10067000E2CF94B59F7DFBCF909190009F779093B0
:100680009000D9CF909190009F7DF9CF90919000EC
:10069000977FF5CF9091C0009F779093C000CBCF0C
:1006A0009091C0009F7DF9CF9091C200977F909369
:1006B000C200C1CF8E2BCECF109255061092540699
:1006C00010925706109279061092C00681E080932E
:1006D000BF061092BA0661E082E00E94EB0261E080
:1006E00083E00E94EB02E9EBF0E080818E7F808363
:1006F00080818D7F808388E48093B80085E4809337
:10070000BC008FEB92E090934F0680934E0680ECF6
:1007100092E090934D0680934C060895CF93DF931B
:1007200090E0FC01E65DFD4F2491895A9D4FFC014C
:1007300084918823D1F090E0880F991FFC01E8563E
:10074000FE4FA591B491FC01E75BFD4FC591D4919B
:1007500061110EC09FB7F8948C91E22FE0958E2323
:100760008C932881E223E8839FBFDF91CF91089586
:100770008FB7F894EC91E22BEC938FBFF6CF3FB795
:10078000F8948091460690914706A0914806B09152
:10079000490626B5A89B05C02F3F19F00196A11D5B
:1007A000B11D3FBFBA2FA92F982F8827BC01CD01BB
:1007B000620F711D811D911D42E0660F771F881F1A
:1007C000991F4A95D1F708950F931F93CF93DF9305
:1007D000CDB7DEB729970FB6F894DEBF0FBECDBFF9
:1007E00080916A0790916B07892B09F47CC00E9465
:1007F000BF0300917007109171072091720730912B
:100800007307601771078207930740F460937007BE
:10081000709371078093720790937307009170072C
:10082000109171072091720730917307601B710B53
:10083000820B930B6C32714081059105C0F2F894E4
:1008400080916507909166079A838983E0916A0792
:10085000F0916B07DF011196808189879091610784
:10086000E0917407F091750780917607992309F458
:1008700045C09081982B98879081809589238F839C
:100880008F818C8388E08B8358856F8149853B817C
:100890002C8189819A81508347FD252F3A952083A9
:1008A000262F39F0441F00C000006083000000C004
:1008B000F2CF38E04D9160830000019761F7F0932B
:1008C0007507E093740749873B832C839A83898358
:1008D00078940E94BF0360937007709371078093B0
:1008E00072079093730729960FB6F894DEBF0FBE78
:1008F000CDBFDF91CF911F910F9108959081982BDB
:1009000098879081809589238F838F818E8388E05B
:100910008D8358856F8149853D812E8189819A819A
:10092000508347FD252F00C000C0208300C000C0B9
:1009300000C000C000C060830000262F3A9541F03F
:10094000441F000000C000C000C000C000C0E8CFCD
:1009500038E04D9100C0608300C0019709F7F09323
:100960007507E093740749873D832E83AFCF8F923D
:100970009F92AF92BF92CF92DF92EF92FF926B0164
:100980007C010E94BF034B015C01C114D104E1044E
:10099000F104B9F00E94BF03681979098A099B091B
:1009A000683E73408105910580F321E0C21AD108A9
:1009B000E108F10888EE880E83E0981EA11CB11CA6
:1009C000E4CFFF90EF90DF90CF90BF90AF909F90DB
:1009D0008F9008950895409108065091090620913E
:1009E00006063091070642175307B4F49091E800C9
:1009F0009570E1F39091E80092FD19C08093F100A9
:100A0000809108069091090601968F739927892B8A
:100A100019F48EEF8093E800809108069091090602
:100A20000196909309068093080681E0089580E07E
:100A30000895DF92EF92FF920F931F93CF93DF936E
:100A4000D82E8A01EB017B01E40EF51ECE15DF05E1
:100A500059F0D7FE12C0FE0184910E94EB0421964A
:100A60008111F4CF0FEF1FEFC801DF91CF911F91DC
:100A70000F91FF90EF90DF9008958881EECF2FB710
:100A8000F89487708093E9009091E800892F807234
:100A900095FF04C09091F20080E4891B2FBF089558
:100AA0007F928F929F92AF92BF92CF92DF92EF92FE
:100AB000FF920F931F93CF93DF93C82E8B017A0180
:100AC00080914B06811110C08FEF9FEFDF91CF9186
:100AD0001F910F91FF90EF90DF90CF90BF90AF905C
:100AE0009F908F907F90089580910C0680FF05C0A5
:100AF0008091E00082608093E000CE2DDF2DD12C2C
:100B00008AEFB82E8C2D8770982E8C2D8072882EAF
:100B10008C2D8074782E9AE3A92E209719F4DD206D
:100B200009F452C08C2D0E943F0581110AC0BA946D
:100B3000BB2051F261E070E080E090E00E94B704D9
:100B4000ECCF8C171D0611F00CF08C2F9FB7F8948A
:100B50009092E9002091E80025FD02C09FBFDDCF03
:100B6000282F30E0C21BD30B882029F08150A0F041
:100B70001092F100FBCFF801C7FC0AC0815050F081
:100B800041914093F100FACF44914093F1003196A6
:100B90008150D0F7020F131FDD2021F0A092E80052
:100BA000D12CDCCF8091E80085FD07C0A092E80041
:100BB000DD24D394209791F2F3CF209779F6772014
:100BC00069F2A092E800CACF5D9884E680930B0694
:100BD000C7017CCF615030F02091F100FC012083EF
:100BE0000196F8CF289884E680934A06089580916C
:100BF000FE0581110DC082E08093FA0584E08093A8
:100C0000FB051092FD051092FC0581E08093FE0526
:100C10008AEF95E008950F931F93CF93DF931F9270
:100C2000CDB7DEB782E0898342E450E06CE271E048
:100C300080E80E9419050E94F705DC0112960D91CB
:100C40001C910115110589F0D801ED91FC910280EC
:100C5000F381E02DBE016F5F7F4FC801099597FDBD
:100C600004C0F80100851185ECCF89810F90DF91D8
:100C7000CF911F910F910895CF93DF93EC01809155
:100C80001401882331F083E00E94500518161906DC
:100C900034F081E090E09B838A8380E090E0DF91F4
:100CA000CF910895CF93DF931F92CDB7DEB76983BD
:100CB000DC01ED91FC910280F381E02D41E050E0F8
:100CC000BE016F5F7F4F09950F90DF91CF9108951F
:100CD00083E08093E9008091F200882319F08AE391
:100CE0008093E800089583E00E943F0590E0089516
:100CF000CF93DF931F92CDB7DEB7FC018485958536
:100D000097FD08C02FEF3FEF358724870F90DF91C5
:100D1000CF910895CE0101960E94C102019719F466
:100D2000898190E0F3CF8FEF9FEFF0CF2FB7F8944A
:100D30008091500690915106A0915206B0915306B1
:100D40002FBF8093C9069093CA06A093CB06B09399
:100D5000CC0681EC96E00E94780697FF26C02FB75C
:100D6000F8948091500690915106A0915206B0914E
:100D700053062FBF4091C9065091CA066091CB0619
:100D80007091CC06841B950BA60BB70B4091C50642
:100D90005091C6066091C7067091C80684179507E2
:100DA000A607B707B0F28FEF9FEF08950F931F9339
:100DB000CF93DF931F92CDB7DEB78C01FC01848502
:100DC000958597FF0BC0CE0101960E94C102019745
:100DD00071F4898190E0F80195878487F801848512
:100DE00095850F90DF91CF911F910F9108958FEF0F
:100DF0009FEFF1CFFC018485958597FD0BC09FB7D0
:100E0000F89482E08093E9008091F2009FBF90E027
:100E1000019608959FB7F89482E08093E90080914D
:100E2000F2009FBF90E008958EBD00000DB407FE54
:100E3000FDCF8EB50895CF92DF92EF92FF920F9380
:100E40001F93CF93DF936C01EB017B01E40EF51E42
:100E500010E000E0CE15DF0581F069916D30D1F32F
:100E6000D601ED91FC910190F081E02DC60109952C
:100E7000892B19F00F5F1F4FEDCFC801DF91CF9184
:100E80001F910F91FF90EF90DF90CF9008950895FC
:100E9000DC01FB0112962C91129784819581281711
:100EA000190641F491818081813A31F49D7F81E07E
:100EB000913009F080E008958132E1F79B3029F408
:100EC00082811F968C9381E008959A3099F78281F0
:100ED00050968C93F8CFAF92BF92CF92DF92EF9261
:100EE000FF920F931F93CF93DF931F92CDB7DEB77F
:100EF0007C0169836A01590141E050E0BE016F5FE6
:100F00007F4FFC0183810E9450058C0197FD0BC02F
:100F1000F7018381A501B60180640E945005080F86
:100F2000191F97FD8C01C8010F90DF91CF911F9180
:100F30000F91FF90EF90DF90CF90BF90AF9008950A
:100F4000DC01FB0188E4808389E4818384E482837B
:100F50001D969C911D979F709F5B93831D968D910D
:100F60009C9124E0969587952A95E1F78F708F5B89
:100F7000848385E00895EF92FF920F931F93CF93A0
:100F8000DF93FB012081213871F52381223259F54D
:100F9000DC0112964C91248135814217130619F514
:100FA000EC010B851C85F12CE12C0115110589F054
:100FB000F801448155816281738180E80E9419059E
:100FC0008F3F980749F0E80EF91ED8010D911C914A
:100FD000ECCF81E08F87C701DF91CF911F910F91F7
:100FE000FF90EF90089590E080E0F6CFCF93DF93ED
:100FF000CDB7DEB769970FB6F894DEBF0FBECDBF91
:10100000FC01DB018C918F5F8C939E012D5F3F4F24
:101010008DE0D9011D928A95E9F729E0298384E0C2
:101020008A8391E09D8383E08E832A8721E22B8748
:101030009C879D879F8722E2288B27E02B8B25E0CA
:101040002C8B8E8B20E430E0388F2F8B998F828110
:101050008B8395858685998B8A8B838180688D8B20
:1010600049E150E0BE016F5F7F4F80E00E941905AB
:1010700069960FB6F894DEBF0FBECDBFDF91CF915A
:101080000895CF93DF938091F205811167C081E0CD
:101090008093E5058093E6052BEE35E03093E80577
:1010A0002093E7051092EA051092E90523E231E06A
:1010B0003093E2052093E1051092ED051092EC05C6
:1010C0001092EF051092EE058093F0058093F105E4
:1010D00081EC8093EB050E94F705FC0181819091E2
:1010E000E505482F490F5527551F483051059CF5F8
:1010F000A281B381109709F521EE35E03383228375
:1011000020812093E3058093E4058091E605820F1A
:1011100080832091E705A22FB091E8058A2F821BDA
:101120008917C8F481813D91C82FD0E0CE5FDE4F92
:1011300038838F5F8183F2CFD90118962D913C912E
:10114000199721153105C1F721EE35E019963C9329
:101150002E931897D5CF81E08093F20581EE95E02C
:10116000DF91CF910895CF93DF93EC01683858F168
:1011700068588E818617D1F08F818617B9F08885DF
:101180008617A1F08985861789F08A85861771F000
:101190008B85861759F0FE01369690E080E021910C
:1011A000211137C08C0F9D1FFC0166830E944108EE
:1011B000AE014C5F5F4F28E030E062E00E946B07B9
:1011C00081E090E01CC0E62FF0E067FF0DC0E05822
:1011D000F10921E030E001C0220FEA95EAF78C81A5
:1011E000822B8C8360E0C5CFE455FF4F6491611181
:1011F00009C081E090E09B838A8390E080E0DF91EA
:10120000CF91089567FFB5CF8C8182608C836F7713
:10121000B0CF01968630910509F0C1CFEACFCF93C8
:10122000DF93EC016838E0F06858FE0186E0662341
:1012300021F09681961301C016828150319681115A
:10124000F6CF0E944108AE014C5F5F4F28E030E0CE
:1012500062E00E946B0781E090E0DF91CF910895FA
:10126000E62FF0E067FF0EC0E058F10981E090E062
:1012700001C0880FEA95EAF780959C8189238C83C9
:1012800060E0D3CFE455FF4F649190E080E06623A7
:1012900021F367FFCACF8C818D7F8C836F77C5CF99
:1012A000EF92FF921F93CF93DF93EC01162F0E94D2
:1012B000B3087C01612FCE010E940F09C701992755
:1012C000DF91CF911F91FF90EF90089585ED80936E
:1012D000BC008091BC0084FDFCCF1092C006089534
:1012E0002091BE05260F3327331F21323105ECF440
:1012F0002091C006FC0190E080E0243069F082E09B
:101300000895A091BE052191AC0142565A4FA40FF9
:10131000B52FB11D2C930196861798F38091BE05C9
:10132000680F6093BE0580E0089581E00895E09124
:10133000550680915406E81730F4F0E0E658F94F6E
:10134000808190E008958FEF9FEF0895909155066A
:10135000809154062FEF3FEF981748F4E92FF0E003
:10136000E658F94F208130E09F5F90935506C90100
:101370000895CF92DF92EF92FF920F931F93CF9336
:10138000DF937C01CB018A0120915606222389F04C
:10139000EB016B01C40ED51ECC15DD0569F069911A
:1013A000D701ED91FC910190F081E02DC7010995E5
:1013B000F3CF642F0E947009C801DF91CF911F9174
:1013C0000F91FF90EF90DF90CF900895CF93DF9330
:1013D0001F92CDB7DEB76983209156062223F9F01C
:1013E00020917906203258F021E030E0FC0133836F
:1013F000228390E080E00F90DF91CF91089580915B
:101400005706E82FF0E0E85AF94F998190838F5FF3
:10141000809357068093790681E090E0ECCF61E0FD
:10142000CE0101960E947009F7CFCF93DF93D82F9A
:10143000C62F80915C078823C9F081E0809356060F
:1014400083E58093780610925706109279066D2FE7
:101450008AE397E00E94E6096C2F8AE397E00E94F6
:10146000E60981E0DF91CF910C941A0260E080914F
:101470005A070E94EB028D2F0E9414078C2F0E94A6
:10148000140761E080915A07DF91CF910C94EB0231
:1014900090E080E00895CF92DF92EF92FF92CF9399
:1014A000DF93C42ED12CF12CE12CD62AE82AD0E0EF
:1014B000C0E0B701A601CE010E9467012196CC30A1
:1014C000D105B9F7DF91CF91FF90EF90DF90CF90EA
:1014D0000C94E403E5E2F6E080E09191892796E040
:1014E000EC33F907D1F708952091360630E050E04B
:1014F00040E02150310941095109ADEFBFEF0E9491
:10150000451D29E030E040E050E00E94181DDA015E
:10151000C9010496A11DB11D0895FF920F931F9359
:10152000CF93DF93182FEB0180915C078823C1F1E3
:1015300081E08093560683E58093780610925706E3
:1015400010927906612F8AE397E00E94E60981E014
:101550000E941A0261E083E50E94D801F82E1092E1
:101560005506809354068E01C8018C1B9D0B20915B
:101570005506F21641F08AE397E00E94A609F801A9
:1015800081938F01F1CF019729F01092460781E0F6
:1015900080934707DF91CF911F910F91FF9008959E
:1015A00060E080915A070E94EB02812F80680E94C0
:1015B000140780E00E941407888361E080915A0735
:1015C000DF91CF911F910F91FF900C94EB02FF924E
:1015D0000F931F93CF93DF931F92CDB7DEB7182FD2
:1015E000F62E042FBE016F5F7F4F0E948D0A21E00F
:1015F00030E001C0220FFA94EAF78981002369F0F4
:10160000822B89836981812F0E94150A0F90DF91B7
:10161000CF911F910F91FF90089520958223F1CFD4
:10162000CF9381E08093560686E3809378061092EC
:101630005706109279066CE08AE397E00E94E6096B
:1016400081E00E941A0262E086E30E94D8011092B3
:101650005506809354068230F0F38AE397E00E94A7
:10166000A609C82F8AE397E00E94A60920E0822BF2
:101670009C2BCF910895FC01808191810C94241FB3
:10168000E1E6F7E04481558170E060E08185928574
:101690000C947320CF93DF93C82F0E94400B80914E
:1016A0009C0590919D05CC2399F130913006409195
:1016B0003106209132060B966CE070E00E946E1E9F
:1016C00090939D0580939C05C0919C05D0919D05AC
:1016D00050E070E060E0762F652F542F4427632B95
:1016E000422BCE010E94670180910001909101017F
:1016F0008F3F980729F040E050E0BA010E9467014F
:10170000D0930101C0930001DF91CF910C94E403C9
:1017100030912D0640912E0620912F060196CCCFB8
:101720000E94400B80910F0690911006892B51F476
:101730004091290660912806809127060E944B0A55
:101740000C94E40340912C0660912B0680912A06AC
:10175000F5CFFC0101900020E9F73197AF01481B5C
:10176000590BBC0181EC96E00C943C068BE591E0B2
:101770000C94A90B8F929F92AF92BF920F931F93DD
:10178000CF93DF93CDB7DEB7A1970FB6F894DEBF46
:101790000FBECDBF19A2423008F44AE08E010F5DA2
:1017A0001F4F842E912CB12CA12CA50194010E94D5
:1017B000811DE62FB901CA01EA30F4F4E05DD801D9
:1017C000EE938D01232B242B252B79F790E080E0DD
:1017D000109719F0CD010E94A90BA1960FB6F894AD
:1017E000DEBF0FBECDBFDF91CF911F910F91BF9094
:1017F000AF909F908F900895E95CE1CFCF92DF92F8
:10180000EF92FF92CF93DF9397FF1BC06B017C0198
:101810006DE281EC96E00E945206EC016627772784
:10182000CB016C197D098E099F094AE00E94BA0B11
:101830008C0F9D1FDF91CF91FF90EF90DF90CF90A5
:1018400008954AE0DF91CF91FF90EF90DF90CF9025
:101850000C94BA0BCF93DF93BC01990F880B990BB3
:101860000E94FE0BEC010E94B60B8C0F9D1FDF91B6
:10187000CF910895682F70E090E080E04AE00C94EA
:10188000BA0BCF93DF930E94A90BEC010E94B60B19
:101890008C0F9D1FDF91CF9108950C94A90B0F938E
:1018A0001F93CF93DF93FC0104811581011511056E
:1018B00039F4FB011082DF91CF911F910F910895B0
:1018C000415051094017510708F48A01EB01FC010E
:1018D00060817181A801CE010E949820C00FD11FA4
:1018E0001882E9CFFC0124813581232B39F421E0D2
:1018F000FB018081882349F020E007C0808191812D
:101900000E947A2021E0892BB9F7822F0895FB01EC
:1019100044815581FC01248135812417350778F0F5
:1019200080819181009759F0FB016081718161157F
:10193000710529F00E948A2021E0892B09F020E01E
:10194000822F08950F931F93CF93DF93EC0188812B
:101950009981009759F02A813B812617370730F08B
:1019600081E0DF91CF911F910F9108958B016F5FFF
:101970007F4F0E94AD1F009759F0998388831B8386
:101980000A832C813D81232B59F7FC011082E8CF7B
:1019900080E0E7CFEF92FF920F931F93CF93DF93F7
:1019A000EC01198218821B821A821D821C82861702
:1019B0009707D9F0FB010081118101151105A9F0EC
:1019C000E480F580B7010E94A20C28813981811141
:1019D00013C02115310519F0C9010E94241F198275
:1019E00018821D821C821B821A82DF91CF911F9167
:1019F0000F91FF90EF900895FD82EC82B801C9012C
:101A0000DF91CF911F910F91FF90EF900C94832065
:101A1000EF92FF920F931F93CF93DF93EC017B0123
:101A2000198218821B821A821D821C82FB0101907E
:101A30000020E9F731978F01061B170BB8010E94B0
:101A4000A20C28813981811113C02115310519F0AB
:101A5000C9010E94241F198218821D821C821B82C8
:101A60001A82DF91CF911F910F91FF90EF9008950F
:101A70001D830C83B701C901DF91CF911F910F9195
:101A8000FF90EF900C948320FF920F931F93CF93BE
:101A9000DF930E946A0A80933C0605E216E0D0E0DC
:101AA000C0E0F801F1908F01CE010E94021DF816EE
:101AB00021F06F2DCE010E940A1D2196C831D1055B
:101AC00081F7DF91CF911F910F91FF900895CF93F0
:101AD000DF93C5E2D6E01A821B828FEF8C838D8361
:101AE0001E821F82188689871A868B8785EA8C87D3
:101AF0001D8680E88E871F86888B85E0898B88EC21
:101B00008A8B8AE08B8B82E08C8B0E94440D8A89C1
:101B10000E947E020E94900B8EE591E0DF91CF91B2
:101B20000C94410C1F920F920FB60F9211242F9319
:101B30003F938F939F93AF93BF9380915006909163
:101B40005106A0915206B09153063091450623E00C
:101B5000230F2D3758F50196A11DB11D2093450681
:101B60008093500690935106A0935206B09353066B
:101B70008091460690914706A0914806B09149068B
:101B80000196A11DB11D8093460690934706A09330
:101B90004806B0934906BF91AF919F918F913F91B5
:101BA0002F910F900FBE0F901F90189526E8230FCE
:101BB0000296A11DB11DD2CF1F920F920FB60F92A8
:101BC00011248F939F938091E1009091E100937F86
:101BD0009093E10083FF0FC01092E90091E0909391
:101BE000EB001092EC0092E39093ED0010924B0604
:101BF00098E09093F00082FF22C093E09093E90078
:101C00009091F200992319F09AE39093E800909153
:101C10000B06992341F090910B06915090930B067F
:101C2000911101C05D9A90914A06992341F09091DB
:101C30004A06915090934A06911101C0289A84FF58
:101C400018C08091E2008E7E81608093E2008091D6
:101C5000E1008F7E8093E10080910C068E7E806192
:101C600080930C069F918F910F900FBE0F901F9045
:101C7000189580FFF7CF8091E2008E7E806180937F
:101C8000E2008091E1008E7E8093E10080910C065D
:101C90008E7E8160E5CF1F920F920FB60F921124B6
:101CA000CF92DF92EF92FF920F931F932F933F9368
:101CB0004F935F936F937F938F939F93AF93BF9354
:101CC000EF93FF93CF93DF93CDB7DEB76C97DEBF73
:101CD000CDBF1092E9008091E80083FF25C068E045
:101CE000CE0145960E94EA0582EF8093E8008D8937
:101CF00087FF39C09091E80090FFFCCF982F907635
:101D000009F034C19E894F89588D2F89F88C911123
:101D100031C0803861F580910D068093F1001092FA
:101D2000F1008EEF8093E8006C960FB6F894DEBF5A
:101D30000FBECDBFDF91CF91FF91EF91BF91AF91DA
:101D40009F918F917F916F915F914F913F912F91D3
:101D50001F910F91FF90EF90DF90CF900F900FBEEB
:101D60000F901F9018959EEF9093E800C7CF1092A8
:101D7000F100D5CF913059F48111D3CF41305105C5
:101D800081F680910D068D7F80930D06CACF93302A
:101D900049F48111C6CF4130510519F680910D06E5
:101DA0008260F2CF953041F48091E80080FFFCCF53
:101DB00020682093E300B5CF963009F0A9C00B8DC1
:101DC0001C8D22E01092E90010920906109208067C
:101DD000F2122EC010920706109206060E940B0601
:101DE0001F8299E09983FA8291E09E8390EA988716
:101DF0009AEF99872091080630910906275F3F4F97
:101E00003C832B838D831092E90010920906109277
:101E10000806109307060093060649E050E0BE014D
:101E20006F5F7F4F80E00E9419050E940B0679CFFB
:101E300010930706009306060E94F705DC01129630
:101E40000D911C910115110509F451C1D801ED91B5
:101E5000FC910480F581E02DBE016B5E7F4FC801CF
:101E60000995009709F03EC1F80100851185EACF78
:101E7000F3E0FF120EC08F89882309F440C082303E
:101E800061F440E869E08EE891E00E949C118111C4
:101E900048CF81E28093EB0047CF813029F440E8BE
:101EA00069E084E891E0F1CF833099F70E94F7056B
:101EB000DC011296ED90FC908E010F5F1F4F6801C0
:101EC000E114F10479F0D701ED91FC910680F781DE
:101ED000E02DB801C7010995080F111DF701E08435
:101EE000F184EECFD8011C92F60101900020E9F7B1
:101EF0003197BF016C197D0940E0C601C6CF6EE67F
:101F000071E0FB01449150E080E80E94190509CF7F
:101F1000973009F4BECF983021F481E08093F1002E
:101F200000CF993009F0FDCE837009F0B2CFE3E025
:101F3000F1E081E031E096E32191222371F080937A
:101F4000E9003093EB00DF0111972C912093EC0016
:101F50009093ED008F5F873079F78EE78093EA00EA
:101F60001092EA008F8980934B06DBCE8B8D9C8D7F
:101F70001092E90010920906109208069093070645
:101F800080930606898D811192C08E899D89913A30
:101F900049F4813209F07DCF47E050E06DE071E017
:101FA00080E0B3CF913209F074CF833269F48F8926
:101FB000988DB0E0A0E08093090190930A01A0936E
:101FC0000B01B0930C01ADCE803269F48091E80032
:101FD00082FFFCCF67E08DE091E00E94EA058BEF85
:101FE0008093E8009ECE823209F09BCE8F89809349
:101FF0001401EEEFFFE7859194918B3F9C4D51F1D9
:10200000E0E0F8E080910D0190910E01A0910F01A8
:10201000B0911001803B9440A105B105F1F480918D
:10202000140180FD1AC0EE3F8AE0F80789F587E7C2
:1020300097E7918380838091600080930A0688E10E
:102040009BE00FB6F894A895809360000FBE909324
:10205000600067CEEEEFFAE0D5CF808191818737BF
:10206000974709F05ECEA8958091600088618093C3
:10207000600080910A0680936000EE3F2AE0F2073C
:1020800089F08091FE0A9091FF0A9183808349CE66
:10209000808191818737980751F29093FF0A80934E
:1020A000FE0AC5CF1092FF0A1092FE0A3ACE0E9495
:1020B000F705DC0112960D911C910115110509F42B
:1020C000E8CED801ED91FC910190F081E02DBE01A8
:1020D0006B5E7F4FC8010995811123CEF801008501
:1020E0001185EBCF181619060CF41BCED2CEF1E0F9
:1020F000FF12BECE62E771E004CF1F920F920FB6BF
:102100000F9211242F933F934F935F936F937F937D
:102110008F939F93AF93BF93EF93FF938091B900F9
:10212000887F803609F44AC0F0F5883209F4A7C0E8
:1021300018F5803109F49BC0B8F4882309F4F9C07C
:10214000883009F494C0FF91EF91BF91AF919F91B6
:102150008F917F916F915F914F913F912F910F9050
:102160000FBE0F901F901895883109F488C08032F7
:1021700051F78093BE0614C0803409F49DC040F42A
:102180008033B9F38833F9F68093BE0685ECB0C08E
:10219000803509F485C0883509F496C0883499F6ED
:1021A0000E946609D0CF883909F48CC038F5883789
:1021B00029F050F4883611F0803729F683E08093B7
:1021C000C0061092E00557C0883809F47BC08039FA
:1021D00019F0803809F0B7CF8091E005803208F01F
:1021E00071C0E091E00581E08E0F8093E005809161
:1021F000BB00F0E0E054FA4F80833DC0803B39F0F3
:10220000E0F4803A09F479C0883A09F09CCF84E080
:102210008093C0061092BF051092BE05E0914E0655
:10222000F0914F0609958091BE0581110FC081E0A4
:102230008093BE0510929E0509C0803C09F4A6CF8C
:10224000883C09F4A3CF883B09F07DCFE091BF051E
:1022500081E08E0F8093BF05F0E0E256FA4F808157
:102260008093BB009091BF058091BE0529C08091ED
:10227000BB068093BB0085EC8093BC0064CF90913B
:10228000BD068091BC06981758F5E091BD0681E027
:102290008E0F8093BD06F0E0E656F94F8081E9CFBE
:1022A000E091BD0681E08E0F8093BD068091BB005A
:1022B000F0E0E656F94F80839091BD068091BC0610
:1022C0009817C8F285E8D8CFE091BD0681E08E0F5F
:1022D0008093BD068091BB00F0E0E656F94F808305
:1022E0008091BF0681115CCF81E08093BA0684EAB9
:1022F0008093BC001092C00626CF85EC8093BC0072
:102300001092C0068091E005803230F4E091E00543
:10231000F0E0E054FA4F10826091E00570E0E09147
:102320004C06F0914D0680EC95E009951092E00581
:102330000ACF1092BE0634CFEF92FF920F931F93F5
:10234000CF93DF93F82E192FE62E042F81E0860F0E
:10235000880F0E94EB0483E00E94EB04CF2DD12F65
:10236000EC0EFD2EF11CCE15DF05B9F007FF13C0F2
:10237000FE0184910E94EB04182F80E00E94EB0480
:10238000812321968111EFCFDF91CF911F910F9182
:10239000FF90EF9008958881EDCF81E0F5CF109206
:1023A000C4061092C30688EE93E0A0E0B0E08093EC
:1023B000C5069093C606A093C706B093C8068FE2E1
:1023C00091E09093C2068093C1068FEF9FEF9093A8
:1023D000CE068093CD06109222071092210781E449
:1023E00091E09093200780931F0780911707811138
:1023F00013C0109212071092110785EC91E0909390
:102400001407809313078FE290E090931607809350
:10241000150781E0809317070E944108FC01A385FE
:10242000B485109709F0E9C081E197E0948783872C
:10243000858596852091150730911607820F931F89
:10244000968785871092390780913107811113C0D3
:1024500010922C0710922B0784EF91E090932E0797
:1024600080932D0786E390E09093300780932F07A9
:1024700081E0809331070E944108FC01A385B48567
:10248000109709F0C5C08BE297E094878387858514
:10249000968520912F0730913007820F931F9687E2
:1024A000858710923D0710923C0788EE93E0A0E0EC
:1024B000B0E080933E0790933F07A0934007B0930E
:1024C00041078DE491E090933B0780933A07109287
:1024D00062071092690710927007109271071092AC
:1024E00072071092730781E080936F0780936C07E7
:1024F00010926D0792E090936E078093610784E2DB
:1025000090E090936607809365070E94881E9093E1
:102510006B0780936A07009709F484C024E2FC01EA
:1025200011922A95E9F78CE090E0909364078093EC
:10253000630787E190E09093680780936707809135
:102540006207882341F061E087E10E948E0360E02A
:1025500087E10E94EB02EEE6F2E0E491F0E0EE0F9C
:10256000FF1FE75BFD4F85919491909375078093D2
:102570007407E1E4F2E0E491E09376078AE090E00A
:1025800090935B0780935A0781E080935C0740E457
:102590005BE46CE470E040935D0750935E076093EA
:1025A0005F0770936007809346071092470783EC9C
:1025B0009BEAA6E7BBE38093480790934907A09363
:1025C0004A07B0934B0788ED9BE6A6E7BBE38093F1
:1025D0004C0790934D07A0934E07B0934F0782EF9F
:1025E00094EEA4E6BBE38093500790935107A09329
:1025F0005207B09353070895DC018D919C91119778
:102600000097D1F781E197E08D939C9311CFDC0186
:102610008D919C9111970097D1F78BE297E08D9364
:102620009C9335CF1092660710926507109264074D
:10263000109263077ECFCF93DF93CDB7DEB7CC5434
:10264000D1090FB6F894DEBF0FBECDBF789484B524
:10265000826084BD84B5816084BD85B5826085BD9E
:1026600085B5816085BD80916E00816080936E002C
:10267000109281008091810082608093810080911E
:1026800081008160809381008091800081608093CF
:1026900080008091910082608093910080919100F0
:1026A0008160809391008091900081608093900080
:1026B0008091C10084608093C1008091C1008260DC
:1026C0008093C1008091C10081608093C10080919E
:1026D000C30081608093C3008091C00082608093BA
:1026E000C0008091C20081608093C20080917A0016
:1026F000846080937A0080917A00826080937A006F
:1027000080917A00816080937A0080917A0080685D
:1027100080937A0010924B0610920D0610920C06D0
:102720008091D70081608093D70080EA8093D800A1
:1027300089B5806189BD89B5826089BD09B400FE13
:10274000FDCF61E070E080E090E00E94B7048091EE
:10275000D8008F7C80618093D8008091E000807FDA
:102760008093E0008091E1008E7E8093E1008DE017
:102770008093E200559A209A8FEF9FEF9093CE06B8
:102780008093CD060E945C0388E48093B80084E6C1
:1027900090E0A0E0B0E080933E0790933F07A093C5
:1027A0004007B0934107809167079091680797FDB4
:1027B00008C061E00E948E0360E0809167070E947C
:1027C000EB0281E0809362070E94400B55E2E52E08
:1027D00056E0F52E10E000E0C8010E94021DF7014E
:1027E00081937F010F5F1F4F08311105A9F7809179
:1027F00025068D3429F480912606823009F4FAC02A
:102800008DE48093250682E0809326060E94670D62
:102810000E946A0A80933C060E94440D809137060C
:102820000E947E02809137060E947E0235E0E32EF0
:10283000F12C4CE0C42ED12C10E000E00E94400BA3
:1028400040E050E06FEF70E0C8010E9467010F5F49
:102850001F4F40E050E06FEF70E0C8010E94670139
:1028600040E05FEF60E070E0C80105960E946701FC
:10287000C8010696B6010E946E1E40E05FEF60E060
:1028800070E00E9467010E94E40364E670E080E06B
:1028900090E00E94B7040630110581F6F1E0EF1ACE
:1028A000F10851F60E94400B0E94E40381E090E0A1
:1028B00020913B06213011F090E080E090931006CB
:1028C00080930F0680915C0781110E945C0360E099
:1028D0008DE20E94150A60E18DE20E94150A68E00F
:1028E0008DE20E94150ABE016F5F7F4F81E30E9457
:1028F0008D0A69816C7E636081E30E94150A40E065
:1029000062E070E08AE20E94E70A40E061E070E085
:102910008AE20E94E70A41E070E060E08AE20E94F9
:10292000E70A63E28DE10E94150A69E181E20E94F3
:10293000150A64E682E20E94150A6AEF83E20E94A9
:10294000150A40E065E070E08FE20E94E70A41E08E
:1029500065E070E08EE20E94E70A88E991E00E945B
:10296000410C0E94900B64E670E080E090E00E94D1
:10297000B7042AE0A22EB12C10E000E0C12CD12C2B
:1029800076010E94100B8F3F980799F0BC0190E0F0
:1029900080E00E94041C20E030E044EB5DE30E94F4
:1029A000411C0E94241EC60ED71EE81EF91E0F5F92
:1029B0001F4F6AE070E080E090E00E94B70431E0D1
:1029C000A31AB108F1F60115110509F4B6C0980172
:1029D000110F440B550BC701B6010E94181D690168
:1029E0007A01F7FE13C048E6C40E41E0D41EE11C94
:1029F000F11CF7CF10913C0610923C060E946A0A27
:102A0000181709F40BCF0E94670D08CF58E6C516BA
:102A100051E0D506E104F1043CF088E6C81A81E0F3
:102A2000D80AE108F108F2CFC0921501D092160140
:102A3000E0921701F092180186EB91E00E944D0C94
:102A4000C701B6010E94FE0B0E94B60B8FEE91E00B
:102A50000E944D0C809136060E943A0C0E94B60BE3
:102A600085E092E00E944D0C0E94740A0E942A0C9C
:102A700088E192E00E944D0C2091360630E050E053
:102A800040E02150310941095109AEEFBFEF0E94EA
:102A9000451D29E030E040E050E00E94181DDA01B9
:102AA000C9010396A11DB11D0E942A0C2224239462
:102AB000312C8FB7F894409050065090510660909A
:102AC0005206709053068FBF81EC96E00E94FA0682
:102AD000892B09F43BC36DE571E0CE01895B9F4F03
:102AE0000E94080D0E94960697FD34C08A30910519
:102AF00089F189831A822D960EAD1FAD2D970F5F38
:102B00001F4FB801CE01895B9F4F0E94A20C882302
:102B100049F329962EAD3FAD29972D968EAD9FADE9
:102B20002D97BE016F5F7F4F820F931F0E948320FE
:102B30002D961FAF0EAF2D97D5CF86ED91E00E9459
:102B4000410C10921501109216011092170110926B
:102B500018017CCF2996CEACDFAC2997C114D104E3
:102B600041F02D960EAD1FAD2D9776010115110583
:102B700081F46EE272E0CE01895B9F4F0E94720C7D
:102B8000882309F442C087E392E00E94410CD9C235
:102B9000750157019FEFA91AB90AF7018081082E24
:102BA000000C990B0E94FB1B892B91F70150110916
:102BB0000C0D1D1DF8018081082E000C990B0E9440
:102BC000FB1B892B31F00E151F0518F00150110960
:102BD000F1CF0F5F1F4FA8014E195F092D965FAF10
:102BE0004EAF2D97CE14DF0420F4B701C6010E942A
:102BF0006A202996EEADFFAD29972D968EAD9FAD3B
:102C00002D97E80FF91F1082B4CF6BE472E0CE016C
:102C100001960E94080DBE016F5F7F4FCE01895B58
:102C20009F4F0E94870C182FCE0101960E943B0BEC
:102C3000112309F4A3C0BE01695B7F4FCE018F5BF6
:102C40009F4F0E94CA0C40E450E0BE016F5F7F4F6F
:102C5000CE018F5B9F4F0E944F0C66E172E0CE0168
:102C600001960E94C71B66E172E090E080E00E943E
:102C7000C71B8C0166E172E090E080E00E94C71BF8
:102C80005C0166E172E090E080E00E94C71B6C018D
:102C900066E172E090E080E00E94C71B7C010115B4
:102CA000110509F468C0A114B10409F464C0C11489
:102CB000D10409F460C0892B09F45DC0C5010E94EC
:102CC000A91BB82EC6010E94A91BD82EC7010E94BD
:102CD000A91BF82E6DE771E0C8010E947A20892BAC
:102CE00069F4B0922706D0922806F09229060E9435
:102CF000440D0E94900B88E792E03AC066E871E0CC
:102D0000C8010E947A20892B39F4B0922A06D09209
:102D10002B06F0922C06EBCF66E572E0C8010E940C
:102D20007A20892B39F4B0922D06D0922E06F0929B
:102D30002F06DDCF65E572E0C8010E947A20892B5D
:102D400039F4B0923006D0923106F0923206CFCFED
:102D500069E572E0C8010E947A20892B39F4B092AB
:102D60003306D0923406F0923506C1CF8EE592E05C
:102D70000E94410C51C08AE892E0FACF6AEA72E000
:102D8000CE0101960E94080DBE016F5F7F4FCE01FC
:102D9000895B9F4F0E94870C182FCE0101960E94DD
:102DA0003B0B112309F441C0BE01695B7F4FCE018B
:102DB0008F5B9F4F0E94CA0C40E250E0BE016F5FE4
:102DC0007F4FCE018F5B9F4F0E944F0C66E172E0F8
:102DD000CE0101960E94C71B66E172E090E080E0A0
:102DE0000E94C71B0097C1F00E94A91B9C012150A3
:102DF00031092A303105B0F4809336060E94440D23
:102E00008AEB92E00E94410C82ED92E00E944D0C10
:102E10000E94740A0E942A0CCE018F5B9F4F0E9471
:102E20003B0B8FC181EE92E0A3CF61E073E0CE0156
:102E3000895B9F4F0E94720C882339F00E94400BDF
:102E40000E94E4038CE093E0A0CE6DE173E0CE013C
:102E500001960E94080DBE016F5F7F4FCE01895B16
:102E60009F4F0E94870C182FCE0101960E943B0BAA
:102E70001123A9F1BE01695B7F4FCE018F5B9F4F8C
:102E80000E94CA0C40E250E0BE016F5F7F4FCE014E
:102E90008F5B9F4F0E944F0C66E172E0CE0101965E
:102EA0000E94C71B66E172E090E080E00E94C71BB1
:102EB000009709F4B1CF0E94A91B8F3F910509F03B
:102EC00058F4809337060E947E020E94440D0E94AF
:102ED000900B8CE293E04CCF83E493E049CF63E620
:102EE00073E0CE0101960E94080DBE016F5F7F4F17
:102EF000CE01895B9F4F0E94870C182FCE0101964F
:102F00000E943B0B112389F1BE01695B7F4FCE010B
:102F10008F5B9F4F0E94CA0C40E250E0BE016F5F82
:102F20007F4FCE018F5B9F4F0E944F0C66E172E096
:102F3000CE0101960E94C71B66E172E090E080E03E
:102F40000E94C71B009709F467CF0E94A91B8F3FFF
:102F5000910509F038F4809338060E94440D85E706
:102F600093E006CF80E993E003CF64EB73E0CE01FA
:102F700001960E94080DBE016F5F7F4FCE01895BF5
:102F80009F4F0E94870C182FCE0101960E943B0B89
:102F9000112399F1BE01695B7F4FCE018F5B9F4F7B
:102FA0000E94CA0C40E250E0BE016F5F7F4FCE012D
:102FB0008F5B9F4F0E944F0C66E172E0CE0101963D
:102FC0000E94C71B66E172E090E080E00E94C71B90
:102FD000009709F421CF0E94A91B9C0121503109BF
:102FE0002C33310538F4809339060E94440D81EC6E
:102FF00093E0BECE87ED93E0BBCE6DEF73E0CE01E4
:10300000895B9F4F0E94720C882309F4F5C18AE006
:1030100094E00E944D0C809127060E943A0C89E1B1
:1030200094E00E944D0C809128060E943A0C89E1A0
:1030300094E00E944D0C809129060E943A0C8BE18D
:1030400094E00E944D0C80912A060E943A0C89E17E
:1030500094E00E944D0C80912B060E943A0C89E16D
:1030600094E00E944D0C80912C060E943A0C82E262
:1030700094E00E944D0C80912D060E943A0C89E14B
:1030800094E00E944D0C80912E060E943A0C89E13A
:1030900094E00E944D0C80912F060E943A0C8AE227
:1030A00094E00E944D0C809130060E943A0C89E118
:1030B00094E00E944D0C809131060E943A0C89E107
:1030C00094E00E944D0C809132060E943A0C83E3FA
:1030D00094E00E944D0C809133060E943A0C89E1E5
:1030E00094E00E944D0C809134060E943A0C89E1D4
:1030F00094E00E944D0C809135060E943A0C8DE3BD
:1031000094E00E944D0C809136060E943A0C84E4B3
:1031100094E00E944D0C809137060E943A0C8DE499
:1031200094E00E944D0C809138060E943A0C89E58B
:1031300094E00E944D0C809139060E943A0C0E9446
:10314000B60BCE01895B9F4F0E943B0B80914106DD
:1031500090914206A0914306B091440684159505CE
:10316000A605B70509F442C00E94100B8F3F9807CF
:10317000A9F1BC0190E080E00E94041C20E030E056
:1031800044EB5DE30E94411C0E94241E6B017C0104
:103190008FB7F8948090500690905106A0905206F8
:1031A000B09053068FBF80911506882309F4D9C1CA
:1031B0008091110690911206A0911306B091140609
:1031C00088169906AA06BB0608F0C9C1C092150167
:1031D000D0921601E0921701F09218014092410638
:1031E00050924206609243067092440680913D06DA
:1031F00090913E06A0913F06B0914006A301920136
:10320000281B390B4A0B5B0BDA01C9014497A10556
:10321000B10508F474C08091160690911706A0912C
:103220001806B0911906A3019201281B390B4A0B0D
:103230005B0BDA01C901843F9140A105B10508F497
:1032400056C0BE016F5F7F4F80E30E948D0A898167
:1032500085FF4DC083E795E00E94410C81E080939B
:103260001506D301C20188589F4FAF4FBF4F8093BF
:10327000110690931206A0931306B093140611E062
:1032800080910F0690911006892B09F010E0812F94
:1032900090E09093100680930F0681E080930E06D5
:1032A00040922006509221066092220670922306D8
:1032B000109224060E94900B10933B060E94440D2E
:1032C00088E895E00E944D0C80910F0690911006C1
:1032D000892B09F0FCC18DE791E00E94410C4092DE
:1032E00016065092170660921806709219064092C0
:1032F0003D0650923E0660923F06709240068091D5
:103300002406811171C08091200690912106A09120
:103310002206B091230673016201C81AD90AEA0A8B
:10332000FB0A2091390630E0A8EEB3E00E94A31D0D
:103330006C157D058E059F0508F0CCC1609138069F
:1033400070E090E080E00E94061C20E030E04FE753
:1033500053E40E94B21D2B013C016091330670E0E2
:1033600090E080E00E94061CA30192010E94411C93
:103370000E942B1EC62ED12CF12CE12C7601DD24CF
:10338000CC246091340670E090E080E00E94061C3E
:10339000A30192010E94411C0E942B1ED62A60911B
:1033A000350670E090E080E00E94061CA3019201C7
:1033B0000E94411C0E942B1EC62A10E000E0B701AB
:1033C000A601C8010E9467010F5F1F4F0C30110555
:1033D000B1F70E94E40381E08093240642E050E0CC
:1033E00050931F0640931E06E0E0F0E0EF2B09F437
:1033F00060CB0E9400005DCB64E674E0CE01895B87
:103400009F4F0E94720C8823F1F18FE694E00E9496
:103410004D0C80910F0690911006892B19F58DE7C0
:1034200091E00E944D0C8CE794E00E944D0C80913D
:1034300024068823D1F081E991E00E944D0C85E8B3
:1034400094E00E944D0C80911E0690911F068130E1
:10345000910599F068F0029799F08BE994E00E9449
:103460004D0C6DCE86E891E0DCCF85E991E0E5CFAB
:103470008FE894E00E944D0CF0CF84E994E0FACFFD
:1034800089E592E0F7CF68EA74E0CE01895B9F4F4F
:103490000E94720C882319F00E94670D52CE67EBD0
:1034A00074E0CE01895B9F4F0E94720C882319F053
:1034B0008CEB94E06ACB61EC74E0CE0101960E9443
:1034C000080DBE016F5F7F4FCE01895B9F4F0E9449
:1034D000870C182FCE0101960E943B0B1123E1F1BE
:1034E000BE01695B7F4FCE018F5B9F4F0E94CA0C6C
:1034F00040E250E0BE016F5F7F4FCE018F5B9F4F78
:103500000E944F0C66E172E0CE0101960E94C71B3B
:1035100066E172E090E080E00E94C71B009709F42A
:103520007BCC0E94A91B8C0187E395E00131F7E277
:103530001F0708F01DCC8FEC94E00E944D0CB801E1
:10354000110F880B990B0E94FE0B83EE94E00E94F2
:10355000410C85E095E00CCC8CE595E016CB109203
:1035600015060E94740A2091150130911601A601DA
:10357000421B530B9A01453B51050CF441C02856A0
:103580003140A90137FF04C044275527421B530B84
:10359000841795070CF022CE809220069092210687
:1035A000A0922206B092230680921A0690921B06E1
:1035B000A0921C06B0921D0680911E0690911F06D7
:1035C000019721F030921F0620921E0680910F066F
:1035D0009091100612161306DCF4892B61F167ED49
:1035E0008FE197E00E94B30861E070E080E090E036
:1035F0000E94B70467ED8FE197E00E940F092CC08D
:103600002C345FEF35070CF0BCCF28593E4FB9CFB3
:10361000892B99F168ED8FE197E00E94B30861E092
:1036200070E080E090E00E94B70468ED8FE197E0E1
:103630000E940F0933C08091390789831A821B8247
:103640008FEF8C830E94410824E030E0AE014F5F91
:103650005F4F61E00E946B0780E00E944A0B98E692
:10366000C91691E0D906E104F104D4F0E8E6CE1AD7
:10367000E1E0DE0AE108F108F2CF809139078983A1
:103680001A821B8281E08C830E94410824E030E092
:10369000AE014F5F5F4F61E00E946B0781E0DDCFBD
:1036A000C0921501D0921601E0921701F092180114
:1036B00080910E06882341F00E94900B10921F0605
:1036C00010921E0610920E061092240687CD86E8F0
:1036D00091E003CE80911E0690911F0681309105E6
:1036E000D9F480911A0690911B06A0911C06B09106
:1036F0001D06481A590A6A0A7B0A55EF451651E019
:1037000055066104710408F46FCE0E94900B10926C
:103710001F0610921E0668CE892B09F065CE85E63D
:10372000C816D104E104F10408F45ECE0E94900BA7
:103730005BCE80916A0790916B070E94241F809155
:1037400067079091680797FD03C060E00C948E03B3
:103750000895FC0188279927E89421912032E9F304
:10376000293010F02E30C8F32B3241F02D3239F4CD
:10377000689404C00E94F31B820F911D2191205375
:103780002A30C0F31EF4909581959F4F089547E726
:1037900057E00E94CC1B0895FA01A191B0810097D7
:1037A00019F41097E1F0CD01DC01CD010D9000205E
:1037B00011F4C00113C0FB012191222319F020153F
:1037C000D9F7F3CFFB012191201519F41E92119620
:1037D00006C02223C1F70D900020A1F7D001FA0105
:1037E000A193B08308957AE0979F902D879F802DB5
:1037F000910D1124089591110C94AE1C803219F092
:1038000089508550C8F70895E89409C097FB3EF4A5
:1038100090958095709561957F4F8F4F9F4F99231D
:10382000A9F0F92F96E9BB279395F695879577959B
:103830006795B795F111F8CFFAF4BB0F11F460FF5B
:103840001BC06F5F7F4F8F4F9F4F16C0882311F0B3
:1038500096E911C0772321F09EE8872F762F05C0C7
:10386000662371F096E8862F70E060E02AF09A9562
:10387000660F771F881FDAF7880F9695879597F957
:1038800008950E94541C0C94C81C0E94BA1C38F065
:103890000E94C11C20F0952311F00C94B11C0C94D3
:1038A000B71C11240C94FC1C0E94D91C70F3959F2A
:1038B000C1F3950F50E0551F629FF001729FBB2727
:1038C000F00DB11D639FAA27F00DB11DAA1F649FC3
:1038D0006627B00DA11D661F829F2227B00DA11D76
:1038E000621F739FB00DA11D621F839FA00D611DFC
:1038F000221F749F3327A00D611D231F849F600D1D
:10390000211D822F762F6A2F11249F5750409AF045
:10391000F1F088234AF0EE0FFF1FBB1F661F771FD1
:10392000881F91505040A9F79E3F510580F00C949C
:10393000B11C0C94FC1C5F3FE4F3983ED4F38695D5
:1039400077956795B795F795E7959F5FC1F7FE2B3C
:10395000880F911D9695879597F90895992788273F
:10396000089597F99F6780E870E060E008959FEF01
:1039700080EC089500240A94161617061806090606
:10398000089500240A9412161306140605060895D5
:10399000092E0394000C11F4882352F0BB0F40F45D
:1039A000BF2B11F460FF04C06F5F7F4F8F4F9F4F9D
:1039B000089557FD9058440F551F59F05F3F71F01F
:1039C0004795880F97FB991F61F09F3F79F0879586
:1039D0000895121613061406551FF2CF4695F1DF0F
:1039E00008C0161617061806991FF1CF869571059F
:1039F000610508940895E894BB2766277727CB01D3
:103A000097F90895F999FECF92BD81BDF89A99274B
:103A100080B50895262FF999FECF1FBA92BD81BDBA
:103A200020BD0FB6F894FA9AF99A0FBE0196089540
:103A3000052E97FB1EF400940E942F1D57FD07D002
:103A40000E94811D07FC03D04EF40C942F1D50954D
:103A50004095309521953F4F4F4F5F4F089590957A
:103A60008095709561957F4F8F4F9F4F08950E946D
:103A7000A31DA59F900DB49F900DA49F800D911D37
:103A800011240895B7FF0C94371D0E94371D821B27
:103A9000930B08952F923F924F925F926F927F9275
:103AA0008F929F92AF92BF92CF92DF92EF92FF924E
:103AB0000F931F93CF93DF93CDB7DEB7CA1BDB0BFA
:103AC0000FB6F894DEBF0FBECDBF09942A8839889F
:103AD00048885F846E847D848C849B84AA84B984A6
:103AE000C884DF80EE80FD800C811B81AA81B981B2
:103AF000CE0FD11D0FB6F894DEBF0FBECDBFED01C6
:103B00000895A1E21A2EAA1BBB1BFD010DC0AA1F1E
:103B1000BB1FEE1FFF1FA217B307E407F50720F036
:103B2000A21BB30BE40BF50B661F771F881F991FB1
:103B30001A9469F760957095809590959B01AC01FA
:103B4000BD01CF010895A29FB001B39FC001A39F03
:103B5000700D811D1124911DB29F700D811D1124C6
:103B6000911D08950E94C61D0C94C81C0E94C11C82
:103B700058F00E94BA1C40F029F45F3F29F00C94E1
:103B8000B11C51110C94FC1C0C94B71C0E94D91C44
:103B900068F39923B1F3552391F3951B550BBB277C
:103BA000AA2762177307840738F09F5F5F4F220FC1
:103BB000331F441FAA1FA9F335D00E2E3AF0E0E8B8
:103BC00032D091505040E695001CCAF72BD0FE2F02
:103BD00029D0660F771F881FBB1F26173707480796
:103BE000AB07B0E809F0BB0B802DBF01FF2793584E
:103BF0005F4F3AF09E3F510578F00C94B11C0C9445
:103C0000FC1C5F3FE4F3983ED4F386957795679567
:103C1000B795F7959F5FC9F7880F911D9695879582
:103C200097F90895E1E0660F771F881FBB1F6217A1
:103C300073078407BA0720F0621B730B840BBA0B5F
:103C4000EE1F88F7E09508950E942B1E6894B1112D
:103C50000C94FC1C08950E94E11C88F09F5798F07A
:103C6000B92F9927B751B0F0E1F0660F771F881F81
:103C7000991F1AF0BA95C9F714C0B13091F00E949B
:103C8000FB1CB1E008950C94FB1C672F782F88274C
:103C9000B85F39F0B93FCCF3869577956795B395C2
:103CA000D9F73EF490958095709561957F4F8F4F31
:103CB0009F4F0895AA1BBB1B51E107C0AA1FBB1F42
:103CC000A617B70710F0A61BB70B881F991F5A95A8
:103CD000A9F780959095BC01CD01089597FB072E1B
:103CE00016F4009407D077FD09D00E945A1E07FCF5
:103CF00005D03EF4909581959F4F089570956195FC
:103D00007F4F0895EE0FFF1F0590F491E02D099469
:103D10000F931F93CF93DF938230910510F482E0CD
:103D200090E0E0917B07F0917C0730E020E0B0E08C
:103D3000A0E0309799F42115310509F44AC0281BF9
:103D4000390B24303105D8F58A819B8161157105C5
:103D500089F1FB0193838283FE0111C0408151816F
:103D60000281138148175907E0F04817590799F461
:103D7000109761F012960C93129713961C9332963B
:103D8000CF01DF91CF911F910F91089500937B0791
:103D900010937C07F4CF2115310551F042175307DA
:103DA00038F0A901DB019A01BD01DF01F801C1CFA3
:103DB000EF01F9CF90937C0780937B07CDCFFE0175
:103DC000E20FF31F819391932250310939832883A5
:103DD000D7CF2091790730917A07232B41F4209196
:103DE0001B0130911C0130937A07209379072091B1
:103DF000190130911A012115310541F42DB73EB753
:103E000040911D0150911E01241B350BE091790753
:103E1000F0917A07E217F307A0F42E1B3F0B281747
:103E2000390778F0AC014E5F5F4F2417350748F033
:103E30004E0F5F1F50937A074093790781939193B8
:103E40009FCFF0E0E0E09CCFCF93DF930097E9F0C5
:103E5000FC01329713821282A0917B07B0917C07FC
:103E6000ED0130E020E01097A1F420813181820F34
:103E7000931F2091790730917A072817390709F0A5
:103E800061C0F0937A07E0937907DF91CF910895AD
:103E9000EA01CE17DF07E8F54A815B819E014115F3
:103EA0005105B1F7E901FB83EA8349915991C40FA8
:103EB000D51FEC17FD0761F4808191810296840F74
:103EC000951FE90199838883828193819B838A83EB
:103ED000F0E0E0E012968D919C9113970097B9F570
:103EE0002D913C911197CD010296820F931F209145
:103EF000790730917A072817390739F6309751F545
:103F000010927C0710927B07B0937A07A0937907F1
:103F1000BCCFD383C28340815181840F951FC817C2
:103F2000D90761F44E5F5F4F88819981480F591F0F
:103F3000518340838A819B8193838283211531053C
:103F400009F0B0CFF0937C07E0937B079ECFFD0193
:103F5000DC01C0CF13821282D7CFB0E0A0E0E3EB48
:103F6000FFE10C944C1D8C01009751F4CB010E9491
:103F7000881E8C01C801CDB7DEB7E0E10C94681D46
:103F8000FC01E60FF71F9C0122503109E217F307ED
:103F900008F49DC0D901CD91DC911197C617D707C0
:103FA00098F0C530D10530F3CE01049786179707F6
:103FB00008F3C61BD70B2297C193D1936D937C93C3
:103FC000CF010E94241FD6CF5B01AC1ABD0A4C0161
:103FD0008C0E9D1EA0917B07B0917C07512C412C2B
:103FE000F12CE12C109731F58091790790917A07A7
:103FF0008815990509F05CC04616570608F058C0A8
:104000008091190190911A01009741F48DB79EB7E4
:1040100040911D0150911E01841B950BE817F90773
:1040200008F055C0F0937A07E0937907F90171839E
:104030006083A0CF8D919C91119712966C901297EE
:1040400013967C901397A815B90559F56C0142E0B9
:10405000C40ED11CCA14DB0420F1AC014A195B095F
:10406000DA011296159780F0628273825183408341
:10407000D9016D937C93E114F10471F0D70113968B
:10408000FC93EE93129776CF22968C0F9D1FF90129
:1040900091838083F301EFCFF0937C07E0937B075C
:1040A00069CF4816590608F42C017D01D3019ACF37
:1040B000CB010E94881E7C01009749F0AE01B80137
:1040C0000E946A20C8010E94241F870153CF10E07C
:1040D00000E050CFFB01DC0102C001900D92415085
:1040E0005040D8F70895DC0101C06D934150504015
:1040F000E0F70895FB01DC018D910190801901101A
:10410000D9F3990B0895FB01DC0101900D92002079
:10411000E1F70895FB01DC014150504030F08D91F2
:104120000190801919F40020B9F7881B990B0895A4
:10413000FB01DC014150504048F001900D920020FD
:10414000C9F701C01D9241505040E0F7089511E0B9
:10415000CCE3D1E004C0FE010E94821E2196CD3343
:08416000D107C9F7F894FFCF65
:10416800FFFF00C18081000000FFFFFFFF00E100AA
:10417800000000000019FCFFFF00007D0780000020
:104188000000004807F607BB07A007000000005220
:10419800063C0673066806FA067806D6060000008E
:1041A8000050091B07480A470700000000E609B944
:1041B80009480AEA047702A60997090D0A004F4B35
:1041C8003A2053657474696E6773207265736574F9
:1041D80020746F2064656661756C7473005645526F
:1041E800544943414C00484F52495A4F4E54414C50
:1041F80000594553004E4F004D61675363726F6C11
:104208006C207769746820536D6F6F7468204469F7
:1042180073706C617900456E636F64657220696EB6
:10422800697469616C697A65642E20506F7369746A
:10423800696F6E3A2000456E636F64657220696E1F
:10424800697469616C697A656420746F2030004311
:10425800757272656E742073656E736974697669B8
:1042680074793A200043757272656E7420646561D2
:104278006462616E643A20005265717569726564A2
:1042880020636F6E666964656E63653A2000494411
:10429800454E54494659004D41475343524F4C4CA3
:1042A8005F434F4E4649524D4544005345545F4382
:1042B8004F4C4F52004343570049444C4500455228
:1042C800524F523A20496E76616C696420636F6C74
:1042D8006F72206D6F6465004F4B3A20436F6C6FAF
:1042E800722075706461746564004552524F523A89
:1042F80020496E76616C6964205345545F434F4C86
:104308004F5220666F726D6174005345545F534578
:104318004E5349544956495459004F4B3A20536516
:104328006E736974697669747920757064617465EF
:1043380064004E6577206465616462616E643A204A
:10434800004552524F523A2053656E73697469762C
:10435800697479206D75737420626520312D313050
:1043680000434C4541525F4C454453004F4B3A2063
:104378004C45447320636C65617265640053455411
:104388005F4252494748544E455353004F4B3A20D9
:104398004272696768746E657373207570646174BE
:1043A8006564004552524F523A20427269676874F8
:1043B8006E657373206D75737420626520302D32BD
:1043C8003535005345545F44494D42524947485496
:1043D8004E455353004F4B3A2044696D2062726931
:1043E8006768746E657373207570646174656400C2
:1043F8004552524F523A2044696D2062726967688B
:10440800746E657373206D75737420626520302D2A
:10441800323535005345545F44494D44454C415964
:10442800004F4B3A2044696D2064656C61792075B2
:10443800706461746564004552524F523A20446971
:104448006D2064656C6179206D75737420626520D8
:10445800312D3630207365636F6E647300474554A1
:104468005F53455454494E47530053455454494E9D
:1044780047533A56434F4C3D002C007C48434F4C21
:104488003D007C4357434F4C3D007C434357434FCB
:104498004C3D007C49444C45434F4C3D007C5345C2
:1044A8004E533D007C4252494748543D007C4449A4
:1044B8004D4252494748543D007C44494D44454C7F
:1044C80041593D004745545F535441545553005397
:1044D80054415455533A4D4F44453D007C44494D51
:1044E8006D65643D007C444953504C41593D004D35
:1044F8004F4445005343524F4C4C007C434F4E4E63
:1045080045435445443D310052455345545F534556
:104518005454494E47530050494E4700504F4E4758
:10452800005345545F4D49444944454C4159004D59
:104538004944492064656C61792073657420746FFF
:104548003A2000206D7320286E6F74653A207265DA
:104558007365742064657669636520746F20617083
:10456800706C792900546F207361766520706572CC
:104578006D616E656E746C792C2061646420746F53
:104588002044657669636553657474696E67732042
:10459800737472756374004552524F523A204D49F4
:1045A80044492064656C6179206D75737420626577
:1045B80020302D3130303030206D73004552524F4D
:1045C800523A20556E6B6E6F776E20636F6D6D611A
:1045D8006E6400444F55424C452054415020444598
:1045E80054454354454421004D6F646520737769F1
:0C45F800746368656420746F3A20000052
:00000001FF
