:100000000C943D010C9465010C9465010C94650100
:100010000C9465010C9465010C9465010C946501C8
:100020000C9465010C9465010C94F50D0C94640E10
:100030000C9465010C9465010C9465010C946501A8
:100040000C9465010C9465010C9465010C94650198
:100050000C9465010C9465010C9465010C94AB0D36
:100060000C9465010C9465010C9465010C94650178
:100070000C9465010C9465010C9465010C94650168
:100080000C9465010C9465010C9465010C94650158
:100090000C9496100C9465010C9465010C94650108
:1000A0000C9465010C9465010C946501000000003E
:1000B000000000002A2B28000000000000000000C3
:1000C0000000000000000000000000002C9EB4A012
:1000D000A1A2A434A6A7A5AE362D3738271E1F200F
:1000E000212223242526B333B62EB7B89F848586D4
:1000F0008788898A8B8C8D8E8F9091929394959618
:100100009798999A9B9C9D2F3130A3AD3504050695
:100110000708090A0B0C0D0E0F10111213141516F7
:100120001718191A1B1C1DAFB1B0B500080B00023F
:10013000020201000904000001020200000524007F
:100140001001052401010104240206052406000112
:100150000705810310004009040100020A000000A5
:100160000705020240000007058302400000040367
:10017000090412010002EF0201400912534D00016F
:1001800001020301486179726954656368004D6139
:10019000675363726F6C6C0000000000240027003E
:1001A0002A002D0030000000000200090F000003AB
:1001B0000401000C0000000000000000000000002E
:1001C000000000000005010906A1018502050719CC
:1001D000E029E71500250175019508810295017553
:1001E0000881039506750815002573050719002970
:1001F000738100C005010902A1010901A100850167
:1002000005091901290315002501950375018102CE
:1002100095017505810305010930093109381581FA
:10022000257F750895038106C0C0040802011040AF
:10023000804010204080408008020401804020104F
:1002400002011080102040402000000000250028FE
:10025000002B002E003100040404040403040502F2
:100260000202020403020202020606060606060451
:10027000040202020404E811131A11241FBECFEF76
:10028000DAE0DEBFCDBF26E0A8EAB4E001C01D92EF
:10029000A838B207E1F714E0A0E0B1E0E6E3FEE33E
:1002A00002C005900D92A83AB107D9F711E0CCE34E
:1002B000D1E004C02197FE010E94E91CCB33D10795
:1002C000C9F70E944C130C940E1F0C9400008F92DF
:1002D0009F92AF92BF92CF92DF92EF92FF92CF9315
:1002E00020916E0630916F0682179307E8F54B0157
:1002F000AA24BB24C82DC52ED62EE72EFF24BC2D44
:10030000A42F20917406222361F0829E40011124C3
:10031000C92D2C9D60011124BD2D249FF0011124B5
:10032000AF2FE0917A06E0907506F0907606309156
:100330007706E31323C09C01220F331F820F931F04
:100340008E0D9F1DE0917706E80FF92FF11DC083F8
:10035000E0917806E80FF92FF11DB083209179061E
:10036000820F911DFC01A083CF91FF90EF90DF9051
:10037000CF90BF90AF909F908F900895880F991F56
:10038000880F991F8E0D9F1D472F552766277727AA
:10039000222349F030E0249F7001259FF00C349F08
:1003A000F00C11244F2DE80FF92FF11D4083CACF17
:1003B0001F93CF93DF9311E0180F2091740612174B
:1003C000A1F1C0917506D0917606215070E060E0F1
:1003D00061F08F3FF1F430E050E040E06FEF7FEFED
:1003E00080E090E00E94CA1CB901FE0140917006B5
:1003F00050917106CF018C1B9D0B8417950798F4C3
:100400004081469FC001479F900D112490833196F3
:10041000EDCF812F90E0982F88270197622F70E011
:100420000E94801CE2CF10937406DF91CF911F9140
:1004300008959091BE059111FCCF91E09093BE0577
:100440009093BD052FEF2093BC051092BB05260F9E
:100450002093BA059093B9059091B905880F892B1F
:100460008093B9058091B8058130F9F41092B805F0
:100470008091B9058093BB008091BC0083FDF8CFCB
:1004800085EC8093BC008091BE058130E1F38091C2
:10049000BB05861710F46091BB05A8E9B5E0E8E755
:1004A000F5E080E0861303C0089585EEEACF9D91C4
:1004B00091938F5FF7CF982F2091770581E02132BC
:1004C00008F043C08091BE058111FCCF8091760574
:1004D00032E03093BE059093BD059FEF9093BC052D
:1004E0001092BB052093BA05A6E5B5E0E8E9F5E072
:1004F00090E0291331C01092B9059091B905880F89
:10050000892B8093B9058091B805813049F5109207
:10051000B8058091B9058093BB008091BC0083FD34
:10052000F8CF85EC8093BC008091BE058230E1F36A
:100530008091BC058F3FB1F08091BC058032A1F065
:100540008091BC05803391F084E0109255051092A3
:1005500077051092540508953D9131939F5FC9CF5F
:1005600085EEE0CF80E0F1CF82E0EFCF83E0EDCF0A
:100570008091520590915305891B990B0895089518
:100580000895FC0180914D05882311F13FB7F8943F
:1005900082E08093E9002091F200822F90E018160B
:1005A000190614F481E090E0882339F0289844E695
:1005B00040934C054091F1004083222339F0209173
:1005C000F200211103C02BE62093E8003FBF0895FD
:1005D0008FEF9FEF0895282F30E0F901EA55FE4F85
:1005E0009491F901E65DFD4F8491295A3D4FF9013F
:1005F0002491222309F430C09923E9F091509F30CF
:10060000D0F4E92FF0E0E95FFC4F0C94E91C3503CE
:10061000390316032D0331031B031B031B033C0388
:10062000420346034A0350031B0354039091800086
:100630009F7790938000E22FF0E0EE0FFF1FE75BC3
:10064000FD4FA591B4919FB7F894EC91611132C020
:1006500080958E238C939FBF0895909180009F7DFD
:10066000E8CF90918000977FE4CF94B59F7794BDB9
:10067000E2CF94B59F7DFBCF909190009F779093B0
:100680009000D9CF909190009F7DF9CF90919000EC
:10069000977FF5CF9091C0009F779093C000CBCF0C
:1006A0009091C0009F7DF9CF9091C200977F909369
:1006B000C200C1CF8E2BCECF10925305109252059F
:1006C00010925505109277051092BE0581E0809337
:1006D000BD051092B80561E082E00E94EB0261E086
:1006E00083E00E94EB02E9EBF0E080818E7F808363
:1006F00080818D7F808388E48093B80085E4809337
:10070000BC008FEB92E0909351058093500580ECF4
:1007100092E090934F0580934E050895CF93DF9319
:1007200090E0FC01E65DFD4F2491895A9D4FFC014C
:1007300084918823D1F090E0880F991FFC01E8563E
:10074000FE4FA591B491FC01E75BFD4FC591D4919B
:1007500061110EC09FB7F8948C91E22FE0958E2323
:100760008C932881E223E8839FBFDF91CF91089586
:100770008FB7F894EC91E22BEC938FBFF6CF3FB795
:10078000F8948091480590914905A0914A05B0914F
:100790004B0526B5A89B05C02F3F19F00196A11D5A
:1007A000B11D3FBFBA2FA92F982F8827BC01CD01BB
:1007B000620F711D811D911D42E0660F771F881F1A
:1007C000991F4A95D1F708950F931F93CF93DF9305
:1007D000CDB7DEB729970FB6F894DEBF0FBECDBFF9
:1007E0008091750690917606892B09F47CC00E9451
:1007F000BF0300917B0610917C0620917D0630910D
:100800007E06601771078207930740F460937B06AA
:1008100070937C0680937D0690937E0600917B0604
:1008200010917C0620917D0630917E06601B710B35
:10083000820B930B6C32714081059105C0F2F894E4
:1008400080917006909171069A838983E091750674
:10085000F0917606DF0111968081898790916C0670
:10086000E0917F06F091800680918106992309F43A
:1008700045C09081982B98879081809589238F839C
:100880008F818C8388E08B8358856F8149853B817C
:100890002C8189819A81508347FD252F3A952083A9
:1008A000262F39F0441F00C000006083000000C004
:1008B000F2CF38E04D9160830000019761F7F0932B
:1008C0008006E0937F0649873B832C839A83898344
:1008D00078940E94BF0360937B0670937C0680939C
:1008E0007D0690937E0629960FB6F894DEBF0FBE64
:1008F000CDBFDF91CF911F910F9108959081982BDB
:1009000098879081809589238F838F818E8388E05B
:100910008D8358856F8149853D812E8189819A819A
:10092000508347FD252F00C000C0208300C000C0B9
:1009300000C000C000C060830000262F3A9541F03F
:10094000441F000000C000C000C000C000C0E8CFCD
:1009500038E04D9100C0608300C0019709F7F09323
:100960008006E0937F0649873D832E83AFCF8F9229
:100970009F92AF92BF92CF92DF92EF92FF926B0164
:100980007C010E94BF034B015C01C114D104E1044E
:10099000F104B9F00E94BF03681979098A099B091B
:1009A000683E73408105910580F321E0C21AD108A9
:1009B000E108F10888EE880E83E0981EA11CB11CA6
:1009C000E4CFFF90EF90DF90CF90BF90AF909F90DB
:1009D0008F9008952FB7F894609144057091450564
:1009E00080914605909147052FBF08950895409145
:1009F00014055091150520911205309113054217E9
:100A00005307B4F49091E8009570E1F39091E800F9
:100A100092FD19C08093F100809114059091150505
:100A200001968F739927892B19F48EEF8093E80034
:100A3000809114059091150501969093150580936A
:100A4000140581E0089580E00895DF92EF92FF920F
:100A50000F931F93CF93DF93D82E8A01EB017B0175
:100A6000E40EF51ECE15DF0559F0D7FE12C0FE01CB
:100A700084910E94F70421968111F4CF0FEF1FEFAC
:100A8000C801DF91CF911F910F91FF90EF90DF9000
:100A900008958881EECF2FB7F89487708093E9008E
:100AA0009091E800892F807295FF04C09091F20028
:100AB00080E4891B2FBF08957F928F929F92AF92FF
:100AC000BF92CF92DF92EF92FF920F931F93CF933B
:100AD000DF93C82E8B017A0180914D05811110C0E2
:100AE0008FEF9FEFDF91CF911F910F91FF90EF90CC
:100AF000DF90CF90BF90AF909F908F907F900895A0
:100B00008091180580FF05C08091E000826080938D
:100B1000E000CE2DDF2DD12C8AEFB82E8C2D8770E2
:100B2000982E8C2D8072882E8C2D8074782E9AE3CE
:100B3000A92E209719F4DD2009F452C08C2D0E94B3
:100B40004B0581110AC0BA94BB2051F261E070E0FC
:100B500080E090E00E94B704ECCF8C171D0611F0E6
:100B60000CF08C2F9FB7F8949092E9002091E80048
:100B700025FD02C09FBFDDCF282F30E0C21BD30B65
:100B8000882029F08150A0F01092F100FBCFF801ED
:100B9000C7FC0AC0815050F041914093F100FACF58
:100BA00044914093F10031968150D0F7020F131F0A
:100BB000DD2021F0A092E800D12CDCCF8091E8006C
:100BC00085FD07C0A092E800DD24D394209791F220
:100BD000F3CF209779F6772069F2A092E800CACF88
:100BE0005D9884E680931705C7017CCF615030F093
:100BF0002091F100FC0120830196F8CF289884E62B
:100C000080934C05089580910A0581110DC082E002
:100C10008093060584E080930705109209051092E1
:100C2000080581E080930A0586E095E008950F931A
:100C30001F93CF93DF931F92CDB7DEB782E08983F6
:100C400042E450E06CE271E080E80E9425050E94D9
:100C50000306DC0112960D911C910115110589F016
:100C6000D801ED91FC910280F381E02DBE016F5F10
:100C70007F4FC801099597FD04C0F80100851185D3
:100C8000ECCF89810F90DF91CF911F910F91089543
:100C9000CF93DF93EC0180911401882331F083E03E
:100CA0000E945C051816190634F081E090E09B83E1
:100CB0008A8380E090E0DF91CF910895CF93DF9316
:100CC0001F92CDB7DEB76983DC01ED91FC91028004
:100CD000F381E02D41E050E0BE016F5F7F4F099549
:100CE0000F90DF91CF91089583E08093E900809188
:100CF000F200882319F08AE38093E800089583E0E6
:100D00000E944B0590E00895CF93DF931F92CDB7DB
:100D1000DEB7FC018485958597FD08C02FEF3FEF76
:100D2000358724870F90DF91CF910895CE010196EA
:100D30000E94C102019719F4898190E0F3CF8FEFEF
:100D40009FEFF0CF0F931F930E94EA046093C705B3
:100D50007093C8058093C9059093CA058FEB95E001
:100D60000E94840697FF1DC00E94EA040091C705F7
:100D70001091C8052091C9053091CA05601B710BFF
:100D8000820B930B0091C3051091C4052091C505FA
:100D90003091C6056017710782079307F8F28FEF4D
:100DA0009FEF1F910F9108950F931F93CF93DF93A0
:100DB0001F92CDB7DEB78C01FC018485958597FF26
:100DC0000BC0CE0101960E94C102019771F4898186
:100DD00090E0F80195878487F801848595850F90C8
:100DE000DF91CF911F910F9108958FEF9FEFF1CF7A
:100DF000FC018485958597FD0BC09FB7F89482E030
:100E00008093E9008091F2009FBF90E001960895E1
:100E10009FB7F89482E08093E9008091F2009FBF31
:100E200090E008958EBD00000DB407FEFDCF8EB595
:100E30000895CF92DF92EF92FF920F931F93CF937B
:100E4000DF936C01EB017B01E40EF51E10E000E086
:100E5000CE15DF0581F069916D30D1F3D601ED91AA
:100E6000FC910190F081E02DC6010995892B19F0C4
:100E70000F5F1F4FEDCFC801DF91CF911F910F91F1
:100E8000FF90EF90DF90CF9008950895DC01FB0173
:100E900012962C911297848195812817190641F496
:100EA00091818081813A31F49D7F81E0913009F018
:100EB00080E008958132E1F79B3029F482811F960A
:100EC0008C9381E008959A3099F7828150968C93A3
:100ED000F8CFAF92BF92CF92DF92EF92FF920F9333
:100EE0001F93CF93DF931F92CDB7DEB77C01698349
:100EF0006A01590141E050E0BE016F5F7F4FFC0184
:100F000083810E945C058C0197FD0BC0F7018381F2
:100F1000A501B60180640E945C05080F191F97FDAA
:100F20008C01C8010F90DF91CF911F910F91FF901D
:100F3000EF90DF90CF90BF90AF900895DC01FB0160
:100F400088E4808389E4818384E482831D969C9174
:100F50001D979F709F5B93831D968D919C9124E0BC
:100F6000969587952A95E1F78F708F5B848385E04E
:100F70000895EF92FF920F931F93CF93DF93FB019E
:100F80002081213871F52381223259F5DC01129636
:100F90004C91248135814217130619F5EC010B851C
:100FA0001C85F12CE12C0115110589F0F801448113
:100FB00055816281738180E80E9425058F3F9807E3
:100FC00049F0E80EF91ED8010D911C91ECCF81E09B
:100FD0008F87C701DF91CF911F910F91FF90EF9005
:100FE000089590E080E0F6CFCF93DF93CDB7DEB7E2
:100FF00069970FB6F894DEBF0FBECDBFFC01DB01D1
:101000008C918F5F8C939E012D5F3F4F8DE0D901B6
:101010001D928A95E9F729E0298384E08A8391E08B
:101020009D8383E08E832A8721E22B879C879D877F
:101030009F8722E2288B27E02B8B25E02C8B8E8B41
:1010400020E430E0388F2F8B998F82818B839585B8
:101050008685998B8A8B838180688D8B49E150E0EE
:10106000BE016F5F7F4F80E00E94250569960FB635
:10107000F894DEBF0FBECDBFDF91CF910895CF931F
:10108000DF938091FE04811167C081E08093F104B9
:101090008093F20427EF34E03093F4042093F304B8
:1010A0001092F6041092F50423E231E03093EE043E
:1010B0002093ED041092F9041092F8041092FB04AE
:1010C0001092FA048093FC048093FD0481EC8093D9
:1010D000F7040E940306FC0181819091F104482FDE
:1010E000490F5527551F483051059CF5A281B38102
:1010F000109709F52DEE34E033832283208120936D
:10110000EF048093F0048091F204820F8083209199
:10111000F304A22FB091F4048A2F821B8917C8F41C
:1011200081813D91C82FD0E0CE5FDE4F38838F5F45
:101130008183F2CFD90118962D913C9119972115F1
:101140003105C1F72DEE34E019963C932E93189794
:10115000D5CF81E08093FE048DEE94E0DF91CF91B6
:101160000895CF93DF93EC01683858F168588E8169
:101170008617D1F08F818617B9F088858617A1F080
:101180008985861789F08A85861771F08B85861781
:1011900059F0FE01369690E080E02191211137C090
:1011A0008C0F9D1FFC0166830E943F08AE014C5FBF
:1011B0005F4F28E030E062E00E94690781E090E044
:1011C0001CC0E62FF0E067FF0DC0E058F10921E0F8
:1011D00030E001C0220FEA95EAF78C81822B8C83E4
:1011E00060E0C5CFE455FF4F6491611109C081E013
:1011F00090E09B838A8390E080E0DF91CF91089517
:1012000067FFB5CF8C8182608C836F77B0CF0196FA
:101210008630910509F0C1CFEACFCF93DF93EC017F
:101220006838E0F06858FE0186E0662321F0968178
:10123000961301C01682815031968111F6CF0E941B
:101240003F08AE014C5F5F4F28E030E062E00E9453
:10125000690781E090E0DF91CF910895E62FF0E0FB
:1012600067FF0EC0E058F10981E090E001C0880FEF
:10127000EA95EAF780959C8189238C8360E0D3CF3F
:10128000E455FF4F649190E080E0662321F367FF0F
:10129000CACF8C818D7F8C836F77C5CFEF92FF9201
:1012A0001F93CF93DF93EC01162F0E94B1087C01AE
:1012B000612FCE010E940D09C7019927DF91CF91BF
:1012C0001F91FF90EF90089585ED8093BC00809171
:1012D000BC0084FDFCCF1092BE0508952091CA0485
:1012E000260F3327331F21323105ECF42091BE0540
:1012F000FC0190E080E0243069F082E00895A09144
:10130000CA042191AC0146555B4FA40FB52FB11D06
:101310002C930196861798F38091CA04680F609306
:10132000CA0480E0089581E00895E091530580911A
:101330005205E81730F4F0E0E858FA4F808190E069
:1013400008958FEF9FEF0895909153058091520576
:101350002FEF3FEF981748F4E92FF0E0E858FA4FE5
:10136000208130E09F5F90935305C9010895CF928B
:10137000DF92EF92FF920F931F93CF93DF937C0145
:10138000CB018A0120915405222389F0EB016B01E6
:10139000C40ED51ECC15DD0569F06991D701ED911C
:1013A000FC910190F081E02DC7010995F3CF642FE6
:1013B0000E946E09C801DF91CF911F910F91FF909C
:1013C000EF90DF90CF900895CF93DF931F92CDB72A
:1013D000DEB76983209154052223F9F02091770527
:1013E000203258F021E030E0FC013383228390E08A
:1013F00080E00F90DF91CF91089580915505E82FFF
:10140000F0E0EA5AFA4F998190838F5F80935505F7
:101410008093770581E090E0ECCF61E0CE0101960A
:101420000E946E09F7CFCF93DF93D82FC62F8091FC
:101430005A068823C9F081E08093540583E58093A0
:10144000760510925505109277056D2F88E396E08A
:101450000E94E4096C2F88E396E00E94E40981E091
:10146000DF91CF910C945B0260E0809158060E945E
:10147000EB028D2F0E9412078C2F0E94120761E051
:1014800080915806DF91CF910C94EB0290E080E0C0
:101490000895CF92DF92EF92FF92CF93DF93C42E05
:1014A000D12CF12CE12CD62AE82AD0E0C0E0B701FB
:1014B000A601CE010E9467012196CC30D105B9F773
:1014C000DF91CF91FF90EF90DF90CF900C94E403E9
:1014D000EAE1F5E080E09191892795E0E133F907B1
:1014E000D1F70895FF920F931F93CF93DF93182F97
:1014F000EB0180915A068823C1F181E08093540565
:1015000083E5809376051092550510927705612F3B
:1015100088E396E00E94E40981E00E945B0261E0BA
:1015200083E50E941902F82E10925305809352050C
:101530008E01C8018C1B9D0B20915305F21641F0C2
:1015400088E396E00E94A409F80181938F01F1CF0E
:10155000019729F01092440681E080934506DF91BF
:10156000CF911F910F91FF90089560E080915806F0
:101570000E94EB02812F80680E94120780E00E9487
:101580001207888361E080915806DF91CF911F9107
:101590000F91FF900C94EB02FF920F931F93CF9348
:1015A000DF931F92CDB7DEB7182FF62E042FBE01A2
:1015B0006F5F7F4F0E94720A21E030E001C0220F6E
:1015C000FA94EAF78981002369F0822B8983698183
:1015D000812F0E94130A0F90DF91CF911F910F91DD
:1015E000FF90089520958223F1CFCF9381E08093DF
:1015F000540586E380937605109255051092770581
:101600006CE088E396E00E94E40981E00E945B02BE
:1016100062E086E30E9419021092530580935205FE
:101620008230F0F388E396E00E94A409C82F88E393
:1016300096E00E94A40920E0822B9C2BCF91089574
:10164000FC01808191810C948B1DECE6F6E04481D5
:10165000558170E060E0818592850C94DA1ECF930D
:10166000DF93C82F0E94250B8091A8049091A904B4
:10167000CC2399F13091250540912605209127052D
:101680000B966CE070E00E94941C9093A9048093E8
:10169000A804C091A804D091A90450E070E060E0D3
:1016A000762F652F542F4427632B422BCE010E94A7
:1016B000670180910001909101018F3F980729F007
:1016C00040E050E0BA010E946701D0930101C0934D
:1016D0000001DF91CF910C94E403309122054091F9
:1016E0002305209124050196CCCF0E94250B8091E3
:1016F000340590913505892B41F440911E05609188
:101700001D0580911C050C94490A409121056091AA
:10171000200580911F05F7CF8F929F92AF92BF92C5
:10172000CF92DF92EF92FF920E94EA04209132055D
:10173000211171C0C0903605D0903705E090380572
:10174000F09039059B01AC012C193D094E095F0948
:1017500069017A0120912E0530E0A8EEB3E00E94E5
:10176000C91B6C157D058E059F0508F05DC0609155
:101770002D0570E090E080E00E94801A20E030E0CB
:101780004FE753E40E94D81B4B015C016091280590
:1017900070E090E080E00E94801AA50194010E9410
:1017A000BB1A0E94511CC62ED12CF12CE12C7601C3
:1017B000DD24CC246091290570E090E080E00E9457
:1017C000801AA50194010E94BB1A0E94511CD62ABE
:1017D00060912A0570E090E080E00E94801AA501E7
:1017E00094010E94BB1A0E94511C46015701862A8F
:1017F000F12CE12CB501A401C7010E9467013FEF64
:10180000E31AF30A4CE0E416F104A1F70E94E403A2
:1018100081E080933205FF90EF90DF90CF90BF90F2
:10182000AF909F908F90089555E6C516D104E104BE
:10183000F10488F3FF90EF90DF90CF90BF90AF90CE
:101840009F908F900C94750BFC0101900020E9F79C
:101850003197AF01481B590BBC018FEB95E00C94FD
:1018600048068F929F92AF92BF920F931F93CF9390
:10187000DF93CDB7DEB7A1970FB6F894DEBF0FBEEA
:10188000CDBF19A2423008F44AE08E010F5D1F4F10
:10189000842E912CB12CA12CA50194010E94A81C8E
:1018A000E62FB901CA01EA30F4F4E05DD801EE9305
:1018B0008D01232B242B252B79F790E080E01097C6
:1018C00019F0CD010E94240CA1960FB6F894DEBF4A
:1018D0000FBECDBFDF91CF911F910F91BF90AF9001
:1018E0009F908F900895E95CE1CF682F70E090E0C1
:1018F00080E04AE00C94310CCF93DF930E94240CDB
:10190000EC018BE591E00E94240C8C0F9D1FDF9170
:10191000CF9108950C94240C0F931F93CF93DF93D2
:10192000FC01048115810115110539F4FB011082B8
:10193000DF91CF911F910F910895415051094017A8
:10194000510708F48A01EB01FC0160817181A80153
:10195000CE010E94FF1EC00FD11F1882E9CFFC01EB
:1019600024813581232B39F421E0FB0180818823F8
:1019700049F020E007C0808191810E94E11E21E0B2
:10198000892BB9F7822F0895FB0144815581FC0111
:10199000248135812417350778F080819181009763
:1019A00059F0FB01608171816115710529F00E9478
:1019B000F11E21E0892B09F020E0822F08950F937A
:1019C0001F93CF93DF93EC0188819981009759F0A1
:1019D0002A813B812617370730F081E0DF91CF91D4
:1019E0001F910F9108958B016F5F7F4F0E94141E0E
:1019F000009759F0998388831B830A832C813D814A
:101A0000232B59F7FC011082E8CF80E0E7CFEF925B
:101A1000FF920F931F93CF93DF93EC017B018A0119
:101A2000BA010E94DF0C28813981811114C021156F
:101A3000310519F0C9010E948B1D198218821D827F
:101A40001C821B821A82CE01DF91CF911F910F91D0
:101A5000FF90EF9008951D830C83B701C9010E9488
:101A6000EA1EF1CFFB01DC0111961C921E92139627
:101A70001C921E92129715961C921E92149786170E
:101A8000970749F0608171816115710521F04481EA
:101A900055810C94070D0895FC0111821082138268
:101AA000128215821482FB0101900020E9F7319720
:101AB000AF01461B570B0C94070DFF920F931F931A
:101AC000CF93DF930E94680A809331050AE115E005
:101AD000D0E0C0E0F801F1908F01CE010E947C1BA4
:101AE000F81621F06F2DCE010E94841B2196C8317B
:101AF000D10581F7DF91CF911F910F91FF9008954C
:101B0000CF93DF93CAE1D5E01A821B828FEF8C83DB
:101B10008D831E821F82188689871A868B8785EAA5
:101B20008C871D8680E88E871F86888B85E0898B51
:101B300088EC8A8B8AE08B8B82E08C8B0E945D0D17
:101B40008A890E94D8010E94750B8EE591E0DF9191
:101B5000CF910C947C0C1F920F920FB60F92112410
:101B60002F933F938F939F93AF93BF93809144059F
:101B700090914505A0914605B091470530914305E8
:101B800023E0230F2D3758F50196A11DB11D209399
:101B900043058093440590934505A0934605B09373
:101BA00047058091480590914905A0914A05B0915B
:101BB0004B050196A11DB11D8093480590934905E1
:101BC000A0934A05B0934B05BF91AF919F918F9120
:101BD0003F912F910F900FBE0F901F90189526E800
:101BE000230F0296A11DB11DD2CF1F920F920FB6E7
:101BF0000F9211248F939F938091E1009091E100C7
:101C0000937F9093E10083FF0FC01092E90091E071
:101C10009093EB001092EC0092E39093ED00109201
:101C20004D0598E09093F00082FF22C093E09093DE
:101C3000E9009091F200992319F09AE39093E8005B
:101C400090911705992341F0909117059150909329
:101C50001705911101C05D9A90914C05992341F0AF
:101C600090914C05915090934C05911101C0289A88
:101C700084FF18C08091E2008E7E81608093E20034
:101C80008091E1008F7E8093E100809118058E7E27
:101C90008061809318059F918F910F900FBE0F90D8
:101CA0001F90189580FFF7CF8091E2008E7E8061B3
:101CB0008093E2008091E1008E7E8093E10080912C
:101CC00018058E7E8160E5CF1F920F920FB60F929E
:101CD0001124CF92DF92EF92FF920F931F932F93D5
:101CE0003F934F935F936F937F938F939F93AF93A4
:101CF000BF93EF93FF93CF93DF93CDB7DEB76C978E
:101D0000DEBFCDBF1092E9008091E80083FF25C0BF
:101D100068E0CE0145960E94F60582EF8093E800C8
:101D20008D8987FF39C09091E80090FFFCCF982FF4
:101D3000907609F034C19E894F89588D2F89F88C8F
:101D4000911131C0803861F5809119058093F100BF
:101D50001092F1008EEF8093E8006C960FB6F89425
:101D6000DEBF0FBECDBFDF91CF91FF91EF91BF914D
:101D7000AF919F918F917F916F915F914F913F9123
:101D80002F911F910F91FF90EF90DF90CF900F90C8
:101D90000FBE0F901F9018959EEF9093E800C7CF4D
:101DA0001092F100D5CF913059F48111D3CF413049
:101DB000510581F6809119058D7F80931905CACF51
:101DC000933049F48111C6CF4130510519F6809105
:101DD00019058260F2CF953041F48091E80080FFD0
:101DE000FCCF20682093E300B5CF963009F0A9C05E
:101DF0000B8D1C8D22E01092E900109215051092B7
:101E00001405F2122EC010921305109212050E94B2
:101E100017061F8299E09983FA8291E09E8390EAE7
:101E200098879AEF99872091140530911505275FBF
:101E30003F4F3C832B838D831092E9001092150550
:101E400010921405109313050093120549E050E019
:101E5000BE016F5F7F4F80E00E9425050E9417063C
:101E600079CF10931305009312050E940306DC013D
:101E700012960D911C910115110509F451C1D8015B
:101E8000ED91FC910480F581E02DBE016B5E7F4FEA
:101E9000C8010995009709F03EC1F8010085118538
:101EA000EACFF3E0FF120EC08F89882309F440C007
:101EB000823061F440E869E08EE891E00E94B5115B
:101EC000811148CF81E28093EB0047CF813029F424
:101ED00040E869E084E891E0F1CF833099F70E940F
:101EE0000306DC011296ED90FC908E010F5F1F4FF0
:101EF0006801E114F10479F0D701ED91FC910680BD
:101F0000F781E02DB801C7010995080F111DF701F0
:101F1000E084F184EECFD8011C92F60101900020FC
:101F2000E9F73197BF016C197D0940E0C601C6CFC2
:101F30006EE671E0FB01449150E080E80E942505C7
:101F400009CF973009F4BECF983021F481E0809317
:101F5000F10000CF993009F0FDCE837009F0B2CFC7
:101F6000E3E0F1E081E031E096E32191222371F09A
:101F70008093E9003093EB00DF0111972C912093BF
:101F8000EC009093ED008F5F873079F78EE78093B8
:101F9000EA001092EA008F8980934D05DBCE8B8D8D
:101FA0009C8D1092E90010921505109214059093E3
:101FB000130580931205898D811192C08E899D89A8
:101FC000913A49F4813209F07DCF47E050E06DE06D
:101FD00071E080E0B3CF913209F074CF833269F4BD
:101FE0008F89988DB0E0A0E08093090190930A0159
:101FF000A0930B01B0930C01ADCE803269F48091B7
:10200000E80082FFFCCF67E08DE091E00E94F605DA
:102010008BEF8093E8009ECE823209F09BCE8F89B1
:1020200080931401EEEFFFE7859194918B3F9C4DD7
:1020300051F1E0E0F8E080910D0190910E01A09146
:102040000F01B0911001803B9440A105B105F1F45E
:102050008091140180FD1AC0EE3F8AE0F80789F5EF
:1020600087E797E7918380838091600080931605CE
:1020700088E19BE00FB6F894A895809360000FBEAE
:102080009093600067CEEEEFFAE0D5CF808191812A
:102090008737974709F05ECEA895809160008861E8
:1020A000809360008091160580936000EE3F2AE0E7
:1020B000F20789F08091FE0A9091FF0A9183808354
:1020C00049CE808191818737980751F29093FF0A1A
:1020D0008093FE0AC5CF1092FF0A1092FE0A3ACEF4
:1020E0000E940306DC0112960D911C910115110549
:1020F00009F4E8CED801ED91FC910190F081E02D3A
:10210000BE016B5E7F4FC8010995811123CEF80196
:1021100000851185EBCF181619060CF41BCED2CE14
:10212000F1E0FF12BECE62E771E004CF1F920F9282
:102130000FB60F9211242F933F934F935F936F939A
:102140007F938F939F93AF93BF93EF93FF93809170
:10215000B900887F803609F44AC0F0F5883209F466
:10216000A7C018F5803109F49BC0B8F4882309F49E
:10217000F9C0883009F494C0FF91EF91BF91AF91FD
:102180009F918F917F916F915F914F913F912F918F
:102190000F900FBE0F901F901895883109F488C0DA
:1021A000803251F78093BC0514C0803409F49DC07F
:1021B00040F48033B9F38833F9F68093BC0585EC9D
:1021C000B0C0803509F485C0883509F496C08834DC
:1021D00099F60E946409D0CF883909F48CC038F58B
:1021E000883729F050F4883611F0803729F683E0DB
:1021F0008093BE051092EC0457C0883809F47BC068
:10220000803919F0803809F0B7CF8091EC04803222
:1022100008F071C0E091EC0481E08E0F8093EC0433
:102220008091BB00F0E0E453FB4F80833DC0803BD6
:1022300039F0E0F4803A09F479C0883A09F09CCF8B
:1022400084E08093BE051092CB041092CA04E09102
:102250005005F091510509958091CA0481110FC074
:1022600081E08093CA041092AA0409C0803C09F45A
:10227000A6CF883C09F4A3CF883B09F07DCFE0913D
:10228000CB0481E08E0F8093CB04F0E0E655FB4F4A
:1022900080818093BB009091CB048091CA0429C0B7
:1022A0008091B9058093BB0085EC8093BC0064CF1E
:1022B0009091BB058091BA05981758F5E091BB0540
:1022C00081E08E0F8093BB05F0E0E856FA4F8081E5
:1022D000E9CFE091BB0581E08E0F8093BB05809133
:1022E000BB00F0E0E856FA4F80839091BB058091E7
:1022F000BA059817C8F285E8D8CFE091BB0581E010
:102300008E0F8093BB058091BB00F0E0E856FA4F3A
:1023100080838091BD0581115CCF81E08093B805F9
:1023200084EA8093BC001092BE0526CF85EC809392
:10233000BC001092BE058091EC04803230F4E09134
:10234000EC04F0E0E453FB4F10826091EC0470E089
:10235000E0914E05F0914F058CEC94E009951092B8
:10236000EC040ACF1092BC0534CFEF92FF920F938A
:102370001F93CF93DF93F82E192FE62E042F81E0C1
:10238000860F880F0E94F70483E00E94F704CF2D88
:10239000D12FEC0EFD2EF11CCE15DF05B9F007FF95
:1023A00013C0FE0184910E94F704182F80E00E9460
:1023B000F704812321968111EFCFDF91CF911F91F7
:1023C0000F91FF90EF9008958881EDCF81E0F5CFD8
:1023D0001092C2051092C10588EE93E0A0E0B0E033
:1023E0008093C3059093C405A093C505B093C6051B
:1023F0008FE291E09093C0058093BF058FEF9FEF30
:102400009093CC058093CB051092200610921F0666
:1024100081E491E090931E0680931D06809115063D
:10242000811113C01092100610920F0685EC91E0F6
:1024300090931206809311068FE290E09093140619
:102440008093130681E0809315060E943F08FC01EB
:10245000A385B485109709F001C18FE096E09487B9
:102460008387858596852091130630911406820F07
:10247000931F968785871092370680912F068111CA
:1024800013C010922A061092290684EF91E09093CF
:102490002C0680932B0686E390E090932E06809383
:1024A0002D0681E080932F060E943F08FC01A38542
:1024B000B485109709F0DDC089E296E094878387A0
:1024C0008585968520912D0630912E06820F931FCB
:1024D0009687858710923B0610923A0688EE93E025
:1024E000A0E0B0E080933C0690933D06A0933E06AA
:1024F000B0933F068DE491E09093390680933806BF
:1025000010926D061092740610927B0610927C0653
:1025100010927D0610927E0681E080937A06809369
:1025200077061092780692E09093790680936C0675
:1025300084E290E090937106809370060E94EF1CF5
:102540009093760680937506009709F49CC024E268
:10255000FC0111922A95E9F78CE090E090936F06C8
:1025600080936E0687E190E09093730680937206E5
:1025700080916D06882341F061E087E10E948E031F
:1025800060E087E10E94EB02EEE6F2E0E491F0E029
:10259000EE0FFF1FE75BFD4F8591949190938006AE
:1025A00080937F06E1E4F2E0E491E093810684E128
:1025B00090E09093600680935F06109261061092FF
:1025C00063061092620610926406109265061092DD
:1025D00066061092670610926906109268068AE0F5
:1025E00090E0909359068093580681E080935A06B4
:1025F00040E45BE46CE470E040935B0650935C065F
:1026000060935D0670935E068093440610924506C3
:1026100083EC9BEAA6E7BBE38093460690934706CC
:10262000A0934806B093490688ED9BE6A6E7BBE376
:1026300080934A0690934B06A0934C06B0934D06A8
:1026400082EF94EEA4E6BBE380934E0690934F0690
:10265000A0935006B09351060895DC018D919C9192
:1026600011970097D1F78FE096E08D939C93F9CE68
:10267000DC018D919C9111970097D1F789E296E04A
:102680008D939C931DCF109271061092700610923C
:102690006F0610926E0666CFCF93DF93CDB7DEB78D
:1026A000CC54D1090FB6F894DEBF0FBECDBF7894DD
:1026B00084B5826084BD84B5816084BD85B5826047
:1026C00085BD85B5816085BD80916E0081608093F8
:1026D0006E00109281008091810082608093810061
:1026E0008091810081608093810080918000816071
:1026F000809380008091910082608093910080910E
:10270000910081608093910080919000816080931E
:1027100090008091C10084608093C1008091C100CD
:1027200082608093C1008091C10081608093C1006C
:102730008091C30081608093C3008091C00082605B
:102740008093C0008091C20081608093C20080911C
:102750007A00846080937A0080917A00826080930E
:102760007A0080917A00816080937A0080917A006B
:10277000806880937A0010924D051092190510928E
:1027800018058091D70081608093D70080EA8093FC
:10279000D80089B5806189BD89B5826089BD09B4D9
:1027A00000FEFDCF61E070E080E090E00E94B704A1
:1027B0008091D8008F7C80618093D8008091E00068
:1027C000807F8093E0008091E1008E7E8093E10025
:1027D0008DE08093E200559A209A8FEF9FEF9093BF
:1027E000CC058093CB05809172069091730697FD7E
:1027F00008C061E00E948E0360E0809172060E9432
:10280000EB0281E080936D060E94250B5AE1E52ED4
:1028100055E0F52E10E000E0C8010E947C1BF70196
:1028200081937F010F5F1F4F08311105A9F7809138
:102830001A058D3429F480911B05823009F445C1B5
:102840008DE480931A0582E080931B050E94800D21
:102850000E94680A809331050E945D0D80912C05CD
:102860000E94D80180912C050E94D80135E0E32E0A
:10287000F12C4CE0C42ED12C10E000E00E94250B7E
:1028800040E050E06FEF70E0C8010E9467010F5F09
:102890001F4F40E050E06FEF70E0C8010E946701F9
:1028A00040E05FEF60E070E0C80105960E946701BC
:1028B000C8010696B6010E94941C40E05FEF60E0FC
:1028C00070E00E9467010E94E40364E670E080E02B
:1028D00090E00E94B7040630110581F6F1E0EF1A8E
:1028E000F10851F60E94250B0E94E40380915F06D7
:1028F00090916006811520E4920708F0F2C0880FDD
:10290000991F0E94EF1C90936B0680936A060E94A9
:102910005C0381E090E020913005213011F090E0DF
:1029200080E0909335058093340580915A0681119B
:102930000E945C0360E08DE20E94130A60E18DE278
:102940000E94130A68E08DE20E94130ABE016F5FC5
:102950007F4F81E30E94720A69816C7E636081E32C
:102960000E94130A40E062E070E08AE20E94CC0A12
:1029700040E061E070E08AE20E94CC0A41E070E051
:1029800060E08AE20E94CC0A6EE18DE10E94130AA7
:1029900064E181E20E94130A60E582E20E94130A68
:1029A0006AEF83E20E94130A40E065E070E08FE284
:1029B0000E94CC0A41E065E070E08EE20E94CC0A01
:1029C00088E991E00E947C0C0E94750B64E670E03F
:1029D00080E090E00E94B70495E0E92EF12C0E947F
:1029E000F50A8C016AE070E080E090E00E94B70494
:1029F00041E0E41AF10899F7B80190E080E00E9404
:102A00007E1A20E030E044EB5DE30E94BB1A0E9496
:102A10004A1C6B017C01C0921501D0921601E09214
:102A20001701F092180180EE91E00E948A0C4AE0B2
:102A3000C701B6010E94310C8BE591E00E94240C85
:102A400080E0282E80E0382E9924939488248A945C
:102A50000E94EA042B013C018FEB95E00E94F806EE
:102A6000892B09F45BC16DE571E0CE01895B9F4F55
:102A70000E944C0D0E94A20697FD36C08A30910537
:102A800099F189831A822D960EAD1FAD2D970F5F98
:102A90001F4FB801CE01895B9F4F0E94DF0C882336
:102AA00049F329962EAD3FAD29972D968EAD9FAD5A
:102AB0002D97BE016F5F7F4F820F931F0E94EA1E0A
:102AC0002D961FAF0EAF2D97D5CF109131051092D7
:102AD00031050E94680A181709F4C0CE0E94800DC3
:102AE000BDCE8FEF9FEF0DCF2996CEACDFAC2997EF
:102AF000C114D10441F02D960EAD1FAD2D97760176
:102B00000115110581F46BEF71E0CE01895B9F4FD8
:102B10000E94AF0C882309F442C084E092E00E9436
:102B20007C0CF7C0750157018FEFA81AB80AF7019E
:102B30008081082E000C990B0E94751A892B91F741
:102B4000015011090C0D1D1DF8018081082E000C8B
:102B5000990B0E94751A892B31F00E151F0518F07C
:102B600001501109F1CF0F5F1F4FA8014E195F09E6
:102B70002D965FAF4EAF2D97CE14DF0420F4B70132
:102B8000C6010E94D11E2996EEADFFAD29972D9664
:102B90008EAD9FAD2D97E80FF91F1082B4CF68E17D
:102BA00072E0CE0101960E944C0DBE016F5F7F4F17
:102BB000CE01895B9F4F0E94C40C182FCE01019655
:102BC0000E94200B112309F458C1BE01695B7F4F9D
:102BD000CE018F5B9F4F0E94320D40E450E0BE015A
:102BE0006F5F7F4FCE018F5B9F4F0E948C0C69EF10
:102BF00071E0CE0101960E94411A69EF71E090E008
:102C000080E00E94411A8C0169EF71E090E080E061
:102C10000E94411A5C0169EF71E090E080E00E943F
:102C2000411A6C0169EF71E090E080E00E94411A66
:102C30007C010115110509F41DC1A114B10409F4A9
:102C400019C1C114D10409F415C1892B09F412C1A9
:102C5000C5010E94231AB82EC6010E94231AD82E3D
:102C6000C7010E94231AF82E6DE771E0C8010E9487
:102C7000E11E892B69F4B0921C05D0921D05F092DB
:102C80001E050E945D0D0E94750B85E492E03AC01E
:102C900066E871E0C8010E94E11E892B39F4B09208
:102CA0001F05D0922005F0922105EBCF63E272E080
:102CB000C8010E94E11E892B39F4B0922205D092FE
:102CC0002305F0922405DDCF62E272E0C8010E9484
:102CD000E11E892B39F4B0922505D0922605F09299
:102CE0002705CFCF66E272E0C8010E94E11E892B62
:102CF00039F4B0922805D0922905F0922A05C1CF67
:102D00008BE292E00E947C0CCE018F5B9F4F0E9471
:102D1000200BCE01895B9F4F0E94200BBE016F5F8D
:102D20007F4F80E30E94720A898185FF74C0C09042
:102D30003F05D0904005E0904105F0904205D30159
:102D4000C2018C199D09AE09BF09853F9140A105BB
:102D5000B10508F460C080E894E00E947C0C909279
:102D60003E05D301C20188589F4FAF4FBF4F80939C
:102D70003A0590933B05A0933C05B0933D050E9416
:102D8000EA048B019C010C191D092E093F09053F1E
:102D9000114021053105B8F111E020913405309141
:102DA0003505232B09F010E0212F30E03093350555
:102DB000209334059092330560933F05709340054E
:102DC00080934105909342056093360570933705D3
:102DD0008093380590933905109232050E94750B47
:102DE000109330050E945D0D85E994E00E948A0CE5
:102DF0008091340590913505892B09F05EC28DE7ED
:102E000091E00E947C0C40923F05509240056092F8
:102E10004105709242050E94F50ABC0190E080E0F5
:102E20000E947E1A20E030E044EB5DE30E94BB1A72
:102E30000E944A1C6B017C0180913E05882309F4A5
:102E400041C280913A0590913B05A0913C05B0911B
:102E50003D05481659066A067B0608F031C2C09245
:102E60001501D0921601E0921701F09218010E940C
:102E70008C0B69C287E592E045CF67E772E0CE012F
:102E800001960E944C0DBE016F5F7F4FCE01895BA2
:102E90009F4F0E94C40C182FCE0101960E94200B58
:102EA000112399F1BE01695B7F4FCE018F5B9F4F6C
:102EB0000E94320D40E250E0BE016F5F7F4FCE01B5
:102EC0008F5B9F4F0E948C0C69EF71E0CE010196E1
:102ED0000E94411A69EF71E090E080E00E94411A7F
:102EE000009709F411CF0E94231A9C012150310947
:102EF0002A30310538F480932B050E945D0D87E858
:102F000092E000CF8FE992E0FDCE6FEB72E0CE0150
:102F1000895B9F4F0E94AF0C882339F00E94250BDC
:102F20000E94E4038AEC92E0FACD6BED72E0CE01F0
:102F300001960E944C0DBE016F5F7F4FCE01895BF1
:102F40009F4F0E94C40C182FCE0101960E94200BA7
:102F50001123A9F1BE01695B7F4FCE018F5B9F4FAB
:102F60000E94320D40E250E0BE016F5F7F4FCE0104
:102F70008F5B9F4F0E948C0C69EF71E0CE01019630
:102F80000E94411A69EF71E090E080E00E94411ACE
:102F9000009709F4B9CE0E94231A8F3F910509F0DA
:102FA00058F480932C050E94D8010E945D0D0E9468
:102FB000750B8AEE92E0A6CE81E093E0A3CE61E2AB
:102FC00073E0CE0101960E944C0DBE016F5F7F4FF2
:102FD000CE01895B9F4F0E94C40C182FCE01019631
:102FE0000E94200B112389F1BE01695B7F4FCE0146
:102FF0008F5B9F4F0E94320D40E250E0BE016F5F39
:103000007F4FCE018F5B9F4F0E948C0C69EF71E068
:10301000CE0101960E94411A69EF71E090E080E0D4
:103020000E94411A009709F46FCE0E94231A8F3F25
:10303000910509F038F480932D050E945D0D83E31E
:1030400093E060CE8EE493E05DCE62E773E0CE0164
:1030500001960E944C0DBE016F5F7F4FCE01895BD0
:103060009F4F0E94C40C182FCE0101960E94200B86
:10307000112399F1BE01695B7F4FCE018F5B9F4F9A
:103080000E94320D40E250E0BE016F5F7F4FCE01E3
:103090008F5B9F4F0E948C0C69EF71E0CE0101960F
:1030A0000E94411A69EF71E090E080E00E94411AAD
:1030B000009709F429CE0E94231A9C01215031095E
:1030C0002C33310538F480932E050E945D0D8FE777
:1030D00093E018CE85E993E015CE6BEB73E0CE015B
:1030E000895B9F4F0E94AF0C882309F49DC088EC38
:1030F00093E00E948A0C80911C050E94750C87ED5C
:1031000093E00E948A0C80911D050E94750C87ED4A
:1031100093E00E948A0C80911E050E94750C89ED37
:1031200093E00E948A0C80911F050E94750C87ED28
:1031300093E00E948A0C809120050E94750C87ED17
:1031400093E00E948A0C809121050E94750C80EE0C
:1031500093E00E948A0C809122050E94750C87EDF5
:1031600093E00E948A0C809123050E94750C87EDE4
:1031700093E00E948A0C809124050E94750C88EED1
:1031800093E00E948A0C809125050E94750C87EDC2
:1031900093E00E948A0C809126050E94750C87EDB1
:1031A00093E00E948A0C809127050E94750C81EFA4
:1031B00093E00E948A0C809128050E94750C87ED8F
:1031C00093E00E948A0C809129050E94750C87ED7E
:1031D00093E00E948A0C80912A050E94750C8BEF67
:1031E00093E00E948A0C80912B050E94750C82E06E
:1031F00094E00E948A0C80912C050E94750C8BE053
:1032000094E00E948A0C80912D050E94750C87E144
:1032100094E00E948A0C80912E050E94750C8BE52B
:1032200091E00E94240C75CD62E274E0CE01895BCE
:103230009F4F0E94AF0C882329F18DE294E00E94F9
:103240008A0C8091340590913505892BA9F48DE77E
:1032500091E00E948A0C8AE394E00E948A0C80919B
:103260003205882361F081E991E00E948A0C83E4B1
:1032700094E00E948A0CD3CF86E891E0EACF85E9FA
:1032800091E0F3CF60E574E0CE01895B9F4F0E942F
:10329000AF0C882319F00E94800D3BCD6FE574E0E0
:1032A000CE01895B9F4F0E94AF0C882319F084E602
:1032B00094E035CC89E694E032CC86E891E0A1CD6B
:1032C00010923E0540901501509016016090170134
:1032D00070901801D701C60184199509A609B7098C
:1032E000B7FF07C0B095A095909581959F4FAF4FC0
:1032F000BF4F0497A105B1050CF4B9CD0E94EA04B3
:10330000609336057093370580933805909339059F
:103310000E94EA0420913E052223F1F000913A0533
:1033200010913B0520913C0530913D0560177107D8
:103330008207930778F4C0921501D0921601E092AB
:103340001701F09218012114310409F481CB0E9475
:1033500000007CCB10923E0580913405909135059C
:103360004C145D046E047F04CCF5892B31F58091FB
:10337000370689831A821B828C820E943F0824E0D0
:1033800030E0AE014F5F5F4F61E00E94690780E06F
:103390000E942F0BC0921501D0921601E0921701E6
:1033A000F092180180913305882321F00E94750B5B
:1033B0001092330510923205C6CF67ED8DE196E08D
:1033C0000E94B10865E070E080E090E00E94B704E0
:1033D00067ED8DE196E00E940D09D9CF892B91F41C
:1033E0008091370689831A821B829C820E943F0843
:1033F00024E030E0AE014F5F5F4F61E00E9469075B
:1034000081E0C6CF68ED8DE196E00E94B10865E0ED
:1034100070E080E090E00E94B70468ED8DE196E0F6
:103420000E940D09EDCF80917506909176060E945D
:103430008B1D809172069091730697FD03C060E02A
:103440000C948E030895FC0188279927E894219114
:103450002032E9F3293010F02E30C8F32B3241F03E
:103460002D3239F4689404C00E946D1A820F911DA8
:10347000219120532A30C0F31EF4909581959F4FDF
:10348000089542E856E00E94461A0895FA01A19173
:10349000B081009719F41097E1F0CD01DC01CD0166
:1034A0000D90002011F4C00113C0FB0121912223D3
:1034B00019F02015D9F7F3CFFB012191201519F44C
:1034C0001E92119606C02223C1F70D900020A1F78D
:1034D000D001FA01A193B08308957AE0979F902DCF
:1034E000879F802D910D1124089591110C94281B14
:1034F000803219F089508550C8F70895E89409C0C2
:1035000097FB3EF490958095709561957F4F8F4F16
:103510009F4F9923A9F0F92F96E9BB279395F6952C
:10352000879577956795B795F111F8CFFAF4BB0FAA
:1035300011F460FF1BC06F5F7F4F8F4F9F4F16C00E
:10354000882311F096E911C0772321F09EE8872F98
:10355000762F05C0662371F096E8862F70E060E054
:103560002AF09A95660F771F881FDAF7880F9695CD
:10357000879597F908950E94CE1A0C94421B0E94D9
:10358000341B38F00E943B1B20F0952311F00C9463
:103590002B1B0C94311B11240C94761B0E94531B83
:1035A00070F3959FC1F3950F50E0551F629FF00196
:1035B000729FBB27F00DB11D639FAA27F00DB11DAF
:1035C000AA1F649F6627B00DA11D661F829F222738
:1035D000B00DA11D621F739FB00DA11D621F839FBF
:1035E000A00D611D221F749F3327A00D611D231F95
:1035F000849F600D211D822F762F6A2F11249F57E3
:1036000050409AF0F1F088234AF0EE0FFF1FBB1FE5
:10361000661F771F881F91505040A9F79E3F5105A4
:1036200080F00C942B1B0C94761B5F3FE4F3983EC8
:10363000D4F3869577956795B795F795E7959F5F4E
:10364000C1F7FE2B880F911D9695879597F90895E0
:1036500099278827089597F99F6780E870E060E0D0
:1036600008959FEF80EC089500240A94161617061B
:1036700018060906089500240A9412161306140663
:1036800005060895092E0394000C11F4882352F0C6
:10369000BB0F40F4BF2B11F460FF04C06F5F7F4F7E
:1036A0008F4F9F4F089557FD9058440F551F59F065
:1036B0005F3F71F04795880F97FB991F61F09F3F1F
:1036C00079F087950895121613061406551FF2CF48
:1036D0004695F1DF08C0161617061806991FF1CF98
:1036E00086957105610508940895E894BB276627BF
:1036F0007727CB0197F90895F999FECF92BD81BD47
:10370000F89A992780B50895262FF999FECF1FBA08
:1037100092BD81BD20BD0FB6F894FA9AF99A0FBEFA
:10372000019608952F923F924F925F926F927F92EF
:103730008F929F92AF92BF92CF92DF92EF92FF92C1
:103740000F931F93CF93DF93CDB7DEB7CA1BDB0B6D
:103750000FB6F894DEBF0FBECDBF09942A88398812
:1037600048885F846E847D848C849B84AA84B98419
:10377000C884DF80EE80FD800C811B81AA81B98125
:10378000CE0FD11D0FB6F894DEBF0FBECDBFED0139
:103790000895A29FB001B39FC001A39F700D811D2A
:1037A0001124911DB29F700D811D1124911D08954A
:1037B0000E94EC1B0C94421B0E943B1B58F00E9481
:1037C000341B40F029F45F3F29F00C942B1B51115E
:1037D0000C94761B0C94311B0E94531B68F39923A5
:1037E000B1F3552391F3951B550BBB27AA276217FD
:1037F0007307840738F09F5F5F4F220F331F441F0A
:10380000AA1FA9F335D00E2E3AF0E0E832D091503D
:103810005040E695001CCAF72BD0FE2F29D0660F2A
:10382000771F881FBB1F261737074807AB07B0E86D
:1038300009F0BB0B802DBF01FF2793585F4F3AF073
:103840009E3F510578F00C942B1B0C94761B5F3F28
:10385000E4F3983ED4F3869577956795B795F795F9
:103860009F5FC9F7880F911D9695879597F90895E1
:10387000E1E0660F771F881FBB1F6217730784077D
:10388000BA0720F0621B730B840BBA0BEE1F88F78C
:10389000E09508950E94511C6894B1110C94761B18
:1038A00008950E945B1B88F09F5798F0B92F9927C5
:1038B000B751B0F0E1F0660F771F881F991F1AF01B
:1038C000BA95C9F714C0B13091F00E94751BB1E0F0
:1038D00008950C94751B672F782F8827B85F39F0EF
:1038E000B93FCCF3869577956795B395D9F73EF4B4
:1038F00090958095709561957F4F8F4F9F4F08955C
:10390000AA1BBB1B51E107C0AA1FBB1FA617B70705
:1039100010F0A61BB70B881F991F5A95A9F7809521
:103920009095BC01CD01089597FB072E16F40094E5
:1039300007D077FD09D00E94801C07FC05D03EF41B
:10394000909581959F4F0895709561957F4F08954B
:10395000A1E21A2EAA1BBB1BFD010DC0AA1FBB1F93
:10396000EE1FFF1FA217B307E407F50720F0A21B05
:10397000B30BE40BF50B661F771F881F991F1A9472
:1039800069F760957095809590959B01AC01BD019C
:10399000CF010895052E97FB1EF400940E94E11CB0
:1039A00057FD07D00E94A81C07FC03D04EF40C94CE
:1039B000E11C50954095309521953F4F4F4F5F4FFB
:1039C000089590958095709561957F4F8F4F9F4F8B
:1039D0000895EE0FFF1F0590F491E02D09940F93C9
:1039E0001F93CF93DF938230910510F482E090E033
:1039F000E0918606F091870630E020E0B0E0A0E09C
:103A0000309799F42115310509F44AC0281B390B68
:103A100024303105D8F58A819B816115710589F1C2
:103A2000FB0193838283FE0111C040815181028199
:103A3000138148175907E0F04817590799F4109770
:103A400061F012960C93129713961C933296CF0145
:103A5000DF91CF911F910F910895009386061093E7
:103A60008706F4CF2115310551F04217530738F07E
:103A7000A901DB019A01BD01DF01F801C1CFEF010E
:103A8000F9CF9093870680938606CDCFFE01E20F93
:103A9000F31F819391932250310939832883D7CF23
:103AA0002091840630918506232B41F420911B013F
:103AB00030911C01309385062093840620911901D2
:103AC00030911A012115310541F42DB73EB74091CF
:103AD0001D0150911E01241B350BE0918406F091CD
:103AE0008506E217F307A0F42E1B3F0B28173907B2
:103AF00078F0AC014E5F5F4F2417350748F04E0F4A
:103B00005F1F5093850640938406819391939FCFC6
:103B1000F0E0E0E09CCFCF93DF930097E9F0FC0169
:103B2000329713821282A0918606B0918706ED012A
:103B300030E020E01097A1F420813181820F931FA3
:103B400020918406309185062817390709F061C055
:103B5000F0938506E0938406DF91CF910895EA0102
:103B6000CE17DF07E8F54A815B819E0141155105BB
:103B7000B1F7E901FB83EA8349915991C40FD51F3D
:103B8000EC17FD0761F4808191810296840F951FE7
:103B9000E90199838883828193819B838A83F0E002
:103BA000E0E012968D919C9113970097B9F52D91B5
:103BB0003C911197CD010296820F931F20918406AC
:103BC000309185062817390739F6309751F510924C
:103BD000870610928606B0938506A0938406BCCF14
:103BE000D383C28340815181840F951FC817D907A1
:103BF00061F44E5F5F4F88819981480F591F51834F
:103C000040838A819B81938382832115310509F04A
:103C1000B0CFF0938706E09386069ECFFD01DC01CE
:103C2000C0CF13821282D7CFB0E0A0E0EAE1FEE17C
:103C30000C94941B8C01009751F4CB010E94EF1C53
:103C40008C01C801CDB7DEB7E0E10C94B01BFC01DC
:103C5000E60FF71F9C0122503109E217F30708F421
:103C60009DC0D901CD91DC911197C617D70798F067
:103C7000C530D10530F3CE0104978617970708F3B6
:103C8000C61BD70B2297C193D1936D937C93CF0121
:103C90000E948B1DD6CF5B01AC1ABD0A4C018C0E65
:103CA0009D1EA0918606B0918706512C412CF12CC7
:103CB000E12C109731F58091840690918506881546
:103CC000990509F05CC04616570608F058C0809167
:103CD000190190911A01009741F48DB79EB7409158
:103CE0001D0150911E01841B950BE817F90708F080
:103CF00055C0F0938506E0938406F90171836083D3
:103D0000A0CF8D919C91119712966C90129713965B
:103D10007C901397A815B90559F56C0142E0C40EC3
:103D2000D11CCA14DB0420F1AC014A195B09DA0189
:103D30001296159780F06282738251834083D90175
:103D40006D937C93E114F10471F0D7011396FC9309
:103D5000EE93129776CF22968C0F9D1FF9019183D7
:103D60008083F301EFCFF0938706E093860669CF57
:103D70004816590608F42C017D01D3019ACFCB01D6
:103D80000E94EF1C7C01009749F0AE01B8010E942F
:103D9000D11EC8010E948B1D870153CF10E000E0A7
:103DA00050CFFB01DC0102C001900D924150504008
:103DB000D8F70895DC0101C06D9341505040E0F701
:103DC0000895FB01DC018D91019080190110D9F358
:103DD000990B0895FB01DC0101900D920020E1F7A1
:103DE0000895FB01DC014150504030F08D9101906D
:103DF000801919F40020B9F7881B990B0895FB016D
:103E0000DC014150504048F001900D920020C9F76C
:103E100001C01D9241505040E0F7089511E0CCE3FD
:103E2000D1E004C0FE010E94E91C2196CD33D107E8
:063E3000C9F7F894FFCF72
:103E3600FFFF00C18081000000FFFFFFFF00E100DF
:103E4600000000000019FCFFFF000088068000004B
:103E56000000004607F407B9079E07000000005E51
:103E66000648067F067406F8068406D40600000097
:103E7600004E091907460A450700000000E409B785
:103E860009460AF604B802A40995090D0A004F4B23
:103E96003A2053657474696E67732072657365742E
:103EA60020746F2064656661756C747300564552A4
:103EB600544943414C00484F52495A4F4E54414C85
:103EC60000594553004E4F004D61675363726F6C46
:103ED6006C20637265617465642C20646573696720
:103EE6006E65642C206275696C642C20636F646552
:103EF6006420616E642057696E646F777320617009
:103F0600702062792048617972692032303235003A
:103F1600496E697469616C20656E636F64657220B1
:103F2600706F736974696F6E3A20004944454E5448
:103F3600494659004D41475343524F4C4C5F434FFE
:103F46004E4649524D4544005345545F434F4C4FEE
:103F560052004343570049444C45004552524F5284
:103F66003A20496E76616C696420636F6C6F7220CB
:103F76006D6F6465004F4B3A20436F6C6F7220750E
:103F8600706461746564004552524F523A20496E1E
:103F960076616C6964205345545F434F4C4F522001
:103FA600666F726D6174005345545F53454E5349B5
:103FB600544956495459004F4B3A2053656E73691C
:103FC60074697669747920757064617465640045F6
:103FD60052524F523A2053656E736974697669740A
:103FE60079206D75737420626520312D3130004360
:103FF6004C4541525F4C454453004F4B3A204C458B
:10400600447320636C6561726564005345545F4276
:1040160052494748544E455353004F4B3A2042723B
:10402600696768746E65737320757064617465641E
:10403600004552524F523A204272696768746E6563
:104046007373206D75737420626520302D3235359B
:10405600005345545F44494D4252494748544E45E2
:104066005353004F4B3A2044696D2062726967686A
:10407600746E65737320757064617465640045526F
:10408600524F523A2044696D206272696768746EB5
:10409600657373206D75737420626520302D32351B
:1040A60035005345545F44494D44454C4159004FF2
:1040B6004B3A2044696D2064656C617920757064A3
:1040C60061746564004552524F523A2044696D202E
:1040D60064656C6179206D75737420626520312D7D
:1040E6003630207365636F6E6473004745545F53C3
:1040F600455454494E47530053455454494E47532B
:104106003A56434F4C3D002C007C48434F4C3D00F3
:104116007C4357434F4C3D007C434357434F4C3DF4
:10412600007C49444C45434F4C3D007C53454E531F
:104136003D007C4252494748543D007C44494D422B
:1041460052494748543D007C44494D44454C4159E9
:104156003D004745545F5354415455530053544111
:104166005455533A4D4F44453D007C44494D6D6589
:10417600643D007C434F4E4E45435445443D31001B
:1041860052455345545F53455454494E4753005086
:10419600494E4700504F4E47004552524F523A2023
:1041A600556E6B6E6F776E20636F6D6D616E64001A
:1041B600444F55424C4520544150204445544543B4
:1041C60054454421004D6F646520737769746368B4
:0841D600656420746F3A2000BB
:00000001FF
