:100000000C9422010C944A010C944A010C944A016C
:100010000C944A010C944A010C944A010C944A0134
:100020000C944A010C944A010C94FB0A0C946A0B40
:100030000C944A010C944A010C944A010C944A0114
:100040000C944A010C944A010C944A010C944A0104
:100050000C944A010C944A010C944A010C94B10A84
:100060000C944A010C944A010C944A010C944A01E4
:100070000C944A010C944A010C944A010C944A01D4
:100080000C944A010C944A010C944A010C944A01C4
:100090000C949C0D0C944A010C944A010C944A0156
:1000A0000C944A010C944A010C944A01000000008F
:1000B000000000002A2B28000000000000000000C3
:1000C0000000000000000000000000002C9EB4A012
:1000D000A1A2A434A6A7A5AE362D3738271E1F200F
:1000E000212223242526B333B62EB7B89F848586D4
:1000F0008788898A8B8C8D8E8F9091929394959618
:100100009798999A9B9C9D2F3130A3AD3504050695
:100110000708090A0B0C0D0E0F10111213141516F7
:100120001718191A1B1C1DAFB1B0B500080B00023F
:10013000020201000904000001020200000524007F
:100140001001052401010104240206052406000112
:100150000705810310004009040100020A000000A5
:100160000705020240000007058302400000040367
:10017000090412010002EF0201400912534D00016F
:1001800001020301486179726954656368004D6139
:10019000675363726F6C6C0000000000240027003E
:1001A0002A002D0030000000000200090F000003AB
:1001B0000401000C0000000000000000000000002E
:1001C000000000000005010906A1018502050719CC
:1001D000E029E71500250175019508810295017553
:1001E0000881039506750815002573050719002970
:1001F000738100C00408020110408040102040803C
:10020000408008020401804020100201108010206C
:1002100040402000000000250028002B002E003167
:10022000000404040404030405020202020403029D
:10023000020202060606060606040402020204047E
:10024000EE0ED51111241FBECFEFDAE0DEBFCDBF19
:1002500011E0A0E0B1E0E8E9F9E202C005900D92FA
:10026000A436B107D9F722E0A4E6B1E001C01D929F
:10027000A23EB207E1F711E0C1E2D1E004C021974C
:10028000FE010E94C012C032D107C9F70E94F70FC9
:100290000C94BF140C940000CF93DF93FC01818178
:1002A00090918D02482F490F5527551F4830510511
:1002B0009CF5A281B381109709F529E832E03383D8
:1002C0002283208120938B0280938C0280918E0266
:1002D000820F808320918F02A22FB09190028A2FEB
:1002E000821B8917E8F481813D91C82FD0E0C25F5D
:1002F000DE4F38838F5F8183F2CFD90118962D911D
:100300003C91199721153105C1F729E832E019967A
:100310003C932E931897D5CF80E0DF91CF9108952D
:1003200081E0FBCF4F925F926F927F928F929F926C
:10033000AF92BF92FF922091CA023091CB028217F6
:10034000930708F043C02B0166247724852E962E50
:10035000A72EBB24B82DA42F2091D002F42C222349
:1003600091F0E22FF0E0E49DD001E59DB00DF49D09
:10037000B00D1124FB2E289D40011124B92D249F7E
:1003800090011124A32FE091D6022091D102309147
:10039000D2025091D302E51323C0FC01EE0FFF1FE0
:1003A0008E0F9F1F820F931FE091D302E80FF92F4A
:1003B000F11DF082E091D402E80FF92FF11DB08316
:1003C0002091D502820F911DFC01A083FF90BF9068
:1003D000AF909F908F907F906F905F904F90089517
:1003E000880F991F880F991F820F931FE80FF92F0D
:1003F000F11D1082D9CFFC0180913802882311F1C0
:100400003FB7F89482E08093E9002091F200822FB8
:1004100090E01816190614F481E090E0882339F072
:10042000289844E6409337024091F100408322230C
:1004300039F02091F200211103C02BE62093E8004F
:100440003FBF08958FEF9FEF0895CF93DF931F92E3
:10045000CDB7DEB76983DC01ED91FC910280F381B9
:10046000E02D41E050E0BE016F5F7F4F09950F9096
:10047000DF91CF91089583E08093E9008091F200AD
:10048000882319F08AE38093E8000895CF93DF93DF
:100490001F92CDB7DEB7FC018485958597FD08C016
:1004A0002FEF3FEF358724870F90DF91CF9108958D
:1004B000CE0101960E94FB01019719F4898190E019
:1004C000F3CF8FEF9FEFF0CF0F931F93CF93DF9377
:1004D0001F92CDB7DEB78C01FC018485958597FF0F
:1004E0000BC0CE0101960E94FB01019771F4898136
:1004F00090E0F80195878487F801848595850F90B1
:10050000DF91CF911F910F9108958FEF9FEFF1CF62
:10051000FC018485958597FD0BC09FB7F89482E018
:100520008093E9008091F2009FBF90E001960895CA
:100530009FB7F89482E08093E9008091F2009FBF1A
:1005400090E00895282F30E0F901EA55FE4F94918C
:10055000F901EC50FE4F84912F5D3D4FF90124913C
:10056000222309F430C09923E9F091509F30D0F450
:10057000E92FF0E0E254FD4F0C94C012EC02F002BF
:10058000CD02E402E802D202D202D202F302F90260
:10059000FD0201030703D2020B03909180009F77B5
:1005A00090938000E22FF0E0EE0FFF1FED5EFD4F15
:1005B000A591B4919FB7F894EC91611132C08095E8
:1005C0008E238C939FBF0895909180009F7DE8CFEC
:1005D00090918000977FE4CF94B59F7794BDE2CF50
:1005E00094B59F7DFBCF909190009F779093900062
:1005F000D9CF909190009F7DF9CF90919000977FF7
:10060000F5CF9091C0009F779093C000CBCF909191
:10061000C0009F7DF9CF9091C200977F9093C20058
:10062000C1CF8E2BCECFCF93DF9390E0FC01EC5067
:10063000FE4F24918F5D9D4FFC0184918823D1F062
:1006400090E0880F991FFC01E856FE4FA591B491E8
:10065000FC01ED5EFD4FC591D49161110EC09FB7B5
:10066000F8948C91E22FE0958E238C932881E223DD
:10067000E8839FBFDF91CF9108958FB7F894EC91F5
:10068000E22BEC938FBFF6CF3FB7F8948091330203
:1006900090913402A0913502B091360226B5A89B04
:1006A00005C02F3F19F00196A11DB11D3FBFBA2F04
:1006B000A92F982F8827BC01CD01620F711D811DC4
:1006C000911D42E0660F771F881F991F4A95D1F749
:1006D00008958F929F92AF92BF92CF92DF92EF9246
:1006E000FF924B015C010E9444036B017C010E945C
:1006F00044036C197D098E099F09683E734081058A
:100700009105A8F321E0821A9108A108B10888EEAA
:10071000C80E83E0D81EE11CF11C81149104A104D1
:10072000B10429F7FF90EF90DF90CF90BF90AF908A
:100730009F908F90089508950895089540911B0209
:1007400050911C022091190230911A02421753074E
:10075000B4F49091E8009570E1F39091E80092FD77
:1007600019C08093F10080911B0290911C020196A8
:100770008F739927892B19F48EEF8093E80080916D
:100780001B0290911C02019690931C0280931B0205
:1007900081E0089580E00895DF92EF92FF920F9339
:1007A0001F93CF93DF93D82E8A01EB017B01E40ED8
:1007B000F51ECE15DF0559F0D7FE12C0FE0184915B
:1007C0000E949E0321968111F4CF0FEF1FEFC80105
:1007D000DF91CF911F910F91FF90EF90DF900895DF
:1007E0008881EECF2FB7F89487708093E9009091BD
:1007F000E800892F807295FF04C09091F20080E498
:10080000891B2FBF089583E00E94F20390E00895B2
:100810007F928F929F92AF92BF92CF92DF92EF9290
:10082000FF920F931F93CF93DF93C82E8B017A0112
:1008300080913802811110C08FEF9FEFDF91CF912F
:100840001F910F91FF90EF90DF90CF90BF90AF90EE
:100850009F908F907F90089580911F0280FF05C028
:100860008091E00082608093E000CE2DDF2DD12CBE
:100870008AEFB82E8C2D8770982E8C2D8072882E42
:100880008C2D8074782E9AE3A92E209719F4DD2000
:1008900009F452C08C2D0E94F20381110AC0BA944F
:1008A000BB2051F261E070E080E090E00E946903BB
:1008B000ECCF8C171D0611F00CF08C2F9FB7F8941D
:1008C0009092E9002091E80025FD02C09FBFDDCF96
:1008D000282F30E0C21BD30B882029F08150A0F0D4
:1008E0001092F100FBCFF801C7FC0AC0815050F014
:1008F00041914093F100FACF44914093F100319639
:100900008150D0F7020F131FDD2021F0A092E800E4
:10091000D12CDCCF8091E80085FD07C0A092E800D3
:10092000DD24D394209791F2F3CF209779F67720A6
:1009300069F2A092E800CACF5D9884E680931E0217
:10094000C7017CCFCF93DF93EC0180910D01882309
:1009500031F083E00E9408041816190634F081E093
:1009600090E09B838A8380E090E0DF91CF910895AF
:10097000615030F02091F100FC0120830196F8CF06
:10098000289884E68093370208958091110281119E
:100990000DC082E080930D0284E080930E021092DD
:1009A000100210920F0281E0809311028DE092E01C
:1009B0000895EF92FF921F93CF93DF931F92CDB7CD
:1009C000DEB77C0180919A0281112AC011E0109358
:1009D0008D0210938E0283E992E0909390028093AF
:1009E0008F02109292021092910281E391E0909313
:1009F0008A028093890210929502109294021092BA
:100A0000970210929602109398021093990281EC2B
:100A1000809393020E94C5040E944C0110939A0295
:100A200082E0898341E050E0BE016F5F7F4F80919B
:100A30008C020E94080497FD08C080918C0248E057
:100A400050E0B70180640E9408040F90DF91CF91BD
:100A50001F91FF90EF9008950F931F93CF93DF9313
:100A60001F92CDB7DEB782E0898342E450E06CE2AA
:100A700071E080E80E94CC030E94C504DC0112965C
:100A80000D911C910115110589F0D801ED91FC9192
:100A90000280F381E02DBE016F5F7F4FC801099591
:100AA00097FD04C0F80100851185ECCF89810F9076
:100AB000DF91CF911F910F910895DC01FB011296F8
:100AC0002C911297848195812817190641F4918100
:100AD0008081813A31F49D7F81E0913009F080E09E
:100AE00008958132E1F79B3029F482811F968C931F
:100AF00081E008959A3099F7828150968C93F8CFCF
:100B0000DC01FB0188E4808389E4818384E48283BF
:100B10001D969C911D979F709F5B93831D968D9151
:100B20009C9124E0969587952A95E1F78F708F5BCD
:100B3000848385E00895EF92FF920F931F93CF93E4
:100B4000DF93FB012081213871F52381223259F591
:100B5000DC0112964C91248135814217130619F558
:100B6000EC010B851C85F12CE12C0115110589F098
:100B7000F801448155816281738180E80E94CC0331
:100B80008F3F980749F0E80EF91ED8010D911C918E
:100B9000ECCF81E08F87C701DF91CF911F910F913B
:100BA000FF90EF90089590E080E0F6CFCF93DF9331
:100BB000CDB7DEB769970FB6F894DEBF0FBECDBFD5
:100BC000FC01DB018C918F5F8C939E012D5F3F4F69
:100BD0008DE0D9011D928A95E9F729E0298384E007
:100BE0008A8391E09D8383E08E832A8721E22B878D
:100BF0009C879D879F8722E2288B27E02B8B25E00F
:100C00002C8B8E8B20E430E0388F2F8B998F828154
:100C10008B8395858685998B8A8B838180688D8B64
:100C200049E150E0BE016F5F7F4F80E00E94CC033E
:100C300069960FB6F894DEBF0FBECDBFDF91CF919E
:100C40000895CF92DF92EF92FF920F931F93CF936D
:100C5000DF936C01EB017B01E40EF51E10E000E078
:100C6000CE15DF0581F069916D30D1F3D601ED919C
:100C7000FC910190F081E02DC6010995892B19F0B6
:100C80000F5F1F4FEDCFC801DF91CF911F910F91E3
:100C9000FF90EF90DF90CF900895DC01683888F1E5
:100CA000685816968C911697861721F117968C9195
:100CB00017978617F9F018968C9118978617D1F028
:100CC00019968C9119978617A9F01A968C911A97F4
:100CD000861781F01B968C911B97861759F0FD01A2
:100CE000369690E080E02191211139C08A0F9B1F38
:100CF000FC016683CD0104960E94D90481E090E056
:100D00000895E62FF0E067FF11C0E058F10921E0F7
:100D100030E001C0220FEA95EAF714968C911497FF
:100D2000822B14968C93149760E0BBCFE455FF4F51
:100D30006491611109C081E090E013969C938E93B9
:100D4000129790E080E0089567FFABCF14968C91E6
:100D50001497826014968C9314976F77A2CF0196A4
:100D60008630910509F0BFCFE6CFEF92FF920F9347
:100D70001F93CF938C01C62F0E944D067C01C8386B
:100D8000C8F0C858F80186E0CC2321F09681C91339
:100D900001C01682815031968111F6CFC8010496A8
:100DA0000E94D904C7019927CF911F910F91FF90FD
:100DB000EF900895EC2FF0E0C7FF0FC0E058F10965
:100DC00081E090E001C0880FEA95EAF78095F8018C
:100DD000948189238483C0E0D5CFE455FF4FC4912B
:100DE000CC2301F3C7FFCECFF80184818D7F8483AC
:100DF000CF77C8CF089585ED8093BC008091BC006B
:100E000084FDFCCF1092270208952091C601260F81
:100E10003327331F21323105ECF420912702FC01E6
:100E200090E080E0243069F082E00895A091C6014E
:100E30002191AC014A555E4FA40FB52FB11D2C93E3
:100E40000196861798F38091C601680F6093C601DA
:100E500080E0089581E00895E0912B0280912A02BC
:100E6000E81730F4F0E0EA57FE4F808190E00895F3
:100E70008FEF9FEF089590912B0280912A022FEF20
:100E80003FEF981748F4E92FF0E0EA57FE4F208132
:100E900030E09F5F90932B02C901089580912A0250
:100EA00090912B02891B990B0895CF92DF92EF92BC
:100EB000FF920F931F93CF93DF937C01CB018A01A5
:100EC00020918501222389F0EB016B01C40ED51E10
:100ED000CC15DD0569F06991D701ED91FC91019088
:100EE000F081E02DC7010995F3CF642F0E9405071B
:100EF000C801DF91CF911F910F91FF90EF90DF908C
:100F0000CF900895CF93DF931F92CDB7DEB769835B
:100F1000209185012223F9F020912802203258F0F7
:100F200021E030E0FC013383228390E080E00F90E9
:100F3000DF91CF91089580912902E82FF0E0EB59DD
:100F4000FE4F998190838F5F8093290280932802BE
:100F500081E090E0ECCF61E0CE0101960E940507B0
:100F6000F7CF90E080E00895CF93DF93EC011092EB
:100F7000B6021092B7021092B8021092B902109203
:100F8000BA021092BB021092B40284EB92E00E946B
:100F9000D9044C815D816881798180EB92E00E9467
:100FA00021066AE070E080E090E00E94690360EB57
:100FB00080EB92E00E944D0664E170E080E090E0FA
:100FC0000E946903E0EBF2E086EB92E02681283292
:100FD00009F4168231968E179F07C1F784EB92E0D1
:100FE000DF91CF910C94D904CF93DF9381E080936C
:100FF000850186E3809364011092290210922802F1
:101000006CE08CEB92E00E94820790912802913272
:1010100008F03FC0809127028111FCCF82E08093CD
:10102000270281E0809326028FEF8093E9011092DE
:101030000B0290930A02E5E6F1E0AAEEB1E080E04F
:1010400098137DC010920C0280910C028C668093E4
:101050000C0280912502813009F075C010922502A2
:1010600080910C028093BB008091BC0083FDF8CF7F
:1010700085EC8093BC00809127028230E1F380915F
:10108000E9018F3F31F08091E901803211F08091C8
:10109000E901109229021092280210928501809194
:1010A00027028111FCCF81E08093270280932602E2
:1010B0009FEF9093E90110920B0280930A028093B4
:1010C0000C0280910C028C6680930C0280912502A8
:1010D0008130D9F51092250280910C028093BB00DB
:1010E0008091BC0083FDF8CF85EC8093BC0080919B
:1010F00027028130E1F380910B0292E0823010F4FC
:1011000090910B02AAEEB1E0E6E8F1E080E08913ED
:101110001EC010922B0280932A028230E1F48CEBE5
:1011200092E00E943B07D82F80E0C82F8CEB92E022
:101130000E943B078C2B9D2BDF91CF91089521912D
:101140002D938F5F7DCF85EE94CF85EECECF2D9101
:1011500021938F5FDCCF90E080E0EECFCF93DF93E1
:10116000EC0188819981009711F00E946213198225
:1011700018821D821C821B821A82DF91CF910895F2
:10118000FC01808191810C946213EF92FF920F9386
:101190001F93CF93DF93CDB7DEB729970FB6F8949F
:1011A000DEBF0FBECDBF4091CC025091CD0270E0AA
:1011B00060E08091D1029091D2020E94B1142091FE
:1011C0002C0230912D022115310509F098C040E024
:1011D00050E06FEF70E090E080E00E94920180911B
:1011E000D1029091D202892B09F47CC00E94440361
:1011F0000091D7021091D8022091D9023091DA02E1
:10120000601771078207930740F46093D7027093C9
:10121000D8028093D9029093DA020091D7021091FC
:10122000D8022091D9023091DA02601B710B820B37
:10123000930B6C32714081059105C0F2F894809156
:10124000CC029091CD029A838983E091D102F091F2
:10125000D202DF011196808189879091C802E091C6
:10126000DB02F091DC028091DD02992309F47CC05D
:101270009081982B98879081809589238F838F8187
:101280008C8388E08B8358856F8149853B812C81D5
:1012900089819A81508347FD252F3A952083262FF7
:1012A00039F0441F00C000006083000000C0F2CF8E
:1012B00038E04D9160830000019761F7F093DC0204
:1012C000E093DB0249873B832C839A83898378945C
:1012D0000E9444036093D7027093D8028093D9028E
:1012E0009093DA0229960FB6F894DEBF0FBECDBFF9
:1012F000DF91CF911F910F91FF90EF900895032EF2
:10130000000C440B550B2E55314041095109ABE0FF
:10131000B0E00E94391222E533E040E050E00E9444
:101320001A122F5F3F4F4F4F5F4F790110E000E0DF
:101330000E151F050CF053CF4FEF50E060E070E04A
:10134000043011055CF040E05FEF60E070E00830D1
:10135000110524F040E050E06FEF70E0C8010E94FA
:1013600092010F5F1F4FE4CF9081982B9887908157
:10137000809589238F838F818E8388E08D83588524
:101380006F8149853D812E8189819A81508347FDF6
:10139000252F00C000C0208300C000C000C000C0D6
:1013A00000C060830000262F3A9541F0441F0000E2
:1013B00000C000C000C000C000C0E8CF38E04D91C0
:1013C00000C0608300C0019709F7F093DC02E0934E
:1013D000DB0249873D832E8378CF0F931F93CF93F2
:1013E000DF93EC0188819981009759F02A813B8134
:1013F0002617370730F081E0DF91CF911F910F91D1
:1014000008958B016F5F7F4F0E94EB13009759F097
:10141000998388831B830A832C813D81232B59F771
:10142000FC011082E8CF80E0E7CFEF92FF920F93AC
:101430001F93CF93DF936115710541F480E0DF9135
:10144000CF911F910F91FF90EF9008954115510595
:10145000B1F07B01EC010C811D81040F151FB80157
:101460000E94ED09882351F3288139818C819D8167
:10147000B701820F931F0E94B8141D830C8381E073
:10148000DECFEF92FF920F931F93CF93DF93EC0188
:101490007B018A01BA010E94ED0981110BC0CE01C6
:1014A0000E94AE08CE01DF91CF911F910F91FF9066
:1014B000EF9008951D830C83B701888199810E9464
:1014C000B814F0CFEF92FF920F931F93CF93DF9357
:1014D000CDB7DEB762970FB6F894DEBF0FBECDBFB3
:1014E0008C01CB01F80111821082138212821582C5
:1014F00014824AE09E012F5F3F4F7901B9010E949B
:10150000E511F70101900020E9F73197AF014E197D
:101510005F09B701C8010E94410A62960FB6F894AC
:10152000DEBF0FBECDBFDF91CF911F910F91FF9016
:10153000EF900895CF93DF93EC01FB018617970797
:1015400049F0608171816115710541F044815581D7
:101550000E94410ACE01DF91CF9108950E94AE080A
:10156000F9CF1F920F920FB60F9211242F933F9332
:101570008F939F93AF93BF9380912F0290913002EE
:10158000A0913102B091320230912E0223E0230F5C
:101590002D3758F50196A11DB11D20932E02809381
:1015A0002F0290933002A0933102B09332028091C7
:1015B000330290913402A0913502B0913602019627
:1015C000A11DB11D8093330290933402A093350284
:1015D000B0933602BF91AF919F918F913F912F9120
:1015E0000F900FBE0F901F90189526E8230F0296BC
:1015F000A11DB11DD2CF1F920F920FB60F921124D1
:101600008F939F938091E1009091E100937F90935D
:10161000E10083FF0FC01092E90091E09093EB008E
:101620001092EC0092E39093ED001092380298E053
:101630009093F00082FF22C093E09093E900909194
:10164000F200992319F09AE39093E80090911E021A
:10165000992341F090911E02915090931E02911196
:1016600001C05D9A90913702992341F09091370221
:10167000915090933702911101C0289A84FF18C0AD
:101680008091E2008E7E81608093E2008091E10093
:101690008F7E8093E10080911F028E7E8061809317
:1016A0001F029F918F910F900FBE0F901F90189562
:1016B00080FFF7CF8091E2008E7E80618093E20010
:1016C0008091E1008E7E8093E10080911F028E7EEA
:1016D0008160E5CF1F920F920FB60F921124CF9227
:1016E000DF92EF92FF920F931F932F933F934F93AD
:1016F0005F936F937F938F939F93AF93BF93EF937A
:10170000FF93CF93DF93CDB7DEB76C97DEBFCDBF2E
:101710001092E9008091E80083FF25C068E0CE01C7
:1017200045960E94B80482EF8093E8008D8987FF78
:1017300039C09091E80090FFFCCF982F907609F087
:1017400034C19E894F89588D2F89F88C911131C0F1
:10175000803861F5809120028093F1001092F100B1
:101760008EEF8093E8006C960FB6F894DEBF0FBE44
:10177000CDBFDF91CF91FF91EF91BF91AF919F913D
:101780008F917F916F915F914F913F912F911F9119
:101790000F91FF90EF90DF90CF900F900FBE0F90C2
:1017A0001F9018959EEF9093E800C7CF1092F1001C
:1017B000D5CF913059F48111D3CF4130510581F605
:1017C000809120028D7F80932002CACF933049F40C
:1017D0008111C6CF4130510519F6809120028260F7
:1017E000F2CF953041F48091E80080FFFCCF206873
:1017F0002093E300B5CF963009F0A9C00B8D1C8D66
:1018000022E01092E90010921C0210921B02F212C8
:101810002EC010921A02109219020E942C051F82EB
:1018200099E09983FA8291E09E8390EA98879AEFF3
:10183000998720911B0230911C02275F3F4F3C8308
:101840002B838D831092E90010921C0210921B02D0
:1018500010931A020093190249E050E0BE016F5F35
:101860007F4F80E00E94CC030E942C0579CF10931B
:101870001A02009319020E94C504DC0112960D9110
:101880001C910115110509F451C1D801ED91FC918C
:101890000480F581E02DBE016B5E7F4FC801099584
:1018A000009709F03EC1F80100851185EACFF3E009
:1018B000FF120EC08F89882309F440C0823061F482
:1018C00040E869E08EE891E00E94BB0E811148CFAC
:1018D00081E28093EB0047CF813029F440E869E052
:1018E00084E891E0F1CF833099F70E94C504DC01D0
:1018F0001296ED90FC908E010F5F1F4F6801E1146E
:10190000F10479F0D701ED91FC910680F781E02D8B
:10191000B801C7010995080F111DF701E084F18492
:10192000EECFD8011C92F60101900020E9F7319723
:10193000BF016C197D0940E0C601C6CF6EE671E0BB
:10194000FB01449150E080E80E94CC0309CF97301E
:1019500009F4BECF983021F481E08093F10000CFEC
:10196000993009F0FDCE837009F0B2CFEFE0F1E0DD
:1019700081E031E096E32191222371F08093E90028
:101980003093EB00DF0111972C912093EC009093A2
:10199000ED008F5F873079F78EE78093EA00109231
:1019A000EA008F8980933802DBCE8B8D9C8D10925C
:1019B000E90010921C0210921B0290931A0280936D
:1019C0001902898D811192C08E899D89913A49F4BD
:1019D000813209F07DCF47E050E066E071E080E0C1
:1019E000B3CF913209F074CF833269F48F89988D27
:1019F000B0E0A0E08093000190930101A093020168
:101A0000B0930301ADCE803269F48091E80082FF8B
:101A1000FCCF67E086E091E00E94B8048BEF8093F2
:101A2000E8009ECE823209F09BCE8F8980930D0113
:101A3000EEEFFFE7859194918B3F9C4D51F1E0E0F3
:101A4000F8E08091060190910701A0910801B09102
:101A50000901803B9440A105B105F1F480910D018D
:101A600080FD1AC0EE3F8AE0F80789F587E797E71F
:101A7000918380838091600080931D0288E19BE0C8
:101A80000FB6F894A895809360000FBE9093600005
:101A900067CEEEEFFAE0D5CF808191818737974707
:101AA00009F05ECEA8958091600088618093600007
:101AB00080911D0280936000EE3F2AE0F20789F0DA
:101AC0008091FE0A9091FF0A9183808349CE8081A4
:101AD00091818737980751F29093FF0A8093FE0A0D
:101AE000C5CF1092FF0A1092FE0A3ACE0E94C5049A
:101AF000DC0112960D911C910115110509F4E8CE37
:101B0000D801ED91FC910190F081E02DBE016B5E5A
:101B10007F4FC8010995811123CEF80100851185F9
:101B2000EBCF181619060CF41BCED2CEF1E0FF1243
:101B3000BECE62E771E004CF1F920F920FB60F92F4
:101B400011242F933F934F935F936F937F938F93C2
:101B50009F93AF93BF93EF93FF938091B900887FDA
:101B6000803609F44AC0F0F5883209F4A7C018F5A8
:101B7000803109F49BC0B8F4882309F4F9C0883097
:101B800009F494C0FF91EF91BF91AF919F918F9114
:101B90007F916F915F914F913F912F910F900FBE69
:101BA0000F901F901895883109F488C0803251F742
:101BB0008093E90114C0803409F49DC040F480335F
:101BC000B9F38833F9F68093E90185ECB0C080352C
:101BD00009F485C0883509F496C0883499F60E94C6
:101BE000FB06D0CF883909F48CC038F5883729F046
:101BF00050F4883611F0803729F683E0809327026D
:101C00001092E80157C0883809F47BC0803919F078
:101C1000803809F0B7CF8091E801803208F071C0B8
:101C2000E091E80181E08E0F8093E8018091BB0094
:101C3000F0E0E853FE4F80833DC0803B39F0E0F494
:101C4000803A09F479C0883A09F09CCF84E0809307
:101C500027021092C7011092C601E0912302F09171
:101C6000240209958091C60181110FC081E0809303
:101C7000C6011092A60109C0803C09F4A6CF883C99
:101C800009F4A3CF883B09F07DCFE091C70181E043
:101C90008E0F8093C701F0E0EA55FE4F808180935C
:101CA000BB009091C7018091C60129C080910C02B0
:101CB0008093BB0085EC8093BC0064CF90910B02B5
:101CC00080910A02981758F5E0910B0281E08E0F7F
:101CD00080930B02F0E0E651FE4F8081E9CFE09166
:101CE0000B0281E08E0F80930B028091BB00F0E02D
:101CF000E651FE4F808390910B0280910A02981763
:101D0000C8F285E8D8CFE0910B0281E08E0F809376
:101D10000B028091BB00F0E0E651FE4F8083809182
:101D2000260281115CCF81E08093250284EA8093B2
:101D3000BC001092270226CF85EC8093BC00109245
:101D400027028091E801803230F4E091E801F0E070
:101D5000E853FE4F10826091E80170E0E0912102AB
:101D6000F091220288EC91E009951092E8010ACFE7
:101D70001092E90134CFEF92FF920F931F93CF930C
:101D8000DF93F82E192FE62E042F81E0860F880F9F
:101D90000E949E0383E00E949E03CF2DD12FEC0E64
:101DA000FD2EF11CCE15DF05B9F007FF13C0FE01B3
:101DB00084910E949E03182F80E00E949E0381233D
:101DC00021968111EFCFDF91CF911F910F91FF905D
:101DD000EF9008958881EDCF81E0F5CFCF931092F9
:101DE0003C0210923B0288EE93E0A0E0B0E08093CA
:101DF0003D0290933E02A0933F02B09340028FE1D8
:101E000091E090933A02809339028FEF9FEF909385
:101E10004602809345021092B3021092B2028DE303
:101E200091E09093B1028093B0028091A802811159
:101E300013C01092A3021092A20285EC91E090933D
:101E4000A5028093A4028FE290E09093A702809372
:101E5000A60281E08093A80280919A0281112AC093
:101E6000C1E0C0938D02C0938E0283E992E090930B
:101E7000900280938F02109292021092910281E35D
:101E800091E090938A0280938902109295021092B9
:101E900094021092970210929602C0939802C093F7
:101EA000990281EC809393020E94C5040E944C0128
:101EB000C0939A02E0919402F0919502309709F054
:101EC00084C082EA92E0909395028093940280917C
:101ED0009602909197022091A6023091A702820F5C
:101EE000931F90939702809396021092BF021092D4
:101EF000BE0288EE93E0A0E0B0E08093C002909331
:101F0000C102A093C202B093C30289E491E090930E
:101F1000BD028093BC021092C9021092D0021092AE
:101F2000D7021092D8021092D9021092DA0281E000
:101F30008093D6028093D3021092D40292E09093C1
:101F4000D5028093C80284E290E09093CD02809302
:101F5000CC020E94C6129093D2028093D1020097C5
:101F600009F43CC024E2FC0111922A95E9F78CE0C7
:101F700090E09093CB028093CA0287E190E0909327
:101F8000CF028093CE028091C902882341F061E0A4
:101F900087E10E94130360E087E10E94A202E8E368
:101FA000F2E0E491F0E0EE0FFF1FED5EFD4F859152
:101FB00094919093DC028093DB02EBE0F2E0E491F9
:101FC000E093DD02CF910895FC018081918100971B
:101FD000D9F782EA92E09183808379CF1092CD0283
:101FE0001092CC021092CB021092CA02C6CFCF93AD
:101FF000DF93CDB7DEB762970FB6F894DEBF0FBEA2
:10200000CDBF789484B5826084BD84B5816084BD81
:1020100085B5826085BD85B5816085BD80916E0086
:10202000816080936E0010928100809181008260B7
:1020300080938100809181008160809381008091F4
:102040008000816080938000809191008260809305
:102050009100809191008160809391008091900027
:102060008160809390008091C10084608093C10062
:102070008091C10082608093C1008091C100816025
:102080008093C1008091C30081608093C3008091E0
:10209000C00082608093C0008091C2008160809304
:1020A000C20080917A00846080937A0080917A00E7
:1020B000826080937A0080917A00816080937A00B8
:1020C00080917A00806880937A0010923802109292
:1020D000200210921F028091D70081608093D70068
:1020E00080EA8093D80089B5806189BD89B5826016
:1020F00089BD09B400FEFDCF61E070E080E090E0B2
:102100000E9469038091D8008F7C80618093D80001
:102110008091E000807F8093E0008091E1008E7EDE
:102120008093E1008DE08093E200559A209A10920E
:102130002B0210922A021092290210922802109269
:10214000270281E0809326021092250261E082E05E
:102150000E94A20261E083E00E94A2028091B90085
:102160008E7F8093B9008091B9008D7F8093B900F4
:1021700088E48093B80085E48093BC008CE993E008
:1021800090932402809323028DE993E0909322029E
:10219000809321028091CE029091CF0297FD08C0DA
:1021A00061E00E94130360E08091CE020E94A202CF
:1021B00081E08093C9026091D002653629F12091B7
:1021C000D1023091D2026150C9F070E08FEF94E6F5
:1021D0000E94AC12F9014091CC025091CD02CF0186
:1021E000821B930B8417950760F44081469FC001C2
:1021F000479F900D112490833196EDCF70E060E001
:10220000E9CF85E68093D0020E94C50860ED77E0B3
:1022100080E090E00E9469030E94F407909305011A
:102220008093040180E0E82E80E0F82E9EE5C92E20
:10223000DD24D3940E94F4078C01809104019091D5
:1022400005019801281B390BC901813038E093073B
:102250000CF443C090519C0197FF04C02227332700
:10226000281B390B203F31058CF160912C027091B5
:102270002D02181619060CF07DC061157105A1F527
:10228000D0922D02C0922C021A8219821C821B82CB
:102290001E821D8247E050E067E571E0CE010196A5
:1022A0000E94410ACE0101960E94B407CE01019618
:1022B0000E94C00810930501009304010E94C50804
:1022C00066E970E080E090E00E946903E114F104A7
:1022D00009F4B0CF0E940000ADCF811528EF92071E
:1022E0000CF0B9CF905FB7CF603B34E0730714F7C1
:1022F0006E5C7F4F70932D0260932C02CE01079687
:102300000E94620A1E861D86188A1F861A8A198AEA
:1023100041E050E06FE571E0CE010D960E94410A68
:102320004B855C856F817885CE010D960E94150ADC
:10233000811104C0CE010D960E94AE081A82198246
:102340001C821B821E821D82BE01635F7F4FCE01F5
:1023500001960E949A0ACE0101960E94B407CE010E
:1023600001960E94C008CE010D960E94C008CE01C1
:1023700007969ECF6E3581E0780779F410922D0292
:1023800010922C021A8219821C821B821E821D82CC
:1023900042E050E061E671E081CF6F3521E07207E5
:1023A0000CF488CF62537109A5CF8091D10290912E
:1023B000D2020E9462138091CE029091CF0297FDCB
:1023C00003C060E00C9413030895BB274A3031F436
:1023D000992322F4BDE2909581959F4F0C94F111C1
:1023E000BB27FB015527AA27880F991FAA1FA417EF
:1023F00010F0A41B83955051B9F7A05DAA3308F0E3
:10240000A95DA193009779F7B111B1931192CB0116
:102410000C940A12DC01FC01672F71917723E1F71C
:10242000329704C07C916D9370836291AE17BF07A1
:10243000C8F30895052E97FB1EF400940E943112F4
:1024400057FD07D00E947B1207FC03D04EF40C947A
:10245000311250954095309521953F4F4F4F5F4F2A
:10246000089590958095709561957F4F8F4F9F4F00
:1024700008950E949D12A59F900DB49F900DA49F5A
:10248000800D911D112408952F923F924F925F92DB
:102490006F927F928F929F92AF92BF92CF92DF9274
:1024A000EF92FF920F931F93CF93DF93CDB7DEB7D9
:1024B000CA1BDB0B0FB6F894DEBF0FBECDBF09946D
:1024C0002A88398848885F846E847D848C849B84C4
:1024D000AA84B984C884DF80EE80FD800C811B81D2
:1024E000AA81B981CE0FD11D0FB6F894DEBF0FBE01
:1024F000CDBFED010895A1E21A2EAA1BBB1BFD0161
:102500000DC0AA1FBB1FEE1FFF1FA217B307E407D2
:10251000F50720F0A21BB30BE40BF50B661F771F2A
:10252000881F991F1A9469F760957095809590950A
:102530009B01AC01BD01CF010895A29FB001B39FE3
:10254000C001A39F700D811D1124911DB29F700DBC
:10255000811D1124911D0895AA1BBB1B51E107C0C9
:10256000AA1FBB1FA617B70710F0A61BB70B881F23
:10257000991F5A95A9F780959095BC01CD010895B2
:10258000EE0FFF1F0590F491E02D09940F931F9318
:10259000CF93DF938230910510F482E090E0E091D8
:1025A000E002F091E10230E020E0B0E0A0E03097FE
:1025B00099F42115310509F44AC0281B390B243040
:1025C0003105D8F58A819B816115710589F1FB017F
:1025D00093838283FE0111C0408151810281138166
:1025E00048175907E0F04817590799F4109761F018
:1025F00012960C93129713961C933296CF01DF918B
:10260000CF911F910F9108950093E0021093E10282
:10261000F4CF2115310551F04217530738F0A901C5
:10262000DB019A01BD01DF01F801C1CFEF01F9CF54
:102630009093E1028093E002CDCFFE01E20FF31F01
:10264000819391932250310939832883D7CF2091E8
:10265000DE023091DF02232B41F4209117013091EB
:1026600018013093DF022093DE0220911501309192
:1026700016012115310541F42DB73EB740911901DE
:1026800050911A01241B350BE091DE02F091DF021C
:10269000E217F307A0F42E1B3F0B2817390778F039
:1026A000AC014E5F5F4F2417350748F04E0F5F1F98
:1026B0005093DF024093DE02819391939FCFF0E02D
:1026C000E0E09CCFCF93DF930097E9F0FC013297D5
:1026D00013821282A091E002B091E102ED0130E09C
:1026E00020E01097A1F420813181820F931F209167
:1026F000DE023091DF022817390709F061C0F0933C
:10270000DF02E093DE02DF91CF910895EA01CE1758
:10271000DF07E8F54A815B819E0141155105B1F75C
:10272000E901FB83EA8349915991C40FD51FEC1746
:10273000FD0761F4808191810296840F951FE90164
:1027400099838883828193819B838A83F0E0E0E090
:1027500012968D919C9113970097B9F52D913C910C
:102760001197CD010296820F931F2091DE023091C6
:10277000DF022817390739F6309751F51092E10238
:102780001092E002B093DF02A093DE02BCCFD383AD
:10279000C28340815181840F951FC817D90761F406
:1027A0004E5F5F4F88819981480F591F5183408345
:1027B0008A819B81938382832115310509F0B0CFF3
:1027C000F093E102E093E0029ECFFD01DC01C0CF77
:1027D00013821282D7CFB0E0A0E0E1EFF3E10C94D6
:1027E00046128C01009751F4CB010E94C6128C0155
:1027F000C801CDB7DEB7E0E10C946212FC01E60F30
:10280000F71F9C0122503109E217F30708F49DC01D
:10281000D901CD91DC911197C617D70798F0C53033
:10282000D10530F3CE0104978617970708F3C61B2E
:10283000D70B2297C193D1936D937C93CF010E94C4
:102840006213D6CF5B01AC1ABD0A4C018C0E9D1EE3
:10285000A091E002B091E102512C412CF12CE12C2D
:10286000109731F58091DE029091DF02881599056D
:1028700009F05CC04616570608F058C08091150153
:1028800090911601009741F48DB79EB740911901C0
:1028900050911A01841B950BE817F90708F055C0F1
:1028A000F093DF02E093DE02F90171836083A0CF31
:1028B0008D919C91119712966C90129713967C9023
:1028C0001397A815B90559F56C0142E0C40ED11C47
:1028D000CA14DB0420F1AC014A195B09DA01129633
:1028E000159780F06282738251834083D9016D9382
:1028F0007C93E114F10471F0D7011396FC93EE93ED
:10290000129776CF22968C0F9D1FF90191838083B9
:10291000F301EFCFF093E102E093E00269CF4816B4
:10292000590608F42C017D01D3019ACFCB010E94F6
:10293000C6127C01009749F0AE01B8010E94A814AC
:10294000C8010E946213870153CF10E000E050CF0E
:10295000FB01DC0102C001900D9241505040D8F7BC
:102960000895DC0101C06D9341505040E0F7089597
:10297000FB01DC0101900D920020E1F7089511E0C8
:10298000C1E2D1E004C0FE010E94C0122196C23211
:08299000D107C9F7F894FFCF4D
:10299800FFFFFFFFFFFF00E100000000000000C193
:1029A80080810000000000E2028000000000002595
:1029B80002A20403043B02880246026402000000EB
:1029C800005D05D6059B05800500000000B50621C1
:1029D80006B107FA060000000082075507B1079BF9
:1029E800034E073B072C074D332053333530005334
:0429F800004D350059
:00000001FF
