:100000000C943D010C9465010C9465010C94650100
:100010000C9465010C9465010C9465010C946501C8
:100020000C9465010C9465010C94EC0D0C945B0E22
:100030000C9465010C9465010C9465010C946501A8
:100040000C9465010C9465010C9465010C94650198
:100050000C9465010C9465010C9465010C94A20D3F
:100060000C9465010C9465010C9465010C94650178
:100070000C9465010C9465010C9465010C94650168
:100080000C9465010C9465010C9465010C94650158
:100090000C948D100C9465010C9465010C94650111
:1000A0000C9465010C9465010C946501000000003E
:1000B000000000002A2B28000000000000000000C3
:1000C0000000000000000000000000002C9EB4A012
:1000D000A1A2A434A6A7A5AE362D3738271E1F200F
:1000E000212223242526B333B62EB7B89F848586D4
:1000F0008788898A8B8C8D8E8F9091929394959618
:100100009798999A9B9C9D2F3130A3AD3504050695
:100110000708090A0B0C0D0E0F10111213141516F7
:100120001718191A1B1C1DAFB1B0B500080B00023F
:10013000020201000904000001020200000524007F
:100140001001052401010104240206052406000112
:100150000705810310004009040100020A000000A5
:100160000705020240000007058302400000040367
:10017000090412010002EF0201400912534D00016F
:1001800001020301486179726954656368004D6139
:10019000675363726F6C6C0000000000240027003E
:1001A0002A002D0030000000000200090F000003AB
:1001B0000401000C0000000000000000000000002E
:1001C000000000000005010906A1018502050719CC
:1001D000E029E71500250175019508810295017553
:1001E0000881039506750815002573050719002970
:1001F000738100C005010902A1010901A100850167
:1002000005091901290315002501950375018102CE
:1002100095017505810305010930093109381581FA
:10022000257F750895038106C0C0040802011040AF
:10023000804010204080408008020401804020104F
:1002400002011080102040402000000000250028FE
:10025000002B002E003100040404040403040502F2
:100260000202020403020202020606060606060451
:10027000040202020404DF11E51911241FBECFEFAE
:10028000DAE0DEBFCDBF26E0AEE8B4E001C01D92EB
:10029000AE36B207E1F714E0A0E0B1E0EAEDFDE32D
:1002A00002C005900D92AE38B107D9F711E0CCE34A
:1002B000D1E004C02197FE010E94BB1CCB33D107C3
:1002C000C9F70E9443130C94E01E0C9400008F9217
:1002D0009F92AF92BF92CF92DF92EF92FF92CF9315
:1002E000209154063091550682179307E8F54B018B
:1002F000AA24BB24C82DC52ED62EE72EFF24BC2D44
:10030000A42F20915A06222361F0829E40011124DD
:10031000C92D2C9D60011124BD2D249FF0011124B5
:10032000AF2FE0916006E0905B06F0905C063091A4
:100330005D06E31323C09C01220F331F820F931F1E
:100340008E0D9F1DE0915D06E80FF92FF11DC08312
:10035000E0915E06E80FF92FF11DB08320915F0652
:10036000820F911DFC01A083CF91FF90EF90DF9051
:10037000CF90BF90AF909F908F900895880F991F56
:10038000880F991F8E0D9F1D472F552766277727AA
:10039000222349F030E0249F7001259FF00C349F08
:1003A000F00C11244F2DE80FF92FF11D4083CACF17
:1003B0001F93CF93DF9311E0180F20915A06121765
:1003C000A1F1C0915B06D0915C06215070E060E025
:1003D00061F08F3FF1F430E050E040E06FEF7FEFED
:1003E00080E090E00E949C1CB901FE0140915606FD
:1003F00050915706CF018C1B9D0B8417950798F4DD
:100400004081469FC001479F900D112490833196F3
:10041000EDCF812F90E0982F88270197622F70E011
:100420000E94521CE2CF10935A06DF91CF911F9188
:100430000895982F2091A40581E0213208F043C04F
:10044000809180058111FCCF8091A30532E030932B
:10045000800590937F059FEF90937E0510927D0518
:1004600020937C05A3E8B5E0ECE5F5E090E02913E6
:1004700031C010925B0590915B05880F892B8093AA
:100480005B0580915A05813049F510925A0580919B
:100490005B058093BB008091BC0083FDF8CF85ECA9
:1004A0008093BC00809180058230E1F380917E05CD
:1004B0008F3FB1F080917E058032A1F080917E0562
:1004C000803391F084E0109282051092A40510927E
:1004D000810508953D9131939F5FC9CF85EEE0CFAF
:1004E00080E0F1CF82E0EFCF83E0EDCF9091800507
:1004F0009111FCCF91E09093800590937F052FEFB1
:1005000020937E0510927D05260F20937C05909305
:100510005B0590915B05880F892B80935B0580912B
:100520005A058130F9F410925A0580915B05809349
:10053000BB008091BC0083FDF8CF85EC8093BC00AC
:10054000809180058130E1F380917D05861710F45C
:1005500060917D05ACE5B5E0EAE3F5E080E0861367
:1005600003C0089585EEEACF9D9191938F5FF7CFF9
:100570008091380590913905891B990B089508954C
:100580000895FC0180913305882311F13FB7F89459
:1005900082E08093E9002091F200822F90E018160B
:1005A000190614F481E090E0882339F0289844E695
:1005B000409332054091F1004083222339F020918D
:1005C000F200211103C02BE62093E8003FBF0895FD
:1005D0008FEF9FEF0895282F30E0F901EA55FE4F85
:1005E0009491F901E65DFD4F8491295A3D4FF9013F
:1005F0002491222309F430C09923E9F091509F30CF
:10060000D0F4E92FF0E0E95FFC4F0C94BB1C3503FC
:10061000390316032D0331031B031B031B033C0388
:10062000420346034A0350031B0354039091800086
:100630009F7790938000E22FF0E0EE0FFF1FE75BC3
:10064000FD4FA591B4919FB7F894EC91611132C020
:1006500080958E238C939FBF0895909180009F7DFD
:10066000E8CF90918000977FE4CF94B59F7794BDB9
:10067000E2CF94B59F7DFBCF909190009F779093B0
:100680009000D9CF909190009F7DF9CF90919000EC
:10069000977FF5CF9091C0009F779093C000CBCF0C
:1006A0009091C0009F7DF9CF9091C200977F909369
:1006B000C200C1CF8E2BCECF1092390510923805D3
:1006C000109282051092A4051092800581E080931B
:1006D0007F0510925A0561E082E00E94EB0261E022
:1006E00083E00E94EB02E9EBF0E080818E7F808363
:1006F00080818D7F808388E48093B80085E4809337
:10070000BC008FEB92E0909337058093360580EC28
:1007100092E090933505809334050895CF93DF934D
:1007200090E0FC01E65DFD4F2491895A9D4FFC014C
:1007300084918823D1F090E0880F991FFC01E8563E
:10074000FE4FA591B491FC01E75BFD4FC591D4919B
:1007500061110EC09FB7F8948C91E22FE0958E2323
:100760008C932881E223E8839FBFDF91CF91089586
:100770008FB7F894EC91E22BEC938FBFF6CF3FB795
:10078000F89480912E0590912F05A0913005B0919D
:10079000310526B5A89B05C02F3F19F00196A11D74
:1007A000B11D3FBFBA2FA92F982F8827BC01CD01BB
:1007B000620F711D811D911D42E0660F771F881F1A
:1007C000991F4A95D1F708950F931F93CF93DF9305
:1007D000CDB7DEB729970FB6F894DEBF0FBECDBFF9
:1007E00080915B0690915C06892B09F47CC00E9485
:1007F000BF0300916106109162062091630630915B
:100800006406601771078207930740F460936106DE
:10081000709362068093630690936406009161066C
:10082000109162062091630630916406601B710B83
:10083000820B930B6C32714081059105C0F2F894E4
:1008400080915606909157069A838983E0915B06C2
:10085000F0915C06DF0111968081898790915206A4
:10086000E0916506F091660680916706992309F488
:1008700045C09081982B98879081809589238F839C
:100880008F818C8388E08B8358856F8149853B817C
:100890002C8189819A81508347FD252F3A952083A9
:1008A000262F39F0441F00C000006083000000C004
:1008B000F2CF38E04D9160830000019761F7F0932B
:1008C0006606E093650649873B832C839A83898378
:1008D00078940E94BF0360936106709362068093D0
:1008E00063069093640629960FB6F894DEBF0FBE98
:1008F000CDBFDF91CF911F910F9108959081982BDB
:1009000098879081809589238F838F818E8388E05B
:100910008D8358856F8149853D812E8189819A819A
:10092000508347FD252F00C000C0208300C000C0B9
:1009300000C000C000C060830000262F3A9541F03F
:10094000441F000000C000C000C000C000C0E8CFCD
:1009500038E04D9100C0608300C0019709F7F09323
:100960006606E093650649873D832E83AFCF8F925D
:100970009F92AF92BF92CF92DF92EF92FF926B0164
:100980007C010E94BF034B015C01C114D104E1044E
:10099000F104B9F00E94BF03681979098A099B091B
:1009A000683E73408105910580F321E0C21AD108A9
:1009B000E108F10888EE880E83E0981EA11CB11CA6
:1009C000E4CFFF90EF90DF90CF90BF90AF909F90DB
:1009D0008F9008952FB7F89460912A0570912B0598
:1009E00080912C0590912D052FBF08950895409179
:1009F000FA045091FB042091F8043091F904421755
:100A00005307B4F49091E8009570E1F39091E800F9
:100A100092FD19C08093F1008091FA049091FB043B
:100A200001968F739927892B19F48EEF8093E80034
:100A30008091FA049091FB0401969093FB048093BB
:100A4000FA0481E0089580E00895DF92EF92FF922A
:100A50000F931F93CF93DF93D82E8A01EB017B0175
:100A6000E40EF51ECE15DF0559F0D7FE12C0FE01CB
:100A700084910E94F70421968111F4CF0FEF1FEFAC
:100A8000C801DF91CF911F910F91FF90EF90DF9000
:100A900008958881EECF2FB7F89487708093E9008E
:100AA0009091E800892F807295FF04C09091F20028
:100AB00080E4891B2FBF08957F928F929F92AF92FF
:100AC000BF92CF92DF92EF92FF920F931F93CF933B
:100AD000DF93C82E8B017A0180913305811110C0FC
:100AE0008FEF9FEFDF91CF911F910F91FF90EF90CC
:100AF000DF90CF90BF90AF909F908F907F900895A0
:100B00008091FE0480FF05C08091E00082608093A8
:100B1000E000CE2DDF2DD12C8AEFB82E8C2D8770E2
:100B2000982E8C2D8072882E8C2D8074782E9AE3CE
:100B3000A92E209719F4DD2009F452C08C2D0E94B3
:100B40004B0581110AC0BA94BB2051F261E070E0FC
:100B500080E090E00E94B704ECCF8C171D0611F0E6
:100B60000CF08C2F9FB7F8949092E9002091E80048
:100B700025FD02C09FBFDDCF282F30E0C21BD30B65
:100B8000882029F08150A0F01092F100FBCFF801ED
:100B9000C7FC0AC0815050F041914093F100FACF58
:100BA00044914093F10031968150D0F7020F131F0A
:100BB000DD2021F0A092E800D12CDCCF8091E8006C
:100BC00085FD07C0A092E800DD24D394209791F220
:100BD000F3CF209779F6772069F2A092E800CACF88
:100BE0005D9884E68093FD04C7017CCF615030F0AE
:100BF0002091F100FC0120830196F8CF289884E62B
:100C00008093320508958091F00481110DC082E037
:100C10008093EC0484E08093ED041092EF04109232
:100C2000EE0481E08093F0048CEE94E008950F933D
:100C30001F93CF93DF931F92CDB7DEB782E08983F6
:100C400042E450E06CE271E080E80E9425050E94D9
:100C50000306DC0112960D911C910115110589F016
:100C6000D801ED91FC910280F381E02DBE016F5F10
:100C70007F4FC801099597FD04C0F80100851185D3
:100C8000ECCF89810F90DF91CF911F910F91089543
:100C9000CF93DF93EC0180911401882331F083E03E
:100CA0000E945C051816190634F081E090E09B83E1
:100CB0008A8380E090E0DF91CF910895CF93DF9316
:100CC0001F92CDB7DEB76983DC01ED91FC91028004
:100CD000F381E02D41E050E0BE016F5F7F4F099549
:100CE0000F90DF91CF91089583E08093E900809188
:100CF000F200882319F08AE38093E800089583E0E6
:100D00000E944B0590E00895CF93DF931F92CDB7DB
:100D1000DEB7FC018485958597FD08C02FEF3FEF76
:100D2000358724870F90DF91CF910895CE010196EA
:100D30000E94C102019719F4898190E0F3CF8FEFEF
:100D40009FEFF0CF0F931F930E94EA046093AD05CD
:100D50007093AE058093AF059093B00585EA95E05A
:100D60000E94840697FF1DC00E94EA040091AD0511
:100D70001091AE052091AF053091B005601B710B4D
:100D8000820B930B0091A9051091AA052091AB0548
:100D90003091AC056017710782079307F8F28FEF67
:100DA0009FEF1F910F9108950F931F93CF93DF93A0
:100DB0001F92CDB7DEB78C01FC018485958597FF26
:100DC0000BC0CE0101960E94C102019771F4898186
:100DD00090E0F80195878487F801848595850F90C8
:100DE000DF91CF911F910F9108958FEF9FEFF1CF7A
:100DF000FC018485958597FD0BC09FB7F89482E030
:100E00008093E9008091F2009FBF90E001960895E1
:100E10009FB7F89482E08093E9008091F2009FBF31
:100E200090E008958EBD00000DB407FEFDCF8EB595
:100E30000895CF92DF92EF92FF920F931F93CF937B
:100E4000DF936C01EB017B01E40EF51E10E000E086
:100E5000CE15DF0581F069916D30D1F3D601ED91AA
:100E6000FC910190F081E02DC6010995892B19F0C4
:100E70000F5F1F4FEDCFC801DF91CF911F910F91F1
:100E8000FF90EF90DF90CF9008950895DC01FB0173
:100E900012962C911297848195812817190641F496
:100EA00091818081813A31F49D7F81E0913009F018
:100EB00080E008958132E1F79B3029F482811F960A
:100EC0008C9381E008959A3099F7828150968C93A3
:100ED000F8CFAF92BF92CF92DF92EF92FF920F9333
:100EE0001F93CF93DF931F92CDB7DEB77C01698349
:100EF0006A01590141E050E0BE016F5F7F4FFC0184
:100F000083810E945C058C0197FD0BC0F7018381F2
:100F1000A501B60180640E945C05080F191F97FDAA
:100F20008C01C8010F90DF91CF911F910F91FF901D
:100F3000EF90DF90CF90BF90AF900895DC01FB0160
:100F400088E4808389E4818384E482831D969C9174
:100F50001D979F709F5B93831D968D919C9124E0BC
:100F6000969587952A95E1F78F708F5B848385E04E
:100F70000895EF92FF920F931F93CF93DF93FB019E
:100F80002081213871F52381223259F5DC01129636
:100F90004C91248135814217130619F5EC010B851C
:100FA0001C85F12CE12C0115110589F0F801448113
:100FB00055816281738180E80E9425058F3F9807E3
:100FC00049F0E80EF91ED8010D911C91ECCF81E09B
:100FD0008F87C701DF91CF911F910F91FF90EF9005
:100FE000089590E080E0F6CFCF93DF93CDB7DEB7E2
:100FF00069970FB6F894DEBF0FBECDBFFC01DB01D1
:101000008C918F5F8C939E012D5F3F4F8DE0D901B6
:101010001D928A95E9F729E0298384E08A8391E08B
:101020009D8383E08E832A8721E22B879C879D877F
:101030009F8722E2288B27E02B8B25E02C8B8E8B41
:1010400020E430E0388F2F8B998F82818B839585B8
:101050008685998B8A8B838180688D8B49E150E0EE
:10106000BE016F5F7F4F80E00E94250569960FB635
:10107000F894DEBF0FBECDBFDF91CF910895CF931F
:10108000DF938091E404811167C081E08093D704ED
:101090008093D8042DED34E03093DA042093D90402
:1010A0001092DC041092DB0423E231E03093D4048C
:1010B0002093D3041092DF041092DE041092E10416
:1010C0001092E0048093E2048093E30481EC809327
:1010D000DD040E940306FC0181819091D704482F12
:1010E000490F5527551F483051059CF5A281B38102
:1010F000109709F523ED34E0338322832081209378
:10110000D5048093D6048091D804820F80832091E7
:10111000D904A22FB091DA048A2F821B8917C8F450
:1011200081813D91C82FD0E0CE5FDE4F38838F5F45
:101130008183F2CFD90118962D913C9119972115F1
:101140003105C1F723ED34E019963C932E9318979F
:10115000D5CF81E08093E40483ED94E0DF91CF91DB
:101160000895CF93DF93EC01683858F168588E8169
:101170008617D1F08F818617B9F088858617A1F080
:101180008985861789F08A85861771F08B85861781
:1011900059F0FE01369690E080E02191211137C090
:1011A0008C0F9D1FFC0166830E943F08AE014C5FBF
:1011B0005F4F28E030E062E00E94690781E090E044
:1011C0001CC0E62FF0E067FF0DC0E058F10921E0F8
:1011D00030E001C0220FEA95EAF78C81822B8C83E4
:1011E00060E0C5CFE455FF4F6491611109C081E013
:1011F00090E09B838A8390E080E0DF91CF91089517
:1012000067FFB5CF8C8182608C836F77B0CF0196FA
:101210008630910509F0C1CFEACFCF93DF93EC017F
:101220006838E0F06858FE0186E0662321F0968178
:10123000961301C01682815031968111F6CF0E941B
:101240003F08AE014C5F5F4F28E030E062E00E9453
:10125000690781E090E0DF91CF910895E62FF0E0FB
:1012600067FF0EC0E058F10981E090E001C0880FEF
:10127000EA95EAF780959C8189238C8360E0D3CF3F
:10128000E455FF4F649190E080E0662321F367FF0F
:10129000CACF8C818D7F8C836F77C5CFEF92FF9201
:1012A0001F93CF93DF93EC01162F0E94B1087C01AE
:1012B000612FCE010E940D09C7019927DF91CF91BF
:1012C0001F91FF90EF90089585ED8093BC00809171
:1012D000BC0084FDFCCF1092800508952091B004DD
:1012E000260F3327331F21323105ECF4209180057E
:1012F000FC0190E080E0243069F082E00895A09144
:10130000B0042191AC0140575B4FA40FB52FB11D24
:101310002C930196861798F38091B004680F609320
:10132000B00480E0089581E00895E091390580914E
:101330003805E81730F4F0E0E65CFA4F808190E081
:1013400008958FEF9FEF08959091390580913805AA
:101350002FEF3FEF981748F4E92FF0E0E65CFA4FE3
:10136000208130E09F5F90933905C9010895CF92A5
:10137000DF92EF92FF920F931F93CF93DF937C0145
:10138000CB018A0120918105222389F0EB016B01B9
:10139000C40ED51ECC15DD0569F06991D701ED911C
:1013A000FC910190F081E02DC7010995F3CF642FE6
:1013B0000E946E09C801DF91CF911F910F91FF909C
:1013C000EF90DF90CF900895CF93DF931F92CDB72A
:1013D000DEB76983209181052223F9F02091A405CD
:1013E000203258F021E030E0FC013383228390E08A
:1013F00080E00F90DF91CF91089580918205E82FD2
:10140000F0E0ED57FA4F998190838F5F80938205CA
:101410008093A40581E090E0ECCF61E0CE010196DD
:101420000E946E09F7CFCF93DF93D82FC62F8091FC
:1014300040068823C9F081E08093810583E580938D
:10144000A305109282051092A4056D2F8EE196E0FF
:101450000E94E4096C2F8EE196E00E94E40981E08D
:10146000DF91CF910C94190260E080913E060E94BA
:10147000EB028D2F0E9412078C2F0E94120761E051
:1014800080913E06DF91CF910C94EB0290E080E0DA
:101490000895CF92DF92EF92FF92CF93DF93C42E05
:1014A000D12CF12CE12CD62AE82AD0E0C0E0B701FB
:1014B000A601CE010E9467012196CC30D105B9F773
:1014C000DF91CF91FF90EF90DF90CF900C94E403E9
:1014D000E0E0F5E080E09191892795E0E731F907B8
:1014E000D1F70895FF920F931F93CF93DF93182F97
:1014F000EB01809140068823C1F181E08093810552
:1015000083E58093A305109282051092A405612FB4
:101510008EE196E00E94E40981E00E94190261E0F8
:1015200083E50E947602F82E1092390580933805E3
:101530008E01C8018C1B9D0B20913905F21641F0DC
:101540008EE196E00E94A409F80181938F01F1CF0A
:10155000019729F010922A0681E080932B06DF91F3
:10156000CF911F910F91FF90089560E080913E060A
:101570000E94EB02812F80680E94120780E00E9487
:101580001207888361E080913E06DF91CF911F9121
:101590000F91FF900C94EB02FF920F931F93CF9348
:1015A000DF931F92CDB7DEB7182FF62E042FBE01A2
:1015B0006F5F7F4F0E94720A21E030E001C0220F6E
:1015C000FA94EAF78981002369F0822B8983698183
:1015D000812F0E94130A0F90DF91CF911F910F91DD
:1015E000FF90089520958223F1CFCF9381E08093DF
:1015F000810586E38093A305109282051092A405CD
:101600006CE08EE196E00E94E40981E00E941902FC
:1016100062E086E30E9476021092390580933805D5
:101620008230F0F38EE196E00E94A409C82F8EE18B
:1016300096E00E94A40920E0822B9C2BCF91089574
:10164000FC01808191810C945D1DE2E5F6E044810E
:10165000558170E060E0818592850C94AC1ECF933B
:10166000DF93C82F0E94250B80918E0490918F04E8
:10167000CC2399F130910B0540910C0520910D057B
:101680000B966CE070E00E94661C90938F04809330
:101690008E04C0918E04D0918F0450E070E060E021
:1016A000762F652F542F4427632B422BCE010E94A7
:1016B000670180910001909101018F3F980729F007
:1016C00040E050E0BA010E946701D0930101C0934D
:1016D0000001DF91CF910C94E40330910805409113
:1016E000090520910A050196CCCF0E94250B809117
:1016F0001A0590911B05892B41F4409104056091D6
:101700000305809102050C94490A409107056091F8
:10171000060580910505F7CF8F929F92AF92BF92F9
:10172000CF92DF92EF92FF920E94EA042091180577
:10173000211171C0C0901C05D0901D05E0901E05C0
:10174000F0901F059B01AC012C193D094E095F0962
:1017500069017A012091140530E0A8EEB3E00E94FF
:101760009B1B6C157D058E059F0508F05DC0609183
:10177000130570E090E080E00E94521A20E030E013
:101780004FE753E40E94AA1B4B015C0160910E05D8
:1017900070E090E080E00E94521AA50194010E943E
:1017A0008D1A0E94231CC62ED12CF12CE12C76011F
:1017B000DD24CC2460910F0570E090E080E00E9471
:1017C000521AA50194010E948D1A0E94231CD62A48
:1017D0006091100570E090E080E00E94521AA5012F
:1017E00094010E948D1A0E94231C46015701862AEB
:1017F000F12CE12CB501A401C7010E9467013FEF64
:10180000E31AF30A4CE0E416F104A1F70E94E403A2
:1018100081E080931805FF90EF90DF90CF90BF900C
:10182000AF909F908F90089555E6C516D104E104BE
:10183000F10488F3FF90EF90DF90CF90BF90AF90CE
:101840009F908F900C94750BFC0101900020E9F79C
:101850003197AF01481B590BBC0185EA95E00C9408
:101860004806CF92DF92EF92FF920F931F93CF9390
:10187000DF93CDB7DEB7A1970FB6F894DEBF0FBEEA
:10188000CDBF282F30E050E040E019A28E010F5D5F
:101890001F4F8AE0C82ED12CE12CF12CCA01B901CE
:1018A000A70196010E947A1C605DF80162938F0186
:1018B000211531054105510589F790E080E0309709
:1018C00019F0CF010E94240CA1960FB6F894DEBF48
:1018D0000FBECDBFDF91CF911F910F91FF90EF9081
:1018E000DF90CF900895CF93DF930E94240CEC01FA
:1018F0008BE591E00E94240C8C0F9D1FDF91CF910E
:1019000008950C94240C0F931F93CF93DF93FC0145
:10191000048115810115110539F4FB011082DF9155
:10192000CF911F910F9108954150510940175107D0
:1019300008F48A01EB01FC0160817181A801CE01EC
:101940000E94D11EC00FD11F1882E9CFFC01248153
:101950003581232B39F421E0FB018081882349F074
:1019600020E007C0808191810E94B31E21E0892B75
:10197000B9F7822F0895FB0144815581FC01248130
:1019800035812417350778F080819181009759F0CF
:10199000FB01608171816115710529F00E94C31EF0
:1019A00021E0892B09F020E0822F08950F931F93E7
:1019B000CF93DF93EC0188819981009759F02A81B8
:1019C0003B812617370730F081E0DF91CF911F91DF
:1019D0000F9108958B016F5F7F4F0E94E61D009766
:1019E00059F0998388831B830A832C813D81232BA3
:1019F00059F7FC011082E8CF80E0E7CFEF92FF9229
:101A00000F931F93CF93DF93EC017B018A01BA01FF
:101A10000E94D60C28813981811114C0211531050D
:101A200019F0C9010E945D1D198218821D821C8255
:101A30001B821A82CE01DF91CF911F910F91FF90EF
:101A4000EF9008951D830C83B701C9010E94BC1E4D
:101A5000F1CFFB01DC0111961C921E9213961C9291
:101A60001E92129715961C921E921497861797072E
:101A700049F0608171816115710521F044815581C2
:101A80000C94FE0C0895FC011182108213821282C4
:101A900015821482FB0101900020E9F73197AF0114
:101AA000461B570B0C94FE0CFF920F931F93CF9382
:101AB000DF930E94680A8093170500E015E0D0E0EC
:101AC000C0E0F801F1908F01CE010E944E1BF81684
:101AD00021F06F2DCE010E94561B2196C831D105F1
:101AE00081F7DF91CF911F910F91FF900895CF93D0
:101AF000DF93C0E0D5E01A821B828FEF8C838D8349
:101B00001E821F82188689871A868B8785EA8C87B2
:101B10001D8680E88E871F86888B85E0898B88EC00
:101B20008A8B8AE08B8B82E08C8B0E94540D8A8991
:101B30000E94D8010E94750B8EE591E0DF91CF9154
:101B40000C94730C1F920F920FB60F9211242F93C7
:101B50003F938F939F93AF93BF9380912A0590916A
:101B60002B05A0912C05B0912D053091290523E07E
:101B7000230F2D3758F50196A11DB11D209329057E
:101B800080932A0590932B05A0932C05B0932D05E7
:101B900080912E0590912F05A0913005B0913105CF
:101BA0000196A11DB11D80932E0590932F05A09342
:101BB0003005B0933105BF91AF919F918F913F91C7
:101BC0002F910F900FBE0F901F90189526E8230FAE
:101BD0000296A11DB11DD2CF1F920F920FB60F9288
:101BE00011248F939F938091E1009091E100937F66
:101BF0009093E10083FF0FC01092E90091E0909371
:101C0000EB001092EC0092E39093ED0010923305FC
:101C100098E09093F00082FF22C093E09093E90057
:101C20009091F200992319F09AE39093E800909133
:101C3000FD04992341F09091FD0491509093FD048F
:101C4000911101C05D9A90913205992341F09091D4
:101C50003205915090933205911101C0289A84FF6A
:101C600018C08091E2008E7E81608093E2008091B6
:101C7000E1008F7E8093E1008091FE048E7E806182
:101C80008093FE049F918F910F900FBE0F901F9035
:101C9000189580FFF7CF8091E2008E7E806180935F
:101CA000E2008091E1008E7E8093E1008091FE044D
:101CB0008E7E8160E5CF1F920F920FB60F92112496
:101CC000CF92DF92EF92FF920F931F932F933F9348
:101CD0004F935F936F937F938F939F93AF93BF9334
:101CE000EF93FF93CF93DF93CDB7DEB76C97DEBF53
:101CF000CDBF1092E9008091E80083FF25C068E025
:101D0000CE0145960E94F60582EF8093E8008D890A
:101D100087FF39C09091E80090FFFCCF982F907614
:101D200009F034C19E894F89588D2F89F88C911103
:101D300031C0803861F58091FF048093F1001092EA
:101D4000F1008EEF8093E8006C960FB6F894DEBF3A
:101D50000FBECDBFDF91CF91FF91EF91BF91AF91BA
:101D60009F918F917F916F915F914F913F912F91B3
:101D70001F910F91FF90EF90DF90CF900F900FBECB
:101D80000F901F9018959EEF9093E800C7CF109288
:101D9000F100D5CF913059F48111D3CF41305105A5
:101DA00081F68091FF048D7F8093FF04CACF93302A
:101DB00049F48111C6CF4130510519F68091FF04D5
:101DC0008260F2CF953041F48091E80080FFFCCF33
:101DD00020682093E300B5CF963009F0A9C00B8DA1
:101DE0001C8D22E01092E9001092FB041092FA047C
:101DF000F2122EC01092F9041092F8040E941706F5
:101E00001F8299E09983FA8291E09E8390EA9887F5
:101E10009AEF99872091FA043091FB04275F3F4F96
:101E20003C832B838D831092E9001092FB04109267
:101E3000FA041093F9040093F80449E050E0BE015D
:101E40006F5F7F4F80E00E9425050E94170679CFC3
:101E50001093F9040093F8040E940306DC01129623
:101E60000D911C910115110509F451C1D801ED9195
:101E7000FC910480F581E02DBE016B5E7F4FC801AF
:101E80000995009709F03EC1F80100851185EACF58
:101E9000F3E0FF120EC08F89882309F440C082301E
:101EA00061F440E869E08EE891E00E94AC11811194
:101EB00048CF81E28093EB0047CF813029F440E89E
:101EC00069E084E891E0F1CF833099F70E9403063E
:101ED000DC011296ED90FC908E010F5F1F4F6801A0
:101EE000E114F10479F0D701ED91FC910680F781BE
:101EF000E02DB801C7010995080F111DF701E08415
:101F0000F184EECFD8011C92F60101900020E9F790
:101F10003197BF016C197D0940E0C601C6CF6EE65E
:101F200071E0FB01449150E080E80E94250509CF53
:101F3000973009F4BECF983021F481E08093F1000E
:101F400000CF993009F0FDCE837009F0B2CFE3E005
:101F5000F1E081E031E096E32191222371F080935A
:101F6000E9003093EB00DF0111972C912093EC00F6
:101F70009093ED008F5F873079F78EE78093EA00CA
:101F80001092EA008F8980933305DBCE8B8D9C8D78
:101F90001092E9001092FB041092FA049093F90455
:101FA0008093F804898D811192C08E899D89913A20
:101FB00049F4813209F07DCF47E050E06DE071E0F7
:101FC00080E0B3CF913209F074CF833269F48F8906
:101FD000988DB0E0A0E08093090190930A01A0934E
:101FE0000B01B0930C01ADCE803269F48091E80012
:101FF00082FFFCCF67E08DE091E00E94F6058BEF59
:102000008093E8009ECE823209F09BCE8F89809328
:102010001401EEEFFFE7859194918B3F9C4D51F1B8
:10202000E0E0F8E080910D0190910E01A0910F0188
:10203000B0911001803B9440A105B105F1F480916D
:10204000140180FD1AC0EE3F8AE0F80789F587E7A2
:1020500097E791838083809160008093FC0488E1FE
:102060009BE00FB6F894A895809360000FBE909304
:10207000600067CEEEEFFAE0D5CF8081918187379F
:10208000974709F05ECEA8958091600088618093A3
:1020900060008091FC0480936000EE3F2AE0F2072C
:1020A00089F08091FE0A9091FF0A9183808349CE46
:1020B000808191818737980751F29093FF0A80932E
:1020C000FE0AC5CF1092FF0A1092FE0A3ACE0E9475
:1020D0000306DC0112960D911C910115110509F4FE
:1020E000E8CED801ED91FC910190F081E02DBE0188
:1020F0006B5E7F4FC8010995811123CEF8010085E1
:102100001185EBCF181619060CF41BCED2CEF1E0D8
:10211000FF12BECE62E771E004CF1F920F920FB69E
:102120000F9211242F933F934F935F936F937F935D
:102130008F939F93AF93BF93EF93FF938091B900D9
:10214000887F803609F44AC0F0F5883209F4A7C0C8
:1021500018F5803109F49BC0B8F4882309F4F9C05C
:10216000883009F494C0FF91EF91BF91AF919F9196
:102170008F917F916F915F914F913F912F910F9030
:102180000FBE0F901F901895883109F488C08032D7
:1021900051F780937E0514C0803409F49DC040F44B
:1021A0008033B9F38833F9F680937E0585ECB0C0AF
:1021B000803509F485C0883509F496C0883499F6CD
:1021C0000E946409D0CF883909F48CC038F588376B
:1021D00029F050F4883611F0803729F683E0809397
:1021E00080051092D20457C0883809F47BC080392A
:1021F00019F0803809F0B7CF8091D204803208F00E
:1022000071C0E091D20481E08E0F8093D20480915E
:10221000BB00F0E0EE54FB4F80833DC0803B39F0C3
:10222000E0F4803A09F479C0883A09F09CCF84E060
:10223000809380051092B1041092B004E0913605AD
:10224000F091370509958091B00481110FC081E0AC
:102250008093B0041092900409C0803C09F4A6CF8A
:10226000883C09F4A3CF883B09F07DCFE091B1040D
:1022700081E08E0F8093B104F0E0E057FB4F808146
:102280008093BB009091B1048091B00429C08091EB
:102290005B058093BB0085EC8093BC0064CF90917C
:1022A0007D0580917C05981758F5E0917D0581E0CA
:1022B0008E0F80937D05F0E0E45AFA4F8081E9CFDC
:1022C000E0917D0581E08E0F80937D058091BB00BC
:1022D000F0E0E45AFA4F808390917D0580917C056F
:1022E0009817C8F285E8D8CFE0917D0581E08E0F80
:1022F00080937D058091BB00F0E0E45AFA4F808323
:1023000080917F0581115CCF81E080935A0584EA3A
:102310008093BC001092800526CF85EC8093BC0092
:10232000109280058091D204803230F4E091D20482
:10233000F0E0EE54FB4F10826091D20470E0E09127
:102340003405F091350582EB94E009951092D204A2
:102350000ACF10927E0534CFEF92FF920F931F9316
:10236000CF93DF93F82E192FE62E042F81E0860FEE
:10237000880F0E94F70483E00E94F704CF2DD12F2D
:10238000EC0EFD2EF11CCE15DF05B9F007FF13C0D2
:10239000FE0184910E94F704182F80E00E94F70448
:1023A000812321968111EFCFDF91CF911F910F9162
:1023B000FF90EF9008958881EDCF81E0F5CF1092E6
:1023C000A8051092A70588EE93E0A0E0B0E0809306
:1023D000A9059093AA05A093AB05B093AC058FE235
:1023E00091E09093A6058093A5058FEF9FEF9093C2
:1023F000B2058093B105109206061092050681E49D
:1024000091E090930406809303068091FB0581116F
:1024100013C01092F6051092F50585EC91E09093AB
:10242000F8058093F7058FE290E09093FA0580938A
:10243000F90581E08093FB050E943F08FC01A3851C
:10244000B485109709F001C185EF95E094878387E3
:10245000858596852091F9053091FA05820F931FA5
:102460009687858710921D0680911506811113C0ED
:102470001092100610920F0684EF91E090931206CE
:102480008093110686E390E09093140680931306E0
:1024900081E0809315060E943F08FC01A385B48566
:1024A000109709F0DDC08FE096E0948783878585DB
:1024B00096852091130630911406820F931F9687FC
:1024C0008587109221061092200688EE93E0A0E006
:1024D000B0E08093220690932306A0932406B09345
:1024E00025068DE491E090931F0680931E061092BE
:1024F000530610925A0610926106109262061092CC
:1025000063061092640681E08093600680935D0606
:1025100010925E0692E090935F068093520684E2EA
:1025200090E090935706809356060E94C11C9093AA
:102530005C0680935B06009709F49CC024E2FC01D2
:1025400011922A95E9F78CE090E0909355068093DC
:10255000540687E190E09093590680935806809145
:102560005306882341F061E087E10E948E0360E01A
:1025700087E10E94EB02EEE6F2E0E491F0E0EE0F7C
:10258000FF1FE75BFD4F85919491909366068093C2
:102590006506E1E4F2E0E491E093670684E190E00F
:1025A000909346068093450610924706109249067E
:1025B0001092480610924A0610924B0610924C0652
:1025C00010924D0610924F0610924E068AE090E04F
:1025D00090933F0680933E0681E08093400640E45E
:1025E0005BE46CE470E040934106509342066093D4
:1025F00043067093440680932A0610922B0683ECC0
:102600009BEAA6E7BBE380932C0690932D06A0934C
:102610002E06B0932F0688ED9BE6A6E7BBE38093DA
:10262000300690933106A0933206B093330682EFC2
:1026300094EEA4E6BBE38093340690933506A09312
:102640003606B09337060895DC018D919C91119761
:102650000097D1F785EF95E08D939C93F9CEDC013F
:102660008D919C9111970097D1F78FE096E08D9313
:102670009C931DCF10925706109256061092550645
:102680001092540666CFCF93DF93CDB7DEB7CC540C
:10269000D1090FB6F894DEBF0FBECDBF789484B5D4
:1026A000826084BD84B5816084BD85B5826085BD4E
:1026B00085B5816085BD80916E00816080936E00DC
:1026C00010928100809181008260809381008091CE
:1026D000810081608093810080918000816080937F
:1026E00080008091910082608093910080919100A0
:1026F0008160809391008091900081608093900030
:102700008091C10084608093C1008091C10082608B
:102710008093C1008091C10081608093C10080914D
:10272000C30081608093C3008091C0008260809369
:10273000C0008091C20081608093C20080917A00C5
:10274000846080937A0080917A00826080937A001E
:1027500080917A00816080937A0080917A0080680D
:1027600080937A00109233051092FF041092FE04B9
:102770008091D70081608093D70080EA8093D80051
:1027800089B5806189BD89B5826089BD09B400FEC3
:10279000FDCF61E070E080E090E00E94B70480919E
:1027A000D8008F7C80618093D8008091E000807F8A
:1027B0008093E0008091E1008E7E8093E1008DE0C7
:1027C0008093E200559A209A8FEF9FEF9093B20585
:1027D0008093B105809158069091590697FD08C0E5
:1027E00061E00E948E0360E0809158060E94EB0237
:1027F00081E0809353060E94250B05E010E03CE049
:10280000C32ED12CF12CE12C0E94250B40E050E08E
:102810006FEF70E0C7010E9467012FEFE21AF20A22
:1028200040E050E06FEF70E0C7010E94670140E0B8
:102830005FEF60E070E0C70105960E946701C70185
:102840000696B6010E94661C40E05FEF60E070E013
:102850000E9467010E94E40364E670E080E090E07B
:102860000E94B70446E0E416F10471F60150110924
:1028700049F60E94250B0E94E40380914506909141
:1028800046068115E0E49E0708F0F1C0880F991F05
:102890000E94C11C90935106809350060E945C03D5
:1028A00090E0E92E95E0F92EC8010E944E1BF70139
:1028B00081937F010F5F1F4F08311105A9F78091A8
:1028C00000058D3429F480910105823009F4D2C0CD
:1028D0008DE48093000582E0809301050E94770DCE
:1028E0000E94680A809317050E94540D809112057A
:1028F0000E94D801809112050E94D80181E090E0E9
:1029000020911605213011F090E080E090931B0596
:1029100080931A050E94F50ABC0190E080E00E94B5
:10292000501A20E030E044EB5DE30E948D1A0E94D3
:102930001C1C6093150170931601809317019093EE
:1029400018018091400681110E945C0360E08DE2D5
:102950000E94130A60E18DE20E94130A68E08DE292
:102960000E94130ABE016F5F7F4F81E30E94720ACB
:1029700069816C7E636081E30E94130A40E062E03B
:1029800070E08AE20E94CC0A40E061E070E08AE2F6
:102990000E94CC0A41E070E060E08AE20E94CC0A2A
:1029A0006EE18DE10E94130A64E181E20E94130A44
:1029B00060E582E20E94130A6AEF83E20E94130A32
:1029C00040E065E070E08FE20E94CC0A41E065E003
:1029D00070E08EE20E94CC0A88E991E00E94730CBC
:1029E0000E94750B80E0282E80E0382E9924939465
:1029F00088248A940E94EA042B013C0185EA95E030
:102A00000E94F806892B09F45BC16DE571E0CE01E7
:102A1000895B9F4F0E94430D0E94A20697FD36C01E
:102A20008A30910599F189831A822D960EAD1FADDA
:102A30002D970F5F1F4FB801CE01895B9F4F0E94FA
:102A4000D60C882349F329962EAD3FAD29972D96B4
:102A50008EAD9FAD2D97BE016F5F7F4F820F931F8D
:102A60000E94BC1E2D961FAF0EAF2D97D5CF8FEFB6
:102A70009FEF0ECF10911705109217050E94680A5C
:102A8000181709F433CF0E94770D30CF2996CEACBA
:102A9000DFAC2997C114D10441F02D960EAD1FADC6
:102AA0002D9776010115110581F460EE71E0CE01DC
:102AB000895B9F4F0E94A60C882309F442C089EECF
:102AC00091E00E94730CF7C075015701FFEFAF1A38
:102AD000BF0AF7018081082E000C990B0E94471A4B
:102AE000892B91F7015011090C0D1D1DF8018081F2
:102AF000082E000C990B0E94471A892B31F00E15F5
:102B00001F0518F001501109F1CF0F5F1F4FA801E9
:102B10004E195F092D965FAF4EAF2D97CE14DF048F
:102B200020F4B701C6010E94A31E2996EEADFFADA9
:102B300029972D968EAD9FAD2D97E80FF91F108226
:102B4000B4CF6DEF71E0CE0101960E94430DBE013E
:102B50006F5F7F4FCE01895B9F4F0E94BB0C182F88
:102B6000CE0101960E94200B112309F458C1BE0129
:102B7000695B7F4FCE018F5B9F4F0E94290D40E420
:102B800050E0BE016F5F7F4FCE018F5B9F4F0E9471
:102B9000830C6BE874E0CE0101960E94131A6BE877
:102BA00074E090E080E00E94131A8C016BE874E0FE
:102BB00090E080E00E94131A5C016BE874E090E002
:102BC00080E00E94131A6C016BE874E090E080E0F2
:102BD0000E94131A7C010115110509F41DC1A114ED
:102BE000B10409F419C1C114D10409F415C1892B28
:102BF00009F412C1C5010E94F519B82EC6010E9440
:102C0000F519D82EC7010E94F519F82E6DE771E06D
:102C1000C8010E94B31E892B69F4B0920205D092BC
:102C20000305F09204050E94540D0E94750B8AE280
:102C300092E03AC066E871E0C8010E94B31E892B99
:102C400039F4B0920505D0920605F0920705EBCF56
:102C500068E072E0C8010E94B31E892B39F4B0927B
:102C60000805D0920905F0920A05DDCF67E072E011
:102C7000C8010E94B31E892B39F4B0920B05D09283
:102C80000C05F0920D05CFCF6BE072E0C8010E94F9
:102C9000B31E892B39F4B0920E05D0920F05F09235
:102CA0001005C1CF80E192E00E94730CCE018F5BD2
:102CB0009F4F0E94200BCE01895B9F4F0E94200BEB
:102CC000BE016F5F7F4F80E30E94720A898185FF9A
:102CD00074C0C0902505D0902605E0902705F0909F
:102CE0002805D301C2018C199D09AE09BF09853F92
:102CF0009140A105B10508F460C085E694E00E940A
:102D0000730C90922405D301C20188589F4FAF4F96
:102D1000BF4F8093200590932105A0932205B09387
:102D200023050E94EA048B019C010C191D092E0940
:102D30003F09053F114021053105B8F111E020910F
:102D40001A0530911B05232B09F010E0212F30E0EC
:102D500030931B0520931A05909219056093250561
:102D600070932605809327059093280560931C0592
:102D700070931D0580931E0590931F0510921805F2
:102D80000E94750B109316050E94540D8AE794E07B
:102D90000E94810C80911A0590911B05892B09F0E6
:102DA0005EC28DE791E00E94730C4092250550921F
:102DB000260560922705709228050E94F50ABC013D
:102DC00090E080E00E94501A20E030E044EB5DE3A8
:102DD0000E948D1A0E941C1C6B017C0180912405AD
:102DE000882309F441C28091200590912105A0918A
:102DF0002205B0912305481659066A067B0608F09D
:102E000031C2C0921501D0921601E0921701F092E2
:102E100018010E948C0B69C28CE392E045CF6CE5EF
:102E200072E0CE0101960E94430DBE016F5F7F4F9D
:102E3000CE01895B9F4F0E94BB0C182FCE010196DB
:102E40000E94200B112399F1BE01695B7F4FCE01D7
:102E50008F5B9F4F0E94290D40E250E0BE016F5FE3
:102E60007F4FCE018F5B9F4F0E94830C6BE874E015
:102E7000CE0101960E94131A6BE874E090E080E0A6
:102E80000E94131A009709F411CF0E94F5199C01B2
:102E9000215031092A30310538F4809311050E9400
:102EA000540D8CE692E000CF84E892E0FDCE64EA17
:102EB00072E0CE01895B9F4F0E94A60C882339F0F7
:102EC0000E94250B0E94E4038FEA92E0FACD60ECA9
:102ED00072E0CE0101960E94430DBE016F5F7F4FED
:102EE000CE01895B9F4F0E94BB0C182FCE0101962B
:102EF0000E94200B1123A9F1BE01695B7F4FCE0117
:102F00008F5B9F4F0E94290D40E250E0BE016F5F32
:102F10007F4FCE018F5B9F4F0E94830C6BE874E064
:102F2000CE0101960E94131A6BE874E090E080E0F5
:102F30000E94131A009709F4B9CE0E94F5198F3F29
:102F4000910509F058F4809312050E94D8010E945F
:102F5000540D0E94750B8FEC92E0A6CE86EE92E0A7
:102F6000A3CE66E073E0CE0101960E94430DBE0140
:102F70006F5F7F4FCE01895B9F4F0E94BB0C182F64
:102F8000CE0101960E94200B112389F1BE01695BDD
:102F90007F4FCE018F5B9F4F0E94290D40E250E092
:102FA000BE016F5F7F4FCE018F5B9F4F0E94830CEE
:102FB0006BE874E0CE0101960E94131A6BE874E08E
:102FC00090E080E00E94131A009709F46FCE0E94EF
:102FD000F5198F3F910509F038F4809313050E948D
:102FE000540D88E193E060CE83E393E05DCE67E526
:102FF00073E0CE0101960E94430DBE016F5F7F4FCB
:10300000CE01895B9F4F0E94BB0C182FCE01019609
:103010000E94200B112399F1BE01695B7F4FCE0105
:103020008F5B9F4F0E94290D40E250E0BE016F5F11
:103030007F4FCE018F5B9F4F0E94830C6BE874E043
:10304000CE0101960E94131A6BE874E090E080E0D4
:103050000E94131A009709F429CE0E94F5199C01C9
:10306000215031092C33310538F4809314050E9426
:10307000540D84E693E018CE8AE793E015CE60EA1B
:1030800073E0CE01895B9F4F0E94A60C882309F450
:103090009DC08DEA93E00E94810C809102050E9400
:1030A000310C8CEB93E00E94810C809103050E940F
:1030B000310C8CEB93E00E94810C809104050E94FE
:1030C000310C8EEB93E00E94810C809105050E94EB
:1030D000310C8CEB93E00E94810C809106050E94DC
:1030E000310C8CEB93E00E94810C809107050E94CB
:1030F000310C85EC93E00E94810C809108050E94C0
:10310000310C8CEB93E00E94810C809109050E94A8
:10311000310C8CEB93E00E94810C80910A050E9497
:10312000310C8DEC93E00E94810C80910B050E9484
:10313000310C8CEB93E00E94810C80910C050E9475
:10314000310C8CEB93E00E94810C80910D050E9464
:10315000310C86ED93E00E94810C80910E050E9457
:10316000310C8CEB93E00E94810C80910F050E9442
:10317000310C8CEB93E00E94810C809110050E9431
:10318000310C80EE93E00E94810C809111050E9429
:10319000310C87EE93E00E94810C809112050E9411
:1031A000310C80EF93E00E94810C809113050E9406
:1031B000310C8CEF93E00E94810C809114050E94E9
:1031C000310C8BE591E00E94240C75CD67E074E032
:1031D000CE01895B9F4F0E94A60C882329F182E1D2
:1031E00094E00E94810C80911A0590911B05892B17
:1031F000A9F48DE791E00E94810C8FE194E00E9498
:10320000810C80911805882361F081E991E00E948A
:10321000810C88E294E00E94810CD3CF86E891E093
:10322000EACF85E991E0F3CF65E374E0CE01895BF5
:103230009F4F0E94A60C882319F00E94770D3BCD6A
:1032400064E474E0CE01895B9F4F0E94A60C882342
:1032500019F089E494E035CC8EE494E032CC86E831
:1032600091E0A1CD109224054090150150901601D7
:103270006090170170901801D701C6018419950953
:10328000A609B709B7FF07C0B095A095909581959D
:103290009F4FAF4FBF4F0497A105B1050CF4B9CDB7
:1032A0000E94EA0460931C0570931D0580931E051F
:1032B00090931F050E94EA04209124052223F1F037
:1032C00000912005109121052091220530912305C0
:1032D000601771078207930778F4C0921501D092A6
:1032E0001601E0921701F09218012114310409F43B
:1032F00081CB0E9400007CCB1092240580911A059E
:1033000090911B054C145D046E047F04CCF5892B51
:1033100031F580911D0689831A821B828C820E945E
:103320003F0824E030E0AE014F5F5F4F61E00E9454
:10333000690780E00E942F0BC0921501D092160100
:10334000E0921701F092180180911905882321F06D
:103350000E94750B1092190510921805C6CF67EDE3
:1033600083E096E00E94B10865E070E080E090E0C4
:103370000E94B70467ED83E096E00E940D09D9CF63
:10338000892B91F480911D0689831A821B829C826D
:103390000E943F0824E030E0AE014F5F5F4F61E0E4
:1033A0000E94690781E0C6CF68ED83E096E00E9445
:1033B000B10865E070E080E090E00E94B70468ED3D
:1033C00083E096E00E940D09EDCF80915B0690911D
:1033D0005C060E945D1D809158069091590697FDEC
:1033E00003C060E00C948E030895FC0188279927A0
:1033F000E89421912032E9F3293010F02E30C8F3FF
:103400002B3241F02D3239F4689404C00E943F1AE7
:10341000820F911D219120532A30C0F31EF4909504
:1034200081959F4F089548E656E00E94181A089526
:10343000FA01A191B081009719F41097E1F0CD0144
:10344000DC01CD010D90002011F4C00113C0FB017F
:103450002191222319F02015D9F7F3CFFB012191F7
:10346000201519F41E92119606C02223C1F70D9063
:103470000020A1F7D001FA01A193B08308957AE06A
:10348000979F902D879F802D910D11240895911164
:103490000C94FA1A803219F089508550C8F70895B3
:1034A000E89409C097FB3EF49095809570956195DE
:1034B0007F4F8F4F9F4F9923A9F0F92F96E9BB2794
:1034C0009395F695879577956795B795F111F8CF10
:1034D000FAF4BB0F11F460FF1BC06F5F7F4F8F4F7B
:1034E0009F4F16C0882311F096E911C0772321F071
:1034F0009EE8872F762F05C0662371F096E8862F09
:1035000070E060E02AF09A95660F771F881FDAF75F
:10351000880F9695879597F908950E94A01A0C94A4
:10352000141B0E94061B38F00E940D1B20F09523EF
:1035300011F00C94FD1A0C94031B11240C94481BDD
:103540000E94251B70F3959FC1F3950F50E0551F06
:10355000629FF001729FBB27F00DB11D639FAA27E8
:10356000F00DB11DAA1F649F6627B00DA11D661F37
:10357000829F2227B00DA11D621F739FB00DA11D58
:10358000621F839FA00D611D221F749F3327A00D12
:10359000611D231F849F600D211D822F762F6A2FAE
:1035A00011249F5750409AF0F1F088234AF0EE0F13
:1035B000FF1FBB1F661F771F881F91505040A9F740
:1035C0009E3F510580F00C94FD1A0C94481B5F3F00
:1035D000E4F3983ED4F3869577956795B795F7957C
:1035E000E7959F5FC1F7FE2B880F911D96958795F4
:1035F00097F9089599278827089597F99F6780E894
:1036000070E060E008959FEF80EC089500240A9434
:103610001616170618060906089500240A941216AD
:103620001306140605060895092E0394000C11F4E0
:10363000882352F0BB0F40F4BF2B11F460FF04C08D
:103640006F5F7F4F8F4F9F4F089557FD9058440FE6
:10365000551F59F05F3F71F04795880F97FB991FF1
:1036600061F09F3F79F087950895121613061406AE
:10367000551FF2CF4695F1DF08C01616170618063B
:10368000991FF1CF86957105610508940895E89416
:10369000BB2766277727CB0197F90895F999FECFC5
:1036A00092BD81BDF89A992780B50895262FF99982
:1036B000FECF1FBA92BD81BD20BD0FB6F894FA9A15
:1036C000F99A0FBE019608952F923F924F925F9202
:1036D0006F927F928F929F92AF92BF92CF92DF9222
:1036E000EF92FF920F931F93CF93DF93CDB7DEB787
:1036F000CA1BDB0B0FB6F894DEBF0FBECDBF09941B
:103700002A88398848885F846E847D848C849B8471
:10371000AA84B984C884DF80EE80FD800C811B817F
:10372000AA81B981CE0FD11D0FB6F894DEBF0FBEAE
:10373000CDBFED010895A29FB001B39FC001A39F2B
:10374000700D811D1124911DB29F700D811D1124DA
:10375000911D08950E94BE1B0C94141B0E940D1B0A
:1037600058F00E94061B40F029F45F3F29F00C94AA
:10377000FD1A51110C94481B0C94031B0E94251B2D
:1037800068F39923B1F3552391F3951B550BBB2790
:10379000AA2762177307840738F09F5F5F4F220FD5
:1037A000331F441FAA1FA9F335D00E2E3AF0E0E8CC
:1037B00032D091505040E695001CCAF72BD0FE2F16
:1037C00029D0660F771F881FBB1F261737074807AA
:1037D000AB07B0E809F0BB0B802DBF01FF27935862
:1037E0005F4F3AF09E3F510578F00C94FD1A0C940F
:1037F000481B5F3FE4F3983ED4F386957795679531
:10380000B795F7959F5FC9F7880F911D9695879596
:1038100097F90895E1E0660F771F881FBB1F6217B5
:1038200073078407BA0720F0621B730B840BBA0B73
:10383000EE1F88F7E09508950E94231C6894B1114B
:103840000C94481B08950E942D1B88F09F5798F0F8
:10385000B92F9927B751B0F0E1F0660F771F881F95
:10386000991F1AF0BA95C9F714C0B13091F00E94AF
:10387000471BB1E008950C94471B672F782F8827CA
:10388000B85F39F0B93FCCF3869577956795B395D6
:10389000D9F73EF490958095709561957F4F8F4F45
:1038A0009F4F0895AA1BBB1B51E107C0AA1FBB1F56
:1038B000A617B70710F0A61BB70B881F991F5A95BC
:1038C000A9F780959095BC01CD01089597FB072E2F
:1038D00016F4009407D077FD09D00E94521C07FC13
:1038E00005D03EF4909581959F4F08957095619510
:1038F0007F4F0895A1E21A2EAA1BBB1BFD010DC02C
:10390000AA1FBB1FEE1FFF1FA217B307E407F5078F
:1039100020F0A21BB30BE40BF50B661F771F881F6B
:10392000991F1A9469F760957095809590959B0101
:10393000AC01BD01CF010895052E97FB1EF4009444
:103940000E94B31C57FD07D00E947A1C07FC03D0CD
:103950004EF40C94B31C50954095309521953F4FF3
:103960004F4F5F4F089590958095709561957F4F6B
:103970008F4F9F4F0895EE0FFF1F0590F491E02D9C
:1039800009940F931F93CF93DF938230910510F426
:1039900082E090E0E0916C06F0916D0630E020E06E
:1039A000B0E0A0E0309799F42115310509F44AC040
:1039B000281B390B24303105D8F58A819B8161158C
:1039C000710589F1FB0193838283FE0111C040815F
:1039D00051810281138148175907E0F048175907B0
:1039E00099F4109761F012960C93129713961C930A
:1039F0003296CF01DF91CF911F910F9108950093DF
:103A00006C0610936D06F4CF2115310551F0421765
:103A1000530738F0A901DB019A01BD01DF01F8016C
:103A2000C1CFEF01F9CF90936D0680936C06CDCF97
:103A3000FE01E20FF31F81939193225031093983E4
:103A40002883D7CF20916A0630916B06232B41F44F
:103A500020911B0130911C0130936B0620936A0664
:103A60002091190130911A012115310541F42DB72A
:103A70003EB740911D0150911E01241B350BE09172
:103A80006A06F0916B06E217F307A0F42E1B3F0BBA
:103A90002817390778F0AC014E5F5F4F24173507C0
:103AA00048F04E0F5F1F50936B0640936A06819358
:103AB00091939FCFF0E0E0E09CCFCF93DF9300970E
:103AC000E9F0FC01329713821282A0916C06B0914A
:103AD0006D06ED0130E020E01097A1F420813181E6
:103AE000820F931F20916A0630916B0628173907C1
:103AF00009F061C0F0936B06E0936A06DF91CF9105
:103B00000895EA01CE17DF07E8F54A815B819E013F
:103B100041155105B1F7E901FB83EA8349915991B8
:103B2000C40FD51FEC17FD0761F4808191810296C7
:103B3000840F951FE90199838883828193819B83F8
:103B40008A83F0E0E0E012968D919C9113970097A4
:103B5000B9F52D913C911197CD010296820F931FDB
:103B600020916A0630916B062817390739F630978D
:103B700051F510926D0610926C06B0936B06A093EF
:103B80006A06BCCFD383C28340815181840F951FC5
:103B9000C817D90761F44E5F5F4F88819981480F3C
:103BA000591F518340838A819B819383828321158E
:103BB000310509F0B0CFF0936D06E0936C069ECF0F
:103BC000FD01DC01C0CF13821282D7CFB0E0A0E0AC
:103BD000ECEEFDE10C94661B8C01009751F4CB01D7
:103BE0000E94C11C8C01C801CDB7DEB7E0E10C9486
:103BF000821BFC01E60FF71F9C0122503109E217DE
:103C0000F30708F49DC0D901CD91DC911197C61737
:103C1000D70798F0C530D10530F3CE010497861749
:103C2000970708F3C61BD70B2297C193D1936D93C7
:103C30007C93CF010E945D1DD6CF5B01AC1ABD0AFB
:103C40004C018C0E9D1EA0916C06B0916D06512CFE
:103C5000412CF12CE12C109731F580916A0690915E
:103C60006B068815990509F05CC04616570608F0E2
:103C700058C08091190190911A01009741F48DB7B5
:103C80009EB740911D0150911E01841B950BE817B2
:103C9000F90708F055C0F0936B06E0936A06F90146
:103CA00071836083A0CF8D919C91119712966C9037
:103CB000129713967C901397A815B90559F56C01C6
:103CC00042E0C40ED11CCA14DB0420F1AC014A1935
:103CD0005B09DA011296159780F062827382518334
:103CE0004083D9016D937C93E114F10471F0D70105
:103CF0001396FC93EE93129776CF22968C0F9D1F0E
:103D0000F90191838083F301EFCFF0936D06E09387
:103D10006C0669CF4816590608F42C017D01D301C1
:103D20009ACFCB010E94C11C7C01009749F0AE01E3
:103D3000B8010E94A31EC8010E945D1D870153CFD8
:103D400010E000E050CFFB01DC0102C001900D92B9
:103D500041505040D8F70895DC0101C06D934150A7
:103D60005040E0F70895FB01DC018D91019080192E
:103D70000110D9F3990B0895FB01DC0101900D921C
:103D80000020E1F70895FB01DC014150504030F084
:103D90008D910190801919F40020B9F7881B990BB7
:103DA0000895FB01DC014150504048F001900D9214
:103DB0000020C9F701C01D9241505040E0F708951E
:103DC00011E0CCE3D1E004C0FE010E94BB1C2196AF
:0A3DD000CD33D107C9F7F894FFCFF7
:103DDA00FFFF00C18081000000FFFFFFFF00E1003C
:103DEA00000000000019FCFFFF00006E06800000C2
:103DFA000000004607F407B9079E07000000005EAE
:103E0A000648067F067406F8068406D406000000F3
:103E1A00004E091907460A450700000000E409B7E1
:103E2A0009460AF604B802A40995090D0A004F4B7F
:103E3A003A2053657474696E67732072657365748A
:103E4A0020746F2064656661756C74730056455200
:103E5A00544943414C00484F52495A4F4E54414CE1
:103E6A0000594553004E4F004D61675363726F6CA2
:103E7A006C20637265617465642C2064657369677C
:103E8A006E65642C206275696C642C20636F6465AE
:103E9A006420616E642057696E646F777320617065
:103EAA007020627920486179726920323032350097
:103EBA004944454E54494659004D41475343524F90
:103ECA004C4C5F434F4E4649524D4544005345546E
:103EDA005F434F4C4F52004343570049444C4500FF
:103EEA004552524F523A20496E76616C696420639A
:103EFA006F6C6F72206D6F6465004F4B3A20436F91
:103F0A006C6F722075706461746564004552524F1B
:103F1A00523A20496E76616C6964205345545F4376
:103F2A004F4C4F5220666F726D6174005345545F57
:103F3A0053454E5349544956495459004F4B3A2018
:103F4A0053656E73697469766974792075706461F2
:103F5A00746564004552524F523A2053656E736934
:103F6A00746976697479206D75737420626520317D
:103F7A002D313000434C4541525F4C454453004F6C
:103F8A004B3A204C45447320636C6561726564004A
:103F9A005345545F4252494748544E455353004F84
:103FAA004B3A204272696768746E65737320757044
:103FBA006461746564004552524F523A20427269F4
:103FCA006768746E657373206D75737420626520FB
:103FDA00302D323535005345545F44494D425249DC
:103FEA004748544E455353004F4B3A2044696D207D
:103FFA006272696768746E65737320757064617440
:10400A006564004552524F523A2044696D206272EB
:10401A00696768746E657373206D75737420626561
:10402A0020302D323535005345545F44494D4445BF
:10403A004C4159004F4B3A2044696D2064656C61CC
:10404A00792075706461746564004552524F523A22
:10405A002044696D2064656C6179206D75737420E4
:10406A00626520312D3630207365636F6E6473008C
:10407A004745545F53455454494E4753005345549A
:10408A0054494E47533A56434F4C3D002C007C4806
:10409A00434F4C3D007C4357434F4C3D007C4343C8
:1040AA0057434F4C3D007C49444C45434F4C3D00DF
:1040BA007C53454E533D007C4252494748543D008B
:1040CA007C44494D4252494748543D007C44494D3D
:1040DA0044454C41593D004745545F53544154555A
:1040EA0053005354415455533A4D4F44453D007C77
:1040FA0044494D6D65643D007C434F4E4E454354E3
:10410A0045443D310052455345545F534554544943
:10411A004E47530050494E4700504F4E47004552B4
:10412A00524F523A20556E6B6E6F776E20636F6DE9
:10413A006D616E6400444F55424C452054415020F5
:10414A00444554454354454421004D6F64652073EA
:0E415A007769746368656420746F3A20000012
:00000001FF
