:100000000C943D010C9465010C9465010C94650100
:100010000C9465010C9465010C9465010C946501C8
:100020000C9465010C9465010C94320D0C94A10D97
:100030000C9465010C9465010C9465010C946501A8
:100040000C9465010C9465010C9465010C94650198
:100050000C9465010C9465010C9465010C94E80CFA
:100060000C9465010C9465010C9465010C94650178
:100070000C9465010C9465010C9465010C94650168
:100080000C9465010C9465010C9465010C94650158
:100090000C94D30F0C9465010C9465010C946501CC
:1000A0000C9465010C9465010C946501000000003E
:1000B000000000002A2B28000000000000000000C3
:1000C0000000000000000000000000002C9EB4A012
:1000D000A1A2A434A6A7A5AE362D3738271E1F200F
:1000E000212223242526B333B62EB7B89F848586D4
:1000F0008788898A8B8C8D8E8F9091929394959618
:100100009798999A9B9C9D2F3130A3AD3504050695
:100110000708090A0B0C0D0E0F10111213141516F7
:100120001718191A1B1C1DAFB1B0B500080B00023F
:10013000020201000904000001020200000524007F
:100140001001052401010104240206052406000112
:100150000705810310004009040100020A000000A5
:100160000705020240000007058302400000040367
:10017000090412010002EF0201400912534D00016F
:1001800001020301486179726954656368004D6139
:10019000675363726F6C6C0000000000240027003E
:1001A0002A002D0030000000000200090F000003AB
:1001B0000401000C0000000000000000000000002E
:1001C000000000000005010906A1018502050719CC
:1001D000E029E71500250175019508810295017553
:1001E0000881039506750815002573050719002970
:1001F000738100C005010902A1010901A100850167
:1002000005091901290315002501950375018102CE
:1002100095017505810305010930093109381581FA
:10022000257F750895038106C0C0040802011040AF
:10023000804010204080408008020401804020104F
:1002400002011080102040402000000000250028FE
:10025000002B002E003100040404040403040502F2
:100260000202020403020202020606060606060451
:100270000402020204042511771911241FBECFEFD6
:10028000DAE0DEBFCDBF12E0A0E0B1E0E4E2FDE3E2
:1002900002C005900D92A238B107D9F724E0A2E878
:1002A000B2E001C01D92AA36B207E1F711E0CCE33B
:1002B000D1E004C02197FE010E94601CCB33D1071E
:1002C000C9F70E9471120C94851E0C940000909145
:1002D000AD039111FCCF91E09093AD039093AC03EB
:1002E0002FEF2093AB031092AA03260F2093A903AC
:1002F0009093A8039091A803880F892B8093A8035B
:100300008091A7038130F9F41092A7038091A8038C
:100310008093BB008091BC0083FDF8CF85EC809377
:10032000BC008091AD038130E1F38091AA03861770
:1003300010F46091AA03A7E8B3E0E7E6F3E080E0F9
:10034000861303C0089585EEEACF9D9191938F5F48
:10035000F7CF982F2091660381E0213208F043C047
:100360008091AD038111FCCF8091650332E0309321
:10037000AD039093AC039FEF9093AB031092AA034D
:100380002093A903A5E4B3E0E7E8F3E090E02913A4
:1003900031C01092A8039091A803880F892B8093F5
:1003A000A8038091A703813049F51092A70380919B
:1003B000A8038093BB008091BC0083FDF8CF85EC3F
:1003C0008093BC008091AD038230E1F38091AB0358
:1003D0008F3FB1F08091AB038032A1F08091AB03ED
:1003E000803391F084E010924403109266031092DF
:1003F000430308953D9131939F5FC9CF85EEE0CFD0
:1004000080E0F1CF82E0EFCF83E0EDCF8091410338
:1004100090914203891B990B08958F929F92AF92FE
:10042000BF92CF92DF92EF92FF92CF932091500430
:100430003091510482179307E8F54B01AA24BB249D
:10044000C82DC52ED62EE72EFF24BC2DA42F20911B
:100450005604222361F0829E40011124C92D2C9D57
:1004600060011124BD2D249FF0011124AF2FE091D4
:100470005C04E0905704F090580430915904E31361
:1004800023C09C01220F331F820F931F8E0D9F1DCF
:10049000E0915904E80FF92FF11DC083E0915A044F
:1004A000E80FF92FF11DB08320915B04820F911D9D
:1004B000FC01A083CF91FF90EF90DF90CF90BF9091
:1004C000AF909F908F900895880F991F880F991F64
:1004D0008E0D9F1D472F552766277727222349F02A
:1004E00030E0249F7001259FF00C349FF00C112404
:1004F0004F2DE80FF92FF11D4083CACF1F93CF93E3
:10050000DF9311E0180F209156041217A1F1C0914A
:100510005704D0915804215070E060E061F08F3FA3
:10052000F1F430E050E040E06FEF7FEF80E090E0EA
:100530000E94F61AB901FE014091520450915304F1
:10054000CF018C1B9D0B8417950798F44081469F23
:10055000C001479F900D112490833196EDCF812FDC
:1005600090E0982F88270197622F70E00E94381C36
:10057000E2CF10935604DF91CF911F910895089513
:100580000895FC0180913803882311F13FB7F89456
:1005900082E08093E9002091F200822F90E018160B
:1005A000190614F481E090E0882339F0289844E695
:1005B000409337034091F1004083222339F020918A
:1005C000F200211103C02BE62093E8003FBF0895FD
:1005D0008FEF9FEF0895282F30E0F901EA55FE4F85
:1005E0009491F901E65DFD4F8491295A3D4FF9013F
:1005F0002491222309F430C09923E9F091509F30CF
:10060000D0F4E92FF0E0E95FFC4F0C94601C350357
:10061000390316032D0331031B031B031B033C0388
:10062000420346034A0350031B0354039091800086
:100630009F7790938000E22FF0E0EE0FFF1FE75BC3
:10064000FD4FA591B4919FB7F894EC91611132C020
:1006500080958E238C939FBF0895909180009F7DFD
:10066000E8CF90918000977FE4CF94B59F7794BDB9
:10067000E2CF94B59F7DFBCF909190009F779093B0
:100680009000D9CF909190009F7DF9CF90919000EC
:10069000977FF5CF9091C0009F779093C000CBCF0C
:1006A0009091C0009F7DF9CF9091C200977F909369
:1006B000C200C1CF8E2BCECF1092420310924103C5
:1006C00010924403109266031092AD0381E0809370
:1006D000AC031092A70361E082E00E94EB0261E0AC
:1006E00083E00E94EB02E9EBF0E080818E7F808363
:1006F00080818D7F808388E48093B80085E4809337
:10070000BC008FEB92E090933C0380933B0380EC22
:1007100092E090933A03809339030895CF93DF9347
:1007200090E0FC01E65DFD4F2491895A9D4FFC014C
:1007300084918823D1F090E0880F991FFC01E8563E
:10074000FE4FA591B491FC01E75BFD4FC591D4919B
:1007500061110EC09FB7F8948C91E22FE0958E2323
:100760008C932881E223E8839FBFDF91CF91089586
:100770008FB7F894EC91E22BEC938FBFF6CF3FB795
:10078000F8948091330390913403A0913503B09194
:10079000360326B5A89B05C02F3F19F00196A11D71
:1007A000B11D3FBFBA2FA92F982F8827BC01CD01BB
:1007B000620F711D811D911D42E0660F771F881F1A
:1007C000991F4A95D1F708950F931F93CF93DF9305
:1007D000CDB7DEB729970FB6F894DEBF0FBECDBFF9
:1007E0008091570490915804892B09F47CC00E9491
:1007F000BF0300915D0410915E0420915F0430916D
:100800006004601771078207930740F460935D04EA
:1008100070935E0480935F049093600400915D0484
:1008200010915E0420915F0430916004601B710B95
:10083000820B930B6C32714081059105C0F2F894E4
:1008400080915204909153049A838983E0915704D4
:10085000F0915804DF0111968081898790914E04B0
:10086000E0916104F091620480916304992309F49A
:1008700045C09081982B98879081809589238F839C
:100880008F818C8388E08B8358856F8149853B817C
:100890002C8189819A81508347FD252F3A952083A9
:1008A000262F39F0441F00C000006083000000C004
:1008B000F2CF38E04D9160830000019761F7F0932B
:1008C0006204E093610449873B832C839A83898384
:1008D00078940E94BF0360935D0470935E048093DC
:1008E0005F049093600429960FB6F894DEBF0FBEA4
:1008F000CDBFDF91CF911F910F9108959081982BDB
:1009000098879081809589238F838F818E8388E05B
:100910008D8358856F8149853D812E8189819A819A
:10092000508347FD252F00C000C0208300C000C0B9
:1009300000C000C000C060830000262F3A9541F03F
:10094000441F000000C000C000C000C000C0E8CFCD
:1009500038E04D9100C0608300C0019709F7F09323
:100960006204E093610449873D832E83AFCF8F9269
:100970009F92AF92BF92CF92DF92EF92FF926B0164
:100980007C010E94BF034B015C01C114D104E1044E
:10099000F104B9F00E94BF03681979098A099B091B
:1009A000683E73408105910580F321E0C21AD108A9
:1009B000E108F10888EE880E83E0981EA11CB11CA6
:1009C000E4CFFF90EF90DF90CF90BF90AF909F90DB
:1009D0008F90089508954091EE025091EF0220917A
:1009E000EC023091ED0242175307B4F49091E80005
:1009F0009570E1F39091E80092FD19C08093F100A9
:100A00008091EE029091EF0201968F739927892BC6
:100A100019F48EEF8093E8008091EE029091EF023E
:100A200001969093EF028093EE0281E0089580E0BA
:100A30000895DF92EF92FF920F931F93CF93DF936E
:100A4000D82E8A01EB017B01E40EF51ECE15DF05E1
:100A500059F0D7FE12C0FE0184910E94EB0421964A
:100A60008111F4CF0FEF1FEFC801DF91CF911F91DC
:100A70000F91FF90EF90DF9008958881EECF2FB710
:100A8000F89487708093E9009091E800892F807234
:100A900095FF04C09091F20080E4891B2FBF089558
:100AA0007F928F929F92AF92BF92CF92DF92EF92FE
:100AB000FF920F931F93CF93DF93C82E8B017A0180
:100AC00080913803811110C08FEF9FEFDF91CF919C
:100AD0001F910F91FF90EF90DF90CF90BF90AF905C
:100AE0009F908F907F9008958091F20280FF05C0C3
:100AF0008091E00082608093E000CE2DDF2DD12C2C
:100B00008AEFB82E8C2D8770982E8C2D8072882EAF
:100B10008C2D8074782E9AE3A92E209719F4DD206D
:100B200009F452C08C2D0E943F0581110AC0BA946D
:100B3000BB2051F261E070E080E090E00E94B704D9
:100B4000ECCF8C171D0611F00CF08C2F9FB7F8948A
:100B50009092E9002091E80025FD02C09FBFDDCF03
:100B6000282F30E0C21BD30B882029F08150A0F041
:100B70001092F100FBCFF801C7FC0AC0815050F081
:100B800041914093F100FACF44914093F1003196A6
:100B90008150D0F7020F131FDD2021F0A092E80052
:100BA000D12CDCCF8091E80085FD07C0A092E80041
:100BB000DD24D394209791F2F3CF209779F6772014
:100BC00069F2A092E800CACF5D9884E68093F102B2
:100BD000C7017CCF615030F02091F100FC012083EF
:100BE0000196F8CF289884E6809337030895809182
:100BF000E40281110DC082E08093E00284E08093E2
:100C0000E1021092E3021092E20281E08093E4029A
:100C100080EE92E008950F931F93CF93DF931F927E
:100C2000CDB7DEB782E0898342E450E06CE271E048
:100C300080E80E9419050E94F705DC0112960D91CB
:100C40001C910115110589F0D801ED91FC910280EC
:100C5000F381E02DBE016F5F7F4FC801099597FDBD
:100C600004C0F80100851185ECCF89810F90DF91D8
:100C7000CF911F910F910895CF93DF93EC01809155
:100C80001401882331F083E00E94500518161906DC
:100C900034F081E090E09B838A8380E090E0DF91F4
:100CA000CF910895CF93DF931F92CDB7DEB76983BD
:100CB000DC01ED91FC910280F381E02D41E050E0F8
:100CC000BE016F5F7F4F09950F90DF91CF9108951F
:100CD00083E08093E9008091F200882319F08AE391
:100CE0008093E800089583E00E943F0590E0089516
:100CF000CF93DF931F92CDB7DEB7FC018485958536
:100D000097FD08C02FEF3FEF358724870F90DF91C5
:100D1000CF910895CE0101960E94C102019719F466
:100D2000898190E0F3CF8FEF9FEFF0CF2FB7F8944A
:100D300080913D0390913E03A0913F03B091400309
:100D40002FBF8093B6039093B703A093B803B093DB
:100D5000B9038EEA93E00E94780697FF26C02FB76A
:100D6000F89480913D0390913E03A0913F03B09190
:100D700040032FBF4091B6035091B7036091B80371
:100D80007091B903841B950BA60BB70B4091B2036E
:100D90005091B3036091B4037091B5038417950724
:100DA000A607B707B0F28FEF9FEF08950F931F9339
:100DB000CF93DF931F92CDB7DEB78C01FC01848502
:100DC000958597FF0BC0CE0101960E94C102019745
:100DD00071F4898190E0F80195878487F801848512
:100DE00095850F90DF91CF911F910F9108958FEF0F
:100DF0009FEFF1CFFC018485958597FD0BC09FB7D0
:100E0000F89482E08093E9008091F2009FBF90E027
:100E1000019608959FB7F89482E08093E90080914D
:100E2000F2009FBF90E008958EBD00000DB407FE54
:100E3000FDCF8EB50895CF92DF92EF92FF920F9380
:100E40001F93CF93DF936C01EB017B01E40EF51E42
:100E500010E000E0CE15DF0581F069916D30D1F32F
:100E6000D601ED91FC910190F081E02DC60109952C
:100E7000892B19F00F5F1F4FEDCFC801DF91CF9184
:100E80001F910F91FF90EF90DF90CF9008950895FC
:100E9000DC01FB0112962C91129784819581281711
:100EA000190641F491818081813A31F49D7F81E07E
:100EB000913009F080E008958132E1F79B3029F408
:100EC00082811F968C9381E008959A3099F78281F0
:100ED00050968C93F8CFAF92BF92CF92DF92EF9261
:100EE000FF920F931F93CF93DF931F92CDB7DEB77F
:100EF0007C0169836A01590141E050E0BE016F5FE6
:100F00007F4FFC0183810E9450058C0197FD0BC02F
:100F1000F7018381A501B60180640E945005080F86
:100F2000191F97FD8C01C8010F90DF91CF911F9180
:100F30000F91FF90EF90DF90CF90BF90AF9008950A
:100F4000DC01FB0188E4808389E4818384E482837B
:100F50001D969C911D979F709F5B93831D968D910D
:100F60009C9124E0969587952A95E1F78F708F5B89
:100F7000848385E00895EF92FF920F931F93CF93A0
:100F8000DF93FB012081213871F52381223259F54D
:100F9000DC0112964C91248135814217130619F514
:100FA000EC010B851C85F12CE12C0115110589F054
:100FB000F801448155816281738180E80E9419059E
:100FC0008F3F980749F0E80EF91ED8010D911C914A
:100FD000ECCF81E08F87C701DF91CF911F910F91F7
:100FE000FF90EF90089590E080E0F6CFCF93DF93ED
:100FF000CDB7DEB769970FB6F894DEBF0FBECDBF91
:10100000FC01DB018C918F5F8C939E012D5F3F4F24
:101010008DE0D9011D928A95E9F729E0298384E0C2
:101020008A8391E09D8383E08E832A8721E22B8748
:101030009C879D879F8722E2288B27E02B8B25E0CA
:101040002C8B8E8B20E430E0388F2F8B998F828110
:101050008B8395858685998B8A8B838180688D8B20
:1010600049E150E0BE016F5F7F4F80E00E941905AB
:1010700069960FB6F894DEBF0FBECDBFDF91CF915A
:101080000895CF93DF938091D802811167C081E0EA
:101090008093CB028093CC0221ED32E03093CE02DC
:1010A0002093CD021092D0021092CF0223E231E0C1
:1010B0003093C8022093C7021092D3021092D2023A
:1010C0001092D5021092D4028093D6028093D70258
:1010D00081EC8093D1020E94F705FC0181819091FF
:1010E000CB02482F490F5527551F483051059CF515
:1010F000A281B381109709F527EC32E03383228374
:1011000020812093C9028093CA028091CC02820F71
:1011100080832091CD02A22FB091CE028A2F821B14
:101120008917C8F481813D91C82FD0E0CE5FDE4F92
:1011300038838F5F8183F2CFD90118962D913C912E
:10114000199721153105C1F727EC32E019963C9328
:101150002E931897D5CF81E08093D80287EC92E048
:10116000DF91CF910895EF92FF921F93CF93DF937A
:10117000EC01162FE8E7E60F683880F4E62FF0E080
:1011800067FF5BC0E058F10921E030E001C0220FA9
:10119000EA95EAF78C81822B8C83E0E08E818E17B2
:1011A000D9F08F81E817C1F08885E817A9F0898503
:1011B000E81791F08A85E81779F08B85E81761F0D8
:1011C000DE01169690E080E02D9121115AC08C0F1F
:1011D0009D1FDC011696EC930E94410828E030E048
:1011E000AE014C5F5F4F62E00E946B07EE24E39418
:1011F000F12C183868F11858DE0186E0112341F00F
:1012000016969C911697191303C016961C92169762
:10121000815011968111F2CF0E944108AE014C5FBE
:101220005F4F28E030E062E00E946B07C701DF916A
:10123000CF911F91FF90EF900895E455FF4FE491F7
:10124000E11118C081E090E09B838A83F12CE12CAE
:10125000E12FF0E017FF21C0E058F10981E090E0B4
:1012600001C0880FEA95EAF780959C8189238C83D9
:1012700010E0C2CFE7FF92CF8C8182608C83EF7742
:101280008DCF01968630910509F09ECF81E090E0E8
:101290009B838A83F12CE12CACCFE455FF4F149152
:1012A000112309F4C3CF17FFA7CF8C818D7F8C83C7
:1012B0001F77A2CF85ED8093BC008091BC0084FD98
:1012C000FCCF1092AD0308952091A402260F33277E
:1012D000331F21323105ECF42091AD03FC0190E085
:1012E00080E0243069F082E00895A091A402219169
:1012F000AC014C575D4FA40FB52FB11D2C93019637
:10130000861798F38091A402680F6093A40280E08E
:10131000089581E00895E091420380914103E81728
:1013200030F4F0E0E959FC4F808190E008958FEFB0
:101330009FEF089590914203809141032FEF3FEF7B
:10134000981748F4E92FF0E0E959FC4F208130E08C
:101350009F5F90934203C9010895CF92DF92EF926D
:10136000FF920F931F93CF93DF937C01CB018A01F0
:1013700020914303222389F0EB016B01C40ED51E9B
:10138000CC15DD0569F06991D701ED91FC910190D3
:10139000F081E02DC7010995F3CF642F0E94640905
:1013A000C801DF91CF911F910F91FF90EF90DF90D7
:1013B000CF900895CF93DF931F92CDB7DEB76983A7
:1013C000209143032223F9F020916603203258F044
:1013D00021E030E0FC013383228390E080E00F9035
:1013E000DF91CF91089580914403E82FF0E0EB5B0B
:1013F000FC4F998190838F5F8093440380936603B1
:1014000081E090E0ECCF61E0CE0101960E9464099A
:10141000F7CFCF93DF93D82FC62F8091490488232D
:10142000C9F081E08093430383E5809365031092C4
:101430004403109266036D2F87E294E00E94DA095C
:101440006C2F87E294E00E94DA0981E0DF91CF916E
:101450000C94A90160E0809147040E94EB028D2F5B
:101460000E9414078C2F0E94140761E080914704AA
:10147000DF91CF910C94EB0290E080E00895FF9211
:101480000F931F93CF93DF93182FEB0180914904A3
:101490008823C1F181E08093430383E58093650352
:1014A0001092440310926603612F87E294E00E9439
:1014B000DA0981E00E94A90161E083E50E946701E9
:1014C000F82E10924203809341038E01C8018C1BB9
:1014D0009D0B20914203F21641F087E294E00E94B6
:1014E0009A09F80181938F01F1CF019729F01092A9
:1014F000330481E080933404DF91CF911F910F91E9
:10150000FF90089560E0809147040E94EB02812FD4
:1015100080680E94140780E00E941407888361E0BD
:1015200080914704DF91CF911F910F91FF900C9410
:10153000EB02FF920F931F93CF93DF931F92CDB7D0
:10154000DEB7182FF62E042FBE016F5F7F4F0E946B
:101550003F0A21E030E001C0220FFA94EAF78981C6
:10156000002369F0822B89836981812F0E94090AF7
:101570000F90DF91CF911F910F91FF9008952095CB
:101580008223F1CFCF9381E08093430386E380935E
:10159000650310924403109266036CE087E294E0C6
:1015A0000E94DA0981E00E94A90162E086E30E94BC
:1015B000670110924203809341038230F0F387E287
:1015C00094E00E949A09C82F87E294E00E949A0949
:1015D00020E0822B9C2BCF910895FC01808191818A
:1015E0000C94021DEEE4F4E04481558170E060E06B
:1015F000818592850C94511ECF93DF93C82F0E9452
:10160000F20A8091820290918302CC2399F1309169
:101610001D0340911E0320911F030B966CE070E0A8
:101620000E944C1C9093830280938202C09182029C
:10163000D091830250E070E060E0762F652F542F48
:101640004427632B422BCE010E940D0280910001A2
:10165000909101018F3F980729F040E050E0BA01D6
:101660000E940D02D0930101C0930001DF91CF9140
:101670000C94E40330911A0340911B0320911C0346
:101680000196CCCFCF92DF92EF92FF92CF93DF9370
:101690000E94F20A80911403C0901503D12CF12C02
:1016A000E12CFE2CED2CDC2CCC24E82A80911603B6
:1016B000C82AD0E0C0E0B701A601CE010E940D0209
:1016C0002196CC30D105B9F7DF91CF91FF90EF9003
:1016D000DF90CF900C94E403FC0101900020E9F727
:1016E0003197AF01481B590BBC018EEA93E00C9473
:1016F0003C06CF92DF92EF92FF920F931F93CF930E
:10170000DF93CDB7DEB7A1970FB6F894DEBF0FBE5B
:10171000CDBF282F30E050E040E019A28E010F5DD0
:101720001F4F8AE0C82ED12CE12CF12CCA01B9013F
:10173000A70196010E945F1B605DF80162938F0113
:10174000211531054105510589F790E080E030977A
:1017500019F0CF010E946C0BA1960FB6F894DEBF72
:101760000FBECDBFDF91CF911F910F91FF90EF90F2
:10177000DF90CF900895CF93DF930E946C0BEC0124
:101780008BE591E00E946C0B8C0F9D1FDF91CF9138
:1017900008950F931F93CF93DF93FC01048115816C
:1017A0000115110539F4FB011082DF91CF911F91D2
:1017B0000F910895415051094017510708F48A01CB
:1017C000EB01FC0160817181A801CE010E94761EAF
:1017D000C00FD11F1882E9CFFC0124813581232B52
:1017E00039F421E0FB018081882349F020E007C023
:1017F000808191810E94581E21E0892BB9F7822FA8
:101800000895FB0144815581FC0124813581241711
:10181000350778F080819181009759F0FB01608154
:1018200071816115710529F00E94681E21E0892BE4
:1018300009F020E0822F08950F931F93CF93DF9339
:10184000EC0188819981009759F02A813B81261704
:10185000370730F081E0DF91CF911F910F9108950C
:101860008B016F5F7F4F0E948B1D009759F099830A
:1018700088831B830A832C813D81232B59F7FC012C
:101880001082E8CF80E0E7CFEF92FF920F931F9393
:10189000CF93DF93EC017B018A01BA010E941C0CFB
:1018A00028813981811114C02115310519F0C90130
:1018B0000E94021D198218821D821C821B821A82BC
:1018C000CE01DF91CF911F910F91FF90EF9008957E
:1018D0001D830C83B701C9010E94611EF1CFFB017A
:1018E000DC0111961C921E9213961C921E92129766
:1018F00015961C921E9214978617970749F06081DF
:1019000071816115710521F0448155810C94440C5D
:101910000895FC01118210821382128215821482B2
:10192000FB0101900020E9F73197AF01461B570BEF
:101930000C94440CFF920F931F93CF93DF9302E11B
:1019400013E029E233E0F80180E0919189272E1716
:101950003F07D9F780932903D0E0C0E0F801F19068
:101960008F01CE010E94E01AF81621F06F2DCE01F2
:101970000E94E81A2196C831D10581F7DF91CF91F5
:101980001F910F91FF900895CF93DF93C2E1D3E0B1
:101990001A821B828FEF8C83188689871A868B8721
:1019A00085EA8C871D8680E88E871F86888B85E078
:1019B000898B88EC8A8B8AE08B8B82E08C8B0E94EF
:1019C0009A0C8A890E947E02DF91CF910C94420B7F
:1019D0001F920F920FB60F9211242F933F938F9364
:1019E0009F93AF93BF9380913D0390913E03A0914D
:1019F0003F03B09140033091320323E0230F2D3792
:101A000058F50196A11DB11D2093320380933D032B
:101A100090933E03A0933F03B09340038091330320
:101A200090913403A0913503B09136030196A11D26
:101A3000B11D8093330390933403A0933503B09387
:101A40003603BF91AF919F918F913F912F910F904E
:101A50000FBE0F901F90189526E8230F0296A11D28
:101A6000B11DD2CF1F920F920FB60F9211248F93F8
:101A70009F938091E1009091E100937F9093E1002A
:101A800083FF0FC01092E90091E09093EB00109259
:101A9000EC0092E39093ED001092380398E090935D
:101AA000F00082FF22C093E09093E9009091F20051
:101AB000992319F09AE39093E8009091F102992309
:101AC00041F09091F10291509093F102911101C077
:101AD0005D9A90913703992341F09091370391508B
:101AE00090933703911101C0289A84FF18C0809108
:101AF000E2008E7E81608093E2008091E1008F7E23
:101B00008093E1008091F2028E7E80618093F202E8
:101B10009F918F910F900FBE0F901F90189580FF8F
:101B2000F7CF8091E2008E7E80618093E200809109
:101B3000E1008E7E8093E1008091F2028E7E8160D2
:101B4000E5CF1F920F920FB60F921124CF92DF9222
:101B5000EF92FF920F931F932F933F934F935F93B7
:101B60006F937F938F939F93AF93BF93EF93FF9365
:101B7000CF93DF93CDB7DEB76C97DEBFCDBF1092AA
:101B8000E9008091E80083FF25C068E0CE0145961A
:101B90000E94EA0582EF8093E8008D8987FF39C0B3
:101BA0009091E80090FFFCCF982F907609F034C117
:101BB0009E894F89588D2F89F88C911131C08038BA
:101BC00061F58091F3028093F1001092F1008EEFA5
:101BD0008093E8006C960FB6F894DEBF0FBECDBFC1
:101BE000DF91CF91FF91EF91BF91AF919F918F9135
:101BF0007F916F915F914F913F912F911F910F9125
:101C0000FF90EF90DF90CF900F900FBE0F901F903E
:101C100018959EEF9093E800C7CF1092F100D5CFB2
:101C2000913059F48111D3CF4130510581F6809123
:101C3000F3028D7F8093F302CACF933049F4811170
:101C4000C6CF4130510519F68091F3028260F2CF80
:101C5000953041F48091E80080FFFCCF206820930C
:101C6000E300B5CF963009F0A9C00B8D1C8D22E0A2
:101C70001092E9001092EF021092EE02F2122EC0C2
:101C80001092ED021092EC020E940B061F8299E066
:101C90009983FA8291E09E8390EA98879AEF9987D8
:101CA0002091EE023091EF02275F3F4F3C832B8360
:101CB0008D831092E9001092EF021092EE021093C1
:101CC000ED020093EC0249E050E0BE016F5F7F4FF0
:101CD00080E00E9419050E940B0679CF1093ED0257
:101CE0000093EC020E94F705DC0112960D911C9105
:101CF0000115110509F451C1D801ED91FC91048041
:101D0000F581E02DBE016B5E7F4FC80109950097FC
:101D100009F03EC1F80100851185EACFF3E0FF121A
:101D20000EC08F89882309F440C0823061F440E8F6
:101D300069E08EE891E00E94F210811148CF81E2C3
:101D40008093EB0047CF813029F440E869E084E8D4
:101D500091E0F1CF833099F70E94F705DC011296EC
:101D6000ED90FC908E010F5F1F4F6801E114F104AC
:101D700079F0D701ED91FC910680F781E02DB80153
:101D8000C7010995080F111DF701E084F184EECF1A
:101D9000D8011C92F60101900020E9F73197BF01AC
:101DA0006C197D0940E0C601C6CF6EE671E0FB010B
:101DB000449150E080E80E94190509CF973009F45A
:101DC000BECF983021F481E08093F10000CF9930AC
:101DD00009F0FDCE837009F0B2CFE3E0F1E081E0DD
:101DE00031E096E32191222371F08093E900309352
:101DF000EB00DF0111972C912093EC009093ED0004
:101E00008F5F873079F78EE78093EA001092EA00BF
:101E10008F8980933803DBCE8B8D9C8D1092E900E7
:101E20001092EF021092EE029093ED028093EC027A
:101E3000898D811192C08E899D89913A49F48132B0
:101E400009F07DCF47E050E06DE071E080E0B3CF76
:101E5000913209F074CF833269F48F89988DB0E0A4
:101E6000A0E08093090190930A01A0930B01B09325
:101E70000C01ADCE803269F48091E80082FFFCCF86
:101E800067E08DE091E00E94EA058BEF8093E80027
:101E90009ECE823209F09BCE8F8980931401EEEFA3
:101EA000FFE7859194918B3F9C4D51F1E0E0F8E084
:101EB00080910D0190910E01A0910F01B091100140
:101EC000803B9440A105B105F1F48091140180FD9F
:101ED0001AC0EE3F8AE0F80789F587E797E7918314
:101EE0008083809160008093F00288E19BE00FB6D0
:101EF000F894A895809360000FBE9093600067CE21
:101F0000EEEFFAE0D5CF808191818737974709F0CE
:101F10005ECEA8958091600088618093600080917A
:101F2000F00280936000EE3F2AE0F20789F0809192
:101F3000FE0A9091FF0A9183808349CE808191812E
:101F40008737980751F29093FF0A8093FE0AC5CF16
:101F50001092FF0A1092FE0A3ACE0E94F705DC01A9
:101F600012960D911C910115110509F4E8CED801C6
:101F7000ED91FC910190F081E02DBE016B5E7F4FF1
:101F8000C8010995811123CEF80100851185EBCF99
:101F9000181619060CF41BCED2CEF1E0FF12BECEFD
:101FA00062E771E004CF1F920F920FB60F921124D7
:101FB0002F933F934F935F936F937F938F939F9351
:101FC000AF93BF93EF93FF938091B900887F8036E2
:101FD00009F44AC0F0F5883209F4A7C018F5803139
:101FE00009F49BC0B8F4882309F4F9C0883009F4D7
:101FF00094C0FF91EF91BF91AF919F918F917F918D
:102000006F915F914F913F912F910F900FBE0F9065
:102010001F901895883109F488C0803251F7809359
:10202000AB0314C0803409F49DC040F48033B9F38D
:102030008833F9F68093AB0385ECB0C0803509F4A2
:1020400085C0883509F496C0883499F60E945A09EB
:10205000D0CF883909F48CC038F5883729F050F48E
:10206000883611F0803729F683E08093AD03109213
:10207000C60257C0883809F47BC0803919F080380F
:1020800009F0B7CF8091C602803208F071C0E091AC
:10209000C60281E08E0F8093C6028091BB00F0E003
:1020A000EA55FD4F80833DC0803B39F0E0F4803A33
:1020B00009F479C0883A09F09CCF84E08093AD039D
:1020C0001092A5021092A402E0913B03F0913C0310
:1020D00009958091A40281110FC081E08093A40230
:1020E0001092840209C0803C09F4A6CF883C09F410
:1020F000A3CF883B09F07DCFE091A50281E08E0F50
:102100008093A502F0E0EC57FD4F80818093BB00E7
:102110009091A5028091A40229C08091A803809388
:10212000BB0085EC8093BC0064CF9091AA038091A2
:10213000A903981758F5E091AA0381E08E0F8093C8
:10214000AA03F0E0E957FC4F8081E9CFE091AA03B0
:1021500081E08E0F8093AA038091BB00F0E0E957E5
:10216000FC4F80839091AA038091A9039817C8F22D
:1021700085E8D8CFE091AA0381E08E0F8093AA036F
:102180008091BB00F0E0E957FC4F80838091AC0365
:1021900081115CCF81E08093A70384EA8093BC0027
:1021A0001092AD0326CF85EC8093BC001092AD0356
:1021B0008091C602803230F4E091C602F0E0EA5528
:1021C000FD4F10826091C60270E0E0913903F091FA
:1021D0003A0386EA92E009951092C6020ACF10925D
:1021E000AB0334CFEF92FF920F931F93CF93DF9304
:1021F000F82E192FE62E042F81E0860F880F0E94FB
:10220000EB0483E00E94EB04CF2DD12FEC0EFD2ECA
:10221000F11CCE15DF05B9F007FF13C0FE01849154
:102220000E94EB04182F80E00E94EB04812321968A
:102230008111EFCFDF91CF911F910F91FF90EF9020
:1022400008958881EDCF81E0F5CF1092B10310920F
:10225000B00388EE93E0A0E0B0E08093B2039093E7
:10226000B303A093B403B093B5038FE291E09093CE
:10227000AF038093AE038FEF9FEF9093BB038093E8
:10228000BA0310920F0410920E0481E491E090932F
:102290000D0480930C0480910404811113C01092EA
:1022A000FF031092FE0385EC91E09093010480936C
:1022B00000048FE290E0909303048093020481E095
:1022C000809304040E944108FC01A385B485109703
:1022D00009F0E9C08EEF93E0948783878585968522
:1022E0002091020430910304820F931F9687858703
:1022F0001092260480911E04811113C010921904BB
:102300001092180484EF91E090931B0480931A04B8
:1023100086E390E090931D0480931C0481E08093F9
:102320001E040E944108FC01A385B485109709F0A2
:10233000C5C088E194E09487838785859685209140
:102340001C0430911D04820F931F9687858710927D
:102350002A041092290488EE93E0A0E0B0E0809374
:102360002B0490932C04A0932D04B0932E048DE4A1
:1023700091E0909328048093270410924F041092C8
:10238000560410925D0410925E0410925F04109245
:10239000600481E080935C048093590410925A0495
:1023A00092E090935B0480934E0484E290E09093DB
:1023B0005304809352040E94661C909358048093A7
:1023C0005704009709F484C024E2FC0111922A9575
:1023D000E9F78CE090E0909351048093500487E1FA
:1023E00090E0909355048093540480914F04882387
:1023F00041F061E087E10E948E0360E087E10E9486
:10240000EB02EEE6F2E0E491F0E0EE0FFF1FE75B97
:10241000FD4F859194919093620480936104E1E46F
:10242000F2E0E491E09363048AE090E09093480442
:102430008093470481E08093490440E45BE46CE4CA
:1024400070E040934A0450934B0460934C047093A3
:102450004D04809333041092340483EC9BEAA6E786
:10246000BBE38093350490933604A0933704B09374
:10247000380488ED9BE6A6E7BBE38093390490938C
:102480003A04A0933B04B0933C0482EF94EEA4E69C
:10249000BBE380933D0490933E04A0933F04B0932C
:1024A00040040895DC018D919C9111970097D1F71C
:1024B0008EEF93E08D939C9311CFDC018D919C91D5
:1024C00011970097D1F788E194E08D939C9335CFD5
:1024D000109253041092520410925104109250041E
:1024E0007ECFCF93DF93CDB7DEB7C855D1090FB6F6
:1024F000F894DEBF0FBECDBF789484B5826084BDF2
:1025000084B5816084BD85B5826085BD85B58160F7
:1025100085BD80916E00816080936E001092810075
:102520008091810082608093810080918100816030
:1025300080938100809180008160809380008091F1
:1025400091008260809391008091910081608093DE
:102550009100809190008160809390008091C100F3
:1025600084608093C1008091C10082608093C1002B
:102570008091C10081608093C1008091C30081601F
:102580008093C3008091C00082608093C0008091DE
:10259000C20081608093C20080917A008460809341
:1025A0007A0080917A00826080937A0080917A002C
:1025B000816080937A0080917A00806880937A00AD
:1025C000109238031092F3021092F2028091D70019
:1025D00081608093D70080EA8093D80089B58061BC
:1025E00089BD89B5826089BD09B400FEFDCF61E077
:1025F00070E080E090E00E94B7048091D8008F7C6A
:1026000080618093D8008091E000807F8093E0001B
:102610008091E1008E7E8093E1008DE08093E20066
:10262000559A209A8FEF9FEF9093BB038093BA0344
:102630000E945C0388E48093B80084E690E0A0E008
:10264000B0E080932B0490932C04A0932D04B093BE
:102650002E04809154049091550497FD08C061E0C8
:102660000E948E0360E0809154040E94EB0281E09E
:1026700080934F040E94F20A52E1E52E53E0F52EBA
:1026800010E000E0C8010E94E01AD7018D937D019F
:102690000F5F1F4F08311105A9F7809112038D3488
:1026A00021F480911303823051F08DE48093120362
:1026B00082E0809313030E94C40C0E949A0C8091C4
:1026C00024030E947E0235E0E32EF12C4CE0C42E60
:1026D000D12C10E000E00E94F20A40E050E06FEFE1
:1026E00070E0C8010E940D020F5F1F4F40E050E0F4
:1026F0006FEF70E0C8010E940D0240E05FEF60E004
:1027000070E0C80105960E940D02C8010696B60148
:102710000E944C1C40E05FEF60E070E00E940D0200
:102720000E94E40364E670E080E090E00E94B70459
:102730000630110581F6B1E0EB1AF10851F60E945E
:10274000F20A0E94E4038091490481110E945C0313
:1027500060E08DE20E94090A60E18DE20E94090AB0
:1027600068E08DE20E94090ABE016F5F7F4F81E33E
:102770000E943F0A69816C7E636081E30E94090ABE
:1027800040E062E070E08AE20E94990A40E061E085
:1027900070E08AE20E94990A41E070E060E08AE21B
:1027A0000E94990A63E28DE10E94090A69E181E2CF
:1027B0000E94090A64E682E20E94090A6AEF83E243
:1027C0000E94090A40E065E070E08FE20E94990AE9
:1027D00041E065E070E08EE20E94990A0E94420B9F
:1027E00064E670E080E090E00E94B7042AE0A22E48
:1027F000B12C10E000E0C12CD12C76010E94C20A5D
:102800008F3F980799F0BC0190E080E00E94E219A8
:1028100020E030E044EB5DE30E941F1A0E94021C9E
:10282000C60ED71EE81EF91E0F5F1F4F6AE070E04C
:1028300080E090E00E94B704F1E0AF1AB108F1F631
:102840000115110509F457C09801110F440B550BE0
:10285000C701B6010E94F61A2093150130931601A4
:10286000409317015093180122242394312C8FB7E1
:10287000F89440903D0350903E0360903F03709069
:1028800040038FBF8EEA93E00E94FA06892B09F479
:1028900088C16DE571E0CE01895B9F4F0E94890C74
:1028A0000E94960697FD30C08A30910569F18983B0
:1028B0001A822D960EAD1FAD2D970F5F1F4FB801D9
:1028C000CE01895B9F4F0E941C0C882349F32996F7
:1028D0002EAD3FAD29972D968EAD9FAD2D97BE01A4
:1028E0006F5F7F4F820F931F0E94611E2D961FAF57
:1028F0000EAF2D97D5CF10921501109216011092A0
:10290000170110921801B0CF2996CEACDFAC2997F1
:10291000C114D10441F02D960EAD1FAD2D97760157
:102920000115110581F465E671E0CE01895B9F4FC9
:102930000E94EC0B882309F442C08EE691E00E94CD
:10294000BB0B2AC1750157012FEFA21AB20AD7019A
:102950008C91082E000C990B0E94D919892B91F7A4
:10296000015011090C0D1D1DF8018081082E000C6D
:10297000990B0E94D919892B31F00E151F0518F0FB
:1029800001501109F1CF0F5F1F4FA8014E195F09C8
:102990002D965FAF4EAF2D97CE14DF0420F4B70114
:1029A000C6010E94481E2996EEADFFAD29972D96CF
:1029B0008EAD9FAD2D97E80FF91F1082B4CF62E85E
:1029C00071E0CE0101960E94890CBE016F5F7F4FBE
:1029D000CE01895B9F4F0E94010C182FCE010196FA
:1029E0000E94ED0A112309F48CC0BE01695B7F4F80
:1029F000CE018F5B9F4F0E946F0C40E450E0BE0100
:102A00006F5F7F4FCE018F5B9F4F0E94C90B6CE8B9
:102A100071E0CE0101960E94A5196CE871E090E08A
:102A200080E00E94A5198C016CE871E090E080E0E4
:102A30000E94A5195C016CE871E090E080E00E94C2
:102A4000A5196C016CE871E090E080E00E94A51986
:102A50007C010115110529F1A114B10411F1C11472
:102A6000D104F9F0892BE9F0C5010E948719B82E2D
:102A7000C6010E948719D82EC7010E948719F82E17
:102A80006EE871E0C8010E94581E892B81F4B09253
:102A90001403D0921503F09216030E949A0C0E9420
:102AA000420BCE018F5B9F4F0E94ED0A75C068E913
:102AB00071E0C8010E94581E892B39F4B0921A03A4
:102AC000D0921B03F0921C03E8CF67E971E0C801C4
:102AD0000E94581E892B39F4B0921D03D0921E0318
:102AE000F0921F03DACF6BE971E0C8010E94581E13
:102AF000892B99F6B0922003D0922103F092220301
:102B0000CCCF60EA71E0CE0101960E94890CBE0133
:102B10006F5F7F4FCE01895B9F4F0E94010C182F82
:102B2000CE0101960E94ED0A112341F1BE01695BBD
:102B30007F4FCE018F5B9F4F0E946F0C40E250E0B1
:102B4000BE016F5F7F4FCE018F5B9F4F0E94C90B0D
:102B50006CE871E0CE0101960E94A5196CE871E065
:102B600090E080E00E94A519009709F49ACF0E9496
:102B70008719809323030E949A0C93CF60EB71E036
:102B8000CE01895B9F4F0E94EC0B882309F459C04A
:102B90000E94F20A0E94E403CE01895B9F4F0E94CB
:102BA000ED0A80912E0390912F03A0913003B091F4
:102BB000310384159505A605B70509F47CC20E946A
:102BC000C20A8F3F980709F46EC2BC0190E080E012
:102BD0000E94E21920E030E044EB5DE30E941F1AFE
:102BE0000E94021C6B017C018FB7F89400913D0399
:102BF00010913E0320913F033091400361960CAF4A
:102C00001DAF2EAF3FAF61978FBF80910203882326
:102C100009F431C18091FE029091FF02A09100035E
:102C2000B0910103081719072A073B0708F021C1D3
:102C3000C0921501D0921601E0921701F09218018E
:102C400032C26BEB71E0CE0101960E94890CBE018D
:102C50006F5F7F4FCE01895B9F4F0E94010C182F41
:102C6000CE0101960E94ED0A112341F1BE01695B7C
:102C70007F4FCE018F5B9F4F0E946F0C40E250E070
:102C8000BE016F5F7F4FCE018F5B9F4F0E94C90BCC
:102C90006CE871E0CE0101960E94A5196CE871E024
:102CA00090E080E00E94A519009709F4FACE0E94F6
:102CB0008719809324030E947E02EFCE6AEC71E0B4
:102CC000CE0101960E94890CBE016F5F7F4FCE013D
:102CD000895B9F4F0E94010C182FCE0101960E9424
:102CE000ED0A112331F1BE01695B7F4FCE018F5B8D
:102CF0009F4F0E946F0C40E250E0BE016F5F7F4F1C
:102D0000CE018F5B9F4F0E94C90B6CE871E0CE0132
:102D100001960E94A5196CE871E090E080E00E94A5
:102D2000A519009709F4BDCE0E9487198093250349
:102D300022CF6CED71E0CE0101960E94890CBE019C
:102D40006F5F7F4FCE01895B9F4F0E94010C182F50
:102D5000CE0101960E94ED0A112331F1BE01695B9B
:102D60007F4FCE018F5B9F4F0E946F0C40E250E07F
:102D7000BE016F5F7F4FCE018F5B9F4F0E94C90BDB
:102D80006CE871E0CE0101960E94A5196CE871E033
:102D900090E080E00E94A519009709F482CE0E947D
:102DA000871980932603E7CE69EE71E0CE01895B37
:102DB0009F4F0E94EC0B882369F186EF91E00E94FF
:102DC0006C0B809114030E94790B85E092E00E94C5
:102DD0006C0B809115030E94790B85E092E00E94B4
:102DE0006C0B809116030E94790B87E092E00E94A1
:102DF0006C0B809123030E94790B8EE092E00E947D
:102E00006C0B809124030E94790B8BE591E00E946A
:102E10006C0BC2CE67E172E0CE01895B9F4F0E94CE
:102E2000EC0B882369F082E292E00E946C0B8091A7
:102E30001103811159C28EE591E00E946C0BE5CF20
:102E40006FE372E0CE01895B9F4F0E94EC0B8823F9
:102E500019F00E94C40CA0CE6EE472E0CE01895B32
:102E60009F4F0E94EC0B882309F496CE83E592E0F5
:102E700066CD1092020380902303912CB12CA12CDB
:102E800095018401015011092109310969960CAF9E
:102E90001DAF2EAF3FAF699700911501109116013C
:102EA000209117013091180165960CAF1DAF2EAF20
:102EB0003FAF659746015701801A910AA20AB30AEB
:102EC000B7FE08C0B094A09490948094811C911C8B
:102ED000A11CB11CADEFBFEF69962CAD3DAD4EAD61
:102EE0005FAD69970E94231B29E030E040E050E08D
:102EF0000E94F61A2C5F3F4F4F4F5F4F2815390540
:102F00004A055B050CF0CFC065960CAD1DAD2EAD2E
:102F10003FAD65970C151D052E053F052CF501E00D
:102F200010E0AEEFBFEF69962CAD3DAD4EAD5FAD9D
:102F300069970E94231B29E030E040E050E00E94A6
:102F4000F61A2D5F3F4F4F4F5F4F8091FC029091DB
:102F5000FD02009761F41093FD020093FC02309291
:102F6000FB022092FA020FC00FEF1FEFDACF80179B
:102F7000910789F78091FA029091FB020196909354
:102F8000FB028093FA028091FA029091FB02821771
:102F900093070CF44DCE2091F8023091F902809104
:102FA000FC029091FD022115310581F128173907A6
:102FB00079F14091F4025091F5026091F60270911E
:102FC000F70261960CAD1DAD2EAD3FAD6197041BB0
:102FD000150B260B370BB901A801423351056105CA
:102FE000710508F425CE9093F9028093F80261965A
:102FF0000CAD1DAD2EAD3FAD61970093F402109363
:10300000F5022093F6023093F70202C0009759F7B9
:103010001092FD021092FC021092FB021092FA0232
:1030200061960CAD1DAD2EAD3FAD619700930D03C4
:1030300010930E0320930F033093100300930703A4
:10304000109308032093090330930A0320910B0384
:1030500030910C032130310521F030920C03209285
:103060000B032091260429831A821B821816190645
:103070000CF000C11FEF1C830E94410824E030E0E7
:10308000AE014F5F5F4F61E00E946B0780E00E94DE
:10309000FC0AC0921501D0921601E0921701F0923D
:1030A00018011092110340922E0350922F03609248
:1030B00030037092310380912A0390912B03A091E9
:1030C0002C03B0912D0393018201081B190B2A0BCD
:1030D0003B0BD901C8014497A105B10508F44DC0C7
:1030E0008091030390910403A0910503B09106031E
:1030F000A3019201281B390B4A0B5B0BDA01C901B2
:10310000843F9140A105B10580F1BE016F5F7F4F03
:1031100080E30E943F0A898185FF27C041E04093F8
:103120000203D301C20188589F4FAF4FBF4F809316
:10313000FE029093FF02A0930003B093010340921C
:103140000D0350920E0360920F03709210031092C1
:10315000110388E592E00E94BB0B4092030350925A
:103160000403609205037092060340922A03509272
:103170002B0360922C0370922D0380911103811117
:1031800071C080910D0390910E03A0910F03B09137
:10319000100373016201C81AD90AEA0AFB0A2091D6
:1031A000260330E0A8EEB3E00E94811B6C157D057C
:1031B0008E059F0508F06CC06091250370E090E0DB
:1031C00080E00E94E41920E030E04FE753E40E94E1
:1031D000901B4B015C016091200370E090E080E067
:1031E0000E94E419A50194010E941F1A0E94091C63
:1031F000C62ED12CF12CE12C7601DD24CC2460915B
:10320000210370E090E080E00E94E419A5019401A0
:103210000E941F1A0E94091CD62A6091220370E0A6
:1032200090E080E00E94E419A50194010E941F1A19
:103230000E94091CC62A10E000E0B701A601C801DF
:103240000E940D020F5F1F4F0C301105B1F70E9455
:10325000E40351E05093110382E090E090930C035B
:1032600080930B03E0E0F0E0EF2B09F400CB0E9429
:103270000000FDCA21E02C830E94410824E030E0D8
:10328000AE014F5F5F4F61E00E946B0781E0FFCEB0
:1032900080910B0390910C0381309105D1F48091C2
:1032A000070390910803A0910903B0910A03481AFB
:1032B000590A6A0A7B0A95EF491691E0590661049A
:1032C000710480F20E94420B10920C0310920B03C7
:1032D000C9CF892B39F6A5E6CA16D104E104F10459
:1032E00008F20E94420BBECF81E691E0A6CD80910C
:1032F0005704909158040E94021D809154049091AB
:10330000550497FD03C060E00C948E030895FC0102
:1033100088279927E89421912032E9F3293010F089
:103320002E30C8F32B3241F02D3239F4689404C0AA
:103330000E94D119820F911D219120532A30C0F390
:103340001EF4909581959F4F089544E654E00E94A5
:10335000AA190895FA01A191B081009719F4109764
:10336000E1F0CD01DC01CD010D90002011F4C00190
:1033700013C0FB012191222319F02015D9F7F3CFB7
:10338000FB012191201519F41E92119606C02223EB
:10339000C1F70D900020A1F7D001FA01A193B083ED
:1033A00008957AE0979F902D879F802D910D11248D
:1033B000089591110C948C1A803219F0895085501F
:1033C000C8F70895E89409C097FB3EF4909580955E
:1033D000709561957F4F8F4F9F4F9923A9F0F92FDB
:1033E00096E9BB279395F695879577956795B79559
:1033F000F111F8CFFAF4BB0F11F460FF1BC06F5F3F
:103400007F4F8F4F9F4F16C0882311F096E911C050
:10341000772321F09EE8872F762F05C0662371F071
:1034200096E8862F70E060E02AF09A95660F771F85
:10343000881FDAF7880F9695879597F908950E9467
:10344000321A0C94A61A0E94981A38F00E949F1AF9
:1034500020F0952311F00C948F1A0C94951A1124D6
:103460000C94DA1A0E94B71A70F3959FC1F3950F66
:1034700050E0551F629FF001729FBB27F00DB11DF8
:10348000639FAA27F00DB11DAA1F649F6627B00D88
:10349000A11D661F829F2227B00DA11D621F739F71
:1034A000B00DA11D621F839FA00D611D221F749F7F
:1034B0003327A00D611D231F849F600D211D822FC6
:1034C000762F6A2F11249F5750409AF0F1F08823ED
:1034D0004AF0EE0FFF1FBB1F661F771F881F91501A
:1034E0005040A9F79E3F510580F00C948F1A0C9420
:1034F000DA1A5F3FE4F3983ED4F3869577956795A3
:10350000B795F795E7959F5FC1F7FE2B880F911D43
:103510009695879597F9089599278827089597F99B
:103520009F6780E870E060E008959FEF80EC089569
:1035300000240A9416161706180609060895002492
:103540000A9412161306140605060895092E03940C
:10355000000C11F4882352F0BB0F40F4BF2B11F480
:1035600060FF04C06F5F7F4F8F4F9F4F089557FDDF
:103570009058440F551F59F05F3F71F04795880FE1
:1035800097FB991F61F09F3F79F087950895121678
:1035900013061406551FF2CF4695F1DF08C0161624
:1035A00017061806991FF1CF8695710561050894D5
:1035B0000895E894BB2766277727CB0197F90895EC
:1035C000F999FECF92BD81BDF89A992780B50895EB
:1035D000262FF999FECF1FBA92BD81BD20BD0FB62F
:1035E000F894FA9AF99A0FBE01960895052E97FB62
:1035F0001EF400940E940D1B57FD07D00E945F1B14
:1036000007FC03D04EF40C940D1B5095409530955B
:1036100021953F4F4F4F5F4F08959095809570953E
:1036200061957F4F8F4F9F4F08950E94811BA59FEB
:10363000900DB49F900DA49F800D911D11240895AD
:10364000B7FF0C94151B0E94151B821B930B08954A
:103650002F923F924F925F926F927F928F929F92A2
:10366000AF92BF92CF92DF92EF92FF920F931F9390
:10367000CF93DF93CDB7DEB7CA1BDB0B0FB6F89441
:10368000DEBF0FBECDBF09942A88398848885F8481
:103690006E847D848C849B84AA84B984C884DF80F2
:1036A000EE80FD800C811B81AA81B981CE0FD11DD6
:1036B0000FB6F894DEBF0FBECDBFED010895A1E2B5
:1036C0001A2EAA1BBB1BFD010DC0AA1FBB1FEE1F9C
:1036D000FF1FA217B307E407F50720F0A21BB30BE7
:1036E000E40BF50B661F771F881F991F1A9469F763
:1036F00060957095809590959B01AC01BD01CF01BF
:103700000895A29FB001B39FC001A39F700D811DBA
:103710001124911DB29F700D811D1124911D0895DA
:103720000E94A41B0C94A61A0E949F1A58F00E9493
:10373000981A40F029F45F3F29F00C948F1A511128
:103740000C94DA1A0C94951A0E94B71A68F399230C
:10375000B1F3552391F3951B550BBB27AA2762178D
:103760007307840738F09F5F5F4F220F331F441F9A
:10377000AA1FA9F335D00E2E3AF0E0E832D09150CE
:103780005040E695001CCAF72BD0FE2F29D0660FBB
:10379000771F881FBB1F261737074807AB07B0E8FE
:1037A00009F0BB0B802DBF01FF2793585F4F3AF004
:1037B0009E3F510578F00C948F1A0C94DA1A5F3FF3
:1037C000E4F3983ED4F3869577956795B795F7958A
:1037D0009F5FC9F7880F911D9695879597F9089572
:1037E000E1E0660F771F881FBB1F6217730784070E
:1037F000BA0720F0621B730B840BBA0BEE1F88F71D
:10380000E09508950E94091C6894B1110C94DA1A8D
:1038100008950E94BF1A88F09F5798F0B92F9927F2
:10382000B751B0F0E1F0660F771F881F991F1AF0AB
:10383000BA95C9F714C0B13091F00E94D91AB1E01D
:1038400008950C94D91A672F782F8827B85F39F01C
:10385000B93FCCF3869577956795B395D9F73EF444
:1038600090958095709561957F4F8F4F9F4F0895EC
:10387000AA1BBB1B51E107C0AA1FBB1FA617B70796
:1038800010F0A61BB70B881F991F5A95A9F78095B2
:103890009095BC01CD01089597FB072E16F4009476
:1038A00007D077FD09D00E94381C07FC05D03EF4F4
:1038B000909581959F4F0895709561957F4F0895DC
:1038C000EE0FFF1F0590F491E02D09940F931F93C5
:1038D000CF93DF938230910510F482E090E0E09185
:1038E0006804F091690430E020E0B0E0A0E0309797
:1038F00099F42115310509F44AC0281B390B2430ED
:103900003105D8F58A819B816115710589F1FB012B
:1039100093838283FE0111C0408151810281138112
:1039200048175907E0F04817590799F4109761F0C4
:1039300012960C93129713961C933296CF01DF9137
:10394000CF911F910F91089500936804109369041B
:10395000F4CF2115310551F04217530738F0A90172
:10396000DB019A01BD01DF01F801C1CFEF01F9CF01
:103970009093690480936804CDCFFE01E20FF31F9A
:10398000819391932250310939832883D7CF209195
:10399000660430916704232B41F420911B01309180
:1039A0001C01309367042093660420911901309123
:1039B0001A012115310541F42DB73EB740911D0183
:1039C00050911E01241B350BE0916604F0916704B1
:1039D000E217F307A0F42E1B3F0B2817390778F0E6
:1039E000AC014E5F5F4F2417350748F04E0F5F1F45
:1039F0005093670440936604819391939FCFF0E0C6
:103A0000E0E09CCFCF93DF930097E9F0FC01329781
:103A100013821282A0916804B0916904ED0130E034
:103A200020E01097A1F420813181820F931F209113
:103A30006604309167042817390709F061C0F093D4
:103A40006704E0936604DF91CF910895EA01CE17F1
:103A5000DF07E8F54A815B819E0141155105B1F709
:103A6000E901FB83EA8349915991C40FD51FEC17F3
:103A7000FD0761F4808191810296840F951FE90111
:103A800099838883828193819B838A83F0E0E0E03D
:103A900012968D919C9113970097B9F52D913C91B9
:103AA0001197CD010296820F931F209166043091E9
:103AB00067042817390739F6309751F510926904D1
:103AC00010926804B0936704A0936604BCCFD383BC
:103AD000C28340815181840F951FC817D90761F4B3
:103AE0004E5F5F4F88819981480F591F51834083F2
:103AF0008A819B81938382832115310509F0B0CFA0
:103B0000F0936904E09368049ECFFD01DC01C0CF0F
:103B100013821282D7CFB0E0A0E0E1E9FDE10C947E
:103B20002A1B8C01009751F4CB010E94661C8C016A
:103B3000C801CDB7DEB7E0E10C94461BFC01E60FEF
:103B4000F71F9C0122503109E217F30708F49DC0CA
:103B5000D901CD91DC911197C617D70798F0C530E0
:103B6000D10530F3CE0104978617970708F3C61BDB
:103B7000D70B2297C193D1936D937C93CF010E9471
:103B8000021DD6CF5B01AC1ABD0A4C018C0E9D1EE6
:103B9000A0916804B0916904512C412CF12CE12CC6
:103BA000109731F580916604909167048815990506
:103BB00009F05CC04616570608F058C080911901FC
:103BC00090911A01009741F48DB79EB740911D0165
:103BD00050911E01841B950BE817F90708F055C09A
:103BE000F0936704E0936604F90171836083A0CFCA
:103BF0008D919C91119712966C90129713967C90D0
:103C00001397A815B90559F56C0142E0C40ED11CF3
:103C1000CA14DB0420F1AC014A195B09DA011296DF
:103C2000159780F06282738251834083D9016D932E
:103C30007C93E114F10471F0D7011396FC93EE9399
:103C4000129776CF22968C0F9D1FF9019183808366
:103C5000F301EFCFF0936904E093680469CF48164D
:103C6000590608F42C017D01D3019ACFCB010E94A3
:103C7000661C7C01009749F0AE01B8010E94481E05
:103C8000C8010E94021D870153CF10E000E050CF11
:103C9000FB01DC0102C001900D9241505040D8F769
:103CA0000895DC0101C06D9341505040E0F7089544
:103CB000FB01DC018D91019080190110D9F3990B62
:103CC0000895FB01DC0101900D920020E1F70895B9
:103CD000FB01DC014150504030F08D910190801982
:103CE00019F40020B9F7881B990B0895FB01DC013A
:103CF0004150504048F001900D920020C9F701C09A
:103D00001D9241505040E0F7089511E0CCE3D1E01E
:103D100004C0FE010E94601C2196CD33D107C9F773
:043D2000F894FFCF45
:103D2400FFFF00C18081000000FFFFFFFF00E100F2
:103D3400000000000019FCFFFF00006A048000007E
:103D44000000004807F607BB07A007000000005268
:103D5400063C0673066806FA067806D606000000D6
:103D640000B3081B073C0A470700000000DA09AD4E
:103D7400093C0AEA0406029A098B090D0A004E4F0F
:103D840000594553004944454E54494659004D4154
:103D9400475343524F4C4C5F434F4E4649524D4557
:103DA40044005345545F434F4C4F52002000564546
:103DB40052544943414C004343570049444C450045
:103DC4005345545F53454E53495449564954590039
:103DD400434C4541525F4C454453005345545F4264
:103DE40052494748544E455353005345545F444940
:103DF4004D4252494748544E455353005345545F2E
:103E040044494D44454C4159004745545F5345543A
:103E140054494E47530053455454494E47533A5618
:103E2400434F4C3D002C007C53454E533D007C4297
:103E340052494748543D004745545F5354415455F3
:103E440053005354415455533A4D4F44453D564500
:103E540052544943414C7C44494D6D65643D005284
:103E6400455345545F53455454494E4753005049B4
:103E74004E4700504F4E470054415020444554454E
:103E8400435445443A204D6F6465207377697463E5
:103E940068696E672069732064697361626C656424
:023EA4002E00EE
:00000001FF
