:100000000C94DA000C9402010C9402010C9402018D
:100010000C9402010C9402010C9402010C94020154
:100020000C9402010C9402010C945B0B0C94CA0B0F
:100030000C9402010C9402010C9402010C94020134
:100040000C9402010C9402010C9402010C94020124
:100050000C9402010C9402010C9402010C94110BFB
:100060000C9402010C9402010C9402010C94020104
:100070000C9402010C9402010C9402010C940201F4
:100080000C9402010C9402010C9402010C940201E4
:100090000C94FC0D0C9402010C9402010C940201CE
:1000A0000C9402010C9402010C94020105A84CCDA1
:1000B000B2D44EB93836A9020C50B9918688083CA2
:1000C000A6AAAA2ABE000000803F080B0002020276
:1000D00001000904000001020200000524001001D3
:1000E0000524010101042402060524060001070578
:1000F000810310004009040100020A000000070506
:1001000002024000000705830240000004030904C6
:1001100012010002EF0201400912534D00010102D9
:100120000301486179726954656368004D616753E2
:1001300063726F6C6C0000000000240027002A002E
:100140002D0030000000000200090F000003040130
:10015000000C000000000000000000000000000093
:100160000000000408020110408040102040804040
:1001700080080204018040201002011080102040FD
:10018000402000000000250028002B002E00310038
:10019000040404040403040502020202040302022C
:1001A0000202060606060606040402020204040011
:1001B0004E0FFB1711241FBECFEFDAE0DEBFCDBF1D
:1001C00026E0A2E8B4E001C01D92AE32B207E1F72A
:1001D00014E0A0E0B1E0E0E5FBE302C005900D9281
:1001E000A238B107D9F710E0C9EDD0E004C02197DB
:1001F000FE010E94761BC83DD107C9F70E9432104C
:100200000C949B1D0C9400004F925F926F927F9212
:100210008F929F92AF92BF92FF92209114063091DD
:1002200015068217930708F043C02B016624772434
:10023000852E962EA72EBB24B82DA42F20911A060A
:10024000F42C222391F0E22FF0E0E49DD001E59D13
:10025000B00DF49DB00D1124FB2E289D40011124FA
:10026000B92D249F90011124A32FE0912006209105
:100270001B0630911C0650911D06E51323C0FC019E
:10028000EE0FFF1F8E0F9F1F820F931FE0911D0621
:10029000E80FF92FF11DF082E0911E06E80FF92F0B
:1002A000F11DB08320911F06820F911DFC01A083D8
:1002B000FF90BF90AF909F908F907F906F905F90D6
:1002C0004F900895880F991F880F991F820F931FD1
:1002D000E80FF92FF11D1082D9CF90918D05911162
:1002E000FCCF91E090938D0590938C052FEF209398
:1002F0008B0510928A05260F209389059093880517
:1003000090918805880F892B8093880580918705B7
:100310008130F9F410928705809188058093BB00A5
:100320008091BC0083FDF8CF85EC8093BC00809168
:100330008D058130E1F380918A05861710F4609174
:100340008A05A7E6B5E0E7E4F5E080E0861303C0A0
:10035000089585EEEACF9D9191938F5FF7CF20911D
:10036000460581E0213208F044C080918D0581115D
:10037000FCCF8091450592E090938D0591E090939C
:100380008C059FEF90938B0510928A052093890529
:10039000A5E2B5E0E7E6F5E090E0291331C0109260
:1003A000880590918805880F892B80938805809116
:1003B0008705813049F510928705809188058093E3
:1003C000BB008091BC0083FDF8CF85EC8093BC001E
:1003D00080918D058230E1F380918B058F3FB1F0E4
:1003E00080918B058032A1F080918B05803391F054
:1003F00084E010922405109246051092230508957A
:100400003D9131939F5FC9CF85EEE0CF80E0F1CF82
:1004100082E0EFCF83E0EDCF80912105909122051E
:10042000891B990B08951F93CF93DF9311E0180F49
:1004300020911A061217A1F1C0911B06D0911C063B
:10044000215070E060E061F08F3FF1F430E050E067
:1004500040E06FEF7FEF80E090E00E94571BB90112
:10046000FE014091160650911706CF018C1B9D0B83
:100470008417950798F44081469FC001479F900DCF
:10048000112490833196EDCF812F90E0982F88270B
:100490000197622F70E00E940D1BE2CF10931A06A5
:1004A000DF91CF911F91089508950895FC018091E7
:1004B0001C05882311F13FB7F89482E08093E9008E
:1004C0002091F200822F90E01816190614F481E0B2
:1004D00090E0882339F0289844E640931B0540912A
:1004E000F1004083222339F02091F200211103C052
:1004F0002BE62093E8003FBF08958FEF9FEF08950C
:100500002FB7F89483E08093E9009091E800892F59
:10051000807295FF04C09091F20080E4891B2FBF88
:1005200008958091130581110DC082E080930F051D
:1005300084E080931005109212051092110581E05D
:10054000809313058FE095E00895282F30E0F9019E
:10055000EC5BFE4F9491F901ED59FE4F84912057C9
:100560003E4FF9012491222309F430C09923E9F088
:1005700091509F30D0F4E92FF0E0EF53FD4F0C94F1
:10058000761BEF02F302D002E702EB02D502D5029E
:10059000D502F602FC02000304030A03D5020E038F
:1005A000909180009F7790938000E22FF0E0EE0F13
:1005B000FF1FEE57FE4FA591B4919FB7F894EC91B1
:1005C000611132C080958E238C939FBF08959091C6
:1005D00080009F7DE8CF90918000977FE4CF94B515
:1005E0009F7794BDE2CF94B59F7DFBCF9091900013
:1005F0009F7790939000D9CF909190009F7DF9CFF5
:1006000090919000977FF5CF9091C0009F77909345
:10061000C000CBCF9091C0009F7DF9CF9091C200D8
:10062000977F9093C200C1CF8E2BCECF1092220520
:1006300010922105109224051092460510928D0506
:1006400081E080938C051092870561E082E00E9432
:10065000A50261E083E00E94A502E9EBF0E0808161
:100660008E7F808380818D7F808388E48093B80033
:1006700085E48093BC0084E592E09093200580930C
:100680001F0585E592E090931E0580931D05089552
:10069000CF93DF9390E0FC01ED59FE4F24918057FA
:1006A0009E4FFC0184918823D1F090E0880F991F20
:1006B000FC01EA5CFE4FA591B491FC01EE57FE4FA0
:1006C000C591D49161110EC09FB7F8948C91E22F1F
:1006D000E0958E238C932881E223E8839FBFDF91EE
:1006E000CF9108958FB7F894EC91E22BEC938FBFE4
:1006F000F6CF3FB7F89480910B0590910C05A0912F
:100700000D05B0910E0526B5A89B05C02F3F19F029
:100710000196A11DB11D3FBFBA2FA92F982F882781
:10072000BC01CD01620F711D811D911D42E0660F5C
:10073000771F881F991F4A95D1F708950F931F932C
:10074000CF93DF93CDB7DEB729970FB6F894DEBF0E
:100750000FBECDBF80911B0690911C06892B09F41A
:100760007CC00E94790300912106109122062091FD
:10077000230630912406601771078207930740F41F
:10078000609321067093220680932306909324069B
:100790000091210610912206209123063091240613
:1007A000601B710B820B930B6C32714081059105BC
:1007B000C0F2F89480911606909117069A83898367
:1007C000E0911B06F0911C06DF011196808189875C
:1007D00090911206E0912506F09126068091270659
:1007E000992309F445C09081982B98879081809532
:1007F00089238F838F818C8388E08B8358856F81D9
:1008000049853B812C8189819A81508347FD252F21
:100810003A952083262F39F0441F00C000006083E2
:10082000000000C0F2CF38E04D91608300000197D6
:1008300061F7F0932606E093250649873B832C83D6
:100840009A83898378940E94790360932106709338
:100850002206809323069093240629960FB6F894D7
:10086000DEBF0FBECDBFDF91CF911F910F910895D5
:100870009081982B98879081809589238F838F8191
:100880008E8388E08D8358856F8149853D812E81D7
:1008900089819A81508347FD252F00C000C02083A5
:1008A00000C000C000C000C000C060830000262F50
:1008B0003A9541F0441F000000C000C000C000C0D5
:1008C00000C0E8CF38E04D9100C0608300C00197C0
:1008D00009F7F0932606E093250649873D832E838A
:1008E000AFCF8F929F92AF92BF92CF92DF92EF9253
:1008F000FF924B015C010E9479036B017C010E9415
:1009000079036C197D098E099F09683E7340810542
:100910009105A8F321E0821A9108A108B10888EE98
:10092000C80E83E0D81EE11CF11C81149104A104BF
:10093000B10429F7FF90EF90DF90CF90BF90AF9078
:100940009F908F9008952FB7F8946091070570914C
:1009500008058091090590910A052FBF08954091DF
:10096000C7045091C8042091C5043091C6044217B1
:100970005307B4F49091E8009570E1F39091E8008A
:1009800092FD19C08093F1008091C7049091C80432
:1009900001968F739927892B19F48EEF8093E800C5
:1009A0008091C7049091C80401969093C8048093E5
:1009B000C70481E0089580E00895DF92EF92FF92EE
:1009C0000F931F93CF93DF93D82E8A01EB017B0106
:1009D000E40EF51ECE15DF0559F0D7FE12C0FE015C
:1009E00084910E94AF0421968111F4CF0FEF1FEF85
:1009F000C801DF91CF911F910F91FF90EF90DF9091
:100A000008958881EECF0F931F93CF93DF931F92AA
:100A1000CDB7DEB782E0898342E450E06AEC70E053
:100A200080E80E94DD040E949102DC0112960D9183
:100A30001C910115110589F0D801ED91FC910280FE
:100A4000F381E02DBE016F5F7F4FC801099597FDCF
:100A500004C0F80100851185ECCF89810F90DF91EA
:100A6000CF911F910F910895615030F02091F100C6
:100A7000FC0120830196F8CF289884E680931B051B
:100A800008958F929F92AF92BF92CF92DF92EF9292
:100A9000FF920F931F93CF93DF936C017B018A0129
:100AA00080910B01882309F45CC080911C05882388
:100AB00009F457C08091CB0480FF05C08091E0000D
:100AC00082608093E000E801B12C8AEFA82E93E0C9
:100AD000892E2AE3922E209711F4BB20D9F10E948F
:100AE000800281110AC0AA94AA20D9F161E070E0C5
:100AF00080E090E00E947104EECF8C171D0611F08B
:100B00000CF08C2F9FB7F8948092E9002091E800B8
:100B100025FD02C09FBFDFCF282F30E0C21BD30BC3
:100B2000F701815020F041914093F100FACFE20E9D
:100B3000F31EBB2021F09092E800B12CEBCF809106
:100B4000E80085FDE7CF9092E800BB24B39420979E
:100B500009F3F3CF5D9884E68093CA04101611065A
:100B60003CF081E090E0F6019383828310E000E0A6
:100B7000C801DF91CF911F910F91FF90EF90DF900F
:100B8000CF90BF90AF909F908F900895CF93DF93B9
:100B90001F92CDB7DEB76983DC01ED91FC91028035
:100BA000F381E02D41E050E0BE016F5F7F4F09957A
:100BB0000F90DF91CF91089583E08093E9008091B9
:100BC000F200882319F08AE38093E80008950E94D8
:100BD000800290E00895CF93DF931F92CDB7DEB7E8
:100BE000FC018485958597FD08C02FEF3FEF358781
:100BF00024870F90DF91CF910895CE0101960E9436
:100C00005602019719F4898190E0F3CF8FEF9FEF9F
:100C1000F0CF0F931F930E94A304609396057093E7
:100C2000970580939805909399058EE895E00E942A
:100C3000EB0597FF1DC00E94A3040091960510913B
:100C400097052091980530919905601B710B820BD7
:100C5000930B00919205109193052091940530918A
:100C600095056017710782079307F8F28FEF9FEFE2
:100C70001F910F9108950F931F93CF93DF931F92AE
:100C8000CDB7DEB78C01FC018485958597FF0BC03D
:100C9000CE0101960E945602019771F4898190E07D
:100CA000F80195878487F801848595850F90DF91F9
:100CB000CF911F910F9108958FEF9FEFF1CFFC011E
:100CC0008485958597FD0BC09FB7F89482E080934B
:100CD000E9008091F2009FBF90E0019608959FB7D0
:100CE000F89482E08093E9008091F2009FBF90E049
:100CF00008958EBD00000DB407FEFDCF8EB508959A
:100D000085ED8093BC008091BC0084FDFCCF1092E7
:100D10008D0508952091A204260F3327331F213219
:100D20003105ECF420918D05FC0190E080E0243049
:100D300069F082E00895A091A2042191AC014E5780
:100D40005B4FA40FB52FB11D2C930196861798F316
:100D50008091A204680F6093A20480E0089581E06E
:100D600008950895E091220580912105E81730F457
:100D7000F0E0E95BFA4F808190E008958FEF9FEFFC
:100D8000089590912205809121052FEF3FEF98174C
:100D900048F4E92FF0E0E95BFA4F208130E09F5FF3
:100DA00090932205C9010895CF92DF92EF92FF92AE
:100DB0000F931F93CF93DF937C01CB018A01209186
:100DC0002305222389F0EB016B01C40ED51ECC153F
:100DD000DD0569F06991D701ED91FC910190F081F9
:100DE000E02DC7010995F3CF642F0E948A06C80140
:100DF000DF91CF911F910F91FF90EF90DF90CF90F7
:100E00000895CF93DF931F92CDB7DEB7698320910A
:100E100023052223F9F020914605203258F021E0E5
:100E200030E0FC013383228390E080E00F90DF917B
:100E3000CF91089580912405E82FF0E0EB5DFA4F03
:100E4000998190838F5F809324058093460581E08C
:100E500090E0ECCF61E0CE0101960E948A06F7CFC8
:100E6000CF93DF93D82FC62F809100068823C1F03F
:100E700081E08093230583E5809345051092240546
:100E8000109246056D2F8EED95E00E9401076C2FA4
:100E90008EED95E00E940107DF91CF910C94AF0198
:100EA00060E08091FE050E94A5028D2F0E947906C8
:100EB0008C2F0E94790661E08091FE05DF91CF9131
:100EC0000C94A50290E080E008951092CD04109259
:100ED000CE041092CF041092D0040E94A304609319
:100EE000D1047093D2048093D3049093D4040895D2
:100EF000FF920F931F93CF93DF93182FEB018091F5
:100F000000068823B9F181E08093230583E580936F
:100F100045051092240510924605612F8EED95E04F
:100F20000E9401070E94AF0161E083E50E946D010C
:100F3000F82E10922205809321058E01C8018C1B8A
:100F40009D0B20912205F21641F08EED95E00E9456
:100F5000C106F80181938F01F1CF019729F010921A
:100F6000EA0581E08093EB05DF91CF911F910F910E
:100F7000FF90089560E08091FE050E94A502812FF8
:100F800080680E94790680E00E947906888361E08B
:100F90008091FE05DF91CF911F910F91FF900C94EE
:100FA000A502FF920F931F93CF93DF931F92CDB7AC
:100FB000DEB7182FF62E042FBE016F5F7F4F0E9401
:100FC000780721E030E001C0220FFA94EAF7898126
:100FD000002369F0822B89836981812F0E94300769
:100FE0000F90DF91CF911F910F91FF900895209561
:100FF0008223F1CFCF9381E08093230586E3809312
:10100000450510922405109246056CE08EED95E0A2
:101010000E9401070E94AF0162E086E30E946D0119
:1010200010922205809321058230F0F38EED95E039
:101030000E94C106C82F8EED95E00E94C10620E0F7
:10104000822B9C2BCF91089581E08093230586E32A
:101050008093450510922405109246056BE08EEDB5
:1010600095E00E9401070E94AF0161E086E30E94C3
:101070006D011092220580932105811101C0FFCFDF
:101080008EED95E00C94C106FC01808191810C9459
:10109000181CE2E1F6E04481558170E060E0818552
:1010A00092850C94671DFC0101900020E9F73197AF
:1010B000AF01481B590BBC018EE895E00C9441052B
:1010C0008F929F92AF92BF920F931F93CF93DF9314
:1010D000CDB7DEB7A1970FB6F894DEBF0FBECDBF78
:1010E00019A2423008F44AE08E010F5D1F4F842E92
:1010F000912CB12CA12CA50194010E94351BE62F47
:10110000B901CA01EA30F4F4E05DD801EE938D0133
:10111000232B242B252B79F790E080E0109719F0F2
:10112000CD010E945308A1960FB6F894DEBF0FBE02
:10113000CDBFDF91CF911F910F91BF90AF909F9046
:101140008F900895E95CE1CFCF92DF92EF92FF920A
:10115000CF93DF936C01990FEE08FF08F7FE19C0DB
:101160006DE28EE895E00E94C605EC0166277727C0
:10117000CB016C197D098E099F094AE00E94600825
:101180008C0F9D1FDF91CF91FF90EF90DF90CF905C
:1011900008954AE0C701B601DF91CF91FF90EF902B
:1011A000DF90CF900C946008682F70E090E080E0B2
:1011B0004AE00C946008CF93DF930E945308EC013F
:1011C00083E491E00E9453088C0F9D1FDF91CF9123
:1011D0000895109200051092DA041092D90410922A
:1011E000DC041092DB040E94A3046093D504709386
:1011F000D6048093D7049093D80486E491E00E94AB
:10120000DB080C9465071092FF0481E080930D01C8
:10121000109200051092DA041092D9041092DC04A6
:101220001092DB0480930C010E94A3046093D50408
:101230007093D6048093D7049093D8040E944908F1
:101240000E949E030E94FA07BC0190E080E00E9489
:10125000661820E030E044EB5DE30E94C7180E946E
:10126000421A60930E0170930F01809310019093C6
:1012700011018EE591E00C94DB080C945308BF92A9
:10128000CF92DF92EF92FF920F931F93CF93DF9352
:101290006091F70470E0C091E104D091E204CB01C9
:1012A0008C0F9D1F01970E94211B6B0189E791E024
:1012B0000E943D09CE010E94A40885E891E00E94A9
:1012C0003D09C6010E94A4088AEA91E00E943D09F6
:1012D000C0910C0185E791E0CC2311F08EE691E0FE
:1012E0000E94DB080E94490820E5B22ECC2311F0B1
:1012F000BB24BA94D0E0C0E0EE24EA94F12CCC15E3
:10130000DD057CF5CC30D10561F18091EC04B89E0F
:10131000C0011124B7010E94211B462F8091EB04CC
:10132000B89EC0011124B7010E94211B062F10E0B6
:1013300030E020E0322F212F102F0027242B809126
:10134000ED04B89EC0011124B7010E94211BD901F0
:10135000C801862BAC01BD01CE010E94040121967B
:10136000CECFDF91CF911F910F91FF90EF90DF9043
:10137000CF90BF900C949E038091D9049091DA0491
:10138000892B69F481E090E09093DA048093D9048A
:101390008091F70490E09093E4048093E3048091BB
:1013A000E3049091E4049093E2048093E1040E94AA
:1013B000A3046093E5047093E6048093E70490939C
:1013C000E8046093FA047093FB048093FC04909308
:1013D000FD046093DD047093DE048093DF0490933A
:1013E000E00481E08093FF0410920D01109200054B
:1013F00080930C0184EB91E00E943D098091D90417
:101400009091DA040E94A40884EC91E00E943D09C6
:101410008091F7040E94D40883ED91E00E943D0979
:101420008091E3049091E4040E94A4088FED91E080
:101430000E94DB080C943F090F931F93CF93DF9317
:10144000FC01048115810115110539F4FB0110829D
:10145000DF91CF911F910F9108954150510940178D
:10146000510708F48A01EB01FC0160817181A80138
:10147000CE010E948C1DC00FD11F1882E9CFFB0145
:10148000DC018D919C91009761F060817181611503
:10149000710539F0448155810E947E1D21E0892B20
:1014A00009F020E0822F0895FC0124813581232B4F
:1014B00039F421E0FB018081882349F020E007C056
:1014C000808191810E946E1D21E0892BB9F7822FC6
:1014D00008950F931F93CF93DF93EC018881998137
:1014E000009759F02A813B812617370730F081E0B9
:1014F000DF91CF911F910F9108958B016F5F7F4F07
:101500000E94A11C009759F0998388831B830A834A
:101510002C813D81232B59F7FC011082E8CF80E01C
:10152000E7CFEF92FF920F931F93CF93DF93EC01DE
:101530007B018A01BA010E94690A288139818111DF
:1015400014C02115310519F0C9010E94181C198217
:1015500018821D821C821B821A82CE01DF91CF91DC
:101560001F910F91FF90EF9008951D830C83B70199
:10157000C9010E94771DF1CFFB01DC0111961C927D
:101580001E9213961C921E92129715961C921E92F2
:1015900014978617970749F060817181611571056D
:1015A00021F0448155810C94910A0895FC01118227
:1015B00010821382128215821482FB010190002096
:1015C000E9F73197AF01461B570B0C94910AFF9234
:1015D0000F931F93CF93DF9309EE14E028EF34E0CD
:1015E000F80180E0919189272E173F07D9F7809362
:1015F000F804D0E0C0E0F801F1908F01CE010E9424
:101600008819F81621F06F2DCE010E9490192196AD
:10161000C031D10581F7DF91CF911F910F91FF90DC
:1016200008951F920F920FB60F9211242F933F939C
:101630008F939F93AF93BF93809107059091080577
:10164000A0910905B0910A053091060523E0230F0A
:101650002D3758F50196A11DB11D209306058093E5
:10166000070590930805A0930905B0930A0580919A
:101670000B0590910C05A0910D05B0910E050196FA
:10168000A11DB11D80930B0590930C05A0930D0532
:10169000B0930E05BF91AF919F918F913F912F9184
:1016A0000F900FBE0F901F90189526E8230F0296FB
:1016B000A11DB11DD2CF1F920F920FB60F92112410
:1016C0008F939F938091E1009091E100937F90939D
:1016D000E10083FF0FC01092E90091E09093EB00CE
:1016E0001092EC0092E39093ED0010921C0598E0AC
:1016F0009093F00082FF22C093E09093E9009091D4
:10170000F200992319F09AE39093E8009091CA04AB
:10171000992341F09091CA0491509093CA04911179
:1017200001C05D9A90911B05992341F090911B0592
:10173000915090931B05911101C0289A84FF18C005
:101740008091E2008E7E81608093E2008091E100D2
:101750008F7E8093E1008091CB048E7E80618093A8
:10176000CB049F918F910F900FBE0F901F901895F3
:1017700080FFF7CF8091E2008E7E80618093E2004F
:101780008091E1008E7E8093E1008091CB048E7E7B
:101790008160E5CF1F920F920FB60F921124CF9266
:1017A000DF92EF92FF920F931F932F933F934F93EC
:1017B0005F936F937F938F939F93AF93BF93EF93B9
:1017C000FF93CF93DF93CDB7DEB76C97DEBFCDBF6E
:1017D0001092E9008091E80083FF25C068E0CE0107
:1017E00045960E94340582EF8093E8008D8987FF3B
:1017F00039C09091E80090FFFCCF982F907609F0C7
:1018000034C19E894F89588D2F89F88C911131C030
:10181000803861F58091CC048093F1001092F10042
:101820008EEF8093E8006C960FB6F894DEBF0FBE83
:10183000CDBFDF91CF91FF91EF91BF91AF919F917C
:101840008F917F916F915F914F913F912F911F9158
:101850000F91FF90EF90DF90CF900F900FBE0F9001
:101860001F9018959EEF9093E800C7CF1092F1005B
:10187000D5CF913059F48111D3CF4130510581F644
:101880008091CC048D7F8093CC04CACF933049F4EF
:101890008111C6CF4130510519F68091CC04826088
:1018A000F2CF953041F48091E80080FFFCCF2068B2
:1018B0002093E300B5CF963009F0A9C00B8D1C8DA5
:1018C00022E01092E9001092C8041092C704F212AC
:1018D0002EC01092C6041092C5040E9403051F82F8
:1018E00099E09983FA8291E09E8390EA98879AEF33
:1018F00099872091C7043091C804275F3F4F3C83EC
:101900002B838D831092E9001092C8041092C704B3
:101910001093C6040093C50449E050E0BE016F5F18
:101920007F4F80E00E94DD040E94030579CF109371
:10193000C6040093C5040E949102DC0112960D9129
:101940001C910115110509F451C1D801ED91FC91CB
:101950000480F581E02DBE016B5E7F4FC8010995C3
:10196000009709F03EC1F80100851185EACFF3E048
:10197000FF120EC08F89882309F440C0823061F4C1
:1019800040E869E08CE291E00E941B0F811148CF92
:1019900081E28093EB0047CF813029F440E869E091
:1019A00082E291E0F1CF833099F70E949102DC014D
:1019B0001296ED90FC908E010F5F1F4F6801E114AD
:1019C000F10479F0D701ED91FC910680F781E02DCB
:1019D000B801C7010995080F111DF701E084F184D2
:1019E000EECFD8011C92F60101900020E9F7319763
:1019F000BF016C197D0940E0C601C6CF6CE071E003
:101A0000FB01449150E080E80E94DD0409CF97304B
:101A100009F4BECF983021F481E08093F10000CF2B
:101A2000993009F0FDCE837009F0B2CFE9E1F1E021
:101A300081E031E096E32191222371F08093E90067
:101A40003093EB00DF0111972C912093EC009093E1
:101A5000ED008F5F873079F78EE78093EA00109270
:101A6000EA008F8980931C05DBCE8B8D9C8D1092B4
:101A7000E9001092C8041092C7049093C6048093A2
:101A8000C504898D811192C08E899D89913A49F44E
:101A9000813209F07DCF47E050E064E071E080E002
:101AA000B3CF913209F074CF833269F48F89988D66
:101AB000B0E0A0E08093000190930101A0930201A7
:101AC000B0930301ADCE803269F48091E80082FFCB
:101AD000FCCF67E084E091E00E9434058BEF8093B7
:101AE000E8009ECE823209F09BCE8F8980930B0155
:101AF000EEEFFFE7859194918B3F9C4D51F1E0E033
:101B0000F8E08091040190910501A0910601B09147
:101B10000701803B9440A105B105F1F480910B01D0
:101B200080FD1AC0EE3F8AE0F80789F587E797E75E
:101B300091838083809160008093C90488E19BE059
:101B40000FB6F894A895809360000FBE9093600044
:101B500067CEEEEFFAE0D5CF808191818737974746
:101B600009F05ECEA8958091600088618093600046
:101B70008091C90480936000EE3F2AE0F20789F06B
:101B80008091FE0A9091FF0A9183808349CE8081E3
:101B900091818737980751F29093FF0A8093FE0A4C
:101BA000C5CF1092FF0A1092FE0A3ACE0E9491020F
:101BB000DC0112960D911C910115110509F4E8CE76
:101BC000D801ED91FC910190F081E02DBE016B5E9A
:101BD0007F4FC8010995811123CEF8010085118539
:101BE000EBCF181619060CF41BCED2CEF1E0FF1283
:101BF000BECE60E171E004CF1F920F920FB60F923C
:101C000011242F933F934F935F936F937F938F9301
:101C10009F93AF93BF93EF93FF938091B900887F19
:101C2000803609F44AC0F0F5883209F4A7C018F5E7
:101C3000803109F49BC0B8F4882309F4F9C08830D6
:101C400009F494C0FF91EF91BF91AF919F918F9153
:101C50007F916F915F914F913F912F910F900FBEA8
:101C60000F901F901895883109F488C0803251F781
:101C700080938B0514C0803409F49DC040F48033F8
:101C8000B9F38833F9F680938B0585ECB0C08035C5
:101C900009F485C0883509F496C0883499F60E9405
:101CA0008006D0CF883909F48CC038F5883729F000
:101CB00050F4883611F0803729F683E080938D0543
:101CC0001092C40457C0883809F47BC0803919F0D9
:101CD000803809F0B7CF8091C404803208F071C019
:101CE000E091C40481E08E0F8093C4048091BB0016
:101CF000F0E0EC55FB4F80833DC0803B39F0E0F4D1
:101D0000803A09F479C0883A09F09CCF84E0809346
:101D10008D051092A3041092A204E0911F05F0918A
:101D2000200509958091A20481110FC081E0809364
:101D3000A2041092820409C0803C09F4A6CF883C1A
:101D400009F4A3CF883B09F07DCFE091A30481E0A3
:101D50008E0F8093A304F0E0EE57FB4F80818093B9
:101D6000BB009091A3048091A20429C080918805B2
:101D70008093BB0085EC8093BC0064CF90918A0572
:101D800080918905981758F5E0918A0581E08E0FBA
:101D900080938A05F0E0E959FA4F8081E9CFE0911C
:101DA0008A0581E08E0F80938A058091BB00F0E068
:101DB000E959FA4F808390918A0580918905981797
:101DC000C8F285E8D8CFE0918A0581E08E0F809334
:101DD0008A058091BB00F0E0E959FA4F8083809139
:101DE0008C0581115CCF81E08093870584EA809324
:101DF000BC0010928D0526CF85EC8093BC0010921C
:101E00008D058091C404803230F4E091C404F0E088
:101E1000EC55FB4F10826091C40470E0E0911D0509
:101E2000F0911E0584EA94E009951092C4040ACF4B
:101E300010928B0534CFEF92FF920F931F93CF93A5
:101E4000DF93F82E192FE62E042F81E0860F880FDE
:101E50000E94AF0483E00E94AF04CF2DD12FEC0E7F
:101E6000FD2EF11CCE15DF05B9F007FF13C0FE01F2
:101E700084910E94AF04182F80E00E94AF04812358
:101E800021968111EFCFDF91CF911F910F91FF909C
:101E9000EF9008958881EDCF81E0F5CF1092910504
:101EA0001092900588EE93E0A0E0B0E08093920558
:101EB00090939305A0939405B093950523E231E0A8
:101EC00030938F0520938E052FEF3FEF30939B05C6
:101ED00020939A051092E1051092E0058093E205A7
:101EE0009093E305A093E405B093E50585E391E0C5
:101EF0009093DF058093DE051092130610921A0668
:101F000010922106109222061092230610922406A7
:101F10001092200610921D0681E080931E0692E02A
:101F200090931F068093120684E290E09093170628
:101F3000809316060E947C1B90931C0680931B06C0
:101F4000009709F486C024E2FC0111922A95E9F772
:101F50008CE090E0909315068093140687E190E062
:101F6000909319068093180680911306882341F0F8
:101F700061E087E10E94480360E087E10E94A502DA
:101F8000E7EAF1E0E491F0E0EE0FFF1FEE57FE4FBD
:101F9000859194919093260680932506EAE7F1E0D7
:101FA000E491E093270684E190E090930606809305
:101FB0000506109207061092090610920806109264
:101FC0000A0610920B0610920C0610920D06109243
:101FD0000F0610920E068AE090E09093FF05809322
:101FE000FE0581E08093000640E45BE46CE470E071
:101FF0004093010650930206609303067093040613
:102000008093EA051092EB0583EC9BEAA6E7BBE31D
:102010008093EC059093ED05A093EE05B093EF054A
:1020200088ED9BE6A6E7BBE38093F0059093F1056E
:10203000A093F205B093F30582EF94EEA4E6BBE320
:102040008093F4059093F505A093F605B093F705FA
:102050000895109217061092160610921506109207
:1020600014067CCFCF93DF93CDB7DEB7CC54D10924
:102070000FB6F894DEBF0FBECDBF789484B58260F2
:1020800084BD84B5816084BD85B5826085BD85B51C
:10209000816085BD80916E00816080936E0010929A
:1020A0008100809181008260809381008091810015
:1020B00081608093810080918000816080938000A6
:1020C0008091910082608093910080919100816065
:1020D0008093910080919000816080939000809126
:1020E000C10084608093C1008091C10082608093B0
:1020F000C1008091C10081608093C1008091C300C4
:1021000081608093C3008091C00082608093C00092
:102110008091C20081608093C20080917A008460C7
:1021200080937A0080917A00826080937A00809117
:102130007A00816080937A0080917A008068809331
:102140007A0010921C051092CC041092CB0480915E
:10215000D70081608093D70080EA8093D80089B54A
:10216000806189BD89B5826089BD09B400FEFDCF5B
:1021700061E070E080E090E00E9471048091D800FE
:102180008F7C80618093D8008091E000807F809375
:10219000E0008091E1008E7E8093E1008DE08093ED
:1021A000E200559A209A8FEF9FEF90939B058093C2
:1021B0009A05809118069091190697FD08C061E074
:1021C0000E94480360E0809118060E94A50281E009
:1021D000809313060E9449080E949E038091050681
:1021E00090910606811520E4920708F024C1880F1B
:1021F000991F0E947C1B90931106809310060E94E9
:10220000160379EEE72E74E0F72E10E000E0C80127
:102210000E948819F70181937F010F5F1F4F0031E2
:102220001105A9F78091E9048D3421F48091EA0425
:10223000823031F18DE48093E90492E09093EA04D6
:102240001092EB041092EC048FEF8093ED048093D6
:10225000EE041092EF041092F0041092F1048093B7
:10226000F2041092F30488EC8093F4048AE08093E3
:10227000F5049093F60485E08093F7040E94E70A42
:102280008091F4040E9413028091000681110E9443
:10229000160360E08DE20E94300760E18DE20E944B
:1022A000300768E08DE20E943007BE016F5F7F4F0C
:1022B00081E30E94780769816C7E636081E30E94FC
:1022C000300740E062E070E08AE20E94D10740E01F
:1022D00061E070E08AE20E94D10741E070E060E0D6
:1022E0008AE20E94D1076EE18DE10E94300764E12D
:1022F00081E20E94300760E582E20E94300768ECCC
:1023000083E20E94300740E065E070E08FE20E94C7
:10231000D10741E065E070E08EE20E94D1070E94A3
:10232000240885FD0CC08EEE91E00E94DB080E941F
:10233000240885FF83C08EE092E00E94DB080E94A3
:10234000FA07BC0190E080E00E94661820E030E0CF
:1023500044EB5DE30E94C7180E94421A60930E018D
:1023600070930F0180931001909311011092DC047F
:102370001092DB040E94A3046093D5047093D604EA
:102380008093D7049093D8048FE192E00E94DB08F9
:102390000E94650744244A94512C60E0262E60E098
:1023A000362E0E94FA073C018EE895E00E945F06F7
:1023B000892B09F443C129961FAE1EAE29972B968F
:1023C0001FAE1EAE2B972D961FAE1EAE2D9750E062
:1023D00040E065E471E0CE01895B9F4F0E94910A65
:1023E0000E94090697FD31C08A30910571F18983F9
:1023F0001A822D960EAD1FAD2D970F5F1F4FB8019E
:10240000CE01895B9F4F0E94690A882349F3299670
:102410002EAD3FAD29972D968EAD9FAD2D97BE0168
:102420006F5F7F4F820F931F0E94771D2D961FAF06
:102430000EAF2D97D5CF8FEF9FEFDBCE68EE73E019
:1024400080E090E00E94710472CF2996AEACBFACE0
:102450002997A114B10449F02D960EAD1FAD2D970B
:1024600075010115110509F083C06EE272E0CE011D
:1024700001960E94D60A2D962EAD3FAD2D978D81E7
:102480009E8110E02817390748F0BE016F5F7F4F2B
:10249000CE01895B9F4F0E943F0A182FCE01019603
:1024A0000E944408112309F44FC1BE01695B7F4FAC
:1024B000CE018F5B9F4F0E94BC0A40E450E0BE01FA
:1024C0006F5F7F4FCE018F5B9F4F0E941C0A62ECB3
:1024D00071E0CE0101960E94291862EC71E090E053
:1024E00080E00E9429188C0162EC71E090E080E0AD
:1024F0000E9429184C0162EC71E090E080E00E949B
:1025000029185C0162EC71E090E080E00E942918DB
:102510007C010115110509F487C08114910409F4A7
:1025200083C0A114B10409F47FC0892B09F47CC0D5
:10253000C4010E940B18982EC5010E940B18B82EDA
:10254000C7010E940B18F82E68E372E0C8010E94D0
:102550006E1D892B09F048C09092EB04B092EC04F8
:10256000F092ED040E94E70A82E892E05BC07401F9
:102570004701FFEF8F1A9F0AF7018081082E000C98
:10258000990B0E945D18892B91F7015011090A0DD2
:102590001B1DF8018081082E000C990B0E945D180C
:1025A000892B31F00E151F0518F001501109F1CFDC
:1025B0000F5F1F4FA8014E195F092D965FAF4EAFF9
:1025C0002D97AE14BF0420F4B701C5010E945E1D13
:1025D0002996EEADFFAD29972D968EAD9FAD2D9727
:1025E000E80FF91F108241CF68E472E0C8010E9431
:1025F0006E1D892B39F49092EE04B092EF04F092A4
:10260000F004B0CF67E572E0C8010E946E1D892B0F
:1026100039F49092F104B092F204F092F304A2CF54
:1026200088E692E00E94DB08CE018F5B9F4F0E94FC
:102630004408CE01895B9F4F0E944408BE016F5F32
:102640007F4F80E30E947807898185FFCFC10E9478
:10265000A30400910105109102052091030530911A
:102660000405601B710B820B930B693E734081055F
:10267000910508F45CC080E893E00E94DB0821E04B
:10268000209305050E94A304609301057093020541
:1026900080930305909304050E94A3046093D504DE
:1026A0007093D6048093D7049093D8048091FE044D
:1026B000882309F485C182EA93E00E94DB08109226
:1026C000FE0431E030930D01109200051092DA04FF
:1026D0001092D9041092DC041092DB040E94A3042F
:1026E0006093D5047093D6048093D7049093D80454
:1026F0000E9449080E949E030E94FA07BC0190E0D4
:1027000080E00E94661820E030E044EB5DE30E9428
:10271000C7180E94421A60930E0170930F018093B4
:1027200010019093110187EB93E00E94DB0868ECA5
:1027300070E080E090E00E9471042114310409F4FB
:1027400030CE0E94000026CE64E972E0CE010196F0
:102750000E94D60A2D962EAD3FAD2D978D819E817C
:102760002817390748F0BE016F5F7F4FCE01895BA4
:102770009F4F0E943F0A182FCE0101960E944408E5
:10278000112399F1BE01695B7F4FCE018F5B9F4F93
:102790000E94BC0A40E250E0BE016F5F7F4FCE0155
:1027A0008F5B9F4F0E941C0A62EC71E0CE01019684
:1027B0000E94291862EC71E090E080E00E942918E4
:1027C000009709F431CF0E940B189C012150310968
:1027D0002A30310538F48093F7040E94E70A8AEA28
:1027E00092E020CF8FEB92E01DCF6CED72E0CE0136
:1027F00001960E94D60A2D962EAD3FAD2D978D8164
:102800009E812817390748F0BE016F5F7F4FCE01C8
:10281000895B9F4F0E943F0A182FCE0101960E94AC
:102820004408112389F1BE01695B7F4FCE018F5BA4
:102830009F4F0E94BC0A40E250E0BE016F5F7F4F95
:10284000CE018F5B9F4F0E941C0A62EC71E0CE01AB
:1028500001960E94291862EC71E090E080E00E94ED
:102860002918009709F4E0CE0E940B188F3F9105BC
:1028700011F008F0D9CE8093F4040E9413020E9454
:10288000E70A8BEE92E0CECE62E073E0CE01895B88
:102890009F4F0E94540A882309F45DC08FE093E0A3
:1028A0000E943D098091EB040E94D40884E293E0E9
:1028B0000E943D098091EC040E94D40884E293E0D8
:1028C0000E943D098091ED040E94D40886E293E0C5
:1028D0000E943D098091EE040E94D40884E293E0B6
:1028E0000E943D098091EF040E94D40884E293E0A5
:1028F0000E943D098091F0040E94D40882E393E095
:102900000E943D098091F1040E94D40884E293E082
:102910000E943D098091F2040E94D40884E293E071
:102920000E943D098091F3040E94D40880E493E062
:102930000E943D098091F7040E94D4088BE493E043
:102940000E943D098091F4040E94D40883E491E040
:102950000E9453086ECE64E573E0CE01895B9F4F01
:102960000E94540A882341F080910D01882309F4C4
:1029700060CE0E94BC095DCE60E673E0CE01895B4B
:102980009F4F0E94540A882361F08091FF048111B7
:1029900005C08091FE04882309F44BCE0E940309F0
:1029A00048CE6DE673E0CE01895B9F4F0E94540ACA
:1029B000882309F43ECE82E793E00E94DB0839CEFB
:1029C0008091FF04882339F08BEC93E00E94DB08B0
:1029D0000E940309ACCE80910005882321F086EE89
:1029E00093E00E94DB080E94E908A1CE80910505D2
:1029F000882369F10E94A30400910105109102054A
:102A00002091030530910405601B710B820B930B21
:102A1000653F71408105910508F48FCE1092050540
:102A20000E94FA07BC0190E080E00E94661820E056
:102A300030E044EB5DE30E94C7180E94421A6093A5
:102A40000E0170930F018093100190931101B30157
:102A500090E080E00E94661820E030E044EB5DE307
:102A60000E94C7180E94421A6B017C0190910005D8
:102A700080910D01882309F4D7C09111D5C00E941F
:102A8000A3040091D1041091D2042091D304309179
:102A9000D404601B710B820B930B653171058105AA
:102AA000910508F47CC02DEC3CEC4CE45DE36091B6
:102AB000CD047091CE048091CF049091D0040E94F7
:102AC000D6194B015C012BED3FE049EC50E40E942C
:102AD000781A18160CF49FC08092CD049092CE0400
:102AE000A092CF04B092D0046091CD047091CE0436
:102AF0008091CF049091D0040E947D1A20E030E0B4
:102B000040E85FE30E94D61920E030E040E05FE358
:102B10000E94C71820E030E040EA52E40E94C71843
:102B20000E94421A28E2260F8091F204289FC001D9
:102B30001124B2010E94211B362F8091F104289F9D
:102B4000C0011124B2010E94211B862E912CB12CB0
:102B5000A12CBA2CA92C982C8824A32A8091F304A8
:102B6000289FC0011124B2010E94211B862A10E077
:102B700000E0B501A401C8010E9404010F5F1F4FCE
:102B80000C301105B1F70E949E030E94A3046093CC
:102B9000D1047093D2048093D3049093D404809191
:102BA0000E0190910F01A0911001B0911101A701A8
:102BB0009601281B390B4A0B5B0BDA01C901B7FFE1
:102BC00007C0B095A095909581959F4FAF4FBF4F8F
:102BD0000297A105B1050CF425C131E03093000541
:102BE0000E94A3046093D5047093D6048093D70405
:102BF0009093D8041092DC041092DB04C0920E0172
:102C0000D0920F01E0921001F092110182E094E065
:102C10000E94DB0807C11092CD041092CE041092DE
:102C2000CF041092D00460CF8091FF04992309F45F
:102C3000FEC08111FFC080910E0190910F01A09103
:102C40001001B0911101A7019601281B390B4A0B05
:102C50005B0BDA01C901A901BD01B7FF07C0442719
:102C60005527BA01481B590B6A0B7B0B42305105A3
:102C7000610571050CF4B5C0853B9105A105B10551
:102C80000CF492C088569140A109B1092091DB044F
:102C90003091DC04820F931F97FD92C09093DC0467
:102CA0008093DB048091DB049091DC0489369140B1
:102CB00034F088E691E09093DC048093DB0480910B
:102CC000DB049091DC040F966EE170E00E94211B02
:102CD0008B016D30710514F00CE010E01016110638
:102CE00014F001E010E08091D9049091DA0480178B
:102CF000910709F46CC01093DA040093D904209171
:102D0000F704209FC001219F900D11249093E404AB
:102D10008093E30480E394E00E943D09C8010E948F
:102D2000A40884EC91E00E943D098091F7040E9480
:102D3000D40883ED91E00E943D098091E3049091D5
:102D4000E4040E94A40888E394E00E943D09809175
:102D5000DB049091DC040E94A40883E491E00E94CB
:102D600053080E94490810E000E08091D904909136
:102D7000DA04081719074CF50C30110531F1809170
:102D8000EC044091EB0450E070E060E0762F652F9A
:102D9000542F4427682B8091ED04482BC8010E94D2
:102DA00004010F5F1F4FE1CF8C343FEF9307A30760
:102DB000B3070CF06BCF88599E4FAF4FBF4F66CF14
:102DC0001092DC041092DB046DCF0E949E030E94DF
:102DD000A3046093D5047093D6048093D704909392
:102DE000D804C0920E01D0920F01E0921001F0922F
:102DF00011010E94A3040091D5041091D6042091E2
:102E0000D7043091D804601B710B820B930B6F3E7B
:102E100072408105910530F082E594E00E94DB0864
:102E20000E94BC096AE070E080E090E084CC8823D6
:102E300009F493C00E94A3047B018C018091E304F8
:102E40009091E404FCE3F89F4001F99F900C112459
:102E5000092C000CAA08BB088091E5049091E604B7
:102E6000A091E704B091E804A8019701281B390B51
:102E70004A0B5B0BCA01B90128EE33E040E050E099
:102E80000E94351B821A930AA40AB50AC501B4012F
:102E9000655C7F4F8F4F9F4F2CE330E040E050E068
:102EA0000E94351B8091E1049091E2048217930700
:102EB000E1F58091DD049091DE04A091DF04B091F2
:102EC000E004A8019701281B390B4A0B5B0BDA01C0
:102ED000C901883E9340A105B10508F4A3CF8091B4
:102EE000DD049091DE04A091DF04B091E004A8011C
:102EF0009701281B390B4A0B5B0BDA01C901883E8D
:102F00009340A105B10570F080910C0141E0842748
:102F100080930C01E092DD04F092DE040093DF0464
:102F20001093E0040E943F097DCF3093E204209388
:102F3000E10489288A288B2891F61092FF0441E049
:102F40004093FE04E092FA04F092FB040093FC0428
:102F50001093FD0482E794E05BCE8091FE04882309
:102F600009F460CF0E94A3044B015C018091FA0434
:102F70009091FB04A091FC04B091FD04A501940183
:102F8000281B390B4A0B5B0BDA01C9018A3F9105FB
:102F9000A105B10508F446CF8091F90431E08327FB
:102FA0008093F904882321F110E000E08091EF0480
:102FB0004091EE0450E070E060E0762F652F542FD2
:102FC0004427682B8091F004482BC8010E9404011B
:102FD0000F5F1F4F0C30110549F70E949E0380922E
:102FE000FA049092FB04A092FC04B092FD041ACF64
:102FF0000E944908F2CF80911B0690911C060E9406
:10300000181C809118069091190697FD03C060E086
:103010000C9448030895FC0188279927E89421918E
:103020002032E9F3293010F02E30C8F32B3241F072
:103030002D3239F4689404C00E945518820F911DF6
:10304000219120532A30C0F31EF4909581959F4F13
:10305000089548E256E00E942E180895FA01A191C1
:10306000B081009719F41097E1F0CD01DC01CD019A
:103070000D90002011F4C00113C0FB012191222307
:1030800019F02015D9F7F3CFFB012191201519F480
:103090001E92119606C02223C1F70D900020A1F7C1
:1030A000D001FA01A193B08308957AE0979F902D03
:1030B000879F802D910D1124089591110C9434193E
:1030C000803219F089508550C8F70895E89409C0F6
:1030D00097FB3EF490958095709561957F4F8F4F4B
:1030E0009F4F9923A9F0F92F96E9BB279395F69561
:1030F000879577956795B795F111F8CFFAF4BB0FDF
:1031000011F460FF1BC06F5F7F4F8F4F9F4F16C042
:10311000882311F096E911C0772321F09EE8872FCC
:10312000762F05C0662371F096E8862F70E060E088
:103130002AF09A95660F771F881FDAF7880F969501
:10314000879597F90895990F0008550FAA0BE0E8A5
:10315000FEEF16161706E807F907C0F01216130659
:10316000E407F50798F0621B730B840B950B39F499
:103170000A2661F0232B242B252B21F408950A26FF
:1031800009F4A140A6958FEF811D811D08950E942D
:10319000DA180C944E190E94401938F00E94471911
:1031A00020F0952311F00C9437190C943D1911243B
:1031B0000C9482190E945F1970F3959FC1F3950FCB
:1031C00050E0551F629FF001729FBB27F00DB11DAB
:1031D000639FAA27F00DB11DAA1F649F6627B00D3B
:1031E000A11D661F829F2227B00DA11D621F739F24
:1031F000B00DA11D621F839FA00D611D221F749F32
:103200003327A00D611D231F849F600D211D822F78
:10321000762F6A2F11249F5750409AF0F1F088239F
:103220004AF0EE0FFF1FBB1F661F771F881F9150CC
:103230005040A9F79E3F510580F00C9437190C942B
:1032400082195F3FE4F3983ED4F3869577956795AE
:10325000B795F795E7959F5FC1F7FE2B880F911DF6
:103260009695879597F9089599278827089597F94E
:103270009F6780E870E060E008959FEF80EC08951C
:1032800000240A9416161706180609060895002445
:103290000A9412161306140605060895092E0394BF
:1032A000000C11F4882352F0BB0F40F4BF2B11F433
:1032B00060FF04C06F5F7F4F8F4F9F4F089557FD92
:1032C0009058440F551F59F05F3F71F04795880F94
:1032D00097FB991F61F09F3F79F08795089512162B
:1032E00013061406551FF2CF4695F1DF08C01616D7
:1032F00017061806991FF1CF869571056105089488
:103300000895E894BB2766277727CB0197F908959E
:10331000F999FECF92BD81BDF89A992780B508959D
:10332000262FF999FECF1FBA92BD81BD20BD0FB6E1
:10333000F894FA9AF99A0FBE019608952F923F9247
:103340004F925F926F927F928F929F92AF92BF92B5
:10335000CF92DF92EF92FF920F931F93CF93DF9361
:10336000CDB7DEB7CA1BDB0B0FB6F894DEBF0FBEBE
:10337000CDBF09942A88398848885F846E847D840B
:103380008C849B84AA84B984C884DF80EE80FD800D
:103390000C811B81AA81B981CE0FD11D0FB6F89483
:1033A000DEBF0FBECDBFED0108955058BB27AA2741
:1033B0000E94ED190C944E190E94401938F00E9499
:1033C000471920F039F49F3F19F426F40C943D1965
:1033D0000EF4E095E7FB0C943719E92F0E945F1972
:1033E00058F3BA17620773078407950720F079F43A
:1033F000A6F50C9481190EF4E0950B2EBA2FA02D92
:103400000B01B90190010C01CA01A0011124FF2791
:10341000591B99F0593F50F4503E68F11A16F0408C
:10342000A22F232F342F4427585FF3CF469537958B
:103430002795A795F0405395C9F77EF41F16BA0B50
:10344000620B730B840BBAF09150A1F0FF0FBB1FFE
:10345000661F771F881FC2F70EC0BA0F621F731F47
:10346000841F48F4879577956795B795F7959E3FA4
:1034700008F0B0CF9395880F08F09927EE0F979535
:10348000879508950E94491A6894B1110C94821985
:1034900008950E94671988F09F5798F0B92F9927CF
:1034A000B751B0F0E1F0660F771F881F991F1AF02F
:1034B000BA95C9F714C0B13091F00E948119B1E0FA
:1034C00008950C948119672F782F8827B85F39F0F9
:1034D000B93FCCF3869577956795B395D9F73EF4C8
:1034E00090958095709561957F4F8F4F9F4F089570
:1034F0000E94A31808F48FEF08959F930E94871AE3
:103500000F9007FCEE5F0C94B01A0C943D190E94CA
:103510006719D8F3E894E0E0BB279F57F0F02AED55
:103520003FE049EC06C0EE0FBB0F661F771F881FF8
:1035300028F0B23A62077307840728F0B25A620B88
:10354000730B840BE3959A9572F7803830F49A9553
:10355000BB0F661F771F881FD2F790480C94C61ABE
:10356000EF93E0FF07C0A2EA2AED3FE049EC5FEBF2
:103570000E94ED190E944E190F90039401FC90587F
:10358000ECEAF0E00C94D21A9F3F31F0915020F415
:10359000879577956795B795880F911D969587952F
:1035A00097F908959F938F937F936F93FF93EF9372
:1035B0009B01AC010E94C718EF91FF910E94E61A8F
:1035C0002F913F914F915F910C94C718DF93CF9348
:1035D0001F930F93FF92EF92DF927B018C0168940F
:1035E00006C0DA2EEF010E94DA18FE01E894A591D8
:1035F0002591359145915591A6F3EF010E94ED1962
:10360000FE019701A801DA9469F7DF90EF90FF902F
:103610000F911F91CF91DF910895AA1BBB1B51E120
:1036200007C0AA1FBB1FA617B70710F0A61BB70B32
:10363000881F991F5A95A9F780959095BC01CD01D7
:10364000089597FB072E16F4009407D077FD09D054
:103650000E940D1B07FC05D03EF4909581959F4F6D
:103660000895709561957F4F0895A1E21A2EAA1BC7
:10367000BB1BFD010DC0AA1FBB1FEE1FFF1FA21722
:10368000B307E407F50720F0A21BB30BE40BF50B1F
:10369000661F771F881F991F1A9469F760957095A8
:1036A000809590959B01AC01BD01CF010895052E39
:1036B00097FB1EF400940E946E1B57FD07D00E94DA
:1036C000351B07FC03D04EF40C946E1B50954095AF
:1036D000309521953F4F4F4F5F4F089590958095BE
:1036E000709561957F4F8F4F9F4F0895EE0FFF1F8D
:1036F0000590F491E02D09940F931F93CF93DF93DE
:103700008230910510F482E090E0E0912C06F09177
:103710002D0630E020E0B0E0A0E0309799F42115CC
:10372000310509F44AC0281B390B24303105D8F57E
:103730008A819B816115710589F1FB0193838283E5
:10374000FE0111C040815181028113814817590740
:10375000E0F04817590799F4109761F012960C930E
:10376000129713961C933296CF01DF91CF911F9140
:103770000F91089500932C0610932D06F4CF211578
:10378000310551F04217530738F0A901DB019A01C6
:10379000BD01DF01F801C1CFEF01F9CF90932D06F4
:1037A00080932C06CDCFFE01E20FF31F81939193FE
:1037B0002250310939832883D7CF20912A063091AE
:1037C0002B06232B41F420911401309115013093E5
:1037D0002B0620932A062091120130911301211506
:1037E000310541F42DB73EB74091160150911701B4
:1037F000241B350BE0912A06F0912B06E217F30704
:10380000A0F42E1B3F0B2817390778F0AC014E5F50
:103810005F4F2417350748F04E0F5F1F50932B065C
:1038200040932A06819391939FCFF0E0E0E09CCFF4
:10383000CF93DF930097E9F0FC0132971382128255
:10384000A0912C06B0912D06ED0130E020E01097FC
:10385000A1F420813181820F931F20912A0630919B
:103860002B062817390709F061C0F0932B06E09367
:103870002A06DF91CF910895EA01CE17DF07E8F518
:103880004A815B819E0141155105B1F7E901FB8336
:10389000EA8349915991C40FD51FEC17FD0761F4D4
:1038A000808191810296840F951FE9019983888315
:1038B000828193819B838A83F0E0E0E012968D9170
:1038C0009C9113970097B9F52D913C911197CD01DB
:1038D0000296820F931F20912A0630912B062817FB
:1038E000390739F6309751F510922D0610922C06B3
:1038F000B0932B06A0932A06BCCFD383C28340810A
:103900005181840F951FC817D90761F44E5F5F4F2F
:1039100088819981480F591F518340838A819B81F7
:10392000938382832115310509F0B0CFF0932D06E2
:10393000E0932C069ECFFD01DC01C0CF13821282E2
:10394000D7CFB0E0A0E0E7EAFCE10C94A0198C012D
:10395000009751F4CB010E947C1B8C01C801CDB7AC
:10396000DEB7E0E10C94BC19FC01E60FF71F9C01E7
:1039700022503109E217F30708F49DC0D901CD9117
:10398000DC911197C617D70798F0C530D10530F3F1
:10399000CE0104978617970708F3C61BD70B22970B
:1039A000C193D1936D937C93CF010E94181CD6CF05
:1039B0005B01AC1ABD0A4C018C0E9D1EA0912C0619
:1039C000B0912D06512C412CF12CE12C109731F5A2
:1039D00080912A0690912B068815990509F05CC004
:1039E0004616570608F058C08091120190911301B5
:1039F000009741F48DB79EB7409116015091170181
:103A0000841B950BE817F90708F055C0F0932B06B7
:103A1000E0932A06F90171836083A0CF8D919C9178
:103A2000119712966C90129713967C901397A81585
:103A3000B90559F56C0142E0C40ED11CCA14DB046F
:103A400020F1AC014A195B09DA011296159780F052
:103A50006282738251834083D9016D937C93E11418
:103A6000F10471F0D7011396FC93EE93129776CF81
:103A700022968C0F9D1FF90191838083F301EFCF74
:103A8000F0932D06E0932C0669CF4816590608F4EA
:103A90002C017D01D3019ACFCB010E947C1B7C01BC
:103AA000009749F0AE01B8010E945E1DC8010E9456
:103AB000181C870153CF10E000E050CFFB01DC0160
:103AC00002C001900D9241505040D8F70895DC019A
:103AD00001C06D9341505040E0F70895FB01DC01B7
:103AE0008D91019080190110D9F3990B0895FB0174
:103AF000DC0101900D920020E1F70895FB01DC014B
:103B00004150504030F08D910190801919F40020FF
:103B1000B9F7881B990B0895FB01DC014150504017
:103B200048F001900D920020C9F701C01D9241504C
:103B30005040E0F7089510E0C9EDD0E004C0FE0168
:103B40000E94761B2196CA3DD107C9F7F894FFCF92
:103B5000FFFFFFFF00E1000000000000010119FC71
:103B6000FFFF00002E06800000C1808100000000E1
:103B7000000000C6054105E705DC055F06EB053BD7
:103B800006000000000107D4066207B1060C02C15E
:103B900006B2060D0A0054696D657220736574746F
:103BA000696E672063616E63656C6C65640054497F
:103BB0004D45525F43414E43454C4C4544004252B3
:103BC000494748540044494D0054494D455F4C45D0
:103BD00046543A2000206D696E757465732C20661A
:103BE000756C6C20696E74657276616C7320726599
:103BF0006D61696E696E673A20002C20626C696E97
:103C00006B3A200054494D45525F5354415254453C
:103C1000443A200020696E74657276616C7320C32B
:103C2000972000206D696E75746573203D2000201B
:103C30006D696E7574657320746F74616C004D618D
:103C4000676E6574206E6F74206465746563746557
:103C5000642E2057616974696E672E2E2E004D61A7
:103C6000676E65742064657465637465642E004DC9
:103C7000414754494D45525F5245414459005345CF
:103C8000545F434F4C4F52004D414754494D4552AC
:103C90005F414354495645004D414754494D4552B3
:103CA0005F464C415348004D414754494D45525F92
:103CB0005354414E444259004552524F523A2049C2
:103CC0006E76616C696420636F6C6F72206D6F64D7
:103CD00065004F4B3A20436F6C6F722075706461C2
:103CE000746564005345545F4D414754494D4552F6
:103CF0005F494E54455256414C004F4B3A20496E55
:103D000074657276616C20757064617465640045D9
:103D100052524F523A20496E74657276616C206D32
:103D200075737420626520312D3130005345545F26
:103D30004252494748544E455353004F4B3A204254
:103D400072696768746E65737320757064617465F9
:103D500064004745545F53455454494E47530053FC
:103D6000455454494E47533A4143544956455F439D
:103D70004F4C3D002C007C464C4153485F434F4C18
:103D80003D007C5354414E4442595F434F4C3D00EB
:103D90007C494E54455256414C3D007C4252494765
:103DA00048543D0053544152545F54494D455200CC
:103DB00043414E43454C5F54494D45520050494E96
:103DC00047004D414754494D45525F504F4E4700C3
:103DD0003D3D3D20544150204445544543544544C5
:103DE000202D2050524F43455353494E47203D3DCF
:103DF0003D0053746F7070696E6720666C61736804
:103E0000696E672E2E2E0052455455524E45445F22
:103E1000544F5F5354414E4442590043616E6365B1
:103E20006C6C696E67206163746976652074696D76
:103E300065722E2E2E0043616E63656C6C696E6731
:103E40002074696D65722073657474696E672E2EB7
:103E50002E0054696D65722073657474696E6720F5
:103E600073746172746564202D207475726E206B9A
:103E70006E6F6220746F207365742074696D6500C5
:103E800054696D65723A2000206D696E75746573B2
:103E900020746F74616C2C20646567726565733A79
:103EA00020005374617274696E672074696D657265
:103EB000206175746F6D61746963616C6C792E2E0D
:103EC0002E0054494D45525F46494E49534845449A
:023ED0000000F0
:00000001FF
