:100000000C94D7000C94FF000C94FF000C94FF009C
:100010000C94FF000C94FF000C94FF000C94FF0064
:100020000C94FF000C94FF000C94B00C0C941F0D6A
:100030000C94FF000C94FF000C94FF000C94FF0044
:100040000C94FF000C94FF000C94FF000C94FF0034
:100050000C94510F0C94FF000C94FF000C94660C50
:100060000C94FF000C94FF000C94FF000C94FF0014
:100070000C94FF000C94FF000C94FF000C94FF0004
:100080000C94FF000C94FF000C94FF000C94FF00F4
:100090000C94760F0C94FF000C94FF000C94FF005E
:1000A0000C94FF000C94FF000C94FF00080B00025E
:1000B0000202010009040000010202000005240000
:1000C0001001052401010104240206052406000193
:1000D0000705810310004009040100020A00000026
:1000E00007050202400000070583024000000403E8
:1000F000090412010002EF0201400912534D0001F0
:1001000001020301486179726954656368004D61B9
:10011000675363726F6C6C000000000024002700BE
:100120002A002D0030000000000200090F0000032B
:100130000401000C000000000000000000000000AE
:100140000000000000050C0901A10185041500262E
:10015000FF0319002AFF03950475108100C00408ED
:1001600002011040804010204080408008020401BD
:10017000804020100201108010204040200000002C
:1001800000250028002B002E003100040404040484
:10019000030405020202020403020202020606062A
:1001A00006060604040202020404C81057181124AB
:1001B0001FBECFEFDAE0DEBFCDBF14E0A0E0B1E0BC
:1001C000EEEBFAE302C005900D92A830B107D9F723
:1001D00025E0A8E0B4E001C01D92AC3DB207E1F714
:1001E00010E0C6EDD0E004C02197FE010E94261B5E
:1001F000C53DD107C9F70E9416120C94521D0C94EC
:1002000000004F925F926F927F928F929F92AF9277
:10021000BF92FF922091C2053091C30582179307C8
:1002200008F043C02B0166247724852E962EA72E36
:10023000BB24B82DA42F2091C805F42C222391F0C3
:10024000E22FF0E0E49DD001E59DB00DF49DB00DEE
:100250001124FB2E289D40011124B92D249F9001CB
:100260001124A32FE091CE052091C9053091CA0534
:100270005091CB05E51323C0FC01EE0FFF1F8E0F3D
:100280009F1F820F931FE091CB05E80FF92FF11DFF
:10029000F082E091CC05E80FF92FF11DB083209199
:1002A000CD05820F911DFC01A083FF90BF90AF9000
:1002B0009F908F907F906F905F904F900895880FE0
:1002C000991F880F991F820F931FE80FF92FF11DB7
:1002D0001082D9CF1F93CF93DF9311E0180F209195
:1002E000C8051217A1F1C091C905D091CA052150C6
:1002F00070E060E061F08F3FF1F430E050E040E00A
:100300006FEF7FEF80E090E00E94D619B901FE0107
:100310004091C4055091C505CF018C1B9D0B8417DE
:10032000950798F44081469FC001479F900D112486
:1003300090833196EDCF812F90E0982F88270197F9
:10034000622F70E00E94FE1AE2CF1093C805DF9181
:10035000CF911F910895982F2091110581E02132AE
:1003600008F043C08091ED048111FCCF809110050D
:1003700032E03093ED049093EC049FEF9093EB0404
:100380001092EA042093E904A0EFB4E0E9ECF4E071
:1003900090E0291331C01092C8049091C804880FCE
:1003A000892B8093C8048091C704813049F510924D
:1003B000C7048091C8048093BB008091BC0083FD7A
:1003C000F8CF85EC8093BC008091ED048230E1F39E
:1003D0008091EB048F3FB1F08091EB048032A1F06B
:1003E0008091EB04803391F084E01092EF0410923E
:1003F00011051092EE0408953D9131939F5FC9CF8E
:1004000085EEE0CF80E0F1CF82E0EFCF83E0EDCF6B
:100410008091A5049091A604891B990B08950895D5
:100420000895CF93DF93FC01818190916605482F59
:10043000490F5527551F483051059CF5A281B381BE
:10044000109709F522E635E033832283208120933B
:1004500064058093650580916705820F80832091F4
:100460006805A22FB09169058A2F821B8917E8F4CD
:1004700081813D91C82FD0E0C25FDE4F38838F5F0E
:100480008183F2CFD90118962D913C9119972115AE
:100490003105C1F722E635E019963C932E93189763
:1004A000D5CF80E0DF91CF91089581E0FBCFFC01B3
:1004B0008091A004882311F13FB7F89482E08093E3
:1004C000E9002091F200822F90E01816190614F42A
:1004D00081E090E0882339F0289844E640939F0417
:1004E0004091F1004083222339F02091F200211144
:1004F00003C02BE62093E8003FBF08958FEF9FEFE6
:100500000895282F30E0F901EA5DFE4F9491F9013A
:10051000E25AFE4F849125573E4FF9012491222340
:1005200009F430C09923E9F091509F30D0F4E92FBD
:10053000F0E0E356FD4F0C94261BCB02CF02AC0239
:10054000C302C702B102B102B102D202D802DC0278
:10055000E002E602B102EA02909180009F77909358
:100560008000E22FF0E0EE0FFF1FE358FE4FA59151
:10057000B4919FB7F894EC91611132C080958E23AD
:100580008C939FBF0895909180009F7DE8CF9091BC
:100590008000977FE4CF94B59F7794BDE2CF94B568
:1005A0009F7DFBCF909190009F7790939000D9CF43
:1005B000909190009F7DF9CF90919000977FF5CF1B
:1005C0009091C0009F779093C000CBCF9091C000D6
:1005D0009F7DF9CF9091C200977F9093C200C1CFC9
:1005E0008E2BCECF1092A6041092A5041092EF0489
:1005F000109211051092ED0481E08093EC041092AA
:10060000C70461E082E00E94810261E083E00E9411
:100610008102E9EBF0E080818E7F808380818D7F95
:10062000808388E48093B80085E48093BC008FE0E9
:1006300092E09093A4048093A30480E192E09093CD
:10064000A2048093A1040895CF93DF9390E0FC016E
:10065000E25AFE4F249185579E4FFC0184918823D6
:10066000D1F090E0880F991FFC01E85EFE4FA59144
:10067000B491FC01E358FE4FC591D49161110EC0B5
:100680009FB7F8948C91E22FE0958E238C9328816C
:10069000E223E8839FBFDF91CF9108958FB7F8944D
:1006A000EC91E22BEC938FBFF6CF3FB7F89480919B
:1006B0009B0490919C04A0919D04B0919E0426B54A
:1006C000A89B05C02F3F19F00196A11DB11D3FBF8A
:1006D000BA2FA92F982F8827BC01CD01620F711D59
:1006E000811D911D42E0660F771F881F991F4A9553
:1006F000D1F708950F931F93CF93DF93CDB7DEB754
:1007000029970FB6F894DEBF0FBECDBF8091C90503
:100710009091CA05892B09F47CC00E945503009171
:10072000CF051091D0052091D1053091D2056017E9
:1007300071078207930740F46093CF057093D0054B
:100740008093D1059093D2050091CF051091D005EB
:100750002091D1053091D205601B710B820B930B58
:100760006C32714081059105C0F2F8948091C40506
:100770009091C5059A838983E091C905F091CA05D6
:10078000DF011196808189879091C005E091D305A2
:10079000F091D4058091D505992309F445C0908145
:1007A000982B98879081809589238F838F818C8364
:1007B00088E08B8358856F8149853B812C818981B5
:1007C0009A81508347FD252F3A952083262F39F0B3
:1007D000441F00C000006083000000C0F2CF38E07A
:1007E0004D9160830000019761F7F093D405E09389
:1007F000D30549873B832C839A83898378940E940D
:1008000055036093CF057093D0058093D1059093E5
:10081000D20529960FB6F894DEBF0FBECDBFDF918B
:10082000CF911F910F9108959081982B9887908177
:10083000809589238F838F818E8388E08D8358856F
:100840006F8149853D812E8189819A81508347FD41
:10085000252F00C000C0208300C000C000C000C021
:1008600000C060830000262F3A9541F0441F00002D
:1008700000C000C000C000C000C0E8CF38E04D910B
:1008800000C0608300C0019709F7F093D405E0939E
:10089000D30549873D832E83AFCFCF92DF92EF926E
:1008A000FF920E9455036B017C010E9455036C1955
:1008B0007D098E099F09683E734081059105A8F363
:1008C000FF90EF90DF90CF9008952FB7F89460914C
:1008D0009704709198048091990490919A042FBF85
:1008E000089540915B0450915C042091590430912B
:1008F0005A0442175307B4F49091E8009570E1F35D
:100900009091E80092FD19C08093F10080915B0402
:1009100090915C0401968F739927892B19F48EEFBF
:100920008093E80080915B0490915C040196909321
:100930005C0480935B0481E0089580E00895DF9279
:10094000EF92FF920F931F93CF93DF93D82E8A01DC
:10095000EB017B01E40EF51ECE15DF0559F0D7FE45
:1009600012C0FE0184910E94710421968111F4CF7E
:100970000FEF1FEFC801DF91CF911F910F91FF90F3
:10098000EF90DF9008958881EECF2FB7F8948770AD
:100990008093E9009091E800892F807295FF04C050
:1009A0009091F20080E4891B2FBF08957F928F926F
:1009B0009F92AF92BF92CF92DF92EF92FF920F93EE
:1009C0001F93CF93DF93C82E8B017A018091A004EF
:1009D000811110C08FEF9FEFDF91CF911F910F9189
:1009E000FF90EF90DF90CF90BF90AF909F908F904F
:1009F0007F90089580915F0480FF05C08091E000A2
:100A000082608093E000CE2DDF2DD12C8AEFB82EAE
:100A10008C2D8770982E8C2D8072882E8C2D807452
:100A2000782E9AE3A92E209719F4DD2009F44EC000
:100A30008C2D0E94C504811106C0BA94BB2051F2CE
:100A40000E944D04F0CF8C171D0611F00CF08C2F76
:100A50009FB7F8949092E9002091E80025FD02C02C
:100A60009FBFE1CF282F30E0C21BD30B882029F095
:100A70008150A0F01092F100FBCFF801C7FC0AC032
:100A8000815050F041914093F100FACF449140934E
:100A9000F10031968150D0F7020F131FDD2021F0B5
:100AA000A092E800D12CDCCF8091E80085FD07C042
:100AB000A092E800DD24D394209791F2F3CF209701
:100AC00079F6772069F2A092E800CACF5D9884E6B3
:100AD00080935E04C70180CF615030F02091F10017
:100AE000FC0120830196F8CF289884E680939F0428
:100AF00008958091510481110DC082E080934D04CE
:100B000084E080934E041092500410924F0481E0D0
:100B1000809351048DE494E008950F931F93CF9335
:100B2000DF931F92CDB7DEB782E0898342E450E0C5
:100B30006CEA70E080E80E949F040E947905DC0165
:100B400012960D911C910115110589F0D801ED91B6
:100B5000FC910280F381E02DBE016F5F7F4FC801E1
:100B6000099597FD04C0F80100851185ECCF8981B6
:100B70000F90DF91CF911F910F910895CF93DF9345
:100B8000EC0180910D01882331F083E00E94D604AE
:100B90001816190634F081E090E09B838A8380E088
:100BA00090E0DF91CF910895CF93DF931F92CDB75F
:100BB000DEB76983DC01ED91FC910280F381E02DC9
:100BC00041E050E0BE016F5F7F4F09950F90DF91CC
:100BD000CF91089583E08093E9008091F20088230B
:100BE00019F08AE38093E800089583E00E94C50429
:100BF00090E00895CF93DF931F92CDB7DEB7FC014D
:100C00008485958597FD08C02FEF3FEF35872487B2
:100C10000F90DF91CF910895CE0101960E94570267
:100C2000019719F4898190E0F3CF8FEF9FEFF0CF18
:100C30000F931F930E94650460931A0570931B0520
:100C400080931C0590931D0582E195E00E94FA05B2
:100C500097FF1DC00E94650400911A0510911B05A5
:100C600020911C0530911D05601B710B820B930BAD
:100C7000009116051091170520911805309119055E
:100C80006017710782079307F8F28FEF9FEF1F91AC
:100C90000F9108950F931F93CF93DF931F92CDB7BA
:100CA000DEB78C01FC018485958597FF0BC0CE01D2
:100CB00001960E945702019771F4898190E0F80132
:100CC00095878487F801848595850F90DF91CF9172
:100CD0001F910F9108958FEF9FEFF1CFFC01848555
:100CE000958597FD0BC09FB7F89482E08093E9004B
:100CF0008091F2009FBF90E0019608959FB7F8940D
:100D000082E08093E9008091F2009FBF90E0089517
:100D10008EBD00000DB407FEFDCF8EB50895DC0139
:100D2000FB0112962C911297848195812817190640
:100D300041F491818081813A31F49D7F81E091304D
:100D400009F080E008958132E1F79B3029F4828137
:100D50001F968C9381E008959A3099F7828150967E
:100D60008C93F8CFDC01FB0188E4808389E48183E4
:100D700084E482831D969C911D979F709F5B938353
:100D80001D968D919C9124E0969587952A95E1F783
:100D90008F708F5B848385E00895EF92FF920F93AD
:100DA0001F93CF93DF93FB012081213871F52381BD
:100DB000223259F5DC0112964C912481358142177B
:100DC000130619F5EC010B851C85F12CE12C01159E
:100DD000110589F0F801448155816281738180E8B1
:100DE0000E949F048F3F980749F0E80EF91ED80132
:100DF0000D911C91ECCF81E08F87C701DF91CF91DE
:100E00001F910F91FF90EF90089590E080E0F6CF52
:100E1000CF93DF93CDB7DEB769970FB6F894DEBFF7
:100E20000FBECDBFFC01DB018C918F5F8C939E01C7
:100E30002D5F3F4F8DE0D9011D928A95E9F729E09A
:100E4000298384E08A8391E09D8383E08E832A87CF
:100E500021E22B879C879D879F8722E2288B27E0B2
:100E60002B8B25E02C8B8E8B20E430E0388F2F8B62
:100E7000998F82818B8395858685998B8A8B8381D7
:100E800080688D8B49E150E0BE016F5F7F4F80E04D
:100E90000E949F0469960FB6F894DEBF0FBECDBFC7
:100EA000DF91CF910895CF92DF92EF92FF921F933F
:100EB000CF93DF931F92CDB7DEB77B016A0180919C
:100EC000730581112AC011E0109366051093670520
:100ED0008CE695E0909369058093680510926B0508
:100EE00010926A0581E391E0909363058093620517
:100EF00010926E0510926D051092700510926F059C
:100F0000109371051093720581EC80936C050E941B
:100F100079050E9411021093730584E0898341E0F2
:100F200050E0BE016F5F7F4F809165050E94D6043F
:100F300097FD07C080916505A601B70180640E94F6
:100F4000D6040F90DF91CF911F91FF90EF90DF902B
:100F5000CF900895CF93DF93EC01EBE8F5E090E0BC
:100F600080E0219131910196232B41F5880F991F43
:100F7000FC01E757FA4FD183C08348E050E06BE8AB
:100F800075E089E895E00E945307E9E8F5E081E91A
:100F900095E022813381C217D30711F413821282A4
:100FA00032968E179F07A9F748E050E06BE875E08E
:100FB00089E895E0DF91CF910C9453078430910537
:100FC00081F6DBCF85ED8093BC008091BC0084FD71
:100FD000FCCF1092ED04089520912A04260F3327A8
:100FE000331F21323105ECF42091ED04FC0190E037
:100FF00080E0243069F082E00895A0912A042191D4
:10100000AC01465F5B4FA40FB52FB11D2C93019629
:10101000861798F380912A04680F60932A0480E071
:10102000089581E008950895E091A6048091A504B3
:10103000E81730F4F0E0E955FB4F808190E0089527
:101040008FEF9FEF08959091A6048091A5042FEF54
:101050003FEF981748F4E92FF0E0E955FB4F208166
:1010600030E09F5F9093A604C9010895CF92DF926C
:10107000EF92FF920F931F93CF93DF937C01CB01ED
:101080008A012091EE04222389F0EB016B01C40E4A
:10109000D51ECC15DD0569F06991D701ED91FC9164
:1010A0000190F081E02DC7010995F3CF642F0E94D4
:1010B000EC07C801DF91CF911F910F91FF90EF9046
:1010C000DF90CF900895CF93DF931F92CDB7DEB717
:1010D00069832091EE042223F9F02091110520323A
:1010E00058F021E030E0FC013383228390E080E07F
:1010F0000F90DF91CF9108958091EF04E82FF0E0F9
:10110000E051FB4F998190838F5F8093EF04809330
:10111000110581E090E0ECCF61E0CE0101960E94E4
:10112000EC07F7CFCF93DF93D82FC62F8091BB0565
:101130008823C9F081E08093EE0483E58093100555
:101140001092EF04109211056D2F83E995E00E9433
:1011500063086C2F83E995E00E94630881E0DF91CA
:10116000CF910C94AB0160E08091B9050E9481029F
:101170008D2F0E9488068C2F0E94880661E0809146
:10118000B905DF91CF910C94810290E080E0089541
:101190008F929F92AF92BF92CF92DF92EF92FF9287
:1011A00060917D0470E090E080E00E94C41820E02F
:1011B00030E04FE753E40E945D1A4B015C016091FF
:1011C000730470E090E080E00E94C418A5019401CF
:1011D0000E94FF180E94CF1AC62ED12CF12CE12CB0
:1011E0007601DD24CC246091740470E090E080E00E
:1011F0000E94C418A50194010E94FF180E94CF1AF2
:10120000D62A6091750470E090E080E00E94C418D6
:10121000A50194010E94FF180E94CF1A46015701B0
:10122000862AF12CE12CB501A401C7010E9401011D
:101230008FEFE81AF80A8CE0E816F104A1F7FF90A6
:10124000EF90DF90CF90BF90AF909F908F900C94D5
:101250007A03CF92DF92EF92FF92CF93DF93C42E67
:10126000D12CF12CE12CD62AE82AD0E0C0E0B7013D
:10127000A601CE010E9401012196CC30D105B9F71B
:10128000DF91CF91FF90EF90DF90CF900C947A0395
:1012900080919104882341F0409178046091770413
:1012A000809176040C94290940917B0460917A0422
:1012B00080917904F7CFEBE6F4E080E09191892703
:1012C00094E0EE37F907D1F708959C018091ED0481
:1012D0008111FCCF462F81E08093ED048093EC04D4
:1012E0009FEF9093EB041092EA04960F9093E90419
:1012F0008093C8049091C804220F331F892F822B3A
:101300008093C8048091C704813019F51092C704F6
:101310008091C8048093BB008091BC0083FDF8CF0E
:1013200085EC8093BC008091ED048130E1F38091E5
:10133000EA04861710F44091EA04A9ECB4E0E7EA65
:10134000F4E080E0841307C01092A6048093A50403
:10135000089585EEE6CF9D9191938F5FF3CF0F9324
:101360001F93CF93DF93182FEB018091BB05882348
:10137000B1F181E08093EE0483E580931005109233
:10138000EF0410921105612F83E995E00E94630834
:1013900081E00E94AB0161E070E083E590E00E9493
:1013A00065098E01C8018C1B9D0B3091A50420910D
:1013B000A604321741F083E995E00E942308F80162
:1013C00081938F01EFCF019729F01092A50581E05D
:1013D0008093A605DF91CF911F910F91089560E052
:1013E0008091B9050E948102812F80680E94880641
:1013F00080E00E948806888361E08091B905DF91D2
:10140000CF911F910F910C948102FF920F931F9324
:10141000CF93DF931F92CDB7DEB7182FF62E042F90
:10142000BE016F5F7F4F0E94AF0921E030E001C035
:10143000220FFA94EAF78981002369F0822B8983CD
:101440006981812F0E9492080F90DF91CF911F91A7
:101450000F91FF90089520958223F1CFCF93DF93D2
:1014600081E08093EE0486E3809310051092EF04F0
:10147000109211056CE083E995E00E94630881E019
:101480000E94AB0162E070E086E390E00E94650993
:101490008091A5049091A604891B990B029781F471
:1014A00083E995E00E942308D82F80E0C82F83E9C4
:1014B00095E00E9423088C2B9D2BDF91CF910895FE
:1014C00090E080E0FACFFC01808191810C94CF1BE9
:1014D000CF93DF93C82F4091C4055091C50570E0AC
:1014E00060E08091C9059091CA050E941E1D8091FF
:1014F000080490910904CC2399F130917004409133
:101500007104209172040B966CE070E00E94121B33
:101510009093090480930804C0910804D0910904B1
:1015200050E070E060E0762F652F542F4427632B46
:10153000422BCE010E940101809100019091010196
:101540008F3F980729F040E050E0BA010E94010166
:10155000D0930101C0930001DF91CF910C947A03E5
:1015600030916D0440916E0420916F040196CCCFB0
:10157000FC0101900020E9F73197AF01481B590B9E
:10158000BC0182E195E00C94BE058F929F92AF92D0
:10159000BF920F931F93CF93DF93CDB7DEB7A19781
:1015A0000FB6F894DEBF0FBECDBF19A2423008F4CB
:1015B0004AE08E010F5D1F4F842E912CB12CA12C7F
:1015C000A50194010E942C1AE62FB901CA01EA3044
:1015D000F4F4E05DD801EE938D01232B242B252B11
:1015E00079F790E080E0109719F0CD010E94B80AD9
:1015F000A1960FB6F894DEBF0FBECDBFDF91CF919D
:101600001F910F91BF90AF909F908F900895E95CCC
:10161000E1CF682F70E090E080E04AE00C94C50ACA
:10162000CF92DF92EF92FF92CF93DF936B017C0119
:101630006DE282E195E00E94D405EC0166277727F0
:10164000CB016C197D098E099F094AE00E94C50AE9
:101650008C0F9D1FDF91CF91FF90EF90DF90CF9087
:101660000895BC01990F880B990B97FD0C94100BF2
:101670004AE00C94C50ACF93DF930E94B80AEC01AC
:1016800081E591E00E94B80A8C0F9D1FDF91CF91F8
:1016900008950C94B80A0F931F93CF93DF93FC0126
:1016A000048115810115110539F4FB011082DF91C8
:1016B000CF911F910F910895415051094017510743
:1016C00008F48A01EB01FC0160817181A801CE015F
:1016D0000E94431DC00FD11F1882E9CFFC01248155
:1016E0003581232B39F421E0FB018081882349F0E7
:1016F00020E007C0808191810E94251D21E0892B77
:10170000B9F7822F0895FB0144815581FC012481A2
:1017100035812417350778F080819181009759F041
:10172000FB01608171816115710529F00E94351DF1
:1017300021E0892B09F020E0822F08950F931F9359
:10174000CF93DF93EC0188819981009759F02A812A
:101750003B812617370730F081E0DF91CF911F9151
:101760000F9108958B016F5F7F4F0E94581C009767
:1017700059F0998388831B830A832C813D81232B15
:1017800059F7FC011082E8CF80E0E7CFEF92FF929B
:101790000F931F93CF93DF93EC017B018A01BA0172
:1017A0000E949E0B28813981811114C021153105B9
:1017B00019F0C9010E94CF1B198218821D821C8258
:1017C0001B821A82CE01DF91CF911F910F91FF9062
:1017D000EF9008951D830C83B701C9010E942E1D4F
:1017E000F1CFFB01DC0111961C921E9213961C9204
:1017F0001E92129715961C921E92149786179707A1
:1018000049F0608171816115710521F04481558134
:101810000C94C60B0895FC0111821082138212826F
:1018200015821482FB0101900020E9F73197AF0186
:10183000461B570B0C94C60BFF920F931F93CF932D
:10184000DF930E945B0980937E040BE614E0D0E0F6
:10185000C0E0F801F1908F01CE010E94C019F81686
:1018600021F06F2DCE010E94C8192196C431D105F7
:1018700081F7DF91CF911F910F91FF900895CF9342
:10188000DF93CBE6D4E01A8288EC8B831C821D8226
:101890001E828F8390E8988799879A879FEF9B870E
:1018A0001C861D869E8798E79F87188A898B82E30E
:1018B0008A8B0E941C0C89890E946A010E94480937
:1018C00084E591E0DF91CF910C943B0B1F920F9236
:1018D0000FB60F9211242F933F938F939F93AF9343
:1018E000BF938091970490919804A0919904B0912E
:1018F0009A043091960423E0230F2D3758F5019672
:10190000A11DB11D20939604809397049093980491
:10191000A0939904B0939A0480919B0490919C04A5
:10192000A0919D04B0919E040196A11DB11D8093CC
:101930009B0490939C04A0939D04B0939E04BF913C
:10194000AF919F918F913F912F910F900FBE0F906C
:101950001F90189526E8230F0296A11DB11DD2CF26
:101960001F920F920FB60F9211248F939F93809125
:10197000E1009091E100937F9093E10083FF0FC01D
:101980001092E90091E09093EB001092EC0092E34A
:101990009093ED001092A00498E09093F00082FFE5
:1019A00022C093E09093E9009091F200992319F0FE
:1019B0009AE39093E80090915E04992341F090910E
:1019C0005E04915090935E04911101C05D9A9091D4
:1019D0009F04992341F090919F04915090939F040C
:1019E000911101C0289A84FF18C08091E2008E7E78
:1019F00081608093E2008091E1008F7E8093E1001E
:101A000080915F048E7E806180935F049F918F91AF
:101A10000F900FBE0F901F90189580FFF7CF809109
:101A2000E2008E7E80618093E2008091E1008E7EF4
:101A30008093E10080915F048E7E8160E5CF1F92EC
:101A40000F920FB60F921124CF92DF92EF92FF9276
:101A50000F931F932F933F934F935F936F937F93B6
:101A60008F939F93AF93BF93EF93FF93CF93DF93A6
:101A7000CDB7DEB76C97DEBFCDBF1092E900809185
:101A8000E80083FF25C068E0CE0145960E946C0502
:101A900082EF8093E8008D8987FF39C09091E8003C
:101AA00090FFFCCF982F907609F034C19E894F8922
:101AB000588D2F89F88C911131C0803861F5809153
:101AC00060048093F1001092F1008EEF8093E800A3
:101AD0006C960FB6F894DEBF0FBECDBFDF91CF91ED
:101AE000FF91EF91BF91AF919F918F917F916F91F6
:101AF0005F914F913F912F911F910F91FF90EF9028
:101B0000DF90CF900F900FBE0F901F9018959EEF13
:101B10009093E800C7CF1092F100D5CF913059F4DF
:101B20008111D3CF4130510581F6809160048D7FC2
:101B300080936004CACF933049F48111C6CF4130FD
:101B4000510519F6809160048260F2CF953041F41E
:101B50008091E80080FFFCCF20682093E300B5CFA0
:101B6000963009F0A9C00B8D1C8D22E01092E9007F
:101B700010925C0410925B04F2122EC010925A0470
:101B8000109259040E948D051F8299E09983FA8270
:101B900091E09E8390EA98879AEF998720915B0461
:101BA00030915C04275F3F4F3C832B838D831092E1
:101BB000E90010925C0410925B0410935A040093A5
:101BC000590449E050E0BE016F5F7F4F80E00E9402
:101BD0009F040E948D0579CF10935A0400935904F5
:101BE0000E947905DC0112960D911C9101151105D9
:101BF00009F451C1D801ED91FC910480F581E02DEB
:101C0000BE016B5E7F4FC8010995009709F03EC188
:101C1000F80100851185EACFF3E0FF120EC08F892D
:101C2000882309F440C0823061F440E869E08EE026
:101C300091E00E949510811148CF81E28093EB00E2
:101C400047CF813029F440E869E084E091E0F1CFAA
:101C5000833099F70E947905DC011296ED90FC9093
:101C60008E010F5F1F4F6801E114F10479F0D70175
:101C7000ED91FC910680F781E02DB801C70109952F
:101C8000080F111DF701E084F184EECFD8011C92FA
:101C9000F60101900020E9F73197BF016C197D0929
:101CA00040E0C601C6CF6EEE70E0FB01449150E00B
:101CB00080E80E949F0409CF973009F4BECF983086
:101CC00021F481E08093F10000CF993009F0FDCE3E
:101CD000837009F0B2CFEFE0F1E081E031E096E30C
:101CE0002191222371F08093E9003093EB00DF0112
:101CF00011972C912093EC009093ED008F5F87302B
:101D000079F78EE78093EA001092EA008F8980933A
:101D1000A004DBCE8B8D9C8D1092E90010925C04A8
:101D200010925B0490935A0480935904898D811119
:101D300092C08E899D89913A49F4813209F07DCF14
:101D400047E050E066E071E080E0B3CF913209F007
:101D500074CF833269F48F89988DB0E0A0E08093CE
:101D6000020190930301A0930401B0930501ADCE4D
:101D7000803269F48091E80082FFFCCF67E086E062
:101D800091E00E946C058BEF8093E8009ECE82323A
:101D900009F09BCE8F8980930D01EEEFFFE78591CF
:101DA00094918B3F9C4D51F1E0E0F8E08091060169
:101DB00090910701A0910801B0910901803B9440E6
:101DC000A105B105F1F480910D0180FD1AC0EE3F2F
:101DD0008AE0F80789F587E797E791838083809108
:101DE000600080935D0488E19BE00FB6F894A895AD
:101DF000809360000FBE9093600067CEEEEFFAE034
:101E0000D5CF808191818737974709F05ECEA8951D
:101E10008091600088618093600080915D04809370
:101E20006000EE3F2AE0F20789F08091FE0A90916F
:101E3000FF0A9183808349CE8081918187379807FB
:101E400051F29093FF0A8093FE0AC5CF1092FF0AC9
:101E50001092FE0A3ACE0E947905DC0112960D918D
:101E60001C910115110509F4E8CED801ED91FC9102
:101E70000190F081E02DBE016B5E7F4FC801099596
:101E8000811123CEF80100851185EBCF18161906B4
:101E90000CF41BCED2CEF1E0FF12BECE62EF70E0AA
:101EA00004CF1F920F920FB60F9211242F933F93DE
:101EB0004F935F936F937F938F939F93AF93BF9352
:101EC000EF93FF93F0E0E0E00995FF91EF91BF9170
:101ED000AF919F918F917F916F915F914F913F91C2
:101EE0002F910F900FBE0F901F9018951F920F9279
:101EF0000FB60F9211242F933F934F935F936F93DD
:101F00007F938F939F93AF93BF93EF93FF938091B2
:101F1000B900887F803609F44AC0F0F5883209F4A8
:101F2000A7C018F5803109F49BC0B8F4882309F4E0
:101F3000F9C0883009F494C0FF91EF91BF91AF913F
:101F40009F918F917F916F915F914F913F912F91D1
:101F50000F900FBE0F901F901895883109F488C01C
:101F6000803251F78093EB0414C0803409F49DC093
:101F700040F48033B9F38833F9F68093EB0485ECB1
:101F8000B0C0803509F485C0883509F496C088341E
:101F900099F60E94E207D0CF883909F48CC038F551
:101FA000883729F050F4883611F0803729F683E01D
:101FB0008093ED0410924C0457C0883809F47BC01C
:101FC000803919F0803809F0B7CF80914C04803205
:101FD00008F071C0E0914C0481E08E0F80934C04B6
:101FE0008091BB00F0E0E45DFB4F80833DC0803B0F
:101FF00039F0E0F4803A09F479C0883A09F09CCFCE
:1020000084E08093ED0410922B0410922A04E09156
:10201000A304F091A404099580912A0481110FC0B2
:1020200081E080932A0410920A0409C0803C09F4DC
:10203000A6CF883C09F4A3CF883B09F07DCFE0917F
:102040002B0481E08E0F80932B04F0E0E65FFB4FC2
:1020500080818093BB0090912B0480912A0429C039
:102060008091C8048093BB0085EC8093BC0064CF52
:102070009091EA048091E904981758F5E091EA04F8
:1020800081E08E0F8093EA04F0E0E753FB4F8081FC
:10209000E9CFE091EA0481E08E0F8093EA04809119
:1020A000BB00F0E0E753FB4F80839091EA048091FE
:1020B000E9049817C8F285E8D8CFE091EA0481E0F6
:1020C0008E0F8093EA048091BB00F0E0E753FB4F52
:1020D00080838091EC0481115CCF81E08093C70400
:1020E00084EA8093BC001092ED0426CF85EC8093A7
:1020F000BC001092ED0480914C04803230F4E091E9
:102100004C04F0E0E45DFB4F108260914C0470E001
:10211000E091A104F091A2048CE294E00995109260
:102120004C040ACF1092EB0434CFEF92FF920F933E
:102130001F93CF93DF93F82E192FE62E042F81E003
:10214000860F880F0E94710483E00E947104CF2DD6
:10215000D12FEC0EFD2EF11CCE15DF05B9F007FFD7
:1021600013C0FE0184910E947104182F80E00E9428
:102170007104812321968111EFCFDF91CF911F91BF
:102180000F91FF90EF9008958881EDCF81E0F5CF1A
:10219000CF93109215051092140588EE93E0A0E0FD
:1021A000B0E08093160590931705A0931805B0939F
:1021B00019058FE191E090931305809312058FEF3D
:1021C0009FEF90931F0580931E058DE391E0909300
:1021D0008A058093890580918105811113C0109231
:1021E0007C0510927B0585E491E090937E058093B9
:1021F0007D0589E190E09093800580937F0581E0E3
:10220000809381058091730581112AC0C1E0C0933C
:102210006605C09367058CE695E090936905809309
:10222000680510926B0510926A0581E391E0909326
:1022300063058093620510926E0510926D051092F1
:10224000700510926F05C0937105C093720581EC03
:1022500080936C050E9479050E941102C09373055A
:10226000E0916D05F0916E05309709F0CDC08BE7D8
:1022700095E090936E0580936D0580916F05909128
:10228000700520917F0530918005820F931F9093F8
:10229000700580936F05109296051092950588EE53
:1022A00093E0A0E0B0E08093970590939805A09309
:1022B0009905B0939A0583E491E0909394058093F7
:1022C00093051092C1051092C8051092CF05109287
:1022D000D0051092D1051092D20581E08093CE05F1
:1022E0008093CB051092CC0592E09093CD0580931E
:1022F000C00584E290E09093C5058093C4050E94D8
:10230000331B9093CA058093C905009709F485C0D3
:1023100024E2FC0111922A95E9F78CE090E0909379
:10232000C3058093C20587E190E09093C705809331
:10233000C6058091C105882341F061E087E10E94D4
:10234000240360E087E10E948102E2EAF1E0E49187
:10235000F0E0EE0FFF1FE358FE4F859194919093AC
:10236000D4058093D305E5E7F1E0E491E093D5054A
:102370008AE090E09093BA058093B90581E080935C
:10238000BB0540E45BE46CE470E04093BC05509313
:10239000BD056093BE057093BF058093A50510929F
:1023A000A60583EC9BEAA6E7BBE38093A705909381
:1023B000A805A093A905B093AA0588ED9BE6A6E71A
:1023C000BBE38093AB059093AC05A093AD05B093B0
:1023D000AE0582EF94EEA4E6BBE38093AF05909345
:1023E000B005A093B105B093B2051092A00510926C
:1023F0009F051092A1051092A2051092A3051092BC
:10240000A405CF910895FC01808191810097D9F7AF
:102410008BE795E09183808330CF1092C5051092B1
:10242000C4051092C3051092C2057DCFCF93DF93F0
:10243000CDB7DEB7CC54D1090FB6F894DEBF0FBECE
:10244000CDBF789484B5826084BD84B5816084BD3D
:1024500085B5826085BD85B5816085BD80916E0042
:10246000816080936E001092810080918100826073
:1024700080938100809181008160809381008091B0
:1024800080008160809380008091910082608093C1
:1024900091008091910081608093910080919000E3
:1024A0008160809390008091C10084608093C1001E
:1024B0008091C10082608093C1008091C1008160E1
:1024C0008093C1008091C30081608093C30080919C
:1024D000C00082608093C0008091C20081608093C0
:1024E000C20080917A00846080937A0080917A00A3
:1024F000826080937A0080917A00816080937A0074
:1025000080917A00806880937A001092A0041092E3
:10251000600410925F048091D70081608093D7009F
:1025200080EA8093D80089B5806189BD89B58260D1
:1025300089BD09B400FEFDCF0E944D048091D800F2
:102540008F7C80618093D8008091E000807F8093B1
:10255000E0008091E1008E7E8093E1008DE0809329
:10256000E200559A209A8FEF9FEF90931F0580937A
:102570001E05EBE8F5E088E0DF011D928A95E9F79A
:1025800048E050E0BF0189E895E00E9453070E94AF
:10259000F2028091C6059091C70597FD08C061E0E1
:1025A0000E94240360E08091C6050E94810281E0C0
:1025B0008093C1054091C4055091C50570E060E06D
:1025C0008091C9059091CA050E941E1D0E947A0340
:1025D0009BE6E92E94E0F92E10E000E0C8010E948D
:1025E000C019F70181937F010F5F1F4F043111055F
:1025F000A9F780916B048D3429F480916C048130AB
:1026000009F4F6C08DE480936B0481E080936C0440
:102610000E943F0C0E945B0980937E040E941C0C68
:1026200080917C040E946A018091BB0581110E9407
:10263000F20260E08DE20E94920860E18DE20E9469
:10264000920868E08DE20E949208BE016F5F7F4FA2
:1026500081E30E94AF0969816C7E636081E30E941F
:10266000920840E062E070E08AE20E94050A40E0E1
:1026700061E070E08AE20E94050A41E070E060E0FB
:102680008AE20E94050A6EE18DE10E94920864E1EF
:1026900081E20E94920860E582E20E94920868EC62
:1026A00083E20E94920840E065E070E08FE20E94C1
:1026B000050A41E065E070E08EE20E94050A8AE7C3
:1026C00091E00E943B0B44244A948FE0582E612CE9
:1026D000712C0E9465046B017C01809192049091A1
:1026E0009304A0919404B091950497018601081B6E
:1026F000190B2A0B3B0BD901C801813D9740A1055D
:10270000B10578F1C0929204D0929304E0929404BF
:10271000F09295048AE891E00E94490B809191041F
:1027200090E00E94310B8AE991E00E94490B809170
:102730008F04909190040E94310B8CEA91E00E94EA
:10274000490B60918D0470918E04072E000C880B4C
:10275000990B97FF59C00E94100B81E591E00E94F0
:10276000B80A82E195E00E946E06892B09F46AC1DD
:1027700029961FAE1EAE29972B961FAE1EAE2B9725
:102780002D961FAE1EAE2D9750E040E063E571E040
:10279000CE01895B9F4F0E94C60B0E94180697FDD1
:1027A00037C08A309105A1F189831A822D960EAD2A
:1027B0001FAD2D970F5F1F4FB801CE01895B9F4F53
:1027C0000E949E0B882349F329962EAD3FAD299791
:1027D0002D968EAD9FAD2D97BE016F5F7F4F820FFF
:1027E000931F0E942E1D2D961FAF0EAF2D97D5CF94
:1027F00010917E0410927E040E945B09181709F460
:102800000FCF0E943F0C0CCF4AE00E94C50AA5CF13
:1028100029968EAC9FAC29978114910441F02D9696
:102820000EAD1FAD2D9754010115110581F467EB15
:1028300071E0CE01895B9F4F0E946E0B882309F4E3
:1028400042C080EC91E00E943B0BF7C051011501A2
:102850002FEF221A320AD5018C91082E000C990B09
:102860000E94B918892B91F701501109080D191D03
:10287000F8018081082E000C990B0E94B918892B51
:1028800031F00A151B0518F001501109F1CFA8010C
:102890004F5F5F4F4A195B092D965FAF4EAF2D9783
:1028A0008A149B0420F4B501C4010E94151D2996C9
:1028B000EEADFFAD29972D968EAD9FAD2D97E80F0C
:1028C000F91F1082B4CF64ED71E0CE0101960E9431
:1028D0000B0CBE016F5F7F4FCE01895B9F4F0E9443
:1028E000830B182FCE0101960E94630A112309F46D
:1028F000A5C1BE01695B7F4FCE018F5B9F4F0E94D8
:10290000F10B40E450E0BE016F5F7F4FCE018F5B63
:102910009F4F0E944B0B64E074E0CE0101960E9431
:10292000851864E074E090E080E00E9485188C01D6
:1029300064E074E090E080E00E9485185C0164E04F
:1029400074E090E080E00E9485184C0164E074E03F
:1029500090E080E00E9485181C010115110509F422
:102960006AC1A114B10409F466C18114910409F487
:1029700062C1892B09F45FC1C5010E946718B82E96
:10298000C4010E946718A82EC1010E946718982EE2
:102990006FED71E0C8010E94251D892B69F4B0928A
:1029A0006D04A0926E0490926F040E941C0C0E9411
:1029B00048098EE092E03AC06EED71E0C8010E94D5
:1029C000251D892B39F4B0927004A0927104909265
:1029D0007204EBCF62EE71E0C8010E94251D892BC5
:1029E00039F4B0927304A092740490927504DDCF10
:1029F00067EE71E0C8010E94251D892B39F4B09261
:102A00007604A092770490927804CFCF6CEE71E0B8
:102A1000C8010E94251D892B39F4B0927904A09237
:102A20007A0490927B04C1CF84EF91E00E943B0B2B
:102A3000CE018F5B9F4F0E94630ACE01895B9F4F3F
:102A40000E94630ABE016F5F7F4F80E30E94AF095F
:102A5000898185FF5DC080918C04811159C01091DE
:102A600091048DE993E00E943B0B0E9465044B01A9
:102A70005C018091610490916204A0916304B09123
:102A80006404A5019401281B390B4A0B5B0BDA0186
:102A9000C901853F9140A105B10578F1112309F4E1
:102AA00045C280918F049091900490938E048093FE
:102AB0008D041092910440917B0460917A0480917E
:102AC00079040E94290982EE90E00E94AA0782EB15
:102AD00093E00E943B0B8092840490928504A09224
:102AE0008604B092870410928304809261049092CD
:102AF0006204A0926304B092640451E050938C0489
:102B0000C0928804D0928904E0928A04F0928B04E7
:102B100080918C048823B9F0809188049091890475
:102B2000A0918A04B0918B0497018601081B190BB0
:102B30002A0B3B0BD901C8018D329140A105B1058B
:102B400010F010928C041091910411111EC080910C
:102B5000840490918504A0918604B0918704A70114
:102B60009601281B390B4A0B5B0BDA01C901813D29
:102B70009740A105B10548F080918304811105C0FB
:102B80000E94C80841E0409383040E942E0ADC01A1
:102B900011112FC224E630E00E942C1BA3019201E8
:102BA0000E94D61989012536310514F004E610E09B
:102BB00017FF02C010E000E020918D0430918E04D8
:102BC000C801821B930B97FF03C0919581959109D2
:102BD00003970CF4DDC1201731070CF0D3C189EE47
:102BE00090E00E94AA0780E00E94680A1093A00566
:102BF00000939F050E9465046093A1057093A20550
:102C00008093A3059093A40510938E0400938D04E4
:102C1000C0927F04D0928004E0928104F0928204FA
:102C2000C0928404D0928504E0928604F0928704D6
:102C300010928304D6C180E292E0F8CE60E472E0A4
:102C4000CE0101960E940B0CBE016F5F7F4FCE013B
:102C5000895B9F4F0E94830B182FCE0101960E9423
:102C6000630A1123A9F1BE01695B7F4FCE018F5B1F
:102C70009F4F0E94F10B40E250E0BE016F5F7F4F1B
:102C8000CE018F5B9F4F0E944B0B64E074E0CE013E
:102C900001960E94851864E074E090E080E00E9454
:102CA0008518009709F4C4CE0E9467188F3F9105DC
:102CB00009F058F480937C040E946A010E941C0C65
:102CC0000E9448098FE492E0B1CE86E692E0AECE53
:102CD00066E872E0CE0101960E940B0CBE016F5FA8
:102CE0007F4FCE01895B9F4F0E94830B182FCE012F
:102CF00001960E94630A112389F1BE01695B7F4F2F
:102D0000CE018F5B9F4F0E94F10B40E250E0BE016D
:102D10006F5F7F4FCE018F5B9F4F0E944B0B64E034
:102D200074E0CE0101960E94851864E074E090E0A2
:102D300080E00E948518009709F47ACE0E946718F7
:102D40008F3F910509F038F480937D040E941C0C9C
:102D500088E992E06BCE83EB92E068CE67ED72E09B
:102D6000CE01895B9F4F0E946E0B882309F48DC0B2
:102D700084EE92E00E94490B80916D040E94090B41
:102D800084EF92E00E94490B80916E040E94090B2F
:102D900084EF92E00E94490B80916F040E94090B1E
:102DA00086EF92E00E94490B809170040E94090B0B
:102DB00084EF92E00E94490B809171040E94090BFC
:102DC00084EF92E00E94490B809172040E94090BEB
:102DD0008FEF92E00E94490B809173040E94090BCF
:102DE00084EF92E00E94490B809174040E94090BC9
:102DF00084EF92E00E94490B809175040E94090BB8
:102E00008AE093E00E94490B809176040E94090BAE
:102E100084EF92E00E94490B809177040E94090B95
:102E200084EF92E00E94490B809178040E94090B84
:102E300084E193E00E94490B809179040E94090B80
:102E400084EF92E00E94490B80917A040E94090B62
:102E500084EF92E00E94490B80917B040E94090B51
:102E600081E293E00E94490B80917C040E94090B4F
:102E70008AE293E00E94490B80917D040E94090B35
:102E800081E591E00E94B80AD8CD66E373E0CE01F7
:102E9000895B9F4F0E946E0B882369F181E493E068
:102EA0000E94490B809191048823F9F083E791E017
:102EB0000E94490B8EE493E00E94490B80918D049F
:102EC00090918E040E94310B87E593E00E94490B9C
:102ED00080918304882361F083E791E00E94490B8D
:102EE00080E693E00E94490BCBCF87E791E0E0CFEB
:102EF00087E791E0F3CF6DE673E0CE01895B9F4FEA
:102F00000E946E0B882319F00E943F0C96CD6CE74F
:102F100073E0CE01895B9F4F0E946E0B882319F0EE
:102F200081E893E090CC86E893E08DCC80918D048D
:102F300090918E049093900480938F040E942E0AA7
:102F4000909366048093650480926704909268046D
:102F5000A0926904B0926A0410928E0410928D04BB
:102F600041E040939104409178046091770480910E
:102F700076040E94290982EE90E00E94AA0788EC5C
:102F800093E0A7CD8AEE90E00E94AA0781E02CCEC4
:102F900080917F0490918004A0918104B09182047B
:102FA000C81AD90AEA0AFB0A5DE2C51651E0D5063D
:102FB000E104F104B0F080918304811112C04091CA
:102FC0007B0460917A04809179040E94290910920F
:102FD000830481EDC81687E0D806E104F10408F007
:102FE00060C020E030E0232B09F473CB0E94000086
:102FF00070CB4091670450916804609169047091AE
:103000006A0497018601041B150B260B370BB901C7
:10301000A801493E534061057105F0F180916504B6
:10302000909166048D01081B190B17FF03C01195C1
:103030000195110903331105A4F21092910424E6BD
:1030400030E00E942C1BA30192010E94D619253664
:10305000310514F024E630E037FF02C030E020E014
:1030600030938E0420938D0440917B0460917A0408
:10307000809179040E94290982EE90E00E94AA07BB
:103080008CED93E00E94490BC8010E94310B86E051
:1030900094E00E943B0BC4CD90936604809365043A
:1030A000A0CF0E94C80831E0309383049ACF80916A
:1030B000C9059091CA050E94CF1B8091C6059091C9
:1030C000C70597FD03C060E00C9424030895FC013C
:1030D00088279927E89421912032E9F3293010F0CC
:1030E0002E30C8F32B3241F02D3239F4689404C0ED
:1030F0000E94B118820F911D219120532A30C0F3F4
:103100001EF4909581959F4F089546ED55E00E94DD
:103110008A180895FA01A191B081009719F41097C7
:10312000E1F0CD01DC01CD010D90002011F4C001D2
:1031300013C0FB012191222319F02015D9F7F3CFF9
:10314000FB012191201519F41E92119606C022232D
:10315000C1F70D900020A1F7D001FA01A193B0832F
:1031600008957AE0979F902D879F802D910D1124CF
:10317000089591110C946C19803219F08950855082
:10318000C8F70895E89409C097FB3EF490958095A0
:10319000709561957F4F8F4F9F4F9923A9F0F92F1D
:1031A00096E9BB279395F695879577956795B7959B
:1031B000F111F8CFFAF4BB0F11F460FF1BC06F5F81
:1031C0007F4F8F4F9F4F16C0882311F096E911C093
:1031D000772321F09EE8872F762F05C0662371F0B4
:1031E00096E8862F70E060E02AF09A95660F771FC8
:1031F000881FDAF7880F9695879597F908950E94AA
:1032000012190C9486190E94781938F00E947F19BF
:1032100020F0952311F00C946F190C94751911245A
:103220000C94BA190E94971970F3959FC1F3950FEA
:1032300050E0551F629FF001729FBB27F00DB11D3A
:10324000639FAA27F00DB11DAA1F649F6627B00DCA
:10325000A11D661F829F2227B00DA11D621F739FB3
:10326000B00DA11D621F839FA00D611D221F749FC1
:103270003327A00D611D231F849F600D211D822F08
:10328000762F6A2F11249F5750409AF0F1F088232F
:103290004AF0EE0FFF1FBB1F661F771F881F91505C
:1032A0005040A9F79E3F510580F00C946F190C9483
:1032B000BA195F3FE4F3983ED4F386957795679506
:1032C000B795F795E7959F5FC1F7FE2B880F911D86
:1032D0009695879597F9089599278827089597F9DE
:1032E0009F6780E870E060E008959FEF80EC0895AC
:1032F00000240A94161617061806090608950024D5
:103300000A9412161306140605060895092E03944E
:10331000000C11F4882352F0BB0F40F4BF2B11F4C2
:1033200060FF04C06F5F7F4F8F4F9F4F089557FD21
:103330009058440F551F59F05F3F71F04795880F23
:1033400097FB991F61F09F3F79F0879508951216BA
:1033500013061406551FF2CF4695F1DF08C0161666
:1033600017061806991FF1CF869571056105089417
:103370000895E894BB2766277727CB0197F908952E
:10338000F999FECF92BD81BDF89A992780B508952D
:10339000262FF999FECF1FBA92BD81BD20BD0FB671
:1033A000F894FA9AF99A0FBE01960895052E97FBA4
:1033B0001EF400940E94ED1957FD07D00E942C1AAC
:1033C00007FC03D04EF40C94ED19509540953095C0
:1033D00021953F4F4F4F5F4F089590958095709581
:1033E00061957F4F8F4F9F4F08952F923F924F923D
:1033F0005F926F927F928F929F92AF92BF92CF9285
:10340000DF92EF92FF920F931F93CF93DF93CDB78D
:10341000DEB7CA1BDB0B0FB6F894DEBF0FBECDBF05
:1034200009942A88398848885F846E847D848C84D6
:103430009B84AA84B984C884DF80EE80FD800C81DF
:103440001B81AA81B981CE0FD11D0FB6F894DEBFC2
:103450000FBECDBFED010895A1E21A2EAA1BBB1B22
:10346000FD010DC0AA1FBB1FEE1FFF1FA217B30750
:10347000E407F50720F0A21BB30BE40BF50B661F66
:10348000771F881F991F1A9469F76095709580952A
:1034900090959B01AC01BD01CF010895A29FB001A1
:1034A000B39FC001A39F700D811D1124911DB29F78
:1034B000700D811D1124911D08950E94711A0C94A4
:1034C00086190E947F1958F00E94781940F029F45B
:1034D0005F3F29F00C946F1951110C94BA190C9498
:1034E00075190E94971968F39923B1F3552391F345
:1034F000951B550BBB27AA2762177307840738F063
:103500009F5F5F4F220F331F441FAA1FA9F335D0BF
:103510000E2E3AF0E0E832D091505040E695001C73
:10352000CAF72BD0FE2F29D0660F771F881FBB1F2D
:10353000261737074807AB07B0E809F0BB0B802D0B
:10354000BF01FF2793585F4F3AF09E3F510578F037
:103550000C946F190C94BA195F3FE4F3983ED4F3BE
:10356000869577956795B795F7959F5FC9F7880F0B
:10357000911D9695879597F90895E1E0660F771F5D
:10358000881FBB1F621773078407BA0720F0621BEE
:10359000730B840BBA0BEE1F88F7E09508950E9419
:1035A0009F1988F09F5798F0B92F9927B751B0F01D
:1035B000E1F0660F771F881F991F1AF0BA95C9F7B7
:1035C00014C0B13091F00E94B919B1E008950C9483
:1035D000B919672F782F8827B85F39F0B93FCCF336
:1035E000869577956795B395D9F73EF49095809534
:1035F000709561957F4F8F4F9F4F0895AA1BBB1BFE
:1036000051E107C0AA1FBB1FA617B70710F0A61BE2
:10361000B70B881F991F5A95A9F780959095BC0103
:10362000CD01089597FB072E16F4009407D077FD7F
:1036300009D00E94FE1A07FC05D03EF490958195B2
:103640009F4F0895709561957F4F0895EE0FFF1F6E
:103650000590F491E02D09940E944E1AB7FF089549
:10366000821B930B08950F931F93CF93DF938230A8
:10367000910510F482E090E0E091DA05F091DB052D
:1036800030E020E0B0E0A0E0309799F4211531055A
:1036900009F44AC0281B390B24303105D8F58A813A
:1036A0009B816115710589F1FB0193838283FE0182
:1036B00011C0408151810281138148175907E0F000
:1036C0004817590799F4109761F012960C931297C6
:1036D00013961C933296CF01DF91CF911F910F91DA
:1036E00008950093DA051093DB05F4CF2115310519
:1036F00051F04217530738F0A901DB019A01BD01CF
:10370000DF01F801C1CFEF01F9CF9093DB05809382
:10371000DA05CDCFFE01E20FF31F81939193225082
:10372000310939832883D7CF2091D8053091D90525
:10373000232B41F420911701309118013093D905C2
:103740002093D805209115013091160121153105DE
:1037500041F42DB73EB74091190150911A01241B35
:10376000350BE091D805F091D905E217F307A0F4E5
:103770002E1B3F0B2817390778F0AC014E5F5F4FC7
:103780002417350748F04E0F5F1F5093D90540931B
:10379000D805819391939FCFF0E0E0E09CCFCF9349
:1037A000DF930097E9F0FC01329713821282A09117
:1037B000DA05B091DB05ED0130E020E01097A1F4CF
:1037C00020813181820F931F2091D8053091D90536
:1037D0002817390709F061C0F093D905E093D8059F
:1037E000DF91CF910895EA01CE17DF07E8F54A810E
:1037F0005B819E0141155105B1F7E901FB83EA8325
:1038000049915991C40FD51FEC17FD0761F48081D0
:1038100091810296840F951FE901998388838281A3
:1038200093819B838A83F0E0E0E012968D919C91D6
:1038300013970097B9F52D913C911197CD01029600
:10384000820F931F2091D8053091D9052817390789
:1038500039F6309751F51092DB051092DA05B093E6
:10386000D905A093D805BCCFD383C28340815181B1
:10387000840F951FC817D90761F44E5F5F4F888189
:103880009981480F591F518340838A819B8193837B
:1038900082832115310509F0B0CFF093DB05E09369
:1038A000DA059ECFFD01DC01C0CF13821282D7CF93
:1038B000B0E0A0E0EEE5FCE10C94F7198C01009774
:1038C00051F4CB010E94331B8C01C801CDB7DEB788
:1038D000E0E10C94131AFC01E60FF71F9C01225043
:1038E0003109E217F30708F49DC0D901CD91DC91AD
:1038F0001197C617D70798F0C530D10530F3CE0120
:1039000004978617970708F3C61BD70B2297C19316
:10391000D1936D937C93CF010E94CF1BD6CF5B01D7
:10392000AC1ABD0A4C018C0E9D1EA091DA05B09117
:10393000DB05512C412CF12CE12C109731F58091B5
:10394000D8059091D9058815990509F05CC04616EF
:10395000570608F058C08091150190911601009704
:1039600041F48DB79EB74091190150911A01841B03
:10397000950BE817F90708F055C0F093D905E093C7
:10398000D805F90171836083A0CF8D919C91119727
:1039900012966C90129713967C901397A815B90500
:1039A00059F56C0142E0C40ED11CCA14DB0420F1AD
:1039B000AC014A195B09DA011296159780F0628210
:1039C000738251834083D9016D937C93E114F10498
:1039D00071F0D7011396FC93EE93129776CF22964F
:1039E0008C0F9D1FF90191838083F301EFCFF0933A
:1039F000DB05E093DA0569CF4816590608F42C0177
:103A00007D01D3019ACFCB010E94331B7C0100972B
:103A100049F0AE01B8010E94151DC8010E94CF1BDC
:103A2000870153CF10E000E050CFFB01DC0102C062
:103A300001900D9241505040D8F70895DC0101C02B
:103A40006D9341505040E0F70895FB01DC018D91EA
:103A5000019080190110D9F3990B0895FB01DC0145
:103A600001900D920020E1F70895FB01DC01415027
:103A7000504030F08D910190801919F40020B9F771
:103A8000881B990B0895FB01DC014150504048F020
:103A900001900D920020C9F701C01D924150504085
:103AA000E0F7089510E0C6EDD0E004C0FE010E94EA
:0E3AB000261B2196C73DD107C9F7F894FFCF1A
:103ABE00FFFFFFFFFFFF00E100000000000000C15C
:103ACE0080810000000000DC05800000000000D4B2
:103ADE0005BE05F505EA056E06FA054A0600000064
:103AEE00008F060807CD06B206000000005307003F
:103AFE0000000063083608C50813080802230814DE
:103B0E00080D0A004F4B3A2053657474696E677343
:103B1E0020726573657420746F2064656661756CC0
:103B2E00747300594553004E4F004D4147564F4C4C
:103B3E00554D455F52454144590044454255473A1B
:103B4E002069734D757465643D002C207072657626
:103B5E00696F7573566F6C756D653D002C206375BE
:103B6E007272656E743D004944454E544946590083
:103B7E004D4147564F4C554D455F434F4E4649526A
:103B8E004D4544005345545F434F4C4F5200434301
:103B9E00570049444C45004D555445005354414E31
:103BAE00444259004552524F523A20496E76616C4A
:103BBE00696420636F6C6F72206D6F6465004F4B8C
:103BCE003A20436F6C6F7220757064617465640087
:103BDE004552524F523A20496E76616C69642053B9
:103BEE0045545F434F4C4F5220666F726D617400A7
:103BFE005345545F4252494748544E455353004F24
:103C0E004B3A204272696768746E657373207570E3
:103C1E006461746564004552524F523A2042726993
:103C2E006768746E657373206D757374206265209A
:103C3E00302D323535005345545F44494D4252497B
:103C4E004748544E455353004F4B3A2044696D201C
:103C5E006272696768746E657373207570646174DF
:103C6E006564004552524F523A2044696D2062728B
:103C7E00696768746E657373206D75737420626501
:103C8E0020302D323535004745545F534554544945
:103C9E004E47530053455454494E47533A435743A6
:103CAE004F4C3D002C007C434357434F4C3D007C12
:103CBE0049444C455F434F4C3D007C4D5554454364
:103CCE004F4C3D007C5354414E444259434F4C3D62
:103CDE00007C4252494748543D007C44494D425273
:103CEE00494748543D004745545F5354415455533A
:103CFE00005354415455533A4D5554453D007C564E
:103D0E004F4C554D453D007C44494D6D65643D001D
:103D1E007C434F4E4E45435445443D31005245532E
:103D2E0045545F53455454494E47530050494E47EE
:103D3E0000504F4E47004552524F523A20556E6B2F
:103D4E006E6F776E20636F6D6D616E6400444F55BC
:103D5E00424C45205441502044455445435445441B
:103D6E002100556E6D7574656420627920646F75DF
:103D7E00626C6520746170004D75746564206279A3
:103D8E0020646F75626C6520746170004175746F8C
:103D9E002D756E6D75746564206279206B6E6F6221
:103DAE00207475726E2028616E676C652063686181
:083DBE006E67653A2000290040
:00000001FF
