:100000000C943D010C9465010C9465010C94650100
:100010000C9465010C9465010C9465010C946501C8
:100020000C9465010C9465010C941D0A0C948C0AC7
:100030000C9465010C9465010C9465010C946501A8
:100040000C9465010C9465010C9465010C94650198
:100050000C9465010C9465010C9465010C94D30912
:100060000C9465010C9465010C9465010C94650178
:100070000C9465010C9465010C9465010C94650168
:100080000C9465010C9465010C9465010C94650158
:100090000C94BE0C0C9465010C9465010C946501E4
:1000A0000C9465010C9465010C946501000000003E
:1000B000000000002A2B28000000000000000000C3
:1000C0000000000000000000000000002C9EB4A012
:1000D000A1A2A434A6A7A5AE362D3738271E1F200F
:1000E000212223242526B333B62EB7B89F848586D4
:1000F0008788898A8B8C8D8E8F9091929394959618
:100100009798999A9B9C9D2F3130A3AD3504050695
:100110000708090A0B0C0D0E0F10111213141516F7
:100120001718191A1B1C1DAFB1B0B500080B00023F
:10013000020201000904000001020200000524007F
:100140001001052401010104240206052406000112
:100150000705810310004009040100020A000000A5
:100160000705020240000007058302400000040367
:10017000090412010002EF0201400912534D00016F
:1001800001020301486179726954656368004D6139
:10019000675363726F6C6C0000000000240027003E
:1001A0002A002D0030000000000200090F000003AB
:1001B0000401000C0000000000000000000000002E
:1001C000000000000005010906A1018502050719CC
:1001D000E029E71500250175019508810295017553
:1001E0000881039506750815002573050719002970
:1001F000738100C005010902A1010901A100850167
:1002000005091901290315002501950375018102CE
:1002100095017505810305010930093109381581FA
:10022000257F750895038106C0C0040802011040AF
:10023000804010204080408008020401804020104F
:1002400002011080102040402000000000250028FE
:10025000002B002E003100040404040403040502F2
:100260000202020403020202020606060606060451
:10027000040202020404100EF01111241FBECFEF7D
:10028000DAE0DEBFCDBF11E0A0E0B1E0E0E3F9E2EB
:1002900002C005900D92AC35B107D9F723E0ACE56B
:1002A000B1E001C01D92A131B207E1F711E0CCE34A
:1002B000D1E004C02197FE010E944513CB33D10742
:1002C000C9F70E94510F0C948B140C9400004F92AC
:1002D0005F926F927F928F929F92AF92BF92FF92A6
:1002E0002091F9023091FA028217930708F043C077
:1002F0002B0166247724852E962EA72EBB24B82D9D
:10030000A42F2091FF02F42C222391F0E22FF0E0A1
:10031000E49DD001E59DB00DF49DB00D1124FB2EA0
:10032000289D40011124B92D249F90011124A32F51
:10033000E0910503209100033091010350910203E5
:10034000E51323C0FC01EE0FFF1F8E0F9F1F820FCE
:10035000931FE0910203E80FF92FF11DF082E09165
:100360000303E80FF92FF11DB08320910403820FDE
:10037000911DFC01A083FF90BF90AF909F908F9044
:100380007F906F905F904F900895880F991F880F0E
:10039000991F820F931FE80FF92FF11D1082D9CFFB
:1003A000982F80914B028111FCCF81E080934B020A
:1003B00080934A022FEF2093490210924802290F9E
:1003C0002093470280934602809146028C66809378
:1003D0004602809145028130F9F4109245028091E5
:1003E00046028093BB008091BC0083FDF8CF85EC72
:1003F0008093BC0080914B028130E1F380914802F0
:10040000891710F490914802A5E2B2E0E5E0F2E02D
:1004100080E0891303C0089585EEEACF2D912193E2
:100420008F5FF7CF982F2091040281E0213208F0EE
:1004300043C080914B028111FCCF8091030232E0D6
:1004400030934B0290934A029FEF9093490210928F
:10045000480220934702A3EEB1E0E5E2F2E090E02B
:10046000291331C01092460290914602880F892BC1
:100470008093460280914502813049F510924502F1
:10048000809146028093BB008091BC0083FDF8CF31
:1004900085EC8093BC0080914B028230E1F3809127
:1004A00049028F3FB1F0809149028032A1F08091E2
:1004B0004902803391F084E01092E201109204022C
:1004C0001092E10108953D9131939F5FC9CF85EE70
:1004D000E0CF80E0F1CF82E0EFCF83E0EDCF8091FD
:1004E000DF019091E001891B990B0895FC01809137
:1004F000DE01882311F13FB7F89482E08093E90090
:100500002091F200822F90E01816190614F481E071
:1005100090E0882339F0289844E64093DD0140912B
:10052000F1004083222339F02091F200211103C011
:100530002BE62093E8003FBF08958FEF9FEF0895CB
:10054000CF93DF931F92CDB7DEB76983DC01ED91C6
:10055000FC910280F381E02D41E050E0BE016F5F2D
:100560007F4F09950F90DF91CF91089583E080939D
:10057000E9008091F200882319F08AE38093E80073
:100580000895CF93DF931F92CDB7DEB7FC0184852A
:10059000958597FD08C02FEF3FEF358724870F9093
:1005A000DF91CF910895CE0101960E9476020197C6
:1005B00019F4898190E0F3CF8FEF9FEFF0CF0F9385
:1005C0001F93CF93DF931F92CDB7DEB78C01FC0151
:1005D0008485958597FF0BC0CE0101960E94760217
:1005E000019771F4898190E0F80195878487F8017B
:1005F000848595850F90DF91CF911F910F9108957C
:100600008FEF9FEFF1CFFC018485958597FD0BC09F
:100610009FB7F89482E08093E9008091F2009FBF39
:1006200090E0019608959FB7F89482E08093E900E6
:100630008091F2009FBF90E00895282F30E0F901EB
:10064000EA55FE4F9491F901E65DFD4F8491295AD8
:100650003D4FF9012491222309F430C09923E9F098
:1006600091509F30D0F4E92FF0E0E75CFC4F0C9400
:10067000451367036B0348035F0363034D034D0397
:100680004D036E03740378037C0382034D038603DA
:10069000909180009F7790938000E22FF0E0EE0F22
:1006A000FF1FE75BFD4FA591B4919FB7F894EC91C4
:1006B000611132C080958E238C939FBF08959091D5
:1006C00080009F7DE8CF90918000977FE4CF94B524
:1006D0009F7794BDE2CF94B59F7DFBCF9091900022
:1006E0009F7790939000D9CF909190009F7DF9CF04
:1006F00090919000977FF5CF9091C0009F77909355
:10070000C000CBCF9091C0009F7DF9CF9091C200E7
:10071000977F9093C200C1CF8E2BCECFCF93DF9324
:1007200090E0FC01E65DFD4F2491895A9D4FFC014C
:1007300084918823D1F090E0880F991FFC01E8563E
:10074000FE4FA591B491FC01E75BFD4FC591D4919B
:1007500061110EC09FB7F8948C91E22FE0958E2323
:100760008C932881E223E8839FBFDF91CF91089586
:100770008FB7F894EC91E22BEC938FBFF6CF3FB795
:10078000F8948091D9019091DA01A091DB01B091A8
:10079000DC0126B5A89B05C02F3F19F00196A11DCD
:1007A000B11D3FBFBA2FA92F982F8827BC01CD01BB
:1007B000620F711D811D911D42E0660F771F881F1A
:1007C000991F4A95D1F708950F931F93CF93DF9305
:1007D000CDB7DEB729970FB6F894DEBF0FBECDBFF9
:1007E0000E94BF03009106031091070320910803A4
:1007F00030910903601771078207930740F46093F3
:1008000006037093070380930803909309030091F4
:100810000603109107032091080330910903601B20
:10082000710B820B930B6C32714081059105C0F204
:10083000F8948091FB029091FC029A838983E09165
:100840000003F0910103DF01119680818987909167
:10085000F702E0910A03F0910B0380910C039923B6
:1008600009F445C09081982B9887908180958923C1
:100870008F838F818C8388E08B8358856F81498536
:100880003B812C8189819A81508347FD252F3A95A0
:100890002083262F39F0441F00C000006083000031
:1008A00000C0F2CF38E04D9160830000019761F7FE
:1008B000F0930B03E0930A0349873B832C839A83CD
:1008C000898378940E94BF036093060370930703A3
:1008D000809308039093090329960FB6F894DEBF1E
:1008E0000FBECDBFDF91CF911F910F9108959081E1
:1008F000982B98879081809589238F838F818E8311
:1009000088E08D8358856F8149853D812E8189815D
:100910009A81508347FD252F00C000C0208300C06E
:1009200000C000C000C000C060830000262F3A95C0
:1009300041F0441F000000C000C000C000C000C063
:10094000E8CF38E04D9100C0608300C0019709F7FF
:10095000F0930B03E0930A0349873D832E83AFCFC7
:10096000CF93DF93D0E0C0E048EC50E060E070E06F
:10097000CE010E9467012196CC30D105A9F7809164
:10098000000390910103892B21F0DF91CF910C940A
:10099000E403DF91CF9108958F929F92AF92BF921F
:1009A000CF92DF92EF92FF924B015C010E94BF0356
:1009B0006B017C010E94BF036C197D098E099F09A0
:1009C000683E734081059105A8F321E0821A9108E1
:1009D000A108B10888EEC80E83E0D81EE11CF11C06
:1009E00081149104A104B10429F7FF90EF90DF90E6
:1009F000CF90BF90AF909F908F90089508950895E5
:100A000008954091AF015091B0012091AD01309116
:100A1000AE0142175307B4F49091E8009570E1F3EA
:100A20009091E80092FD19C08093F1008091AF0190
:100A30009091B00101968F739927892B19F48EEF4D
:100A40008093E8008091AF019091B001019690935E
:100A5000B0018093AF0181E0089580E00895DF92B6
:100A6000EF92FF920F931F93CF93DF93D82E8A01BB
:100A7000EB017B01E40EF51ECE15DF0559F0D7FE24
:100A800012C0FE0184910E94010521968111F4CFCC
:100A90000FEF1FEFC801DF91CF911F910F91FF90D2
:100AA000EF90DF9008958881EECF2FB7F89487708C
:100AB0008093E9009091E800892F807295FF04C02F
:100AC0009091F20080E4891B2FBF089583E00E947B
:100AD000550590E008957F928F929F92AF92BF92BA
:100AE000CF92DF92EF92FF920F931F93CF93DF93FA
:100AF000C82E8B017A018091DE01811110C08FEF29
:100B00009FEFDF91CF911F910F91FF90EF90DF90BA
:100B1000CF90BF90AF909F908F907F9008958091DD
:100B2000B30180FF05C08091E00082608093E00007
:100B3000CE2DDF2DD12C8AEFB82E8C2D8770982EDC
:100B40008C2D8072882E8C2D8074782E9AE3A92E9D
:100B5000209719F4DD2009F452C08C2D0E94550510
:100B600081110AC0BA94BB2051F261E070E080E0CC
:100B700090E00E94CC04ECCF8C171D0611F00CF015
:100B80008C2F9FB7F8949092E9002091E80025FD02
:100B900002C09FBFDDCF282F30E0C21BD30B8820BF
:100BA00029F08150A0F01092F100FBCFF801C7FCB2
:100BB0000AC0815050F041914093F100FACF449126
:100BC0004093F10031968150D0F7020F131FDD20C2
:100BD00021F0A092E800D12CDCCF8091E80085FDC7
:100BE00007C0A092E800DD24D394209791F2F3CFC0
:100BF000209779F6772069F2A092E800CACF5D9835
:100C000084E68093B201C7017CCFCF93DF93EC01E0
:100C100080911101882331F083E00E946B05181642
:100C2000190634F081E090E09B838A8380E090E0B5
:100C3000DF91CF910895615030F02091F100FC01D7
:100C400020830196F8CF289884E68093DD010895EB
:100C50008091A50181110DC082E08093A10184E003
:100C60008093A2011092A4011092A30181E08093CD
:100C7000A50181EA91E00895CF93DF9381E080930D
:100C8000BA028093BB0220EC32E03093BD02209385
:100C9000BC021092BF021092BE0223E231E03093F8
:100CA000B7022093B6021092C2021092C1021092B3
:100CB000C4021092C3028093C5028093C60281ECE5
:100CC0008093C0020E942806FC0181819091BA02A3
:100CD000482F490F5527551F483051059CF5A281D3
:100CE000B381109709F526EB32E03383228320810C
:100CF0002093B8028093B9028091BB02820F808357
:100D00002091BC02A22FB091BD028A2F821B8917AD
:100D1000C8F481813D91C82FD0E0CE5EDE4F38838C
:100D20008F5F8183F2CFD90118962D913C9119974D
:100D300021153105C1F726EB32E019963C932E932D
:100D40001897D5CFDF91CF9108950F931F93CF932D
:100D5000DF931F92CDB7DEB78C018091C70281115E
:100D600005C00E943C0681E08093C70282E089832F
:100D700041E050E0BE016F5F7F4F8091B9020E9459
:100D80006B0597FD08C08091B90248E050E0B801BA
:100D900080640E946B050F90DF91CF911F910F919E
:100DA00008950F931F93CF93DF931F92CDB7DEB7B4
:100DB00082E0898342E450E06CE271E080E80E94C6
:100DC0002F050E942806DC0112960D911C91011539
:100DD000110589F0D801ED91FC910280F381E02D9D
:100DE000BE016F5F7F4FC801099597FD04C0F801F0
:100DF00000851185ECCF89810F90DF91CF911F91F4
:100E00000F910895CF92DF92EF92FF920F931F936D
:100E1000CF93DF936C01EB017B01E40EF51E10E034
:100E200000E0CE15DF0581F069916D30D1F3D60178
:100E3000ED91FC910190F081E02DC6010995892B7F
:100E400019F00F5F1F4FEDCFC801DF91CF911F91B8
:100E50000F91FF90EF90DF90CF900895DC016838FC
:100E6000A0F06858FD0186E0662321F09681961374
:100E700001C01682815031968111F6CFCD010496C2
:100E80000E94A50681E090E00895E62FF0E067FF5C
:100E900012C0E058F10981E090E001C0880FEA95A6
:100EA000EAF7809514969C911497892314968C9355
:100EB000149760E0D7CFE455FF4F6491662359F053
:100EC00067FFD0CF14968C9114978D7F14968C93D6
:100ED00014976F77C7CF90E080E00895DC01683801
:100EE00088F1685816968C911697861721F11796F7
:100EF0008C9117978617F9F018968C91189786178A
:100F0000D1F019968C9119978617A9F01A968C91A1
:100F10001A97861781F01B968C911B97861759F0AC
:100F2000FD01369690E080E02191211139C08A0FB1
:100F30009B1FFC016683CD0104960E94A50681E0FB
:100F400090E00895E62FF0E067FF11C0E058F10946
:100F500021E030E001C0220FEA95EAF714968C9167
:100F60001497822B14968C93149760E0BBCFE455B2
:100F7000FF4F6491611109C081E090E013969C934A
:100F80008E93129790E080E0089567FFABCF1496A0
:100F90008C911497826014968C9314976F77A2CFDC
:100FA00001968630910509F0BFCFE6CFEF92FF9210
:100FB0001F93CF93DF93EC01162F0E946E077C01E5
:100FC000612FCE010E942E07C7019927DF91CF9193
:100FD0001F91FF90EF9008950895DC01FB01129698
:100FE0002C911297848195812817190641F49181DB
:100FF0008081813A31F49D7F81E0913009F080E079
:1010000008958132E1F79B3029F482811F968C93F9
:1010100081E008959A3099F7828150968C93F8CFA9
:10102000DC01FB0188E4808389E4818384E482839A
:101030001D969C911D979F709F5B93831D968D912C
:101040009C9124E0969587952A95E1F78F708F5BA8
:10105000848385E00895EF92FF920F931F93CF93BF
:10106000DF93FB012081213871F52381223259F56C
:10107000DC0112964C91248135814217130619F533
:10108000EC010B851C85F12CE12C0115110589F073
:10109000F801448155816281738180E80E942F05A7
:1010A0008F3F980749F0E80EF91ED8010D911C9169
:1010B000ECCF81E08F87C701DF91CF911F910F9116
:1010C000FF90EF90089590E080E0F6CFCF93DF930C
:1010D000CDB7DEB769970FB6F894DEBF0FBECDBFB0
:1010E000FC01DB018C918F5F8C939E012D5F3F4F44
:1010F0008DE0D9011D928A95E9F729E0298384E0E2
:101100008A8391E09D8383E08E832A8721E22B8767
:101110009C879D879F8722E2288B27E02B8B25E0E9
:101120002C8B8E8B20E430E0388F2F8B998F82812F
:101130008B8395858685998B8A8B838180688D8B3F
:1011400049E150E0BE016F5F7F4F80E00E942F05B4
:1011500069960FB6F894DEBF0FBECDBFDF91CF9179
:10116000089585ED8093BC008091BC0084FDFCCF88
:1011700010924B02089520917E01260F3327331FD2
:1011800021323105ECF420914B02FC0190E080E02B
:10119000243069F082E00895A0917E012191AC0194
:1011A000425A5E4FA40FB52FB11D2C93019686179E
:1011B00098F380917E01680F60937E0180E008952E
:1011C00081E00895E091E0018091DF01E81730F4BB
:1011D000F0E0EB5FFD4F808190E008958FEF9FEF8F
:1011E00008959091E0018091DF012FEF3FEF981774
:1011F00048F4E92FF0E0EB5FFD4F208130E09F5F86
:101200009093E001C9010895CF92DF92EF92FF928F
:101210000F931F93CF93DF937C01CB018A01209121
:10122000E101222389F0EB016B01C40ED51ECC1520
:10123000DD0569F06991D701ED91FC910190F08194
:10124000E02DC7010995F3CF642F0E94BB08C801A8
:10125000DF91CF911F910F91FF90EF90DF90CF9092
:101260000895CF93DF931F92CDB7DEB769832091A6
:10127000E1012223F9F020910402203258F021E00C
:1012800030E0FC013383228390E080E00F90DF9117
:10129000CF9108958091E201E82FF0E0ED51FE4FEB
:1012A000998190838F5F8093E2018093040281E0B3
:1012B00090E0ECCF61E0CE0101960E94BB08F7CF31
:1012C00090E080E0089581E08093E10186E38093DF
:1012D00003021092E201109204026BE08EED92E0A4
:1012E0000E94310981E00E94120281E00E94D00137
:1012F0001092E0018093DF01811101C0FFCF8EEDDC
:1013000092E00C94F108CF93C82F4091FB025091CA
:10131000FC0270E060E080910003909101030E9464
:10132000841480915C0190915D01CC2361F10B9656
:101330006CE070E00E94311390935D0180935C013A
:1013400040E050E068EC70E00E946701809100018D
:10135000909101018F3F980729F040E050E0BA01D9
:101360000E94670180915C0190915D019093010161
:10137000809300018091000390910103892B89F0F3
:10138000CF910C94E40301966CE070E00E9431135D
:1013900090935D0180935C0140E058EC60E070E068
:1013A000D3CFCF9108951F920F920FB60F921124B1
:1013B0002F933F938F939F93AF93BF938091D501CA
:1013C0009091D601A091D701B091D8013091D4016C
:1013D00023E0230F2D3758F50196A11DB11D209351
:1013E000D4018093D5019093D601A093D701B093F7
:1013F000D8018091D9019091DA01A091DB01B091DF
:10140000DC010196A11DB11D8093D9019093DA01F1
:10141000A093DB01B093DC01BF91AF919F918F91BD
:101420003F912F910F900FBE0F901F90189526E8B7
:10143000230F0296A11DB11DD2CF1F920F920FB69E
:101440000F9211248F939F938091E1009091E1007E
:10145000937F9093E10083FF0FC01092E90091E029
:101460009093EB001092EC0092E39093ED001092B9
:10147000DE0198E09093F00082FF22C093E0909309
:10148000E9009091F200992319F09AE39093E80013
:101490009091B201992341F09091B20191509093B3
:1014A000B201911101C05D9A9091DD01992341F043
:1014B0009091DD0191509093DD01911101C0289A26
:1014C00084FF18C08091E2008E7E81608093E200EC
:1014D0008091E1008F7E8093E1008091B3018E7E48
:1014E00080618093B3019F918F910F900FBE0F90F9
:1014F0001F90189580FFF7CF8091E2008E7E80616B
:101500008093E2008091E1008E7E8093E1008091E3
:10151000B3018E7E8160E5CF1F920F920FB60F92BE
:101520001124CF92DF92EF92FF920F931F932F938C
:101530003F934F935F936F937F938F939F93AF935B
:10154000BF93EF93FF93CF93DF93CDB7DEB76C9745
:10155000DEBFCDBF1092E9008091E80083FF25C077
:1015600068E0CE0145960E941B0682EF8093E8005A
:101570008D8987FF39C09091E80090FFFCCF982FAC
:10158000907609F034C19E894F89588D2F89F88C47
:10159000911131C0803861F58091B4018093F100E0
:1015A0001092F1008EEF8093E8006C960FB6F894DD
:1015B000DEBF0FBECDBFDF91CF91FF91EF91BF9105
:1015C000AF919F918F917F916F915F914F913F91DB
:1015D0002F911F910F91FF90EF90DF90CF900F9080
:1015E0000FBE0F901F9018959EEF9093E800C7CF05
:1015F0001092F100D5CF913059F48111D3CF413001
:10160000510581F68091B4018D7F8093B401CACFDA
:10161000933049F48111C6CF4130510519F68091BC
:10162000B4018260F2CF953041F48091E80080FFF0
:10163000FCCF20682093E300B5CF963009F0A9C015
:101640000B8D1C8D22E01092E9001092B0011092D7
:10165000AF01F2122EC01092AE011092AD010E94A5
:10166000D1061F8299E09983FA8291E09E8390EAE5
:1016700098879AEF99872091AF013091B001275F49
:101680003F4F3C832B838D831092E9001092B00171
:101690001092AF011093AE010093AD0149E050E00C
:1016A000BE016F5F7F4F80E00E942F050E94D10630
:1016B00079CF1093AE010093AD010E942806DC01A2
:1016C00012960D911C910115110509F451C1D80113
:1016D000ED91FC910480F581E02DBE016B5E7F4FA2
:1016E000C8010995009709F03EC1F80100851185F0
:1016F000EACFF3E0FF120EC08F89882309F440C0BF
:10170000823061F440E869E08EE891E00E94DD0DEE
:10171000811148CF81E28093EB0047CF813029F4DB
:1017200040E869E084E891E0F1CF833099F70E94C6
:101730002806DC011296ED90FC908E010F5F1F4F82
:101740006801E114F10479F0D701ED91FC91068074
:10175000F781E02DB801C7010995080F111DF701A8
:10176000E084F184EECFD8011C92F60101900020B4
:10177000E9F73197BF016C197D0940E0C601C6CF7A
:101780006EE671E0FB01449150E080E80E942F0575
:1017900009CF973009F4BECF983021F481E08093CF
:1017A000F10000CF993009F0FDCE837009F0B2CF7F
:1017B000E3E1F1E081E031E096E32191222371F051
:1017C0008093E9003093EB00DF0111972C91209377
:1017D000EC009093ED008F5F873079F78EE7809370
:1017E000EA001092EA008F898093DE01DBCE8B8DB8
:1017F0009C8D1092E9001092B0011092AF0190936D
:10180000AE018093AD01898D811192C08E899D8931
:10181000913A49F4813209F07DCF47E050E06AE027
:1018200071E080E0B3CF913209F074CF833269F474
:101830008F89988DB0E0A0E080930201909303011E
:10184000A0930401B0930501ADCE803269F480917C
:10185000E80082FFFCCF67E08AE091E00E941B066F
:101860008BEF8093E8009ECE823209F09BCE8F8969
:1018700080931101EEEFFFE7859194918B3F9C4D92
:1018800051F1E0E0F8E080910A0190910B01A09104
:101890000C01B0910D01803B9440A105B105F1F41C
:1018A0008091110180FD1AC0EE3F8AE0F80789F5AA
:1018B00087E797E791838083809160008093B101EF
:1018C00088E19BE00FB6F894A895809360000FBE66
:1018D0009093600067CEEEEFFAE0D5CF80819181E2
:1018E0008737974709F05ECEA895809160008861A0
:1018F000809360008091B10180936000EE3F2AE008
:10190000F20789F08091FE0A9091FF0A918380830B
:1019100049CE808191818737980751F29093FF0AD1
:101920008093FE0AC5CF1092FF0A1092FE0A3ACEAB
:101930000E942806DC0112960D911C9101151105DB
:1019400009F4E8CED801ED91FC910190F081E02DF1
:10195000BE016B5E7F4FC8010995811123CEF8014E
:1019600000851185EBCF181619060CF41BCED2CECC
:10197000F1E0FF12BECE62E771E004CF1F920F923A
:101980000FB60F9211242F933F934F935F936F9352
:101990007F938F939F93AF93BF93EF93FF93809128
:1019A000B900887F803609F44AC0F0F5883209F41E
:1019B000A7C018F5803109F49BC0B8F4882309F456
:1019C000F9C0883009F494C0FF91EF91BF91AF91B5
:1019D0009F918F917F916F915F914F913F912F9147
:1019E0000F900FBE0F901F901895883109F488C092
:1019F000803251F78093490214C0803409F49DC0AD
:101A000040F48033B9F38833F9F68093490285ECCA
:101A1000B0C0803509F485C0883509F496C0883493
:101A200099F60E94B108D0CF883909F48CC038F5F6
:101A3000883729F050F4883611F0803729F683E092
:101A400080934B021092A00157C0883809F47BC0E4
:101A5000803919F0803809F0B7CF8091A001803229
:101A600008F071C0E091A00181E08E0F8093A00189
:101A70008091BB00F0E0E058FE4F80833DC0803B8A
:101A800039F0E0F4803A09F479C0883A09F09CCF43
:101A900084E080934B0210927F0110927E01E091CE
:101AA000B701F091B801099580917E0181110FC0B5
:101AB00081E080937E0110925E0109C0803C09F4B0
:101AC000A6CF883C09F4A3CF883B09F07DCFE091F5
:101AD0007F0181E08E0F80937F01F0E0E25AFE4F9C
:101AE00080818093BB0090917F0180917E0129C00D
:101AF000809146028093BB0085EC8093BC0064CF4C
:101B00009091480280914702981758F5E091480259
:101B100081E08E0F80934802F0E0EB5DFD4F808105
:101B2000E9CFE091480281E08E0F809348028091D6
:101B3000BB00F0E0EB5DFD4F808390914802809107
:101B400047029817C8F285E8D8CFE091480281E0B3
:101B50008E0F809348028091BB00F0E0EB5DFD4F5B
:101B6000808380914A0281115CCF81E0809345029D
:101B700084EA8093BC0010924B0226CF85EC8093C0
:101B8000BC0010924B028091A001803230F4E091B1
:101B9000A001F0E0E058FE4F10826091A00170E0DB
:101BA000E091B501F091B60180E891E009951092BD
:101BB000A0010ACF1092490234CFEF92FF920F9307
:101BC0001F93CF93DF93F82E192FE62E042F81E079
:101BD000860F880F0E94010583E00E940105CF2D2A
:101BE000D12FEC0EFD2EF11CCE15DF05B9F007FF4D
:101BF00013C0FE0184910E940105182F80E00E940D
:101C00000105812321968111EFCFDF91CF911F91A3
:101C10000F91FF90EF9008958881EDCF81E0F5CF8F
:101C200010924F0210924E0288EE93E0A0E0B0E0D6
:101C30008093500290935102A0935202B0935302AA
:101C40008FE291E090934D0280934C028FEF9FEFD3
:101C500090935902809358021092AD021092AC02F8
:101C600081E491E09093AB028093AA028091A2025A
:101C7000811113C010929D0210929C0285EC91E09C
:101C800090939F0280939E028FE290E09093A10236
:101C90008093A00281E08093A2028091C70281110B
:101CA00005C00E943C0681E08093C702E091C1021A
:101CB000F091C202309709F0D8C08CE992E090937D
:101CC000C2028093C1028091C3029091C40220910C
:101CD000A0023091A102820F931F9093C4028093BF
:101CE000C3021092DD028091D502811113C01092BF
:101CF000D0021092CF0284EF91E09093D2028093B1
:101D0000D10286E390E09093D4028093D30281E0E5
:101D10008093D5028091C702811105C00E943C06C4
:101D200081E08093C702E091C102F091C202309736
:101D300009F0A5C08FEC92E09093C2028093C1029B
:101D40008091C3029091C4022091D3023091D402B9
:101D5000820F931F9093C4028093C3021092E102FA
:101D60001092E00288EE93E0A0E0B0E08093E202FF
:101D70009093E302A093E402B093E5028DE491E036
:101D80009093DF028093DE021092F8021092FF021D
:101D90001092060310920703109208031092090391
:101DA00081E080930503809302031092030392E085
:101DB000909304038093F70284E290E09093FC02F6
:101DC0008093FB020E945F139093010380930003B2
:101DD000009709F45DC024E2FC0111922A95E9F70D
:101DE0008CE090E09093FA028093F90287E190E012
:101DF0009093FE028093FD028091F802882341F0C7
:101E000061E087E10E948E0360E087E10E941D038C
:101E1000EEE6F2E0E491F0E0EE0FFF1FE75BFD4F2E
:101E20008591949190930B0380930A03E1E4F2E08F
:101E3000E491E0930C0382E390E09093EB028093B3
:101E4000EA021092EC021092EE021092ED02109251
:101E5000EF021092F0021092F1021092F202109230
:101E6000F4021092F3020895FC01808191810097A1
:101E7000D9F78CE992E09183808325CFFC018081A2
:101E800091810097D9F78FEC92E09183808358CFAE
:101E90001092FC021092FB021092FA021092F902C8
:101EA000A5CF789484B5826084BD84B5816084BDFB
:101EB00085B5826085BD85B5816085BD80916E00E8
:101EC000816080936E001092810080918100826019
:101ED0008093810080918100816080938100809156
:101EE0008000816080938000809191008260809367
:101EF0009100809191008160809391008091900089
:101F00008160809390008091C10084608093C100C3
:101F10008091C10082608093C1008091C100816086
:101F20008093C1008091C30081608093C300809141
:101F3000C00082608093C0008091C2008160809365
:101F4000C20080917A00846080937A0080917A0048
:101F5000826080937A0080917A00816080937A0019
:101F600080917A00806880937A001092DE0110924E
:101F7000B4011092B3018091D70081608093D700A3
:101F800080EA8093D80089B5806189BD89B5826077
:101F900089BD09B400FEFDCF61E070E080E090E013
:101FA0000E94CC048091D8008F7C80618093D800FF
:101FB0008091E000807F8093E0008091E1008E7E40
:101FC0008093E1008DE08093E200559A209A809101
:101FD000FD029091FE0297FD08C061E00E948E0311
:101FE00060E08091FD020E941D0381E08093F80271
:101FF0004091FB025091FC0270E060E08091000390
:10200000909101030E9484148091EA029091EB0266
:10201000811520E4920708F04AC0880F991F0E949A
:102020005F139093F6028093F5021092E0011092F4
:10203000DF011092E2011092040210924B0281E043
:1020400080934A021092450261E082E00E941D03E3
:1020500061E083E00E941D038091B9008E7F809330
:10206000B9008091B9008D7F8093B90088E4809396
:10207000B80085E48093BC008FEF94E09093B801A2
:102080008093B70180E095E09093B6018093B5010D
:102090000E94630985FD0EC00E94630985FD0AC088
:1020A00068EE73E080E090E00E94CC04F5CF8FEF03
:1020B0009FEFB5CF0E94B0049924939476E3872EC6
:1020C00000E010E0C091D201D091D3016AE070E04D
:1020D00080E090E00E94CC046091ED027091EE02ED
:1020E0006E010D2E000CEE08FF08E091EA02F0915F
:1020F000EB028091EF029091F002A091F102B09179
:10210000F2024091F3025091F4022091F5023091D5
:10211000F6026E177F070CF0FFC06F5F7F4F709362
:10212000EE026093ED028C0D9D1DAE1DBF1D8093D0
:10213000EF029093F002A093F102B093F202440FE9
:10214000551F240F351FF901D183C0838091F302FD
:102150009091F40201969093F4028093F3022091FF
:10216000EA023091EB028217930724F01092F402F6
:102170001092F3029092E101809203021092E20128
:10218000109204026CE08EED92E00E94310981E031
:102190000E94120282E00E94D0011092E00180931E
:1021A000DF018230F0F38EED92E00E94F108C82F3B
:1021B0008EED92E00E94F108A12C8A299C2BBC0193
:1021C00090E080E00E94361220E030E044EB5DE3D6
:1021D0000E949C120E9400127093D3016093D2015E
:1021E0006B01770FEE08FF088EEC91E0FC01729115
:1021F000629152914291448355836683778321E0B3
:10220000EE3BF20709F098C0C092BE01D092BF0128
:10221000E092C001F092C1010C96D0E0C0E0448091
:1022200055806680778041915191619171914415FB
:102230005505660577050CF081C02196E817F9076A
:1022400071F78091060190910701A0910801B0916A
:102250000901A7019601281B390B4A0B5B0BDA0118
:10226000C901B7FF07C0B095A095909581959F4F84
:10227000AF4FBF4F0697A105B1050CF47BC080910D
:10228000BD01811112C09092BD016DE68AEA92E013
:102290000E946E0764E670E080E090E00E94CC044B
:1022A0006DE68AEA92E00E942E07D7FF4FC067EDE5
:1022B0008AEA92E00E946E0762E370E080E090E0BC
:1022C0000E94CC0467ED8AEA92E00E942E0780E02B
:1022D0000E948309C0920601D0920701E092080192
:1022E000F09209012FB7F8948091D5019091D60111
:1022F000A091D701B091D8012FBF8093B9019093DD
:10230000BA01A093BB01B093BC010115110509F4FA
:10231000D9CE0E940000D6CEFA01EE0FFF1FE20FC9
:10232000F31F40805180052C000C66087708841943
:102330009509A609B709F7CECF0158CF441655061F
:10234000660677060CF07ACF219778CFCD2B11F265
:1023500068ED8AEA92E00E946E0762E370E080E036
:1023600090E00E94CC0468ED8AEA92E00E942E0779
:1023700081E0AECF2FB7F8948091D5019091D6012E
:10238000A091D701B091D8012FBF4091B9015091D0
:10239000BA016091BB017091BC01841B950BA60B27
:1023A000B70B893C9105A105B10508F4AECF80912A
:1023B000BD01882391F01092BD016DE68AEA92E09A
:1023C0000E946E0764E670E080E090E00E94CC041A
:1023D0006DE68AEA92E00E942E070E94B00495CF33
:1023E00080910003909101030E94FB138091FD02F4
:1023F0009091FE0297FD03C060E00C948E03089557
:102400000E9407126894B1110C94961208950E94CC
:102410007B1288F09F5798F0B92F9927B751B0F0E9
:10242000E1F0660F771F881F991F1AF0BA95C9F758
:1024300014C0B13091F00E949512B1E008950C944F
:102440009512672F782F8827B85F39F0B93FCCF302
:10245000869577956795B395D9F73EF490958095D5
:10246000709561957F4F8F4F9F4F0895E89409C0F5
:1024700097FB3EF490958095709561957F4F8F4FB7
:102480009F4F9923A9F0F92F96E9BB279395F695CD
:10249000879577956795B795F111F8CFFAF4BB0F4B
:1024A00011F460FF1BC06F5F7F4F8F4F9F4F16C0AF
:1024B000882311F096E911C0772321F09EE8872F39
:1024C000762F05C0662371F096E8862F70E060E0F5
:1024D0002AF09A95660F771F881FDAF7880F96956E
:1024E000879597F9089557FD9058440F551F59F057
:1024F0005F3F71F04795880F97FB991F61F09F3FF1
:1025000079F087950895121613061406551FF2CF19
:102510004695F1DF08C0161617061806991FF1CF69
:1025200086957105610508940895E894BB27662790
:102530007727CB0197F908950E94AF120C942013CE
:102540000E94121338F00E94191320F0952311F005
:102550000C9409130C940F1311240C9496120E94DE
:10256000731270F3959FC1F3950F50E0551F629F52
:10257000F001729FBB27F00DB11D639FAA27F00DDC
:10258000B11DAA1F649F6627B00DA11D661F829F03
:102590002227B00DA11D621F739FB00DA11D621FE8
:1025A000839FA00D611D221F749F3327A00D611D05
:1025B000231F849F600D211D822F762F6A2F1124E7
:1025C0009F5750409AF0F1F088234AF0EE0FFF1F1A
:1025D000BB1F661F771F881F91505040A9F79E3F71
:1025E000510580F00C9409130C9496125F3FE4F3AC
:1025F000983ED4F3869577956795B795F795E795C7
:102600009F5FC1F7FE2B880F911D9695879597F9CF
:10261000089597F99F6780E870E060E008959FEF64
:1026200080EC089500240A94161617061806090669
:10263000089500240A941216130614060506089538
:10264000092E0394000C11F4882352F0BB0F40F4C0
:10265000BF2B11F460FF04C06F5F7F4F8F4F9F4F00
:10266000089597FB072E16F4009407D077FD09D044
:102670000E944B1307FC05D03EF4909581959F4F27
:102680000895709561957F4F0895EE0FFF1F059097
:10269000F491E02D0994AA1BBB1B51E107C0AA1FAE
:1026A000BB1FA617B70710F0A61BB70B881F991FF3
:1026B0005A95A9F780959095BC01CD0108950F9387
:1026C0001F93CF93DF938230910510F482E090E066
:1026D000E0910F03F091100330E020E0B0E0A0E0C3
:1026E000309799F42115310509F44AC0281B390B9C
:1026F00024303105D8F58A819B816115710589F1F6
:10270000FB0193838283FE0111C0408151810281CC
:10271000138148175907E0F04817590799F41097A3
:1027200061F012960C93129713961C933296CF0178
:10273000DF91CF911F910F91089500930F03109394
:102740001003F4CF2115310551F04217530738F02B
:10275000A901DB019A01BD01DF01F801C1CFEF0141
:10276000F9CF9093100380930F03CDCFFE01E20FBA
:10277000F31F819391932250310939832883D7CF56
:1027800020910D0330910E03232B41F420911B0166
:1027900030911C0130930E0320930D0320911901F9
:1027A00030911A012115310541F42DB73EB7409102
:1027B0001D0150911E01241B350BE0910D03F0917A
:1027C0000E03E217F307A0F42E1B3F0B281739075F
:1027D00078F0AC014E5F5F4F2417350748F04E0F7D
:1027E0005F1F50930E0340930D03819391939FCFEE
:1027F000F0E0E0E09CCFCF93DF930097E9F0FC019D
:10280000329713821282A0910F03B0911003ED0151
:1028100030E020E01097A1F420813181820F931FD6
:1028200020910D0330910E032817390709F061C07C
:10283000F0930E03E0930D03DF91CF910895EA0129
:10284000CE17DF07E8F54A815B819E0141155105EE
:10285000B1F7E901FB83EA8349915991C40FD51F70
:10286000EC17FD0761F4808191810296840F951F1A
:10287000E90199838883828193819B838A83F0E035
:10288000E0E012968D919C9113970097B9F52D91E8
:102890003C911197CD010296820F931F20910D0359
:1028A00030910E032817390739F6309751F51092F9
:1028B000100310920F03B0930E03A0930D03BCCF2F
:1028C000D383C28340815181840F951FC817D907D4
:1028D00061F44E5F5F4F88819981480F591F518382
:1028E00040838A819B81938382832115310509F07E
:1028F000B0CFF0931003E0930F039ECFFD01DC01F6
:10290000C0CF13821282D7CFDC0101C06D9341503A
:102910005040E0F7089511E0CCE3D1E004C0FE019F
:102920000E9445132196CD33D107C9F7F894FFCF04
:10293000FFFFFFFFFFFF19FCFFFF00E100000000A9
:10294000000000C180810000000000110380000031
:10295000000000ED0766082B08100800000000A02A
:102960000205066605B6020303C102DF020000008D
:1029700000D60702076009EC0700000000310904D7
:0C298000096009FE046F02F108E2080083
:00000001FF
