:100000000C94E1000C9409010C9409010C94090171
:100010000C9409010C9409010C9409010C94090138
:100020000C9409010C9409010C94820C0C94F10CB1
:100030000C9409010C9409010C9409010C94090118
:100040000C9409010C9409010C9409010C94090108
:100050000C9409010C9409010C9409010C94380CBE
:100060000C9409010C9409010C9409010C940901E8
:100070000C9409010C9409010C9409010C940901D8
:100080000C9409010C9409010C9409010C940901C8
:100090000C94230F0C9409010C9409010C94090190
:1000A0000C9409010C9409010C94090105A84CCD8C
:1000B000B2D44EB93836A9020C50B9918688083CA2
:1000C000A6AAAA2ABE000000803F0000000023006C
:1000D000260029002C002F00080B0002020201005C
:1000E000090400000102020000052400100105249B
:1000F000010101042402060524060001070581030D
:1001000010004009040100020A0000000705020275
:1001100040000007058302400000040309041201A7
:100120000002EF0201400912534D000101020301D8
:10013000486179726954656368004D616753637201
:100140006F6C6C0000000000240027002A002D00C6
:1001500030000000000200090F0000030401000C41
:10016000000000000000000000000000000000008F
:1001700000040802011040804010204080408008A8
:100180000204018040201002011080102040402015
:1001900000000000250028002B002E003100040480
:1001A0000404040304050202020204030202020220
:1001B0000606060606060404020202040400751080
:1001C000D61811241FBECFEFDAE0DEBFCDBF26E088
:1001D000A0EAB4E001C01D92AC33B207E1F714E02D
:1001E000A0E0B1E0E6E0FDE302C005900D92A03A88
:1001F000B107D9F710E0C0EED0E004C02197FE01AE
:100200000E94511CCF3DD107C9F70E9435110C94B3
:10021000761E0C9400004F925F926F927F928F92A5
:100220009F92AF92BF92FF922091220630912306B7
:100230008217930708F043C02B0166247724852E8C
:10024000962EA72EBB24B82DA42F20912806F42C7F
:10025000222391F0E22FF0E0E49DD001E59DB00D66
:10026000F49DB00D1124FB2E289D40011124B92DC1
:10027000249F90011124A32FE0912E06209129069E
:1002800030912A0650912B06E51323C0FC01EE0F96
:10029000FF1F8E0F9F1F820F931FE0912B06E80F09
:1002A000F92FF11DF082E0912C06E80FF92FF11DD6
:1002B000B08320912D06820F911DFC01A083FF9039
:1002C000BF90AF909F908F907F906F905F904F9076
:1002D0000895880F991F880F991F820F931FE80FA9
:1002E000F92FF11D1082D9CF9091A7059111FCCF64
:1002F00091E09093A7059093A6052FEF2093A50575
:100300001092A405260F2093A3059093A205909127
:10031000A205880F892B8093A2058091A1058130C9
:10032000F9F41092A1058091A2058093BB00809101
:10033000BC0083FDF8CF85EC8093BC008091A705BD
:100340008130E1F38091A405861710F46091A40533
:10035000A1E8B5E0E1E6F5E080E0861303C008958A
:1003600085EEEACF9D9191938F5FF7CF2091600545
:1003700081E0213208F044C08091A7058111FCCFB3
:1003800080915F0592E09093A70591E09093A60578
:100390009FEF9093A5051092A4052093A305AFE3CA
:1003A000B5E0E1E8F5E090E0291331C01092A20534
:1003B0009091A205880F892B8093A2058091A105B9
:1003C000813049F51092A1058091A2058093BB0070
:1003D0008091BC0083FDF8CF85EC8093BC008091B8
:1003E000A7058230E1F38091A5058F3FB1F08091A0
:1003F000A5058032A1F08091A505803391F084E0BD
:1004000010923E051092600510923D0508953D91B1
:1004100031939F5FC9CF85EEE0CF80E0F1CF82E0DE
:10042000EFCF83E0EDCF80913B0590913C05891B98
:10043000990B08951F93CF93DF9311E0180F20912C
:1004400028061217A1F1C0912906D0912A06215041
:1004500070E060E061F08F3FF1F430E050E040E0A8
:100460006FEF7FEF80E090E00E94321CB901FE0147
:100470004091240650912506CF018C1B9D0B8417BB
:10048000950798F44081469FC001479F900D112425
:1004900090833196EDCF812F90E0982F8827019798
:1004A000622F70E00E94E81BE2CF10932806DF91D4
:1004B000CF911F91089508950895FC01809136050C
:1004C000882311F13FB7F89482E08093E9002091EE
:1004D000F200822F90E01816190614F481E090E0E3
:1004E000882339F0289844E6409335054091F1007F
:1004F0004083222339F02091F200211103C02BE622
:100500002093E8003FBF08958FEF9FEF08952FB726
:10051000F89483E08093E9009091E800892F80723D
:1005200095FF04C09091F20080E4891B2FBF0895CD
:1005300080912D0581110DC082E08093290584E012
:1005400080932A0510922C0510922B0581E0809350
:100550002D0589E295E0089581508F3008F047C05D
:10056000E82FF0E0EA54FD4F0C94511CD302D7025F
:10057000C502CB02CF02F702F702F702DA02E0026D
:10058000E402E802EE02F702F202809180008F7727
:10059000809380000895809180008F7DF9CF8091B5
:1005A0008000877FF5CF84B58F7784BD089584B5AB
:1005B0008F7DFBCF809190008F778093900008957E
:1005C000809190008F7DF9CF80919000877FF5CF4B
:1005D0008091C0008F778093C00008958091C00003
:1005E0008F7DF9CF8091C200877F8093C2000895EC
:1005F0001F93CF93DF93282F30E0F901EE5AFE4F7F
:100600008491F901EF58FE4FD491F901E256FE4F63
:10061000C491CC23A9F0162F81110E94AC02EC2FBB
:10062000F0E0EE0FFF1FE057FE4FA591B4918FB79A
:10063000F894EC91111108C0D095DE23DC938FBFA4
:10064000DF91CF911F910895DE2BF8CF10923C05DA
:1006500010923B0510923E05109260051092A7057E
:1006600081E08093A6051092A10561E082E00E94DE
:10067000F80261E083E00E94F802E9EBF0E080819B
:100680008E7F808380818D7F808388E48093B80013
:1006900085E48093BC008BE592E090933A058093CB
:1006A00039058CE592E090933805809337050895DD
:1006B000CF93DF9390E0FC01EF58FE4F24918256D8
:1006C0009E4FFC0184918823D1F090E0880F991F00
:1006D000FC01EC5BFE4FA591B491FC01E057FE4F8D
:1006E000C591D49161110EC09FB7F8948C91E22FFF
:1006F000E0958E238C932881E223E8839FBFDF91CE
:10070000CF9108958FB7F894EC91E22BEC938FBFC3
:10071000F6CF3FB7F8948091250590912605A091DA
:100720002705B091280526B5A89B05C02F3F19F0D5
:100730000196A11DB11D3FBFBA2FA92F982F882761
:10074000BC01CD01620F711D811D911D42E0660F3C
:10075000771F881F991F4A95D1F708950F931F930C
:10076000CF93DF93CDB7DEB729970FB6F894DEBFEE
:100770000FBECDBF8091290690912A06892B09F4DE
:100780007CC00E94890300912F06109130062091B1
:10079000310630913206601771078207930740F4E3
:1007A00060932F0670933006809331069093320643
:1007B00000912F06109130062091310630913206BB
:1007C000601B710B820B930B6C327140810591059C
:1007D000C0F2F89480912406909125069A8389832B
:1007E000E0912906F0912A06DF0111968081898720
:1007F00090912006E0913306F09134068091350601
:10080000992309F445C09081982B98879081809511
:1008100089238F838F818C8388E08B8358856F81B8
:1008200049853B812C8189819A81508347FD252F01
:100830003A952083262F39F0441F00C000006083C2
:10084000000000C0F2CF38E04D91608300000197B6
:1008500061F7F0933406E093330649873B832C839A
:100860009A83898378940E94890360932F067093FA
:100870003006809331069093320629960FB6F8948D
:10088000DEBF0FBECDBFDF91CF911F910F910895B5
:100890009081982B98879081809589238F838F8171
:1008A0008E8388E08D8358856F8149853D812E81B7
:1008B00089819A81508347FD252F00C000C0208385
:1008C00000C000C000C000C000C060830000262F30
:1008D0003A9541F0441F000000C000C000C000C0B5
:1008E00000C0E8CF38E04D9100C0608300C00197A0
:1008F00009F7F0933406E093330649873D832E834E
:10090000AFCF8F929F92AF92BF92CF92DF92EF9232
:10091000FF924B015C010E9489036B017C010E94E4
:1009200089036C197D098E099F09683E7340810512
:100930009105A8F321E0821A9108A108B10888EE78
:10094000C80E83E0D81EE11CF11C81149104A1049F
:10095000B10429F7FF90EF90DF90CF90BF90AF9058
:100960009F908F9008952FB7F89460912105709112
:10097000220580912305909124052FBF0895409171
:10098000E5045091E6042091E3043091E404421719
:100990005307B4F49091E8009570E1F39091E8006A
:1009A00092FD19C08093F1008091E5049091E604D6
:1009B00001968F739927892B19F48EEF8093E800A5
:1009C0008091E5049091E60401969093E60480936B
:1009D000E50481E0089580E00895DF92EF92FF92B0
:1009E0000F931F93CF93DF93D82E8A01EB017B01E6
:1009F000E40EF51ECE15DF0559F0D7FE12C0FE013C
:100A000084910E94BF0421968111F4CF0FEF1FEF54
:100A1000C801DF91CF911F910F91FF90EF90DF9070
:100A200008958881EECF0F931F93CF93DF931F928A
:100A3000CDB7DEB782E0898342E450E068ED70E034
:100A400080E80E94ED040E949802DC0112960D914C
:100A50001C910115110589F0D801ED91FC910280DE
:100A6000F381E02DBE016F5F7F4FC801099597FDAF
:100A700004C0F80100851185ECCF89810F90DF91CA
:100A8000CF911F910F910895615030F02091F100A6
:100A9000FC0120830196F8CF289884E680933505E1
:100AA00008958F929F92AF92BF92CF92DF92EF9272
:100AB000FF920F931F93CF93DF936C017B018A0109
:100AC00080910B01882309F45CC08091360588234E
:100AD00009F457C08091E90480FF05C08091E000CF
:100AE00082608093E000E801B12C8AEFA82E93E0A9
:100AF000892E2AE3922E209711F4BB20D9F10E946F
:100B0000870281110AC0AA94AA20D9F161E070E09D
:100B100080E090E00E948104EECF8C171D0611F05A
:100B20000CF08C2F9FB7F8948092E9002091E80098
:100B300025FD02C09FBFDFCF282F30E0C21BD30BA3
:100B4000F701815020F041914093F100FACFE20E7D
:100B5000F31EBB2021F09092E800B12CEBCF8091E6
:100B6000E80085FDE7CF9092E800BB24B39420977E
:100B700009F3F3CF5D9884E68093E804101611061C
:100B80003CF081E090E0F6019383828310E000E086
:100B9000C801DF91CF911F910F91FF90EF90DF90EF
:100BA000CF90BF90AF909F908F900895CF93DF9399
:100BB0001F92CDB7DEB76983DC01ED91FC91028015
:100BC000F381E02D41E050E0BE016F5F7F4F09955A
:100BD0000F90DF91CF91089583E08093E900809199
:100BE000F200882319F08AE38093E80008950E94B8
:100BF000870290E00895CF93DF931F92CDB7DEB7C1
:100C0000FC018485958597FD08C02FEF3FEF358760
:100C100024870F90DF91CF910895CE0101960E9415
:100C20005D02019719F4898190E0F3CF8FEF9FEF78
:100C3000F0CF0F931F930E94B3046093B00570939D
:100C4000B1058093B2059093B30588EA95E00E94C0
:100C5000FB0597FF1DC00E94B3040091B0051091E1
:100C6000B1052091B2053091B305601B710B820B69
:100C7000930B0091AC051091AD052091AE0530911C
:100C8000AF056017710782079307F8F28FEF9FEFA8
:100C90001F910F9108950F931F93CF93DF931F928E
:100CA000CDB7DEB78C01FC018485958597FF0BC01D
:100CB000CE0101960E945D02019771F4898190E056
:100CC000F80195878487F801848595850F90DF91D9
:100CD000CF911F910F9108958FEF9FEFF1CFFC01FE
:100CE0008485958597FD0BC09FB7F89482E080932B
:100CF000E9008091F2009FBF90E0019608959FB7B0
:100D0000F89482E08093E9008091F2009FBF90E028
:100D1000089508954F925F926F927F928F929F9263
:100D2000AF92BF92CF92DF92EF92FF920F931F93F9
:100D3000CF93DF93782E642E522E07E010E0912C93
:100D4000EE24E394F12CC62FD0E0CE018E5A9E4FB4
:100D50006C01FE01EF58FE4F5F01C256DE4F990C49
:100D600060E0872D0E94F802B701002E01C0660FD7
:100D70000A94EAF76521862D0E94F80261E0872D2A
:100D80000E94F802F6018491F5018490FE014490DE
:100D9000442081F081110E94AC02E42DF0E0EE0FBE
:100DA000FF1FE653FF4FA591B4918C91882211F05B
:100DB000689490F80150110990F6892DDF91CF9138
:100DC0001F910F91FF90EF90DF90CF90BF90AF9069
:100DD0009F908F907F906F905F904F9008950895AF
:100DE00085ED8093BC008091BC0084FDFCCF109207
:100DF000A70508952091C004260F3327331F213201
:100E00003105ECF42091A705FC0190E080E024304E
:100E100069F082E00895A091C0042191AC01405690
:100E20005B4FA40FB52FB11D2C930196861798F335
:100E30008091C004680F6093C00480E0089581E051
:100E400008950895E0913C0580913B05E81730F442
:100E5000F0E0EF59FA4F808190E008958FEF9FEF17
:100E6000089590913C0580913B052FEF3FEF981737
:100E700048F4E92FF0E0EF59FA4F208130E09F5F0E
:100E800090933C05C9010895CF92DF92EF92FF92B3
:100E90000F931F93CF93DF937C01CB018A012091A5
:100EA0003D05222389F0EB016B01C40ED51ECC1544
:100EB000DD0569F06991D701ED91FC910190F08118
:100EC000E02DC7010995F3CF642F0E94FA06C801EF
:100ED000DF91CF911F910F91FF90EF90DF90CF9016
:100EE0000895CF93DF931F92CDB7DEB7698320912A
:100EF0003D052223F9F020916005203258F021E0D1
:100F000030E0FC013383228390E080E00F90DF919A
:100F1000CF91089580913E05E82FF0E0E15CFA4F13
:100F2000998190838F5F80933E058093600581E077
:100F300090E0ECCF61E0CE0101960E94FA06F7CF77
:100F4000CF93DF93D82FC62F809111068823C9F045
:100F50008091120691E090933D0580935F05109279
:100F60003E05109260056D2F88EF95E00E94710795
:100F70006C2F88EF95E00E947107DF91CF910C9460
:100F8000B60160E0809110060E94F8022D2F40917A
:100F90000E0660910F0680910D060E948A062C2F86
:100FA00040910E0660910F0680910D060E948A0600
:100FB00061E080911006DF91CF910C94F80290E0EF
:100FC00080E008951092EB041092EC041092ED046E
:100FD0001092EE040E94B3046093EF047093F00447
:100FE0008093F1049093F20408950E94740110928A
:100FF0003C0580933B050895CF93C82F809111063F
:10100000882309F18091120691E090933D05809329
:101010005F0510923E05109260056C2F88EF95E0F9
:101020000E9471070E94B6018091120661E070E093
:1010300090E00E94F50788EF95E00E943107C82FE5
:101040008C2FCF91089560E0809110060E94F802E5
:101050002C2F206840910E0660910F0680910D069E
:101060000E948A062FEF40910E0660910F06809134
:101070000D060E948A06C82F61E0809110060E942A
:10108000F802DECF0F931F93CF93DF93EC01162F5F
:101090008D85882341F18E8591E090933D05809365
:1010A0005F0510923E051092600588EF95E00E9462
:1010B00071070E94B6018E8562E070E090E00E94A8
:1010C000F50788EF95E00E943107C82F88EF95E07B
:1010D0000E94310700E0182F0C2BC801DF91CF913F
:1010E0001F910F91089560E08C850E94F802212FD6
:1010F000206C4A856B8589850E948A062FEF4A8578
:101100006B8589850E948A06082F2FEF4A856B859B
:1011100089850E948A06182F61E08C850E94F8025A
:10112000DCCFCF9381E080933D0586E380935F051C
:1011300010923E05109260056CE088EF95E00E94E9
:1011400071070E94B60162E086E30E94740110926A
:101150003C0580933B058230F0F388EF95E00E94D8
:101160003107C82F88EF95E00E94310720E0822BDD
:101170009C2BCF91089581E080933D0586E3809379
:101180005F0510923E05109260056BE088EF95E0D8
:101190000E9471070E94B60161E086E30E9474011B
:1011A00010923C0580933B05811101C0FFCF88EF71
:1011B00095E00C943107FC01808191810C94F31C23
:1011C0000C94F31CE0E2F6E04481558170E060E0AD
:1011D000818592850C94421E0F931F93CF93DF93CA
:1011E0008C01EB01FB01349680E2DF011D928A95B0
:1011F000E9F784E290E0A0E0B0E088839983AA83D5
:10120000BB83F80183819481A581B6818C839D8302
:10121000AE83BF8381E090E0A0E0B0E0888799874B
:10122000AA87BB87188A198A1A8A1B8A62E3C801AF
:101230000E944208BC01990F880B990B0E94431928
:101240002FE632E143E85BE30E94A2192AE038EE80
:101250004CE151E40E94A2196C8B7D8B8E8B9F8B8D
:1012600064E3C8010E944208BC01990F880B990BE6
:101270000E9443192FE632E143E85BE30E94A21982
:101280002AE038EE4CE151E40E94A219688F798F70
:101290008A8F9B8F66E3C8010E944208BC01990FA8
:1012A000880B990B0E9443192FE632E143E85BE378
:1012B0000E94A2192AE038EE4CE151E40E94A219E2
:1012C0006C8F7D8F8E8F9F8F81E0DF91CF911F91EB
:1012D0000F910895FC0101900020E9F73197AF01CB
:1012E000481B590BBC0188EA95E00C9451058F927C
:1012F0009F92AF92BF920F931F93CF93DF93CDB77F
:10130000DEB7A1970FB6F894DEBF0FBECDBF19A20E
:10131000423008F44AE08E010F5D1F4F842E912C5D
:10132000B12CA12CA50194010E94101CE62FB9013B
:10133000CA01EA30F4F4E05DD801EE938D01232B6D
:10134000242B252B79F790E080E0109719F0CD0140
:101350000E946A09A1960FB6F894DEBF0FBECDBFFA
:10136000DF91CF911F910F91BF90AF909F908F9081
:101370000895E95CE1CFCF92DF92EF92FF92CF9395
:10138000DF936C01990FEE08FF08F7FE19C06DE2BC
:1013900088EA95E00E94D605EC0166277727CB0105
:1013A0006C197D098E099F094AE00E9477098C0F0C
:1013B0009D1FDF91CF91FF90EF90DF90CF90089528
:1013C0004AE0C701B601DF91CF91FF90EF90DF9027
:1013D000CF900C947709682F70E090E080E04AE0AD
:1013E0000C947709CF93DF930E946A09EC0180E5A2
:1013F00091E00E946A098C0F9D1FDF91CF910895A3
:1014000010921A051092F8041092F7041092FA0440
:101410001092F9040E94B3046854744F8F4F9F4F89
:101420006093F3047093F4048093F5049093F604AE
:1014300083E591E00E94F2090C94E20710921905ED
:1014400081E080930C0110921A051092F80410921A
:10145000F7041092FA041092F9040E94B30468543D
:10146000744F8F4F9F4F6093F3047093F4048093F5
:10147000F5049093F6040E94E2080E94AE030E94D5
:101480009108BC0190E080E00E94411920E030E02A
:1014900044EB5DE30E94A2190E941D1B60930D01A5
:1014A00070930E0180930F01909310018BE691E0F1
:1014B0000C94F2090C946A090F931F93CF93DF9356
:1014C0006091110570E0C091FB04D091FC04CB0148
:1014D0008C0F9D1F01970E94FC1B8B018BE791E0F5
:1014E0000E945A0ACE010E94BB0987E891E00E943F
:1014F0005A0AC8010E94BB0980E591E00E946A096E
:101500000E94E208D0E0C0E0C017D107BCF4CC30A4
:10151000D105A1F0809106054091050550E070E0ED
:1015200060E0762F652F542F4427682B80910705A4
:10153000482BCE010E940B012196E6CFDF91CF917F
:101540001F910F910C94AE038091F7049091F804D1
:10155000892B69F481E090E09093F8048093F7047C
:101560008091110590E09093FE048093FD0480919A
:10157000FD049091FE049093FC048093FB040E9470
:10158000B3046093FF04709300058093010590936A
:1015900002056093140570931505809316059093CA
:1015A000170581E08093190510920C0110921A051D
:1015B0008CEA91E00E945A0A8091F7049091F80415
:1015C0000E94BB098CEB91E00E945A0A80911105A0
:1015D0000E94EB098BEC91E00E945A0A8091FD0475
:1015E0009091FE040E94BB0987ED91E00E94F209F0
:1015F0000C945C0A0F931F93CF93DF93FC0104813B
:1016000015810115110539F4FB011082DF91CF918D
:101610001F910F910895415051094017510708F447
:101620008A01EB01FC0160817181A801CE010E9459
:10163000671EC00FD11F1882E9CF0F931F93CF935E
:10164000DF938C01EB0188E2FB0111928A95E9F7A7
:101650004BE050E066EE71E0CE010E94671E1B86F3
:1016600081E090E0A0E0B0E08C879D87AE87BF87E7
:10167000F8014381548165817681488B598B6A8B4F
:101680007B8B8C8B9D8BAE8BBF8B1CA21DA21EA255
:101690001FA28AE098EEACE1B3EC888F998FAA8FF5
:1016A000BB8F8AE098EEACE1B3E48C8F9D8FAE8F58
:1016B000BF8F83EA9FEAA0E2BDE388A399A3AAA310
:1016C000BBA3DF91CF911F910F910895FB01DC0126
:1016D0008D919C91009761F0608171816115710518
:1016E00039F0448155810E94591E21E0892B09F06F
:1016F00020E0822F0895FC0124813581232B39F4C9
:1017000021E0FB018081882349F020E007C080812F
:1017100091810E94491E21E0892BB9F7822F0895FB
:101720000F931F93CF93DF93EC01888199810097EA
:1017300059F02A813B812617370730F081E0DF918D
:10174000CF911F910F9108958B016F5F7F4F0E9482
:101750007C1D009759F0998388831B830A832C8111
:101760003D81232B59F7FC011082E8CF80E0E7CFC1
:10177000EF92FF920F931F93CF93DF93EC017B01C6
:101780008A01BA010E94900B28813981811114C00D
:101790002115310519F0C9010E94F31C1982188224
:1017A0001D821C821B821A82CE01DF91CF911F9174
:1017B0000F91FF90EF9008951D830C83B701C9012D
:1017C0000E94521EF1CFFB01DC0111961C921E9269
:1017D00013961C921E92129715961C921E921497A5
:1017E0008617970749F0608171816115710521F0B5
:1017F000448155810C94B80B0895FC01118210822C
:101800001382128215821482FB0101900020E9F7F5
:101810003197AF01461B570B0C94B80BFF920F93F7
:101820001F93CF93DF9303E015E022E135E0F80149
:1018300080E0919189272E173F07D9F780931205F1
:10184000D0E0C0E0F801F1908F01CE010E94631A50
:10185000F81621F06F2DCE010E946B1A2196C0312F
:10186000D10581F7DF91CF911F910F91FF900895DE
:101870001F920F920FB60F9211242F933F938F93C5
:101880009F93AF93BF938091210590912205A091E2
:101890002305B09124053091200523E0230F2D3737
:1018A00058F50196A11DB11D2093200580932105B7
:1018B00090932205A0932305B093240580912505DC
:1018C00090912605A0912705B09128050196A11DAC
:1018D000B11D8093250590932605A0932705B0930D
:1018E0002805BF91AF919F918F913F912F910F90BC
:1018F0000FBE0F901F90189526E8230F0296A11D8A
:10190000B11DD2CF1F920F920FB60F9211248F9359
:101910009F938091E1009091E100937F9093E1008B
:1019200083FF0FC01092E90091E09093EB001092BA
:10193000EC0092E39093ED001092360598E09093BE
:10194000F00082FF22C093E09093E9009091F200B2
:10195000992319F09AE39093E8009091E804992371
:1019600041F09091E80491509093E804911101C0E6
:101970005D9A90913505992341F0909135059150EC
:1019800090933505911101C0289A84FF18C0809169
:10199000E2008E7E81608093E2008091E1008F7E84
:1019A0008093E1008091E9048E7E80618093E90458
:1019B0009F918F910F900FBE0F901F90189580FFF1
:1019C000F7CF8091E2008E7E80618093E20080916B
:1019D000E1008E7E8093E1008091E9048E7E81603B
:1019E000E5CF1F920F920FB60F921124CF92DF9284
:1019F000EF92FF920F931F932F933F934F935F9319
:101A00006F937F938F939F93AF93BF93EF93FF93C6
:101A1000CF93DF93CDB7DEB76C97DEBFCDBF10920B
:101A2000E9008091E80083FF25C068E0CE0145967B
:101A30000E94440582EF8093E8008D8987FF39C0BA
:101A40009091E80090FFFCCF982F907609F034C178
:101A50009E894F89588D2F89F88C911131C080381B
:101A600061F58091EA048093F1001092F1008EEF0D
:101A70008093E8006C960FB6F894DEBF0FBECDBF22
:101A8000DF91CF91FF91EF91BF91AF919F918F9196
:101A90007F916F915F914F913F912F911F910F9186
:101AA000FF90EF90DF90CF900F900FBE0F901F90A0
:101AB00018959EEF9093E800C7CF1092F100D5CF14
:101AC000913059F48111D3CF4130510581F6809185
:101AD000EA048D7F8093EA04CACF933049F48111E0
:101AE000C6CF4130510519F68091EA048260F2CFE9
:101AF000953041F48091E80080FFFCCF206820936E
:101B0000E300B5CF963009F0A9C00B8D1C8D22E003
:101B10001092E9001092E6041092E504F2122EC031
:101B20001092E4041092E3040E9413051F8299E0CE
:101B30009983FA8291E09E8390EA98879AEF998739
:101B40002091E5043091E604275F3F4F3C832B83CF
:101B50008D831092E9001092E6041092E504109330
:101B6000E4040093E30449E050E0BE016F5F7F4F5F
:101B700080E00E94ED040E94130579CF1093E404E5
:101B80000093E3040E949802DC0112960D911C91CF
:101B90000115110509F451C1D801ED91FC910480A2
:101BA000F581E02DBE016B5E7F4FC801099500975E
:101BB00009F03EC1F80100851185EACFF3E0FF127C
:101BC0000EC08F89882309F440C0823061F440E858
:101BD00069E08AE391E00E944210811148CF81E2DE
:101BE0008093EB0047CF813029F440E869E080E33F
:101BF00091E0F1CF833099F70E949802DC011296B0
:101C0000ED90FC908E010F5F1F4F6801E114F1040D
:101C100079F0D701ED91FC910680F781E02DB801B4
:101C2000C7010995080F111DF701E084F184EECF7B
:101C3000D8011C92F60101900020E9F73197BF010D
:101C40006C197D0940E0C601C6CF6AE171E0FB0175
:101C5000449150E080E80E94ED0409CF973009F4E8
:101C6000BECF983021F481E08093F10000CF99300D
:101C700009F0FDCE837009F0B2CFE8E1F1E081E038
:101C800031E096E32191222371F08093E9003093B3
:101C9000EB00DF0111972C912093EC009093ED0065
:101CA0008F5F873079F78EE78093EA001092EA0021
:101CB0008F8980933605DBCE8B8D9C8D1092E90049
:101CC0001092E6041092E5049093E4048093E304F8
:101CD000898D811192C08E899D89913A49F4813212
:101CE00009F07DCF47E050E064E071E080E0B3CFE1
:101CF000913209F074CF833269F48F89988DB0E006
:101D0000A0E08093000190930101A0930201B093A1
:101D10000301ADCE803269F48091E80082FFFCCFF0
:101D200067E084E091E00E9444058BEF8093E80037
:101D30009ECE823209F09BCE8F8980930B01EEEF0D
:101D4000FFE7859194918B3F9C4D51F1E0E0F8E0E5
:101D50008091040190910501A0910601B0910701C5
:101D6000803B9440A105B105F1F480910B0180FD09
:101D70001AC0EE3F8AE0F80789F587E797E7918375
:101D80008083809160008093E70488E19BE00FB638
:101D9000F894A895809360000FBE9093600067CE82
:101DA000EEEFFAE0D5CF808191818737974709F030
:101DB0005ECEA895809160008861809360008091DC
:101DC000E70480936000EE3F2AE0F20789F08091FB
:101DD000FE0A9091FF0A9183808349CE8081918190
:101DE0008737980751F29093FF0A8093FE0AC5CF78
:101DF0001092FF0A1092FE0A3ACE0E949802DC016D
:101E000012960D911C910115110509F4E8CED80127
:101E1000ED91FC910190F081E02DBE016B5E7F4F52
:101E2000C8010995811123CEF80100851185EBCFFA
:101E3000181619060CF41BCED2CEF1E0FF12BECE5E
:101E40006EE171E004CF1F920F920FB60F92112432
:101E50002F933F934F935F936F937F938F939F93B2
:101E6000AF93BF93EF93FF938091B900887F803643
:101E700009F44AC0F0F5883209F4A7C018F580319A
:101E800009F49BC0B8F4882309F4F9C0883009F438
:101E900094C0FF91EF91BF91AF919F918F917F91EE
:101EA0006F915F914F913F912F910F900FBE0F90C7
:101EB0001F901895883109F488C0803251F78093BB
:101EC000A50514C0803409F49DC040F48033B9F3F3
:101ED0008833F9F68093A50585ECB0C0803509F408
:101EE00085C0883509F496C0883499F60E94F006BA
:101EF000D0CF883909F48CC038F5883729F050F4F0
:101F0000883611F0803729F683E08093A705109278
:101F1000E20457C0883809F47BC0803919F0803852
:101F200009F0B7CF8091E204803208F071C0E091EF
:101F3000E20481E08E0F8093E2048091BB00F0E028
:101F4000EE53FB4F80833DC0803B39F0E0F4803A94
:101F500009F479C0883A09F09CCF84E08093A70502
:101F60001092C1041092C004E0913905F0913A0535
:101F700009958091C00481110FC081E08093C00455
:101F80001092A00409C0803C09F4A6CF883C09F453
:101F9000A3CF883B09F07DCFE091C10481E08E0F93
:101FA0008093C104F0E0E056FB4F80818093BB003A
:101FB0009091C1048091C00429C08091A2058093B2
:101FC000BB0085EC8093BC0064CF9091A405809108
:101FD000A305981758F5E091A40581E08E0F809332
:101FE000A405F0E0EF57FA4F8081E9CFE091A40516
:101FF00081E08E0F8093A4058091BB00F0E0EF5745
:10200000FA4F80839091A4058091A3059817C8F298
:1020100085E8D8CFE091A40581E08E0F8093A405D8
:102020008091BB00F0E0EF57FA4F80838091A605C6
:1020300081115CCF81E08093A10584EA8093BC008C
:102040001092A70526CF85EC8093BC001092A705BF
:102050008091E204803230F4E091E204F0E0EE534B
:10206000FB4F10826091E20470E0E0913705F0913F
:10207000380582EC94E009951092E2040ACF1092A0
:10208000A50534CFEF92FF920F931F93CF93DF9369
:10209000F82E192FE62E042F81E0860F880F0E945C
:1020A000BF0483E00E94BF04CF2DD12FEC0EFD2E84
:1020B000F11CCE15DF05B9F007FF13C0FE018491B6
:1020C0000E94BF04182F80E00E94BF048123219644
:1020D0008111EFCFDF91CF911F910F91FF90EF9082
:1020E00008958881EDCF81E0F5CF1092AB05109275
:1020F000AA0588EE93E0A0E0B0E08093AC05909351
:10210000AD05A093AE05B093AF0522E231E0309368
:10211000A9052093A8052FEF3FEF3093B505209335
:10212000B4051092FB051092FA058093FC0590937C
:10213000FD05A093FE05B093FF0584E391E0909325
:10214000F9058093F8051092210610922806109246
:102150002F0610923006109231061092320610921D
:102160002E0610922B0681E080932C0692E090932D
:102170002D068093200684E290E0909325068093BC
:1021800024060E94571C90932A06809329060097E4
:1021900009F462C024E2FC0111922A95E9F78CE06F
:1021A00090E0909323068093220687E190E090933D
:1021B00027068093260680912106882341F061E05E
:1021C00087E10E94580360E087E10E94F802E5EB96
:1021D000F1E0E491F0E0EE0FFF1FE057FE4F859134
:1021E00094919093340680933306E8E8F1E0E4910B
:1021F000E093350684E190E09093140680931306F3
:1022000010921506109217061092160610921806D4
:102210001092190610921A0610921B0610921D06B3
:1022200010921C0686E491E09093050680930406C4
:1022300089E390E3A0E0B0E080930706909308065E
:10224000A0930906B0930A0610920C0610920B0692
:1022500081E08093110608951092250610922406BD
:102260001092230610922206A0CFCF93DF93CDB712
:10227000DEB7CC54D1090FB6F894DEBF0FBECDBF88
:10228000789484B5826084BD84B5816084BD85B551
:10229000826085BD85B5816085BD80916E0081605D
:1022A00080936E0010928100809181008260809303
:1022B0008100809181008160809381008091800005
:1022C0008160809380008091910082608093910072
:1022D0008091910081608093910080919000816055
:1022E000809390008091C10084608093C1008091B0
:1022F000C10082608093C1008091C10081608093A1
:10230000C1008091C30081608093C3008091C000B0
:1023100082608093C0008091C20081608093C2007F
:1023200080917A00846080937A0080917A00826044
:1023300080937A0080917A00816080937A00809106
:102340007A00806880937A00109236051092EA0431
:102350001092E9048091D70081608093D70080EAD1
:102360008093D80089B5806189BD89B5826089BDB7
:1023700009B400FEFDCF61E070E080E090E00E94D3
:1023800081048091D8008F7C80618093D8008091F7
:10239000E000807F8093E0008091E1008E7E80935A
:1023A000E1008DE08093E200559A209A8FEF9FEF35
:1023B0009093B5058093B4058091260690912706E9
:1023C00097FD08C061E00E94580360E080912606F6
:1023D0000E94F80281E0809321060E94E2080E9498
:1023E000AE038091130690911406811520E49207A4
:1023F00008F0EFC0880F991F0E94571C90931F068A
:1024000080931E060E94260373E0E72E75E0F72EE8
:1024100010E000E0C8010E94631AF70181937F0178
:102420000F5F1F4F00311105A9F7809103058D340F
:1024300021F480910405823031F18DE4809303050D
:1024400092E09093040510920505109206058FEF17
:1024500080930705809308051092090510920A05DC
:1024600010920B0580930C0510920D0588EC80935B
:102470000E058AE080930F059093100585E0809308
:1024800011050E940E0C80910E050E941A0283E530
:102490008093120680911106882309F49DC00E9442
:1024A000260380E00E94FC07853E09F4B4C08EEE4E
:1024B00091E00E94F2090E94BB0885FD0CC08CE0EF
:1024C00092E00E94F2090E94BB0885FFC8C08CE21E
:1024D00092E00E94F2090E949108BC0190E080E025
:1024E0000E94411920E030E044EB5DE30E94A21914
:1024F0000E941D1B60930D0170930E0180930F01CC
:10250000909310011092FA041092F9040E94B304FF
:102510006093F3047093F4048093F5049093F604AD
:102520008DE392E00E94F2090E94E2076CE3262EFE
:10253000312C412C512C66246A94712C0E949108F4
:102540005C0188EA95E00E946F06892B09F487C137
:1025500029961FAE1EAE29972B961FAE1EAE2B9747
:102560002D961FAE1EAE2D9750E040E062E571E063
:10257000CE01895B9F4F0E94B80B0E94190697FD00
:1025800075C08A30910509F471C089831A822D962D
:102590000EAD1FAD2D970F5F1F4FB801CE01895BA8
:1025A0009F4F0E94900B882341F329962EAD3FAD9B
:1025B00029972D968EAD9FAD2D97BE016F5F7F4FF2
:1025C000820F931F0E94521E2D961FAF0EAF2D97A4
:1025D000D4CF8FEF9FEF10CF61E0809110060E9463
:1025E000580361E0809110060E94F80261E080913A
:1025F0000D060E94580361E080910D060E94F802CA
:1026000061E080910E060E94580360E080910F0601
:102610000E94580346CF68E08DE20E94A00781E344
:102620000E94FC07807F682F6B6081E30E94A007F7
:1026300083E090E090930C0680930B0662E38DE1BB
:102640000E94A00764E181E20E94A00767E08AE29D
:102650000E94A00760E48EE20E94A0072CCF68EEE3
:1026600073E080E090E00E9481042DCF2996CEACEB
:10267000DFAC2997C114D10449F02D960EAD1FADE2
:102680002D9776010115110509F083C06CE472E005
:10269000CE0101960E94FD0B2D962EAD3FAD2D97DC
:1026A0008D819E8110E02817390748F0BE016F5FC9
:1026B0007F4FCE01895B9F4F0E94660B182FCE0182
:1026C00001960E94DB08112309F453C1BE01695B26
:1026D0007F4FCE018F5B9F4F0E94E30B40E450E0A1
:1026E000BE016F5F7F4FCE018F5B9F4F0E94FA0A42
:1026F0006AEB71E0CE0101960E9404196AEB71E069
:1027000090E080E00E9404198C016AEB71E090E097
:1027100080E00E9404194C016AEB71E090E080E0D7
:102720000E9404196C016AEB71E090E080E00E9465
:1027300004197C010115110509F487C08114910465
:1027400009F483C0C114D10409F47FC0892B09F4B2
:102750007CC0C4010E94E618982EC6010E94E618AB
:10276000D82EC7010E94E618F82E66E572E0C8016F
:102770000E94491E892B09F048C090920505D0920D
:102780000605F09207050E940E0C80EA92E05BC0FD
:1027900074014701FFEF8F1A9F0AF7018081082E0D
:1027A000000C990B0E943819892B91F701501109DF
:1027B0000C0D1D1DF8018081082E000C990B0E9444
:1027C0003819892B31F00E151F0518F00150110929
:1027D000F1CF0F5F1F4FA8014E195F092D965FAF14
:1027E0004EAF2D97CE14DF0420F4B701C6010E942E
:1027F000391E2996EEADFFAD29972D968EAD9FAD72
:102800002D97E80FF91F108241CF66E672E0C801EC
:102810000E94491E892B39F490920805D09209052F
:10282000F0920A05B0CF65E772E0C8010E94491E28
:10283000892B39F490920B05D0920C05F0920D057E
:10284000A2CF86E892E00E94F209CE018F5B9F4FF3
:102850000E94DB08CE01895B9F4F0E94DB0880E36A
:102860000E94FC0786FFD7C10E94B30400911B059C
:1028700010911C0520911D0530911E05601B710BE8
:10288000820B930B693E73408105910508F463C088
:102890008EE993E00E94F20911E010931F050E9457
:1028A000B30460931B0570931C0580931D059093E2
:1028B0001E050E94B3046854744F8F4F9F4F60935E
:1028C000F3047093F4048093F5049093F6048091DC
:1028D0001805882309F489C180EC93E00E94F2096D
:1028E0001092180510930C0110921A051092F8041A
:1028F0001092F7041092FA041092F9040E94B304A3
:102900006854744F8F4F9F4F6093F3047093F40497
:102910008093F5049093F6040E94E2080E94AE03AF
:102920000E949108BC0190E080E00E94411920E0E3
:1029300030E044EB5DE30E94A2190E941D1B6093EE
:102940000D0170930E0180930F019093100185ED9E
:1029500093E00E94F20968EC70E080E090E00E9451
:10296000810440E050E0452B09F4E8CD0E940000CE
:10297000E2CD62EB72E0CE0101960E94FD0B2D9636
:102980002EAD3FAD2D978D819E812817390748F0D8
:10299000BE016F5F7F4FCE01895B9F4F0E94660B28
:1029A000182FCE0101960E94DB08112399F1BE0178
:1029B000695B7F4FCE018F5B9F4F0E94E30B40E22C
:1029C00050E0BE016F5F7F4FCE018F5B9F4F0E9433
:1029D000FA0A6AEB71E0CE0101960E9404196AEBD3
:1029E00071E090E080E00E940419009709F42DCF77
:1029F0000E94E6189C01215031092A30310538F433
:102A0000809311050E940E0C88EC92E01CCF8DED96
:102A100092E019CF6AEF72E0CE0101960E94FD0BA1
:102A20002D962EAD3FAD2D978D819E8128173907AC
:102A300048F0BE016F5F7F4FCE01895B9F4F0E94C0
:102A4000660B182FCE0101960E94DB08112389F135
:102A5000BE01695B7F4FCE018F5B9F4F0E94E30BEE
:102A600040E250E0BE016F5F7F4FCE018F5B9F4F12
:102A70000E94FA0A6AEB71E0CE0101960E940419E5
:102A80006AEB71E090E080E00E940419009709F47D
:102A9000DCCE0E94E6188F3F910511F008F0D5CEEC
:102AA00080930E050E941A020E940E0C89E093E0AA
:102AB000CACE60E273E0CE01895B9F4F0E947B0B20
:102AC000882309F45DC08DE293E00E945A0A809148
:102AD00005050E94EB0982E493E00E945A0A809166
:102AE00006050E94EB0982E493E00E945A0A809155
:102AF00007050E94EB0984E493E00E945A0A809142
:102B000008050E94EB0982E493E00E945A0A809132
:102B100009050E94EB0982E493E00E945A0A809121
:102B20000A050E94EB0980E593E00E945A0A809111
:102B30000B050E94EB0982E493E00E945A0A8091FF
:102B40000C050E94EB0982E493E00E945A0A8091EE
:102B50000D050E94EB098EE593E00E945A0A8091D0
:102B600011050E94EB0989E693E00E945A0A8091C0
:102B70000E050E94EB0980E591E00E946A096ACE89
:102B800062E773E0CE01895B9F4F0E947B0B882335
:102B900041F080910C01882309F45CCE0E94A40AC4
:102BA00059CE6EE773E0CE01895B9F4F0E947B0B8D
:102BB000882361F080911905811105C08091180565
:102BC000882309F447CE0E941E0A44CE6BE873E0C6
:102BD000CE01895B9F4F0E947B0B882309F43ACE7C
:102BE00080E993E00E94F20935CE8091190588238F
:102BF00039F089EE93E00E94F2090E941E0AABCEE2
:102C000080911A05882321F084E094E00E94F20963
:102C10000E94000AA0CE80911F05882369F10E94BE
:102C2000B30400911B0510911C0520911D053091E6
:102C30001E05601B710B820B930B653F7140810574
:102C4000910508F48ECE10921F050E949108BC01D8
:102C500090E080E00E94411920E030E044EB5DE329
:102C60000E94A2190E941D1B60930D0170930E011A
:102C700080930F0190931001B50190E080E00E94D5
:102C8000411920E030E044EB5DE30E94A2190E946C
:102C90001D1B4B015C0190911A0580910C0188234A
:102CA00009F4D7C09111D5C00E94B3040091EF047C
:102CB0001091F0042091F1043091F204601B710B2B
:102CC000820B930B653171058105910508F47CC079
:102CD0002DEC3CEC4CE45DE36091EB047091EC0472
:102CE0008091ED049091EE040E94B11A6B017C0179
:102CF0002BED3FE049EC50E40E94531B18160CF4F6
:102D00009FC0C092EB04D092EC04E092ED04F092EC
:102D1000EE046091EB047091EC048091ED049091CD
:102D2000EE040E94581B20E030E040E85FE30E9480
:102D3000B11A20E030E040E05FE30E94A21920E0F9
:102D400030E040EA52E40E94A2190E941D1B28E2D2
:102D5000260F80910C05289FC0011124B3010E9409
:102D6000FC1B362F80910B05289FC0011124B30155
:102D70000E94FC1BC62ED12CF12CE12CFE2CED2C3C
:102D8000DC2CCC24E32A80910D05289FC00111245E
:102D9000B3010E94FC1BC62A10E000E0B701A601A7
:102DA000C8010E940B010F5F1F4F0C301105B1F7D6
:102DB0000E94AE030E94B3046093EF047093F0048A
:102DC0008093F1049093F20480910D0190910E0193
:102DD000A0910F01B0911001A5019401281B390B9E
:102DE0004A0B5B0BDA01C901B7FF07C0B095A0958C
:102DF000909581959F4FAF4FBF4F0297A105B105A9
:102E00000CF425C181E080931A050E94B3046093FD
:102E1000F3047093F4048093F5049093F6041092F5
:102E2000FA041092F90480920D0190920E01A09282
:102E30000F01B092100180E294E00E94F20907C1F4
:102E40001092EB041092EC041092ED041092EE0438
:102E500060CF80911905992309F4FEC08111FFC04C
:102E600080910D0190910E01A0910F01B091100180
:102E7000A5019401281B390B4A0B5B0BDA01C90130
:102E8000A901BD01B7FF07C044275527BA01481B58
:102E9000590B6A0B7B0B42305105610571050CF42F
:102EA000B5C0853B9105A105B1050CF492C08856CB
:102EB0009140A109B1092091F9043091FA04820FDF
:102EC000931F97FD92C09093FA048093F904809128
:102ED000F9049091FA048936914034F088E691E043
:102EE0009093FA048093F9048091F9049091FA0484
:102EF0000F966EE170E00E94FC1B8B016D30710536
:102F000014F00CE010E01016110614F001E010E0CF
:102F10008091F7049091F8048017910709F46CC030
:102F20001093F8040093F70420911105209FC0012D
:102F3000219F900D11249093FE048093FD048EE454
:102F400094E00E945A0AC8010E94BB098CEB91E0F0
:102F50000E945A0A809111050E94EB098BEC91E0C6
:102F60000E945A0A8091FD049091FE040E94BB09C0
:102F700086E594E00E945A0A8091F9049091FA043F
:102F80000E94BB0980E591E00E946A090E94E20864
:102F900010E000E08091F7049091F80408171907F9
:102FA0004CF50C30110531F1809106054091050575
:102FB00050E070E060E0762F652F542F4427682B97
:102FC00080910705482BC8010E940B010F5F1F4F1E
:102FD000E1CF8C343FEF9307A307B3070CF06BCF1F
:102FE00088599E4FAF4FBF4F66CF1092FA04109290
:102FF000F9046DCF0E94AE030E94B3046093F30402
:103000007093F4048093F5049093F60480920D017C
:1030100090920E01A0920F01B09210010E94B30491
:103020000091F3041091F4042091F5043091F6041A
:10303000601B710B820B930B613D774081059105FD
:1030400030F080E794E00E94F2090E94A40A6AE04E
:1030500070E080E090E083CC882309F459C00E949E
:10306000B3044B015C018091FD049091FE04FCE3EC
:10307000F89F6001F99FD00C11240D2C000CEE0874
:10308000FF088091FF0490910005A0910105B09187
:103090000205A5019401281B390B4A0B5B0BCA01E1
:1030A000B90128EE33E040E050E00E94101CC21A43
:1030B000D30AE40AF50AC701B601655C7F4F8F4F5A
:1030C0009F4FA20191010E94101C8091FB049091DE
:1030D000FC048217930709F4BACF3093FC042093C1
:1030E000FB04CD28CE28CF2881F41092190581E069
:1030F000809318058092140590921505A0921605EC
:10310000B092170580E994E098CE0E945C0A9FCFA8
:1031100080911805882309F49ACF0E94B3046B01AB
:103120007C018091140590911505A0911605B09130
:103130001705A7019601281B390B4A0B5B0BDA0117
:10314000C9018A3F9105A105B10508F480CF80919E
:10315000130591E0892780931305882321F110E05E
:1031600000E0809109054091080550E070E060E0C2
:10317000762F652F542F4427682B80910A05482B02
:10318000C8010E940B010F5F1F4F0C30110549F75A
:103190000E94AE03C0921405D0921505E092160568
:1031A000F092170554CF0E94E208F2CF80912906D1
:1031B00090912A060E94F31C809126069091270682
:1031C00097FD03C060E00C9458030895FC01882724
:1031D0009927E89421912032E9F3293010F02E301C
:1031E000C8F32B3241F02D3239F4689404C00E94A8
:1031F0003019820F911D219120532A30C0F31EF403
:10320000909581959F4F089546E356E00E940919D5
:103210000895FA01A191B081009719F41097E1F097
:10322000CD01DC01CD010D90002011F4C00113C0CF
:10323000FB012191222319F02015D9F7F3CFFB01CF
:103240002191201519F41E92119606C02223C1F770
:103250000D900020A1F7D001FA01A193B083089549
:103260007AE0979F902D879F802D910D11240895CE
:1032700091110C940F1A803219F089508550C8F7BB
:103280000895E89409C097FB3EF490958095709559
:1032900061957F4F8F4F9F4F9923A9F0F92F96E9A2
:1032A000BB279395F695879577956795B795F11117
:1032B000F8CFFAF4BB0F11F460FF1BC06F5F7F4FB4
:1032C0008F4F9F4F16C0882311F096E911C07723C6
:1032D00021F09EE8872F762F05C0662371F096E8CF
:1032E000862F70E060E02AF09A95660F771F881F9E
:1032F000DAF7880F9695879597F90895990F000842
:10330000550FAA0BE0E8FEEF16161706E807F907B7
:10331000C0F012161306E407F50798F0621B730B52
:10332000840B950B39F40A2661F0232B242B252BD3
:1033300021F408950A2609F4A140A6958FEF811D76
:10334000811D08950E94B5190C94291A0E941B1A18
:1033500038F00E94221A20F0952311F00C94121AD2
:103360000C94181A11240C945D1A0E943A1A70F3E6
:10337000959FC1F3950F50E0551F629FF001729F1A
:10338000BB27F00DB11D639FAA27F00DB11DAA1F29
:10339000649F6627B00DA11D661F829F2227B00D76
:1033A000A11D621F739FB00DA11D621F839FA00D01
:1033B000611D221F749F3327A00D611D231F849F51
:1033C000600D211D822F762F6A2F11249F575040A8
:1033D0009AF0F1F088234AF0EE0FFF1FBB1F661F23
:1033E000771F881F91505040A9F79E3F510580F0EC
:1033F0000C94121A0C945D1A5F3FE4F3983ED4F3D8
:10340000869577956795B795F795E7959F5FC1F78F
:10341000FE2B880F911D9695879597F9089599270A
:103420008827089597F99F6780E870E060E0089525
:103430009FEF80EC089500240A94161617061806CC
:103440000906089500240A941216130614060506A8
:103450000895092E0394000C11F4882352F0BB0F39
:1034600040F4BF2B11F460FF04C06F5F7F4F8F4F9C
:103470009F4F089557FD9058440F551F59F05F3FD7
:1034800071F04795880F97FB991F61F09F3F79F086
:1034900087950895121613061406551FF2CF469508
:1034A000F1DF08C0161617061806991FF1CF86958A
:1034B0007105610508940895E894BB27662777276E
:1034C000CB0197F90895F999FECF92BD81BDF89A85
:1034D000992780B50895262FF999FECF1FBA92BD7E
:1034E00081BD20BD0FB6F894FA9AF99A0FBE0196E5
:1034F00008952F923F924F925F926F927F928F9298
:103500009F92AF92BF92CF92DF92EF92FF920F9372
:103510001F93CF93DF93CDB7DEB7CA1BDB0B0FB67C
:10352000F894DEBF0FBECDBF09942A883988488839
:103530005F846E847D848C849B84AA84B984C884CF
:10354000DF80EE80FD800C811B81AA81B981CE0FC6
:10355000D11D0FB6F894DEBF0FBECDBFED010895AB
:103560005058BB27AA270E94C81A0C94291A0E94F7
:103570001B1A38F00E94221A20F039F49F3F19F4E8
:1035800026F40C94181A0EF4E095E7FB0C94121A2A
:10359000E92F0E943A1A58F3BA1762077307840793
:1035A000950720F079F4A6F50C945C1A0EF4E095DA
:1035B0000B2EBA2FA02D0B01B90190010C01CA01ED
:1035C000A0011124FF27591B99F0593F50F4503E98
:1035D00068F11A16F040A22F232F342F4427585F8A
:1035E000F3CF469537952795A795F0405395C9F7A2
:1035F0007EF41F16BA0B620B730B840BBAF091505A
:10360000A1F0FF0FBB1F661F771F881FC2F70EC0F8
:10361000BA0F621F731F841F48F4879577956795CB
:10362000B795F7959E3F08F0B0CF9395880F08F0B7
:103630009927EE0F9795879508950E94241B68940B
:10364000B1110C945D1A08950E94421A88F09F5798
:1036500098F0B92F9927B751B0F0E1F0660F771FB6
:10366000881F991F1AF0BA95C9F714C0B13091F0AC
:103670000E945C1AB1E008950C945C1A672F782FB1
:103680008827B85F39F0B93FCCF386957795679571
:10369000B395D9F73EF490958095709561957F4FDD
:1036A0008F4F9F4F08950E947E1908F48FEF089561
:1036B0009F930E94621B0F9007FCEE5F0C948B1B84
:1036C0000C94181A0E94421AD8F3E894E0E0BB2741
:1036D0009F57F0F02AED3FE049EC06C0EE0FBB0F1C
:1036E000661F771F881F28F0B23A620773078407A6
:1036F00028F0B25A620B730B840BE3959A9572F71C
:10370000803830F49A95BB0F661F771F881FD2F759
:1037100090480C94A11BEF93E0FF07C0A2EA2AEDAA
:103720003FE049EC5FEB0E94C81A0E94291A0F90F3
:10373000039401FC9058ECEAF0E00C94AD1B9F3F21
:1037400031F0915020F4879577956795B795880F5C
:10375000911D9695879597F908959F938F937F93E1
:103760006F93FF93EF939B01AC010E94A219EF911D
:10377000FF910E94C11B2F913F914F915F910C943B
:10378000A219DF93CF931F930F93FF92EF92DF92D3
:103790007B018C01689406C0DA2EEF010E94B519F6
:1037A000FE01E894A5912591359145915591A6F397
:1037B000EF010E94C81AFE019701A801DA9469F787
:1037C000DF90EF90FF900F911F91CF91DF910895BF
:1037D000AA1BBB1B51E107C0AA1FBB1FA617B70737
:1037E00010F0A61BB70B881F991F5A95A9F7809553
:1037F0009095BC01CD01089597FB072E16F4009417
:1038000007D077FD09D00E94E81B07FC05D03EF4E5
:10381000909581959F4F0895709561957F4F08957C
:10382000A1E21A2EAA1BBB1BFD010DC0AA1FBB1FC4
:10383000EE1FFF1FA217B307E407F50720F0A21B36
:10384000B30BE40BF50B661F771F881F991F1A94A3
:1038500069F760957095809590959B01AC01BD01CD
:10386000CF010895052E97FB1EF400940E94491C79
:1038700057FD07D00E94101C07FC03D04EF40C9497
:10388000491C50954095309521953F4F4F4F5F4FC4
:10389000089590958095709561957F4F8F4F9F4FBC
:1038A0000895EE0FFF1F0590F491E02D09940F93FA
:1038B0001F93CF93DF938230910510F482E090E064
:1038C000E0913A06F0913B0630E020E0B0E0A0E065
:1038D000309799F42115310509F44AC0281B390B9A
:1038E00024303105D8F58A819B816115710589F1F4
:1038F000FB0193838283FE0111C0408151810281CB
:10390000138148175907E0F04817590799F41097A1
:1039100061F012960C93129713961C933296CF0176
:10392000DF91CF911F910F91089500933A06109364
:103930003B06F4CF2115310551F04217530738F0FB
:10394000A901DB019A01BD01DF01F801C1CFEF013F
:10395000F9CF90933B0680933A06CDCFFE01E20F5C
:10396000F31F819391932250310939832883D7CF54
:103970002091380630913906232B41F42091130110
:1039800030911401309339062093380620911101AB
:10399000309112012115310541F42DB73EB7409108
:1039A000150150911601241B350BE0913806F0915A
:1039B0003906E217F307A0F42E1B3F0B281739072F
:1039C00078F0AC014E5F5F4F2417350748F04E0F7B
:1039D0005F1F5093390640933806819391939FCF90
:1039E000F0E0E0E09CCFCF93DF930097E9F0FC019B
:1039F000329713821282A0913A06B0913B06ED01F4
:103A000030E020E01097A1F420813181820F931FD4
:103A100020913806309139062817390709F061C01E
:103A2000F0933906E0933806DF91CF910895EA01CB
:103A3000CE17DF07E8F54A815B819E0141155105EC
:103A4000B1F7E901FB83EA8349915991C40FD51F6E
:103A5000EC17FD0761F4808191810296840F951F18
:103A6000E90199838883828193819B838A83F0E033
:103A7000E0E012968D919C9113970097B9F52D91E6
:103A80003C911197CD010296820F931F2091380629
:103A9000309139062817390739F6309751F51092C9
:103AA0003B0610923A06B0933906A0933806BCCF75
:103AB000D383C28340815181840F951FC817D907D2
:103AC00061F44E5F5F4F88819981480F591F518380
:103AD00040838A819B81938382832115310509F07C
:103AE000B0CFF0933B06E0933A069ECFFD01DC0198
:103AF000C0CF13821282D7CFB0E0A0E0E2E8FDE1B0
:103B00000C947B1A8C01009751F4CB010E94571C36
:103B10008C01C801CDB7DEB7E0E10C94971AFC0127
:103B2000E60FF71F9C0122503109E217F30708F452
:103B30009DC0D901CD91DC911197C617D70798F098
:103B4000C530D10530F3CE0104978617970708F3E7
:103B5000C61BD70B2297C193D1936D937C93CF0152
:103B60000E94F31CD6CF5B01AC1ABD0A4C018C0E2F
:103B70009D1EA0913A06B0913B06512C412CF12C90
:103B8000E12C109731F5809138069091390688150F
:103B9000990509F05CC04616570608F058C0809198
:103BA000110190911201009741F48DB79EB7409199
:103BB000150150911601841B950BE817F90708F0C1
:103BC00055C0F0933906E0933806F901718360839C
:103BD000A0CF8D919C91119712966C90129713968D
:103BE0007C901397A815B90559F56C0142E0C40EF5
:103BF000D11CCA14DB0420F1AC014A195B09DA01BB
:103C00001296159780F06282738251834083D901A6
:103C10006D937C93E114F10471F0D7011396FC933A
:103C2000EE93129776CF22968C0F9D1FF901918308
:103C30008083F301EFCFF0933B06E0933A0669CF20
:103C40004816590608F42C017D01D3019ACFCB0107
:103C50000E94571C7C01009749F0AE01B8010E94F8
:103C6000391EC8010E94F31C870153CF10E000E009
:103C700050CFFB01DC0102C001900D924150504039
:103C8000D8F70895DC0101C06D9341505040E0F732
:103C90000895FB01DC018D91019080190110D9F389
:103CA000990B0895FB01DC0101900D920020E1F7D2
:103CB0000895FB01DC014150504030F08D9101909E
:103CC000801919F40020B9F7881B990B0895FB019E
:103CD000DC014150504048F001900D920020C9F79E
:103CE00001C01D9241505040E0F7089510E0C0EE31
:103CF000D0E004C0FE010E94511C2196C13ED107B4
:063D0000C9F7F894FFCFA3
:103D0600FFFFFFFF00E10000000000000119FCFFBB
:103D1600FF00003C06800000C1808100000000001A
:103D26000000D6055105F705EC056F06FB054B06A9
:103D36000000000071074407DF072107130231075F
:103D46002207000000008906E008EF06EC081D0BBC
:103D56000D0A0054696D65722073657474696E6727
:103D66002063616E63656C6C65640054494D455211
:103D76005F43414E43454C4C45440054494D455FD5
:103D86004C4546543A2000206D696E757465732C57
:103D96002066756C6C20696E74657276616C732032
:103DA60072656D61696E696E673A200054494D45CA
:103DB600525F535441525445443A200020696E7470
:103DC600657276616C7320C3972000206D696E75ED
:103DD600746573203D2000206D696E7574657320CF
:103DE600746F74616C004144584C3334350046613D
:103DF600696C656420746F20696E697469616C69A9
:103E06007A65204144584C33343521004D61676E44
:103E16006574206E6F742064657465637465642EC2
:103E26002057616974696E672E2E2E004D61676E8C
:103E360065742064657465637465642E004D41473E
:103E460054494D45525F5245414459005345545FCC
:103E5600434F4C4F52004D414754494D45525F41E7
:103E66004354495645004D414754494D45525F46D6
:103E76004C415348004D414754494D45525F5354B8
:103E8600414E444259004552524F523A20496E76AD
:103E9600616C696420636F6C6F72206D6F6465007E
:103EA6004F4B3A20436F6C6F722075706461746576
:103EB60064005345545F4D414754494D45525F494F
:103EC6004E54455256414C004F4B3A20496E74654C
:103ED6007276616C20757064617465640045525237
:103EE6004F523A20496E74657276616C206D757317
:103EF6007420626520312D3130005345545F4252A3
:103F0600494748544E455353004F4B3A2042726935
:103F16006768746E65737320757064617465640098
:103F26004745545F53455454494E475300534554EF
:103F360054494E47533A4143544956455F434F4CC3
:103F46003D002C007C464C4153485F434F4C3D009E
:103F56007C5354414E4442595F434F4C3D007C498B
:103F66004E54455256414C3D007C425249474854B6
:103F76003D0053544152545F54494D45520043410C
:103F86004E43454C5F54494D45520050494E4700FB
:103F96004D414754494D45525F504F4E47003D3DB8
:103FA6003D20544150204445544543544544202D1A
:103FB6002050524F43455353494E47203D3D3D0007
:103FC60053746F7070696E6720666C617368696E92
:103FD600672E2E2E0052455455524E45445F544F7F
:103FE6005F5354414E4442590043616E63656C6CA5
:103FF600696E67206163746976652074696D6572A0
:104006002E2E2E0043616E63656C6C696E6720749C
:10401600696D65722073657474696E672E2E2E0045
:1040260054696D65722073657474696E6720737464
:104036006172746564202D207475726E206B6E6FCC
:104046006220746F207365742074696D650054690D
:104056006D65723A2000206D696E75746573207403
:104066006F74616C2C20646567726565733A200015
:104076005374617274696E672074696D657220612C
:1040860075746F6D61746963616C6C792E2E2E0088
:1040960054494D45525F46494E49534845440000F0
:00000001FF
